{
	"data": {
		"bytecode": {
			"linkReferences": {},
			"object": "6080604052600a600b5562278d00600e556014600f5569d3c21bcecceda100000060105534801561002e575f5ffd5b50335f73ffffffffffffffffffffffffffffffffffffffff168173ffffffffffffffffffffffffffffffffffffffff16036100a0575f6040517f1e4fbdf700000000000000000000000000000000000000000000000000000000815260040161009791906101bc565b60405180910390fd5b6100af816100bc60201b60201c565b50600180819055506101d5565b5f5f5f9054906101000a900473ffffffffffffffffffffffffffffffffffffffff169050815f5f6101000a81548173ffffffffffffffffffffffffffffffffffffffff021916908373ffffffffffffffffffffffffffffffffffffffff1602179055508173ffffffffffffffffffffffffffffffffffffffff168173ffffffffffffffffffffffffffffffffffffffff167f8be0079c531659141344cd1fd0a4f28419497f9722a3daafe3b4186f6b6457e060405160405180910390a35050565b5f73ffffffffffffffffffffffffffffffffffffffff82169050919050565b5f6101a68261017d565b9050919050565b6101b68161019c565b82525050565b5f6020820190506101cf5f8301846101ad565b92915050565b6132d2806101e25f395ff3fe608060405234801561000f575f5ffd5b5060043610610230575f3560e01c806364cb61421161012e578063dd69becd116100b6578063f03f80c31161007a578063f03f80c314610686578063f1ea7692146106a4578063f2fde38b146106c2578063f3482650146106de578063f6cc51571461070e57610230565b8063dd69becd146105f6578063e275c99714610612578063e90b0d7614610630578063e927e7c01461064c578063eab35b771461066857610230565b8063848ff684116100fd578063848ff684146105625780638da5cb5b1461057e57806394d9b2351461059c578063c2362dd5146105ba578063ccc8362c146105d857610230565b806364cb6142146104ec578063715018a61461050a5780637ecebe00146105145780638119185b1461054457610230565b806325d5971f116101bc578063519445e211610180578063519445e2146104205780635829b3c71461043e57806358ba9d271461046e5780635c975abb1461049e5780635e2a9fa2146104bc57610230565b806325d5971f1461037957806331fdc2ba14610395578063430bf08a146103b157806345626bd6146103cf5780634ff0876a1461040257610230565b8063158ef93e11610203578063158ef93e146102d157806316330d40146102ef57806316934fc41461030d57806316c38b3c1461033f5780631bff38cd1461035b57610230565b8063011a4568146102345780630524fb7e1461026457806305c50a35146102805780630fd7bf50146102b3575b5f5ffd5b61024e600480360381019061024991906123b3565b61072c565b60405161025b91906123f6565b60405180910390f35b61027e60048036038101906102799190612439565b610741565b005b61029a600480360381019061029591906123b3565b610a52565b6040516102aa9493929190612464565b60405180910390f35b6102bb610a7e565b6040516102c89190612502565b60405180910390f35b6102d9610aa3565b6040516102e69190612535565b60405180910390f35b6102f7610ab6565b60405161030491906123f6565b60405180910390f35b610327600480360381019061032291906123b3565b610abc565b6040516103369392919061254e565b60405180910390f35b610359600480360381019061035491906125ad565b610ae2565b005b610363610b3d565b60405161037091906123f6565b60405180910390f35b610393600480360381019061038e9190612439565b610b43565b005b6103af60048036038101906103aa91906125d8565b610e52565b005b6103b9610f3e565b6040516103c69190612625565b60405180910390f35b6103e960048036038101906103e491906125d8565b610f63565b6040516103f99493929190612464565b60405180910390f35b61040a610fa9565b60405161041791906123f6565b60405180910390f35b610428610faf565b60405161043591906123f6565b60405180910390f35b610458600480360381019061045391906123b3565b610fb5565b60405161046591906123f6565b60405180910390f35b610488600480360381019061048391906123b3565b610fca565b60405161049591906123f6565b60405180910390f35b6104a6610fdf565b6040516104b39190612535565b60405180910390f35b6104d660048036038101906104d191906123b3565b610ff1565b6040516104e391906123f6565b60405180910390f35b6104f4611006565b60405161050191906123f6565b60405180910390f35b61051261100c565b005b61052e600480360381019061052991906123b3565b61101f565b60405161053b91906123f6565b60405180910390f35b61054c611034565b60405161055991906123f6565b60405180910390f35b61057c60048036038101906105779190612679565b61103a565b005b61058661117d565b6040516105939190612625565b60405180910390f35b6105a46111a4565b6040516105b191906123f6565b60405180910390f35b6105c26111aa565b6040516105cf91906123f6565b60405180910390f35b6105e06111b0565b6040516105ed91906123f6565b60405180910390f35b610610600480360381019061060b9190612439565b6111b6565b005b61061a61168a565b60405161062791906123f6565b60405180910390f35b61064a60048036038101906106459190612866565b611690565b005b610666600480360381019061066191906128c0565b611a6b565b005b610670611d8e565b60405161067d91906123f6565b60405180910390f35b61068e611d94565b60405161069b91906123f6565b60405180910390f35b6106ac611d9a565b6040516106b991906123f6565b60405180910390f35b6106dc60048036038101906106d791906123b3565b611da0565b005b6106f860048036038101906106f391906123b3565b611e24565b60405161070591906123f6565b60405180910390f35b610716611e39565b60405161072391906123f6565b60405180910390f35b6015602052805f5260405f205f915090505481565b60115f9054906101000a900460ff1615610790576040517f08c379a000000000000000000000000000000000000000000000000000000000815260040161078790612958565b60405180910390fd5b610798611e3f565b601160019054906101000a900460ff166107e7576040517f08c379a00000000000000000000000000000000000000000000000000000000081526004016107de906129c0565b60405180910390fd5b60025f9054906101000a900473ffffffffffffffffffffffffffffffffffffffff1673ffffffffffffffffffffffffffffffffffffffff166323b872dd33601b5f9054906101000a900473ffffffffffffffffffffffffffffffffffffffff16846040518463ffffffff1660e01b8152600401610866939291906129de565b6020604051808303815f875af1158015610882573d5f5f3e3d5ffd5b505050506040513d601f19601f820116820180604052508101906108a69190612a27565b6108e5576040517f08c379a00000000000000000000000000000000000000000000000000000000081526004016108dc90612a9c565b60405180910390fd5b5f60185f3373ffffffffffffffffffffffffffffffffffffffff1673ffffffffffffffffffffffffffffffffffffffff1681526020019081526020015f2090505f81600201540361098157428160020181905550606460195f3373ffffffffffffffffffffffffffffffffffffffff1673ffffffffffffffffffffffffffffffffffffffff1681526020019081526020015f20819055506109d6565b600a60195f3373ffffffffffffffffffffffffffffffffffffffff1673ffffffffffffffffffffffffffffffffffffffff1681526020019081526020015f205f8282546109ce9190612ae7565b925050819055505b81815f015f8282546109e89190612ae7565b925050819055504281600101819055503373ffffffffffffffffffffffffffffffffffffffff167f6afd9b8c734cbfeda8ba55afbdd1ac413bf617456b50196186371d2cc95b857283604051610a3e91906123f6565b60405180910390a250610a4f611e8e565b50565b6017602052805f5260405f205f91509050805f0154908060010154908060020154908060030154905084565b60025f9054906101000a900473ffffffffffffffffffffffffffffffffffffffff1681565b601160019054906101000a900460ff1681565b600b5481565b6018602052805f5260405f205f91509050805f0154908060010154908060020154905083565b610aea611e97565b8060115f6101000a81548160ff0219169083151502179055507f0e2fb031ee032dc02d8011dc50b816eb450cf856abd8261680dac74f72165bd281604051610b329190612535565b60405180910390a150565b600a5481565b60115f9054906101000a900460ff1615610b92576040517f08c379a0000000000000000000000000000000000000000000000000000000008152600401610b8990612958565b60405180910390fd5b610b9a611e3f565b601160019054906101000a900460ff16610be9576040517f08c379a0000000000000000000000000000000000000000000000000000000008152600401610be0906129c0565b60405180910390fd5b5f60185f3373ffffffffffffffffffffffffffffffffffffffff1673ffffffffffffffffffffffffffffffffffffffff1681526020019081526020015f209050805f0154821115610c6f576040517f08c379a0000000000000000000000000000000000000000000000000000000008152600401610c6690612b64565b60405180910390fd5b5f5f905062093a808260020154610c869190612ae7565b421015610caa576064600b5484610c9d9190612b82565b610ca79190612bf0565b90505b5f8184610cb79190612c20565b905083835f015f828254610ccb9190612c20565b92505081905550601b5f9054906101000a900473ffffffffffffffffffffffffffffffffffffffff1673ffffffffffffffffffffffffffffffffffffffff1663f3fef3a333836040518363ffffffff1660e01b8152600401610d2e929190612c53565b5f604051808303815f87803b158015610d45575f5ffd5b505af1158015610d57573d5f5f3e3d5ffd5b505050505f821115610df457601b5f9054906101000a900473ffffffffffffffffffffffffffffffffffffffff1673ffffffffffffffffffffffffffffffffffffffff1663f3fef3a3610da861117d565b846040518363ffffffff1660e01b8152600401610dc6929190612c53565b5f604051808303815f87803b158015610ddd575f5ffd5b505af1158015610def573d5f5f3e3d5ffd5b505050505b3373ffffffffffffffffffffffffffffffffffffffff167f933735aa8de6d7547d0126171b2f31b9c34dd00f3ecd4be85a0ba047db4fafef8284604051610e3c929190612c7a565b60405180910390a2505050610e4f611e8e565b50565b610e5a611e97565b5f8111610e68576064610e6b565b60785b60ff1660165f8473ffffffffffffffffffffffffffffffffffffffff1673ffffffffffffffffffffffffffffffffffffffff1681526020019081526020015f20819055508173ffffffffffffffffffffffffffffffffffffffff167fabcc9b515858a553f53609bb223669708665910a51030d923c842de23f09991360165f8573ffffffffffffffffffffffffffffffffffffffff1673ffffffffffffffffffffffffffffffffffffffff1681526020019081526020015f2054604051610f3291906123f6565b60405180910390a25050565b601b5f9054906101000a900473ffffffffffffffffffffffffffffffffffffffff1681565b601a602052815f5260405f208181548110610f7c575f80fd5b905f5260205f2090600402015f9150915050805f0154908060010154908060020154908060030154905084565b600d5481565b60065481565b6016602052805f5260405f205f915090505481565b6019602052805f5260405f205f915090505481565b60115f9054906101000a900460ff1681565b6014602052805f5260405f205f915090505481565b60095481565b611014611e97565b61101d5f611f1e565b565b6012602052805f5260405f205f915090505481565b600e5481565b611042611e97565b601160019054906101000a900460ff1615611092576040517f08c379a000000000000000000000000000000000000000000000000000000000815260040161108990612ceb565b60405180910390fd5b8760025f6101000a81548173ffffffffffffffffffffffffffffffffffffffff021916908373ffffffffffffffffffffffffffffffffffffffff16021790555086600381905550856004819055505f6005819055505f600681905550846007819055505f6008819055508360098190555082600a8190555081600d8190555043600c8190555080601b5f6101000a81548173ffffffffffffffffffffffffffffffffffffffff021916908373ffffffffffffffffffffffffffffffffffffffff1602179055506001601160016101000a81548160ff0219169083151502179055505050505050505050565b5f5f5f9054906101000a900473ffffffffffffffffffffffffffffffffffffffff16905090565b600f5481565b600c5481565b60045481565b60115f9054906101000a900460ff1615611205576040517f08c379a00000000000000000000000000000000000000000000000000000000081526004016111fc90612958565b60405180910390fd5b61120d611e3f565b601160019054906101000a900460ff1661125c576040517f08c379a0000000000000000000000000000000000000000000000000000000008152600401611253906129c0565b60405180910390fd5b8060125f3373ffffffffffffffffffffffffffffffffffffffff1673ffffffffffffffffffffffffffffffffffffffff1681526020019081526020015f2054146112db576040517f08c379a00000000000000000000000000000000000000000000000000000000081526004016112d290612d53565b60405180910390fd5b60125f3373ffffffffffffffffffffffffffffffffffffffff1673ffffffffffffffffffffffffffffffffffffffff1681526020019081526020015f205f81548092919061132890612d71565b91905055505f60185f3373ffffffffffffffffffffffffffffffffffffffff1673ffffffffffffffffffffffffffffffffffffffff1681526020019081526020015f2090505f8160020154036113b3576040517f08c379a00000000000000000000000000000000000000000000000000000000081526004016113aa90612e02565b60405180910390fd5b5f8160010154426113c49190612c20565b90505f8111611408576040517f08c379a00000000000000000000000000000000000000000000000000000000081526004016113ff90612e6a565b60405180910390fd5b5f60045490506009546008541115611439576064600a5460045461142c9190612b82565b6114369190612bf0565b90505b5f5f60165f3373ffffffffffffffffffffffffffffffffffffffff1673ffffffffffffffffffffffffffffffffffffffff1681526020019081526020015f2054146114c15760165f3373ffffffffffffffffffffffffffffffffffffffff1673ffffffffffffffffffffffffffffffffffffffff1681526020019081526020015f20546114c4565b60645b9050606481836114d49190612b82565b6114de9190612bf0565b91505f8383865f01546114f19190612b82565b6114fb9190612b82565b9050606460195f3373ffffffffffffffffffffffffffffffffffffffff1673ffffffffffffffffffffffffffffffffffffffff1681526020019081526020015f2054826115489190612b82565b6115529190612bf0565b9050600e5485600101546115669190612ae7565b42111561159a575f6064600f548361157e9190612b82565b6115889190612bf0565b905080826115969190612c20565b9150505b42856001018190555060025f9054906101000a900473ffffffffffffffffffffffffffffffffffffffff1673ffffffffffffffffffffffffffffffffffffffff166340c10f1933836040518363ffffffff1660e01b81526004016115ff929190612c53565b5f604051808303815f87803b158015611616575f5ffd5b505af1158015611628573d5f5f3e3d5ffd5b505050503373ffffffffffffffffffffffffffffffffffffffff167f4dd465eb9d4bf90caf3400cc334c731b4cef0aa7f013e5d72f20b0cec2e30ea98260405161167291906123f6565b60405180910390a25050505050611687611e8e565b50565b60055481565b60115f9054906101000a900460ff16156116df576040517f08c379a00000000000000000000000000000000000000000000000000000000081526004016116d690612958565b60405180910390fd5b6116e7611e3f565b601160019054906101000a900460ff16611736576040517f08c379a000000000000000000000000000000000000000000000000000000000815260040161172d906129c0565b60405180910390fd5b8160125f3373ffffffffffffffffffffffffffffffffffffffff1673ffffffffffffffffffffffffffffffffffffffff1681526020019081526020015f2054146117b5576040517f08c379a00000000000000000000000000000000000000000000000000000000081526004016117ac90612d53565b60405180910390fd5b6117c0338383611fdf565b6117ff576040517f08c379a00000000000000000000000000000000000000000000000000000000081526004016117f690612ed2565b60405180910390fd5b60125f3373ffffffffffffffffffffffffffffffffffffffff1673ffffffffffffffffffffffffffffffffffffffff1681526020019081526020015f205f81548092919061184c90612d71565b91905055505f60175f3373ffffffffffffffffffffffffffffffffffffffff1673ffffffffffffffffffffffffffffffffffffffff1681526020019081526020015f20905060075481600301546118a39190612ae7565b4210156118e5576040517f08c379a00000000000000000000000000000000000000000000000000000000081526004016118dc90612f3a565b60405180910390fd5b5f816002015490505f811161192f576040517f08c379a000000000000000000000000000000000000000000000000000000000815260040161192690612fa2565b60405180910390fd5b601054811115611974576040517f08c379a000000000000000000000000000000000000000000000000000000000815260040161196b9061300a565b60405180910390fd5b5f826002018190555042826003018190555060025f9054906101000a900473ffffffffffffffffffffffffffffffffffffffff1673ffffffffffffffffffffffffffffffffffffffff166340c10f1933836040518363ffffffff1660e01b81526004016119e2929190612c53565b5f604051808303815f87803b1580156119f9575f5ffd5b505af1158015611a0b573d5f5f3e3d5ffd5b505050503373ffffffffffffffffffffffffffffffffffffffff167fb127973bf29d1dae6424fef4f7461e0b9c444636ab23a8392d9969500034a13d82604051611a5591906123f6565b60405180910390a25050611a67611e8e565b5050565b60115f9054906101000a900460ff1615611aba576040517f08c379a0000000000000000000000000000000000000000000000000000000008152600401611ab190612958565b60405180910390fd5b611ac2611e3f565b601160019054906101000a900460ff16611b11576040517f08c379a0000000000000000000000000000000000000000000000000000000008152600401611b08906129c0565b60405180910390fd5b600d54600c54611b219190612ae7565b4310611b36575f60068190555043600c819055505b600160055f828254611b489190612ae7565b925050819055508160065f828254611b609190612ae7565b925050819055508160085f828254611b789190612ae7565b925050819055505f60175f3373ffffffffffffffffffffffffffffffffffffffff1673ffffffffffffffffffffffffffffffffffffffff1681526020019081526020015f2090506001815f015f828254611bd29190612ae7565b9250508190555082816001015f828254611bec9190612ae7565b925050819055505f60095460065410611c06576064611c09565b60965b60ff1690505f60648260035487611c209190612b82565b611c2a9190612b82565b611c349190612bf0565b905080836002015f828254611c499190612ae7565b925050819055508315611cba57606485611c639190612bf0565b60145f3373ffffffffffffffffffffffffffffffffffffffff1673ffffffffffffffffffffffffffffffffffffffff1681526020019081526020015f205f828254611cae9190612ae7565b92505081905550611d1a565b606485611cc79190612bf0565b60155f3373ffffffffffffffffffffffffffffffffffffffff1673ffffffffffffffffffffffffffffffffffffffff1681526020019081526020015f205f828254611d129190612ae7565b925050819055505b5f836003015403611d2f574283600301819055505b3373ffffffffffffffffffffffffffffffffffffffff167f4b85156045f2844cf6b638ff8a8ddb82c940ccdbe3c46e6e67d2583722c7dc718686604051611d77929190613028565b60405180910390a2505050611d8a611e8e565b5050565b60085481565b60105481565b60075481565b611da8611e97565b5f73ffffffffffffffffffffffffffffffffffffffff168173ffffffffffffffffffffffffffffffffffffffff1603611e18575f6040517f1e4fbdf7000000000000000000000000000000000000000000000000000000008152600401611e0f9190612625565b60405180910390fd5b611e2181611f1e565b50565b6013602052805f5260405f205f915090505481565b60035481565b600260015403611e84576040517f08c379a0000000000000000000000000000000000000000000000000000000008152600401611e7b90613099565b60405180910390fd5b6002600181905550565b60018081905550565b611e9f612079565b73ffffffffffffffffffffffffffffffffffffffff16611ebd61117d565b73ffffffffffffffffffffffffffffffffffffffff1614611f1c57611ee0612079565b6040517f118cdaa7000000000000000000000000000000000000000000000000000000008152600401611f139190612625565b60405180910390fd5b565b5f5f5f9054906101000a900473ffffffffffffffffffffffffffffffffffffffff169050815f5f6101000a81548173ffffffffffffffffffffffffffffffffffffffff021916908373ffffffffffffffffffffffffffffffffffffffff1602179055508173ffffffffffffffffffffffffffffffffffffffff168173ffffffffffffffffffffffffffffffffffffffff167f8be0079c531659141344cd1fd0a4f28419497f9722a3daafe3b4186f6b6457e060405160405180910390a35050565b5f5f8484604051602001611ff492919061311c565b6040516020818303038152906040528051906020012090505f8160405160200161201e91906131c4565b6040516020818303038152906040528051906020012090508573ffffffffffffffffffffffffffffffffffffffff166120578286612080565b73ffffffffffffffffffffffffffffffffffffffff1614925050509392505050565b5f33905090565b5f5f5f5f61208e86866120aa565b92509250925061209e82826120ff565b82935050505092915050565b5f5f5f60418451036120ea575f5f5f602087015192506040870151915060608701515f1a90506120dc88828585612261565b9550955095505050506120f8565b5f600285515f1b9250925092505b9250925092565b5f6003811115612112576121116131e9565b5b826003811115612125576121246131e9565b5b031561225d576001600381111561213f5761213e6131e9565b5b826003811115612152576121516131e9565b5b03612189576040517ff645eedf00000000000000000000000000000000000000000000000000000000815260040160405180910390fd5b6002600381111561219d5761219c6131e9565b5b8260038111156121b0576121af6131e9565b5b036121f457805f1c6040517ffce698f70000000000000000000000000000000000000000000000000000000081526004016121eb91906123f6565b60405180910390fd5b600380811115612207576122066131e9565b5b82600381111561221a576122196131e9565b5b0361225c57806040517fd78bce0c0000000000000000000000000000000000000000000000000000000081526004016122539190613225565b60405180910390fd5b5b5050565b5f5f5f7f7fffffffffffffffffffffffffffffff5d576e7357a4501ddfe92f46681b20a0845f1c111561229d575f60038592509250925061233e565b5f6001888888886040515f81526020016040526040516122c09493929190613259565b6020604051602081039080840390855afa1580156122e0573d5f5f3e3d5ffd5b5050506020604051035190505f73ffffffffffffffffffffffffffffffffffffffff168173ffffffffffffffffffffffffffffffffffffffff1603612331575f60015f5f1b9350935093505061233e565b805f5f5f1b935093509350505b9450945094915050565b5f604051905090565b5f5ffd5b5f5ffd5b5f73ffffffffffffffffffffffffffffffffffffffff82169050919050565b5f61238282612359565b9050919050565b61239281612378565b811461239c575f5ffd5b50565b5f813590506123ad81612389565b92915050565b5f602082840312156123c8576123c7612351565b5b5f6123d58482850161239f565b91505092915050565b5f819050919050565b6123f0816123de565b82525050565b5f6020820190506124095f8301846123e7565b92915050565b612418816123de565b8114612422575f5ffd5b50565b5f813590506124338161240f565b92915050565b5f6020828403121561244e5761244d612351565b5b5f61245b84828501612425565b91505092915050565b5f6080820190506124775f8301876123e7565b61248460208301866123e7565b61249160408301856123e7565b61249e60608301846123e7565b95945050505050565b5f819050919050565b5f6124ca6124c56124c084612359565b6124a7565b612359565b9050919050565b5f6124db826124b0565b9050919050565b5f6124ec826124d1565b9050919050565b6124fc816124e2565b82525050565b5f6020820190506125155f8301846124f3565b92915050565b5f8115159050919050565b61252f8161251b565b82525050565b5f6020820190506125485f830184612526565b92915050565b5f6060820190506125615f8301866123e7565b61256e60208301856123e7565b61257b60408301846123e7565b949350505050565b61258c8161251b565b8114612596575f5ffd5b50565b5f813590506125a781612583565b92915050565b5f602082840312156125c2576125c1612351565b5b5f6125cf84828501612599565b91505092915050565b5f5f604083850312156125ee576125ed612351565b5b5f6125fb8582860161239f565b925050602061260c85828601612425565b9150509250929050565b61261f81612378565b82525050565b5f6020820190506126385f830184612616565b92915050565b5f61264882612378565b9050919050565b6126588161263e565b8114612662575f5ffd5b50565b5f813590506126738161264f565b92915050565b5f5f5f5f5f5f5f5f610100898b03121561269657612695612351565b5b5f6126a38b828c01612665565b98505060206126b48b828c01612425565b97505060406126c58b828c01612425565b96505060606126d68b828c01612425565b95505060806126e78b828c01612425565b94505060a06126f88b828c01612425565b93505060c06127098b828c01612425565b92505060e061271a8b828c0161239f565b9150509295985092959890939650565b5f5ffd5b5f5ffd5b5f601f19601f8301169050919050565b7f4e487b71000000000000000000000000000000000000000000000000000000005f52604160045260245ffd5b61277882612732565b810181811067ffffffffffffffff8211171561279757612796612742565b5b80604052505050565b5f6127a9612348565b90506127b5828261276f565b919050565b5f67ffffffffffffffff8211156127d4576127d3612742565b5b6127dd82612732565b9050602081019050919050565b828183375f83830152505050565b5f61280a612805846127ba565b6127a0565b9050828152602081018484840111156128265761282561272e565b5b6128318482856127ea565b509392505050565b5f82601f83011261284d5761284c61272a565b5b813561285d8482602086016127f8565b91505092915050565b5f5f6040838503121561287c5761287b612351565b5b5f61288985828601612425565b925050602083013567ffffffffffffffff8111156128aa576128a9612355565b5b6128b685828601612839565b9150509250929050565b5f5f604083850312156128d6576128d5612351565b5b5f6128e385828601612425565b92505060206128f485828601612599565b9150509250929050565b5f82825260208201905092915050565b7f436f6e74726163742069732070617573656400000000000000000000000000005f82015250565b5f6129426012836128fe565b915061294d8261290e565b602082019050919050565b5f6020820190508181035f83015261296f81612936565b9050919050565b7f4e6f7420696e697469616c697a656400000000000000000000000000000000005f82015250565b5f6129aa600f836128fe565b91506129b582612976565b602082019050919050565b5f6020820190508181035f8301526129d78161299e565b9050919050565b5f6060820190506129f15f830186612616565b6129fe6020830185612616565b612a0b60408301846123e7565b949350505050565b5f81519050612a2181612583565b92915050565b5f60208284031215612a3c57612a3b612351565b5b5f612a4984828501612a13565b91505092915050565b7f5472616e73666572206661696c656400000000000000000000000000000000005f82015250565b5f612a86600f836128fe565b9150612a9182612a52565b602082019050919050565b5f6020820190508181035f830152612ab381612a7a565b9050919050565b7f4e487b71000000000000000000000000000000000000000000000000000000005f52601160045260245ffd5b5f612af1826123de565b9150612afc836123de565b9250828201905080821115612b1457612b13612aba565b5b92915050565b7f496e73756666696369656e74207374616b656420616d6f756e740000000000005f82015250565b5f612b4e601a836128fe565b9150612b5982612b1a565b602082019050919050565b5f6020820190508181035f830152612b7b81612b42565b9050919050565b5f612b8c826123de565b9150612b97836123de565b9250828202612ba5816123de565b91508282048414831517612bbc57612bbb612aba565b5b5092915050565b7f4e487b71000000000000000000000000000000000000000000000000000000005f52601260045260245ffd5b5f612bfa826123de565b9150612c05836123de565b925082612c1557612c14612bc3565b5b828204905092915050565b5f612c2a826123de565b9150612c35836123de565b9250828203905081811115612c4d57612c4c612aba565b5b92915050565b5f604082019050612c665f830185612616565b612c7360208301846123e7565b9392505050565b5f604082019050612c8d5f8301856123e7565b612c9a60208301846123e7565b9392505050565b7f416c726561647920696e697469616c697a6564000000000000000000000000005f82015250565b5f612cd56013836128fe565b9150612ce082612ca1565b602082019050919050565b5f6020820190508181035f830152612d0281612cc9565b9050919050565b7f496e76616c6964206e6f6e6365000000000000000000000000000000000000005f82015250565b5f612d3d600d836128fe565b9150612d4882612d09565b602082019050919050565b5f6020820190508181035f830152612d6a81612d31565b9050919050565b5f612d7b826123de565b91507fffffffffffffffffffffffffffffffffffffffffffffffffffffffffffffffff8203612dad57612dac612aba565b5b600182019050919050565b7f4e6f207374616b6520666f756e640000000000000000000000000000000000005f82015250565b5f612dec600e836128fe565b9150612df782612db8565b602082019050919050565b5f6020820190508181035f830152612e1981612de0565b9050919050565b7f4e6f2074696d6520656c617073656400000000000000000000000000000000005f82015250565b5f612e54600f836128fe565b9150612e5f82612e20565b602082019050919050565b5f6020820190508181035f830152612e8181612e48565b9050919050565b7f496e76616c6964207369676e61747572650000000000000000000000000000005f82015250565b5f612ebc6011836128fe565b9150612ec782612e88565b602082019050919050565b5f6020820190508181035f830152612ee981612eb0565b9050919050565b7f45706f6368206475726174696f6e206e6f7420656e64656400000000000000005f82015250565b5f612f246018836128fe565b9150612f2f82612ef0565b602082019050919050565b5f6020820190508181035f830152612f5181612f18565b9050919050565b7f4e6f2070656e64696e67207265776172647300000000000000000000000000005f82015250565b5f612f8c6012836128fe565b9150612f9782612f58565b602082019050919050565b5f6020820190508181035f830152612fb981612f80565b9050919050565b7f5265776172642065786365656473206d617820636c61696d61626c65000000005f82015250565b5f612ff4601c836128fe565b9150612fff82612fc0565b602082019050919050565b5f6020820190508181035f83015261302181612fe8565b9050919050565b5f60408201905061303b5f8301856123e7565b6130486020830184612526565b9392505050565b7f5265656e7472616e637947756172643a207265656e7472616e742063616c6c005f82015250565b5f613083601f836128fe565b915061308e8261304f565b602082019050919050565b5f6020820190508181035f8301526130b081613077565b9050919050565b5f8160601b9050919050565b5f6130cd826130b7565b9050919050565b5f6130de826130c3565b9050919050565b6130f66130f182612378565b6130d4565b82525050565b5f819050919050565b613116613111826123de565b6130fc565b82525050565b5f61312782856130e5565b6014820191506131378284613105565b6020820191508190509392505050565b5f81905092915050565b7f19457468657265756d205369676e6564204d6573736167653a0a3332000000005f82015250565b5f613185601c83613147565b915061319082613151565b601c82019050919050565b5f819050919050565b5f819050919050565b6131be6131b98261319b565b6131a4565b82525050565b5f6131ce82613179565b91506131da82846131ad565b60208201915081905092915050565b7f4e487b71000000000000000000000000000000000000000000000000000000005f52602160045260245ffd5b61321f8161319b565b82525050565b5f6020820190506132385f830184613216565b92915050565b5f60ff82169050919050565b6132538161323e565b82525050565b5f60808201905061326c5f830187613216565b613279602083018661324a565b6132866040830185613216565b6132936060830184613216565b9594505050505056fea26469706673582212206a87094f0f185b690d1d9958d3f3862b780c5f9a998921fdb10d239be1937c3264736f6c634300081c0033",
			"opcodes": "PUSH1 0x80 PUSH1 0x40 MSTORE PUSH1 0xA PUSH1 0xB SSTORE PUSH3 0x278D00 PUSH1 0xE SSTORE PUSH1 0x14 PUSH1 0xF SSTORE PUSH10 0xD3C21BCECCEDA1000000 PUSH1 0x10 SSTORE CALLVALUE DUP1 ISZERO PUSH2 0x2E JUMPI PUSH0 PUSH0 REVERT JUMPDEST POP CALLER PUSH0 PUSH20 0xFFFFFFFFFFFFFFFFFFFFFFFFFFFFFFFFFFFFFFFF AND DUP2 PUSH20 0xFFFFFFFFFFFFFFFFFFFFFFFFFFFFFFFFFFFFFFFF AND SUB PUSH2 0xA0 JUMPI PUSH0 PUSH1 0x40 MLOAD PUSH32 0x1E4FBDF700000000000000000000000000000000000000000000000000000000 DUP2 MSTORE PUSH1 0x4 ADD PUSH2 0x97 SWAP2 SWAP1 PUSH2 0x1BC JUMP JUMPDEST PUSH1 0x40 MLOAD DUP1 SWAP2 SUB SWAP1 REVERT JUMPDEST PUSH2 0xAF DUP2 PUSH2 0xBC PUSH1 0x20 SHL PUSH1 0x20 SHR JUMP JUMPDEST POP PUSH1 0x1 DUP1 DUP2 SWAP1 SSTORE POP PUSH2 0x1D5 JUMP JUMPDEST PUSH0 PUSH0 PUSH0 SWAP1 SLOAD SWAP1 PUSH2 0x100 EXP SWAP1 DIV PUSH20 0xFFFFFFFFFFFFFFFFFFFFFFFFFFFFFFFFFFFFFFFF AND SWAP1 POP DUP2 PUSH0 PUSH0 PUSH2 0x100 EXP DUP2 SLOAD DUP2 PUSH20 0xFFFFFFFFFFFFFFFFFFFFFFFFFFFFFFFFFFFFFFFF MUL NOT AND SWAP1 DUP4 PUSH20 0xFFFFFFFFFFFFFFFFFFFFFFFFFFFFFFFFFFFFFFFF AND MUL OR SWAP1 SSTORE POP DUP2 PUSH20 0xFFFFFFFFFFFFFFFFFFFFFFFFFFFFFFFFFFFFFFFF AND DUP2 PUSH20 0xFFFFFFFFFFFFFFFFFFFFFFFFFFFFFFFFFFFFFFFF AND PUSH32 0x8BE0079C531659141344CD1FD0A4F28419497F9722A3DAAFE3B4186F6B6457E0 PUSH1 0x40 MLOAD PUSH1 0x40 MLOAD DUP1 SWAP2 SUB SWAP1 LOG3 POP POP JUMP JUMPDEST PUSH0 PUSH20 0xFFFFFFFFFFFFFFFFFFFFFFFFFFFFFFFFFFFFFFFF DUP3 AND SWAP1 POP SWAP2 SWAP1 POP JUMP JUMPDEST PUSH0 PUSH2 0x1A6 DUP3 PUSH2 0x17D JUMP JUMPDEST SWAP1 POP SWAP2 SWAP1 POP JUMP JUMPDEST PUSH2 0x1B6 DUP2 PUSH2 0x19C JUMP JUMPDEST DUP3 MSTORE POP POP JUMP JUMPDEST PUSH0 PUSH1 0x20 DUP3 ADD SWAP1 POP PUSH2 0x1CF PUSH0 DUP4 ADD DUP5 PUSH2 0x1AD JUMP JUMPDEST SWAP3 SWAP2 POP POP JUMP JUMPDEST PUSH2 0x32D2 DUP1 PUSH2 0x1E2 PUSH0 CODECOPY PUSH0 RETURN INVALID PUSH1 0x80 PUSH1 0x40 MSTORE CALLVALUE DUP1 ISZERO PUSH2 0xF JUMPI PUSH0 PUSH0 REVERT JUMPDEST POP PUSH1 0x4 CALLDATASIZE LT PUSH2 0x230 JUMPI PUSH0 CALLDATALOAD PUSH1 0xE0 SHR DUP1 PUSH4 0x64CB6142 GT PUSH2 0x12E JUMPI DUP1 PUSH4 0xDD69BECD GT PUSH2 0xB6 JUMPI DUP1 PUSH4 0xF03F80C3 GT PUSH2 0x7A JUMPI DUP1 PUSH4 0xF03F80C3 EQ PUSH2 0x686 JUMPI DUP1 PUSH4 0xF1EA7692 EQ PUSH2 0x6A4 JUMPI DUP1 PUSH4 0xF2FDE38B EQ PUSH2 0x6C2 JUMPI DUP1 PUSH4 0xF3482650 EQ PUSH2 0x6DE JUMPI DUP1 PUSH4 0xF6CC5157 EQ PUSH2 0x70E JUMPI PUSH2 0x230 JUMP JUMPDEST DUP1 PUSH4 0xDD69BECD EQ PUSH2 0x5F6 JUMPI DUP1 PUSH4 0xE275C997 EQ PUSH2 0x612 JUMPI DUP1 PUSH4 0xE90B0D76 EQ PUSH2 0x630 JUMPI DUP1 PUSH4 0xE927E7C0 EQ PUSH2 0x64C JUMPI DUP1 PUSH4 0xEAB35B77 EQ PUSH2 0x668 JUMPI PUSH2 0x230 JUMP JUMPDEST DUP1 PUSH4 0x848FF684 GT PUSH2 0xFD JUMPI DUP1 PUSH4 0x848FF684 EQ PUSH2 0x562 JUMPI DUP1 PUSH4 0x8DA5CB5B EQ PUSH2 0x57E JUMPI DUP1 PUSH4 0x94D9B235 EQ PUSH2 0x59C JUMPI DUP1 PUSH4 0xC2362DD5 EQ PUSH2 0x5BA JUMPI DUP1 PUSH4 0xCCC8362C EQ PUSH2 0x5D8 JUMPI PUSH2 0x230 JUMP JUMPDEST DUP1 PUSH4 0x64CB6142 EQ PUSH2 0x4EC JUMPI DUP1 PUSH4 0x715018A6 EQ PUSH2 0x50A JUMPI DUP1 PUSH4 0x7ECEBE00 EQ PUSH2 0x514 JUMPI DUP1 PUSH4 0x8119185B EQ PUSH2 0x544 JUMPI PUSH2 0x230 JUMP JUMPDEST DUP1 PUSH4 0x25D5971F GT PUSH2 0x1BC JUMPI DUP1 PUSH4 0x519445E2 GT PUSH2 0x180 JUMPI DUP1 PUSH4 0x519445E2 EQ PUSH2 0x420 JUMPI DUP1 PUSH4 0x5829B3C7 EQ PUSH2 0x43E JUMPI DUP1 PUSH4 0x58BA9D27 EQ PUSH2 0x46E JUMPI DUP1 PUSH4 0x5C975ABB EQ PUSH2 0x49E JUMPI DUP1 PUSH4 0x5E2A9FA2 EQ PUSH2 0x4BC JUMPI PUSH2 0x230 JUMP JUMPDEST DUP1 PUSH4 0x25D5971F EQ PUSH2 0x379 JUMPI DUP1 PUSH4 0x31FDC2BA EQ PUSH2 0x395 JUMPI DUP1 PUSH4 0x430BF08A EQ PUSH2 0x3B1 JUMPI DUP1 PUSH4 0x45626BD6 EQ PUSH2 0x3CF JUMPI DUP1 PUSH4 0x4FF0876A EQ PUSH2 0x402 JUMPI PUSH2 0x230 JUMP JUMPDEST DUP1 PUSH4 0x158EF93E GT PUSH2 0x203 JUMPI DUP1 PUSH4 0x158EF93E EQ PUSH2 0x2D1 JUMPI DUP1 PUSH4 0x16330D40 EQ PUSH2 0x2EF JUMPI DUP1 PUSH4 0x16934FC4 EQ PUSH2 0x30D JUMPI DUP1 PUSH4 0x16C38B3C EQ PUSH2 0x33F JUMPI DUP1 PUSH4 0x1BFF38CD EQ PUSH2 0x35B JUMPI PUSH2 0x230 JUMP JUMPDEST DUP1 PUSH4 0x11A4568 EQ PUSH2 0x234 JUMPI DUP1 PUSH4 0x524FB7E EQ PUSH2 0x264 JUMPI DUP1 PUSH4 0x5C50A35 EQ PUSH2 0x280 JUMPI DUP1 PUSH4 0xFD7BF50 EQ PUSH2 0x2B3 JUMPI JUMPDEST PUSH0 PUSH0 REVERT JUMPDEST PUSH2 0x24E PUSH1 0x4 DUP1 CALLDATASIZE SUB DUP2 ADD SWAP1 PUSH2 0x249 SWAP2 SWAP1 PUSH2 0x23B3 JUMP JUMPDEST PUSH2 0x72C JUMP JUMPDEST PUSH1 0x40 MLOAD PUSH2 0x25B SWAP2 SWAP1 PUSH2 0x23F6 JUMP JUMPDEST PUSH1 0x40 MLOAD DUP1 SWAP2 SUB SWAP1 RETURN JUMPDEST PUSH2 0x27E PUSH1 0x4 DUP1 CALLDATASIZE SUB DUP2 ADD SWAP1 PUSH2 0x279 SWAP2 SWAP1 PUSH2 0x2439 JUMP JUMPDEST PUSH2 0x741 JUMP JUMPDEST STOP JUMPDEST PUSH2 0x29A PUSH1 0x4 DUP1 CALLDATASIZE SUB DUP2 ADD SWAP1 PUSH2 0x295 SWAP2 SWAP1 PUSH2 0x23B3 JUMP JUMPDEST PUSH2 0xA52 JUMP JUMPDEST PUSH1 0x40 MLOAD PUSH2 0x2AA SWAP5 SWAP4 SWAP3 SWAP2 SWAP1 PUSH2 0x2464 JUMP JUMPDEST PUSH1 0x40 MLOAD DUP1 SWAP2 SUB SWAP1 RETURN JUMPDEST PUSH2 0x2BB PUSH2 0xA7E JUMP JUMPDEST PUSH1 0x40 MLOAD PUSH2 0x2C8 SWAP2 SWAP1 PUSH2 0x2502 JUMP JUMPDEST PUSH1 0x40 MLOAD DUP1 SWAP2 SUB SWAP1 RETURN JUMPDEST PUSH2 0x2D9 PUSH2 0xAA3 JUMP JUMPDEST PUSH1 0x40 MLOAD PUSH2 0x2E6 SWAP2 SWAP1 PUSH2 0x2535 JUMP JUMPDEST PUSH1 0x40 MLOAD DUP1 SWAP2 SUB SWAP1 RETURN JUMPDEST PUSH2 0x2F7 PUSH2 0xAB6 JUMP JUMPDEST PUSH1 0x40 MLOAD PUSH2 0x304 SWAP2 SWAP1 PUSH2 0x23F6 JUMP JUMPDEST PUSH1 0x40 MLOAD DUP1 SWAP2 SUB SWAP1 RETURN JUMPDEST PUSH2 0x327 PUSH1 0x4 DUP1 CALLDATASIZE SUB DUP2 ADD SWAP1 PUSH2 0x322 SWAP2 SWAP1 PUSH2 0x23B3 JUMP JUMPDEST PUSH2 0xABC JUMP JUMPDEST PUSH1 0x40 MLOAD PUSH2 0x336 SWAP4 SWAP3 SWAP2 SWAP1 PUSH2 0x254E JUMP JUMPDEST PUSH1 0x40 MLOAD DUP1 SWAP2 SUB SWAP1 RETURN JUMPDEST PUSH2 0x359 PUSH1 0x4 DUP1 CALLDATASIZE SUB DUP2 ADD SWAP1 PUSH2 0x354 SWAP2 SWAP1 PUSH2 0x25AD JUMP JUMPDEST PUSH2 0xAE2 JUMP JUMPDEST STOP JUMPDEST PUSH2 0x363 PUSH2 0xB3D JUMP JUMPDEST PUSH1 0x40 MLOAD PUSH2 0x370 SWAP2 SWAP1 PUSH2 0x23F6 JUMP JUMPDEST PUSH1 0x40 MLOAD DUP1 SWAP2 SUB SWAP1 RETURN JUMPDEST PUSH2 0x393 PUSH1 0x4 DUP1 CALLDATASIZE SUB DUP2 ADD SWAP1 PUSH2 0x38E SWAP2 SWAP1 PUSH2 0x2439 JUMP JUMPDEST PUSH2 0xB43 JUMP JUMPDEST STOP JUMPDEST PUSH2 0x3AF PUSH1 0x4 DUP1 CALLDATASIZE SUB DUP2 ADD SWAP1 PUSH2 0x3AA SWAP2 SWAP1 PUSH2 0x25D8 JUMP JUMPDEST PUSH2 0xE52 JUMP JUMPDEST STOP JUMPDEST PUSH2 0x3B9 PUSH2 0xF3E JUMP JUMPDEST PUSH1 0x40 MLOAD PUSH2 0x3C6 SWAP2 SWAP1 PUSH2 0x2625 JUMP JUMPDEST PUSH1 0x40 MLOAD DUP1 SWAP2 SUB SWAP1 RETURN JUMPDEST PUSH2 0x3E9 PUSH1 0x4 DUP1 CALLDATASIZE SUB DUP2 ADD SWAP1 PUSH2 0x3E4 SWAP2 SWAP1 PUSH2 0x25D8 JUMP JUMPDEST PUSH2 0xF63 JUMP JUMPDEST PUSH1 0x40 MLOAD PUSH2 0x3F9 SWAP5 SWAP4 SWAP3 SWAP2 SWAP1 PUSH2 0x2464 JUMP JUMPDEST PUSH1 0x40 MLOAD DUP1 SWAP2 SUB SWAP1 RETURN JUMPDEST PUSH2 0x40A PUSH2 0xFA9 JUMP JUMPDEST PUSH1 0x40 MLOAD PUSH2 0x417 SWAP2 SWAP1 PUSH2 0x23F6 JUMP JUMPDEST PUSH1 0x40 MLOAD DUP1 SWAP2 SUB SWAP1 RETURN JUMPDEST PUSH2 0x428 PUSH2 0xFAF JUMP JUMPDEST PUSH1 0x40 MLOAD PUSH2 0x435 SWAP2 SWAP1 PUSH2 0x23F6 JUMP JUMPDEST PUSH1 0x40 MLOAD DUP1 SWAP2 SUB SWAP1 RETURN JUMPDEST PUSH2 0x458 PUSH1 0x4 DUP1 CALLDATASIZE SUB DUP2 ADD SWAP1 PUSH2 0x453 SWAP2 SWAP1 PUSH2 0x23B3 JUMP JUMPDEST PUSH2 0xFB5 JUMP JUMPDEST PUSH1 0x40 MLOAD PUSH2 0x465 SWAP2 SWAP1 PUSH2 0x23F6 JUMP JUMPDEST PUSH1 0x40 MLOAD DUP1 SWAP2 SUB SWAP1 RETURN JUMPDEST PUSH2 0x488 PUSH1 0x4 DUP1 CALLDATASIZE SUB DUP2 ADD SWAP1 PUSH2 0x483 SWAP2 SWAP1 PUSH2 0x23B3 JUMP JUMPDEST PUSH2 0xFCA JUMP JUMPDEST PUSH1 0x40 MLOAD PUSH2 0x495 SWAP2 SWAP1 PUSH2 0x23F6 JUMP JUMPDEST PUSH1 0x40 MLOAD DUP1 SWAP2 SUB SWAP1 RETURN JUMPDEST PUSH2 0x4A6 PUSH2 0xFDF JUMP JUMPDEST PUSH1 0x40 MLOAD PUSH2 0x4B3 SWAP2 SWAP1 PUSH2 0x2535 JUMP JUMPDEST PUSH1 0x40 MLOAD DUP1 SWAP2 SUB SWAP1 RETURN JUMPDEST PUSH2 0x4D6 PUSH1 0x4 DUP1 CALLDATASIZE SUB DUP2 ADD SWAP1 PUSH2 0x4D1 SWAP2 SWAP1 PUSH2 0x23B3 JUMP JUMPDEST PUSH2 0xFF1 JUMP JUMPDEST PUSH1 0x40 MLOAD PUSH2 0x4E3 SWAP2 SWAP1 PUSH2 0x23F6 JUMP JUMPDEST PUSH1 0x40 MLOAD DUP1 SWAP2 SUB SWAP1 RETURN JUMPDEST PUSH2 0x4F4 PUSH2 0x1006 JUMP JUMPDEST PUSH1 0x40 MLOAD PUSH2 0x501 SWAP2 SWAP1 PUSH2 0x23F6 JUMP JUMPDEST PUSH1 0x40 MLOAD DUP1 SWAP2 SUB SWAP1 RETURN JUMPDEST PUSH2 0x512 PUSH2 0x100C JUMP JUMPDEST STOP JUMPDEST PUSH2 0x52E PUSH1 0x4 DUP1 CALLDATASIZE SUB DUP2 ADD SWAP1 PUSH2 0x529 SWAP2 SWAP1 PUSH2 0x23B3 JUMP JUMPDEST PUSH2 0x101F JUMP JUMPDEST PUSH1 0x40 MLOAD PUSH2 0x53B SWAP2 SWAP1 PUSH2 0x23F6 JUMP JUMPDEST PUSH1 0x40 MLOAD DUP1 SWAP2 SUB SWAP1 RETURN JUMPDEST PUSH2 0x54C PUSH2 0x1034 JUMP JUMPDEST PUSH1 0x40 MLOAD PUSH2 0x559 SWAP2 SWAP1 PUSH2 0x23F6 JUMP JUMPDEST PUSH1 0x40 MLOAD DUP1 SWAP2 SUB SWAP1 RETURN JUMPDEST PUSH2 0x57C PUSH1 0x4 DUP1 CALLDATASIZE SUB DUP2 ADD SWAP1 PUSH2 0x577 SWAP2 SWAP1 PUSH2 0x2679 JUMP JUMPDEST PUSH2 0x103A JUMP JUMPDEST STOP JUMPDEST PUSH2 0x586 PUSH2 0x117D JUMP JUMPDEST PUSH1 0x40 MLOAD PUSH2 0x593 SWAP2 SWAP1 PUSH2 0x2625 JUMP JUMPDEST PUSH1 0x40 MLOAD DUP1 SWAP2 SUB SWAP1 RETURN JUMPDEST PUSH2 0x5A4 PUSH2 0x11A4 JUMP JUMPDEST PUSH1 0x40 MLOAD PUSH2 0x5B1 SWAP2 SWAP1 PUSH2 0x23F6 JUMP JUMPDEST PUSH1 0x40 MLOAD DUP1 SWAP2 SUB SWAP1 RETURN JUMPDEST PUSH2 0x5C2 PUSH2 0x11AA JUMP JUMPDEST PUSH1 0x40 MLOAD PUSH2 0x5CF SWAP2 SWAP1 PUSH2 0x23F6 JUMP JUMPDEST PUSH1 0x40 MLOAD DUP1 SWAP2 SUB SWAP1 RETURN JUMPDEST PUSH2 0x5E0 PUSH2 0x11B0 JUMP JUMPDEST PUSH1 0x40 MLOAD PUSH2 0x5ED SWAP2 SWAP1 PUSH2 0x23F6 JUMP JUMPDEST PUSH1 0x40 MLOAD DUP1 SWAP2 SUB SWAP1 RETURN JUMPDEST PUSH2 0x610 PUSH1 0x4 DUP1 CALLDATASIZE SUB DUP2 ADD SWAP1 PUSH2 0x60B SWAP2 SWAP1 PUSH2 0x2439 JUMP JUMPDEST PUSH2 0x11B6 JUMP JUMPDEST STOP JUMPDEST PUSH2 0x61A PUSH2 0x168A JUMP JUMPDEST PUSH1 0x40 MLOAD PUSH2 0x627 SWAP2 SWAP1 PUSH2 0x23F6 JUMP JUMPDEST PUSH1 0x40 MLOAD DUP1 SWAP2 SUB SWAP1 RETURN JUMPDEST PUSH2 0x64A PUSH1 0x4 DUP1 CALLDATASIZE SUB DUP2 ADD SWAP1 PUSH2 0x645 SWAP2 SWAP1 PUSH2 0x2866 JUMP JUMPDEST PUSH2 0x1690 JUMP JUMPDEST STOP JUMPDEST PUSH2 0x666 PUSH1 0x4 DUP1 CALLDATASIZE SUB DUP2 ADD SWAP1 PUSH2 0x661 SWAP2 SWAP1 PUSH2 0x28C0 JUMP JUMPDEST PUSH2 0x1A6B JUMP JUMPDEST STOP JUMPDEST PUSH2 0x670 PUSH2 0x1D8E JUMP JUMPDEST PUSH1 0x40 MLOAD PUSH2 0x67D SWAP2 SWAP1 PUSH2 0x23F6 JUMP JUMPDEST PUSH1 0x40 MLOAD DUP1 SWAP2 SUB SWAP1 RETURN JUMPDEST PUSH2 0x68E PUSH2 0x1D94 JUMP JUMPDEST PUSH1 0x40 MLOAD PUSH2 0x69B SWAP2 SWAP1 PUSH2 0x23F6 JUMP JUMPDEST PUSH1 0x40 MLOAD DUP1 SWAP2 SUB SWAP1 RETURN JUMPDEST PUSH2 0x6AC PUSH2 0x1D9A JUMP JUMPDEST PUSH1 0x40 MLOAD PUSH2 0x6B9 SWAP2 SWAP1 PUSH2 0x23F6 JUMP JUMPDEST PUSH1 0x40 MLOAD DUP1 SWAP2 SUB SWAP1 RETURN JUMPDEST PUSH2 0x6DC PUSH1 0x4 DUP1 CALLDATASIZE SUB DUP2 ADD SWAP1 PUSH2 0x6D7 SWAP2 SWAP1 PUSH2 0x23B3 JUMP JUMPDEST PUSH2 0x1DA0 JUMP JUMPDEST STOP JUMPDEST PUSH2 0x6F8 PUSH1 0x4 DUP1 CALLDATASIZE SUB DUP2 ADD SWAP1 PUSH2 0x6F3 SWAP2 SWAP1 PUSH2 0x23B3 JUMP JUMPDEST PUSH2 0x1E24 JUMP JUMPDEST PUSH1 0x40 MLOAD PUSH2 0x705 SWAP2 SWAP1 PUSH2 0x23F6 JUMP JUMPDEST PUSH1 0x40 MLOAD DUP1 SWAP2 SUB SWAP1 RETURN JUMPDEST PUSH2 0x716 PUSH2 0x1E39 JUMP JUMPDEST PUSH1 0x40 MLOAD PUSH2 0x723 SWAP2 SWAP1 PUSH2 0x23F6 JUMP JUMPDEST PUSH1 0x40 MLOAD DUP1 SWAP2 SUB SWAP1 RETURN JUMPDEST PUSH1 0x15 PUSH1 0x20 MSTORE DUP1 PUSH0 MSTORE PUSH1 0x40 PUSH0 KECCAK256 PUSH0 SWAP2 POP SWAP1 POP SLOAD DUP2 JUMP JUMPDEST PUSH1 0x11 PUSH0 SWAP1 SLOAD SWAP1 PUSH2 0x100 EXP SWAP1 DIV PUSH1 0xFF AND ISZERO PUSH2 0x790 JUMPI PUSH1 0x40 MLOAD PUSH32 0x8C379A000000000000000000000000000000000000000000000000000000000 DUP2 MSTORE PUSH1 0x4 ADD PUSH2 0x787 SWAP1 PUSH2 0x2958 JUMP JUMPDEST PUSH1 0x40 MLOAD DUP1 SWAP2 SUB SWAP1 REVERT JUMPDEST PUSH2 0x798 PUSH2 0x1E3F JUMP JUMPDEST PUSH1 0x11 PUSH1 0x1 SWAP1 SLOAD SWAP1 PUSH2 0x100 EXP SWAP1 DIV PUSH1 0xFF AND PUSH2 0x7E7 JUMPI PUSH1 0x40 MLOAD PUSH32 0x8C379A000000000000000000000000000000000000000000000000000000000 DUP2 MSTORE PUSH1 0x4 ADD PUSH2 0x7DE SWAP1 PUSH2 0x29C0 JUMP JUMPDEST PUSH1 0x40 MLOAD DUP1 SWAP2 SUB SWAP1 REVERT JUMPDEST PUSH1 0x2 PUSH0 SWAP1 SLOAD SWAP1 PUSH2 0x100 EXP SWAP1 DIV PUSH20 0xFFFFFFFFFFFFFFFFFFFFFFFFFFFFFFFFFFFFFFFF AND PUSH20 0xFFFFFFFFFFFFFFFFFFFFFFFFFFFFFFFFFFFFFFFF AND PUSH4 0x23B872DD CALLER PUSH1 0x1B PUSH0 SWAP1 SLOAD SWAP1 PUSH2 0x100 EXP SWAP1 DIV PUSH20 0xFFFFFFFFFFFFFFFFFFFFFFFFFFFFFFFFFFFFFFFF AND DUP5 PUSH1 0x40 MLOAD DUP5 PUSH4 0xFFFFFFFF AND PUSH1 0xE0 SHL DUP2 MSTORE PUSH1 0x4 ADD PUSH2 0x866 SWAP4 SWAP3 SWAP2 SWAP1 PUSH2 0x29DE JUMP JUMPDEST PUSH1 0x20 PUSH1 0x40 MLOAD DUP1 DUP4 SUB DUP2 PUSH0 DUP8 GAS CALL ISZERO DUP1 ISZERO PUSH2 0x882 JUMPI RETURNDATASIZE PUSH0 PUSH0 RETURNDATACOPY RETURNDATASIZE PUSH0 REVERT JUMPDEST POP POP POP POP PUSH1 0x40 MLOAD RETURNDATASIZE PUSH1 0x1F NOT PUSH1 0x1F DUP3 ADD AND DUP3 ADD DUP1 PUSH1 0x40 MSTORE POP DUP2 ADD SWAP1 PUSH2 0x8A6 SWAP2 SWAP1 PUSH2 0x2A27 JUMP JUMPDEST PUSH2 0x8E5 JUMPI PUSH1 0x40 MLOAD PUSH32 0x8C379A000000000000000000000000000000000000000000000000000000000 DUP2 MSTORE PUSH1 0x4 ADD PUSH2 0x8DC SWAP1 PUSH2 0x2A9C JUMP JUMPDEST PUSH1 0x40 MLOAD DUP1 SWAP2 SUB SWAP1 REVERT JUMPDEST PUSH0 PUSH1 0x18 PUSH0 CALLER PUSH20 0xFFFFFFFFFFFFFFFFFFFFFFFFFFFFFFFFFFFFFFFF AND PUSH20 0xFFFFFFFFFFFFFFFFFFFFFFFFFFFFFFFFFFFFFFFF AND DUP2 MSTORE PUSH1 0x20 ADD SWAP1 DUP2 MSTORE PUSH1 0x20 ADD PUSH0 KECCAK256 SWAP1 POP PUSH0 DUP2 PUSH1 0x2 ADD SLOAD SUB PUSH2 0x981 JUMPI TIMESTAMP DUP2 PUSH1 0x2 ADD DUP2 SWAP1 SSTORE POP PUSH1 0x64 PUSH1 0x19 PUSH0 CALLER PUSH20 0xFFFFFFFFFFFFFFFFFFFFFFFFFFFFFFFFFFFFFFFF AND PUSH20 0xFFFFFFFFFFFFFFFFFFFFFFFFFFFFFFFFFFFFFFFF AND DUP2 MSTORE PUSH1 0x20 ADD SWAP1 DUP2 MSTORE PUSH1 0x20 ADD PUSH0 KECCAK256 DUP2 SWAP1 SSTORE POP PUSH2 0x9D6 JUMP JUMPDEST PUSH1 0xA PUSH1 0x19 PUSH0 CALLER PUSH20 0xFFFFFFFFFFFFFFFFFFFFFFFFFFFFFFFFFFFFFFFF AND PUSH20 0xFFFFFFFFFFFFFFFFFFFFFFFFFFFFFFFFFFFFFFFF AND DUP2 MSTORE PUSH1 0x20 ADD SWAP1 DUP2 MSTORE PUSH1 0x20 ADD PUSH0 KECCAK256 PUSH0 DUP3 DUP3 SLOAD PUSH2 0x9CE SWAP2 SWAP1 PUSH2 0x2AE7 JUMP JUMPDEST SWAP3 POP POP DUP2 SWAP1 SSTORE POP JUMPDEST DUP2 DUP2 PUSH0 ADD PUSH0 DUP3 DUP3 SLOAD PUSH2 0x9E8 SWAP2 SWAP1 PUSH2 0x2AE7 JUMP JUMPDEST SWAP3 POP POP DUP2 SWAP1 SSTORE POP TIMESTAMP DUP2 PUSH1 0x1 ADD DUP2 SWAP1 SSTORE POP CALLER PUSH20 0xFFFFFFFFFFFFFFFFFFFFFFFFFFFFFFFFFFFFFFFF AND PUSH32 0x6AFD9B8C734CBFEDA8BA55AFBDD1AC413BF617456B50196186371D2CC95B8572 DUP4 PUSH1 0x40 MLOAD PUSH2 0xA3E SWAP2 SWAP1 PUSH2 0x23F6 JUMP JUMPDEST PUSH1 0x40 MLOAD DUP1 SWAP2 SUB SWAP1 LOG2 POP PUSH2 0xA4F PUSH2 0x1E8E JUMP JUMPDEST POP JUMP JUMPDEST PUSH1 0x17 PUSH1 0x20 MSTORE DUP1 PUSH0 MSTORE PUSH1 0x40 PUSH0 KECCAK256 PUSH0 SWAP2 POP SWAP1 POP DUP1 PUSH0 ADD SLOAD SWAP1 DUP1 PUSH1 0x1 ADD SLOAD SWAP1 DUP1 PUSH1 0x2 ADD SLOAD SWAP1 DUP1 PUSH1 0x3 ADD SLOAD SWAP1 POP DUP5 JUMP JUMPDEST PUSH1 0x2 PUSH0 SWAP1 SLOAD SWAP1 PUSH2 0x100 EXP SWAP1 DIV PUSH20 0xFFFFFFFFFFFFFFFFFFFFFFFFFFFFFFFFFFFFFFFF AND DUP2 JUMP JUMPDEST PUSH1 0x11 PUSH1 0x1 SWAP1 SLOAD SWAP1 PUSH2 0x100 EXP SWAP1 DIV PUSH1 0xFF AND DUP2 JUMP JUMPDEST PUSH1 0xB SLOAD DUP2 JUMP JUMPDEST PUSH1 0x18 PUSH1 0x20 MSTORE DUP1 PUSH0 MSTORE PUSH1 0x40 PUSH0 KECCAK256 PUSH0 SWAP2 POP SWAP1 POP DUP1 PUSH0 ADD SLOAD SWAP1 DUP1 PUSH1 0x1 ADD SLOAD SWAP1 DUP1 PUSH1 0x2 ADD SLOAD SWAP1 POP DUP4 JUMP JUMPDEST PUSH2 0xAEA PUSH2 0x1E97 JUMP JUMPDEST DUP1 PUSH1 0x11 PUSH0 PUSH2 0x100 EXP DUP2 SLOAD DUP2 PUSH1 0xFF MUL NOT AND SWAP1 DUP4 ISZERO ISZERO MUL OR SWAP1 SSTORE POP PUSH32 0xE2FB031EE032DC02D8011DC50B816EB450CF856ABD8261680DAC74F72165BD2 DUP2 PUSH1 0x40 MLOAD PUSH2 0xB32 SWAP2 SWAP1 PUSH2 0x2535 JUMP JUMPDEST PUSH1 0x40 MLOAD DUP1 SWAP2 SUB SWAP1 LOG1 POP JUMP JUMPDEST PUSH1 0xA SLOAD DUP2 JUMP JUMPDEST PUSH1 0x11 PUSH0 SWAP1 SLOAD SWAP1 PUSH2 0x100 EXP SWAP1 DIV PUSH1 0xFF AND ISZERO PUSH2 0xB92 JUMPI PUSH1 0x40 MLOAD PUSH32 0x8C379A000000000000000000000000000000000000000000000000000000000 DUP2 MSTORE PUSH1 0x4 ADD PUSH2 0xB89 SWAP1 PUSH2 0x2958 JUMP JUMPDEST PUSH1 0x40 MLOAD DUP1 SWAP2 SUB SWAP1 REVERT JUMPDEST PUSH2 0xB9A PUSH2 0x1E3F JUMP JUMPDEST PUSH1 0x11 PUSH1 0x1 SWAP1 SLOAD SWAP1 PUSH2 0x100 EXP SWAP1 DIV PUSH1 0xFF AND PUSH2 0xBE9 JUMPI PUSH1 0x40 MLOAD PUSH32 0x8C379A000000000000000000000000000000000000000000000000000000000 DUP2 MSTORE PUSH1 0x4 ADD PUSH2 0xBE0 SWAP1 PUSH2 0x29C0 JUMP JUMPDEST PUSH1 0x40 MLOAD DUP1 SWAP2 SUB SWAP1 REVERT JUMPDEST PUSH0 PUSH1 0x18 PUSH0 CALLER PUSH20 0xFFFFFFFFFFFFFFFFFFFFFFFFFFFFFFFFFFFFFFFF AND PUSH20 0xFFFFFFFFFFFFFFFFFFFFFFFFFFFFFFFFFFFFFFFF AND DUP2 MSTORE PUSH1 0x20 ADD SWAP1 DUP2 MSTORE PUSH1 0x20 ADD PUSH0 KECCAK256 SWAP1 POP DUP1 PUSH0 ADD SLOAD DUP3 GT ISZERO PUSH2 0xC6F JUMPI PUSH1 0x40 MLOAD PUSH32 0x8C379A000000000000000000000000000000000000000000000000000000000 DUP2 MSTORE PUSH1 0x4 ADD PUSH2 0xC66 SWAP1 PUSH2 0x2B64 JUMP JUMPDEST PUSH1 0x40 MLOAD DUP1 SWAP2 SUB SWAP1 REVERT JUMPDEST PUSH0 PUSH0 SWAP1 POP PUSH3 0x93A80 DUP3 PUSH1 0x2 ADD SLOAD PUSH2 0xC86 SWAP2 SWAP1 PUSH2 0x2AE7 JUMP JUMPDEST TIMESTAMP LT ISZERO PUSH2 0xCAA JUMPI PUSH1 0x64 PUSH1 0xB SLOAD DUP5 PUSH2 0xC9D SWAP2 SWAP1 PUSH2 0x2B82 JUMP JUMPDEST PUSH2 0xCA7 SWAP2 SWAP1 PUSH2 0x2BF0 JUMP JUMPDEST SWAP1 POP JUMPDEST PUSH0 DUP2 DUP5 PUSH2 0xCB7 SWAP2 SWAP1 PUSH2 0x2C20 JUMP JUMPDEST SWAP1 POP DUP4 DUP4 PUSH0 ADD PUSH0 DUP3 DUP3 SLOAD PUSH2 0xCCB SWAP2 SWAP1 PUSH2 0x2C20 JUMP JUMPDEST SWAP3 POP POP DUP2 SWAP1 SSTORE POP PUSH1 0x1B PUSH0 SWAP1 SLOAD SWAP1 PUSH2 0x100 EXP SWAP1 DIV PUSH20 0xFFFFFFFFFFFFFFFFFFFFFFFFFFFFFFFFFFFFFFFF AND PUSH20 0xFFFFFFFFFFFFFFFFFFFFFFFFFFFFFFFFFFFFFFFF AND PUSH4 0xF3FEF3A3 CALLER DUP4 PUSH1 0x40 MLOAD DUP4 PUSH4 0xFFFFFFFF AND PUSH1 0xE0 SHL DUP2 MSTORE PUSH1 0x4 ADD PUSH2 0xD2E SWAP3 SWAP2 SWAP1 PUSH2 0x2C53 JUMP JUMPDEST PUSH0 PUSH1 0x40 MLOAD DUP1 DUP4 SUB DUP2 PUSH0 DUP8 DUP1 EXTCODESIZE ISZERO DUP1 ISZERO PUSH2 0xD45 JUMPI PUSH0 PUSH0 REVERT JUMPDEST POP GAS CALL ISZERO DUP1 ISZERO PUSH2 0xD57 JUMPI RETURNDATASIZE PUSH0 PUSH0 RETURNDATACOPY RETURNDATASIZE PUSH0 REVERT JUMPDEST POP POP POP POP PUSH0 DUP3 GT ISZERO PUSH2 0xDF4 JUMPI PUSH1 0x1B PUSH0 SWAP1 SLOAD SWAP1 PUSH2 0x100 EXP SWAP1 DIV PUSH20 0xFFFFFFFFFFFFFFFFFFFFFFFFFFFFFFFFFFFFFFFF AND PUSH20 0xFFFFFFFFFFFFFFFFFFFFFFFFFFFFFFFFFFFFFFFF AND PUSH4 0xF3FEF3A3 PUSH2 0xDA8 PUSH2 0x117D JUMP JUMPDEST DUP5 PUSH1 0x40 MLOAD DUP4 PUSH4 0xFFFFFFFF AND PUSH1 0xE0 SHL DUP2 MSTORE PUSH1 0x4 ADD PUSH2 0xDC6 SWAP3 SWAP2 SWAP1 PUSH2 0x2C53 JUMP JUMPDEST PUSH0 PUSH1 0x40 MLOAD DUP1 DUP4 SUB DUP2 PUSH0 DUP8 DUP1 EXTCODESIZE ISZERO DUP1 ISZERO PUSH2 0xDDD JUMPI PUSH0 PUSH0 REVERT JUMPDEST POP GAS CALL ISZERO DUP1 ISZERO PUSH2 0xDEF JUMPI RETURNDATASIZE PUSH0 PUSH0 RETURNDATACOPY RETURNDATASIZE PUSH0 REVERT JUMPDEST POP POP POP POP JUMPDEST CALLER PUSH20 0xFFFFFFFFFFFFFFFFFFFFFFFFFFFFFFFFFFFFFFFF AND PUSH32 0x933735AA8DE6D7547D0126171B2F31B9C34DD00F3ECD4BE85A0BA047DB4FAFEF DUP3 DUP5 PUSH1 0x40 MLOAD PUSH2 0xE3C SWAP3 SWAP2 SWAP1 PUSH2 0x2C7A JUMP JUMPDEST PUSH1 0x40 MLOAD DUP1 SWAP2 SUB SWAP1 LOG2 POP POP POP PUSH2 0xE4F PUSH2 0x1E8E JUMP JUMPDEST POP JUMP JUMPDEST PUSH2 0xE5A PUSH2 0x1E97 JUMP JUMPDEST PUSH0 DUP2 GT PUSH2 0xE68 JUMPI PUSH1 0x64 PUSH2 0xE6B JUMP JUMPDEST PUSH1 0x78 JUMPDEST PUSH1 0xFF AND PUSH1 0x16 PUSH0 DUP5 PUSH20 0xFFFFFFFFFFFFFFFFFFFFFFFFFFFFFFFFFFFFFFFF AND PUSH20 0xFFFFFFFFFFFFFFFFFFFFFFFFFFFFFFFFFFFFFFFF AND DUP2 MSTORE PUSH1 0x20 ADD SWAP1 DUP2 MSTORE PUSH1 0x20 ADD PUSH0 KECCAK256 DUP2 SWAP1 SSTORE POP DUP2 PUSH20 0xFFFFFFFFFFFFFFFFFFFFFFFFFFFFFFFFFFFFFFFF AND PUSH32 0xABCC9B515858A553F53609BB223669708665910A51030D923C842DE23F099913 PUSH1 0x16 PUSH0 DUP6 PUSH20 0xFFFFFFFFFFFFFFFFFFFFFFFFFFFFFFFFFFFFFFFF AND PUSH20 0xFFFFFFFFFFFFFFFFFFFFFFFFFFFFFFFFFFFFFFFF AND DUP2 MSTORE PUSH1 0x20 ADD SWAP1 DUP2 MSTORE PUSH1 0x20 ADD PUSH0 KECCAK256 SLOAD PUSH1 0x40 MLOAD PUSH2 0xF32 SWAP2 SWAP1 PUSH2 0x23F6 JUMP JUMPDEST PUSH1 0x40 MLOAD DUP1 SWAP2 SUB SWAP1 LOG2 POP POP JUMP JUMPDEST PUSH1 0x1B PUSH0 SWAP1 SLOAD SWAP1 PUSH2 0x100 EXP SWAP1 DIV PUSH20 0xFFFFFFFFFFFFFFFFFFFFFFFFFFFFFFFFFFFFFFFF AND DUP2 JUMP JUMPDEST PUSH1 0x1A PUSH1 0x20 MSTORE DUP2 PUSH0 MSTORE PUSH1 0x40 PUSH0 KECCAK256 DUP2 DUP2 SLOAD DUP2 LT PUSH2 0xF7C JUMPI PUSH0 DUP1 REVERT JUMPDEST SWAP1 PUSH0 MSTORE PUSH1 0x20 PUSH0 KECCAK256 SWAP1 PUSH1 0x4 MUL ADD PUSH0 SWAP2 POP SWAP2 POP POP DUP1 PUSH0 ADD SLOAD SWAP1 DUP1 PUSH1 0x1 ADD SLOAD SWAP1 DUP1 PUSH1 0x2 ADD SLOAD SWAP1 DUP1 PUSH1 0x3 ADD SLOAD SWAP1 POP DUP5 JUMP JUMPDEST PUSH1 0xD SLOAD DUP2 JUMP JUMPDEST PUSH1 0x6 SLOAD DUP2 JUMP JUMPDEST PUSH1 0x16 PUSH1 0x20 MSTORE DUP1 PUSH0 MSTORE PUSH1 0x40 PUSH0 KECCAK256 PUSH0 SWAP2 POP SWAP1 POP SLOAD DUP2 JUMP JUMPDEST PUSH1 0x19 PUSH1 0x20 MSTORE DUP1 PUSH0 MSTORE PUSH1 0x40 PUSH0 KECCAK256 PUSH0 SWAP2 POP SWAP1 POP SLOAD DUP2 JUMP JUMPDEST PUSH1 0x11 PUSH0 SWAP1 SLOAD SWAP1 PUSH2 0x100 EXP SWAP1 DIV PUSH1 0xFF AND DUP2 JUMP JUMPDEST PUSH1 0x14 PUSH1 0x20 MSTORE DUP1 PUSH0 MSTORE PUSH1 0x40 PUSH0 KECCAK256 PUSH0 SWAP2 POP SWAP1 POP SLOAD DUP2 JUMP JUMPDEST PUSH1 0x9 SLOAD DUP2 JUMP JUMPDEST PUSH2 0x1014 PUSH2 0x1E97 JUMP JUMPDEST PUSH2 0x101D PUSH0 PUSH2 0x1F1E JUMP JUMPDEST JUMP JUMPDEST PUSH1 0x12 PUSH1 0x20 MSTORE DUP1 PUSH0 MSTORE PUSH1 0x40 PUSH0 KECCAK256 PUSH0 SWAP2 POP SWAP1 POP SLOAD DUP2 JUMP JUMPDEST PUSH1 0xE SLOAD DUP2 JUMP JUMPDEST PUSH2 0x1042 PUSH2 0x1E97 JUMP JUMPDEST PUSH1 0x11 PUSH1 0x1 SWAP1 SLOAD SWAP1 PUSH2 0x100 EXP SWAP1 DIV PUSH1 0xFF AND ISZERO PUSH2 0x1092 JUMPI PUSH1 0x40 MLOAD PUSH32 0x8C379A000000000000000000000000000000000000000000000000000000000 DUP2 MSTORE PUSH1 0x4 ADD PUSH2 0x1089 SWAP1 PUSH2 0x2CEB JUMP JUMPDEST PUSH1 0x40 MLOAD DUP1 SWAP2 SUB SWAP1 REVERT JUMPDEST DUP8 PUSH1 0x2 PUSH0 PUSH2 0x100 EXP DUP2 SLOAD DUP2 PUSH20 0xFFFFFFFFFFFFFFFFFFFFFFFFFFFFFFFFFFFFFFFF MUL NOT AND SWAP1 DUP4 PUSH20 0xFFFFFFFFFFFFFFFFFFFFFFFFFFFFFFFFFFFFFFFF AND MUL OR SWAP1 SSTORE POP DUP7 PUSH1 0x3 DUP2 SWAP1 SSTORE POP DUP6 PUSH1 0x4 DUP2 SWAP1 SSTORE POP PUSH0 PUSH1 0x5 DUP2 SWAP1 SSTORE POP PUSH0 PUSH1 0x6 DUP2 SWAP1 SSTORE POP DUP5 PUSH1 0x7 DUP2 SWAP1 SSTORE POP PUSH0 PUSH1 0x8 DUP2 SWAP1 SSTORE POP DUP4 PUSH1 0x9 DUP2 SWAP1 SSTORE POP DUP3 PUSH1 0xA DUP2 SWAP1 SSTORE POP DUP2 PUSH1 0xD DUP2 SWAP1 SSTORE POP NUMBER PUSH1 0xC DUP2 SWAP1 SSTORE POP DUP1 PUSH1 0x1B PUSH0 PUSH2 0x100 EXP DUP2 SLOAD DUP2 PUSH20 0xFFFFFFFFFFFFFFFFFFFFFFFFFFFFFFFFFFFFFFFF MUL NOT AND SWAP1 DUP4 PUSH20 0xFFFFFFFFFFFFFFFFFFFFFFFFFFFFFFFFFFFFFFFF AND MUL OR SWAP1 SSTORE POP PUSH1 0x1 PUSH1 0x11 PUSH1 0x1 PUSH2 0x100 EXP DUP2 SLOAD DUP2 PUSH1 0xFF MUL NOT AND SWAP1 DUP4 ISZERO ISZERO MUL OR SWAP1 SSTORE POP POP POP POP POP POP POP POP POP JUMP JUMPDEST PUSH0 PUSH0 PUSH0 SWAP1 SLOAD SWAP1 PUSH2 0x100 EXP SWAP1 DIV PUSH20 0xFFFFFFFFFFFFFFFFFFFFFFFFFFFFFFFFFFFFFFFF AND SWAP1 POP SWAP1 JUMP JUMPDEST PUSH1 0xF SLOAD DUP2 JUMP JUMPDEST PUSH1 0xC SLOAD DUP2 JUMP JUMPDEST PUSH1 0x4 SLOAD DUP2 JUMP JUMPDEST PUSH1 0x11 PUSH0 SWAP1 SLOAD SWAP1 PUSH2 0x100 EXP SWAP1 DIV PUSH1 0xFF AND ISZERO PUSH2 0x1205 JUMPI PUSH1 0x40 MLOAD PUSH32 0x8C379A000000000000000000000000000000000000000000000000000000000 DUP2 MSTORE PUSH1 0x4 ADD PUSH2 0x11FC SWAP1 PUSH2 0x2958 JUMP JUMPDEST PUSH1 0x40 MLOAD DUP1 SWAP2 SUB SWAP1 REVERT JUMPDEST PUSH2 0x120D PUSH2 0x1E3F JUMP JUMPDEST PUSH1 0x11 PUSH1 0x1 SWAP1 SLOAD SWAP1 PUSH2 0x100 EXP SWAP1 DIV PUSH1 0xFF AND PUSH2 0x125C JUMPI PUSH1 0x40 MLOAD PUSH32 0x8C379A000000000000000000000000000000000000000000000000000000000 DUP2 MSTORE PUSH1 0x4 ADD PUSH2 0x1253 SWAP1 PUSH2 0x29C0 JUMP JUMPDEST PUSH1 0x40 MLOAD DUP1 SWAP2 SUB SWAP1 REVERT JUMPDEST DUP1 PUSH1 0x12 PUSH0 CALLER PUSH20 0xFFFFFFFFFFFFFFFFFFFFFFFFFFFFFFFFFFFFFFFF AND PUSH20 0xFFFFFFFFFFFFFFFFFFFFFFFFFFFFFFFFFFFFFFFF AND DUP2 MSTORE PUSH1 0x20 ADD SWAP1 DUP2 MSTORE PUSH1 0x20 ADD PUSH0 KECCAK256 SLOAD EQ PUSH2 0x12DB JUMPI PUSH1 0x40 MLOAD PUSH32 0x8C379A000000000000000000000000000000000000000000000000000000000 DUP2 MSTORE PUSH1 0x4 ADD PUSH2 0x12D2 SWAP1 PUSH2 0x2D53 JUMP JUMPDEST PUSH1 0x40 MLOAD DUP1 SWAP2 SUB SWAP1 REVERT JUMPDEST PUSH1 0x12 PUSH0 CALLER PUSH20 0xFFFFFFFFFFFFFFFFFFFFFFFFFFFFFFFFFFFFFFFF AND PUSH20 0xFFFFFFFFFFFFFFFFFFFFFFFFFFFFFFFFFFFFFFFF AND DUP2 MSTORE PUSH1 0x20 ADD SWAP1 DUP2 MSTORE PUSH1 0x20 ADD PUSH0 KECCAK256 PUSH0 DUP2 SLOAD DUP1 SWAP3 SWAP2 SWAP1 PUSH2 0x1328 SWAP1 PUSH2 0x2D71 JUMP JUMPDEST SWAP2 SWAP1 POP SSTORE POP PUSH0 PUSH1 0x18 PUSH0 CALLER PUSH20 0xFFFFFFFFFFFFFFFFFFFFFFFFFFFFFFFFFFFFFFFF AND PUSH20 0xFFFFFFFFFFFFFFFFFFFFFFFFFFFFFFFFFFFFFFFF AND DUP2 MSTORE PUSH1 0x20 ADD SWAP1 DUP2 MSTORE PUSH1 0x20 ADD PUSH0 KECCAK256 SWAP1 POP PUSH0 DUP2 PUSH1 0x2 ADD SLOAD SUB PUSH2 0x13B3 JUMPI PUSH1 0x40 MLOAD PUSH32 0x8C379A000000000000000000000000000000000000000000000000000000000 DUP2 MSTORE PUSH1 0x4 ADD PUSH2 0x13AA SWAP1 PUSH2 0x2E02 JUMP JUMPDEST PUSH1 0x40 MLOAD DUP1 SWAP2 SUB SWAP1 REVERT JUMPDEST PUSH0 DUP2 PUSH1 0x1 ADD SLOAD TIMESTAMP PUSH2 0x13C4 SWAP2 SWAP1 PUSH2 0x2C20 JUMP JUMPDEST SWAP1 POP PUSH0 DUP2 GT PUSH2 0x1408 JUMPI PUSH1 0x40 MLOAD PUSH32 0x8C379A000000000000000000000000000000000000000000000000000000000 DUP2 MSTORE PUSH1 0x4 ADD PUSH2 0x13FF SWAP1 PUSH2 0x2E6A JUMP JUMPDEST PUSH1 0x40 MLOAD DUP1 SWAP2 SUB SWAP1 REVERT JUMPDEST PUSH0 PUSH1 0x4 SLOAD SWAP1 POP PUSH1 0x9 SLOAD PUSH1 0x8 SLOAD GT ISZERO PUSH2 0x1439 JUMPI PUSH1 0x64 PUSH1 0xA SLOAD PUSH1 0x4 SLOAD PUSH2 0x142C SWAP2 SWAP1 PUSH2 0x2B82 JUMP JUMPDEST PUSH2 0x1436 SWAP2 SWAP1 PUSH2 0x2BF0 JUMP JUMPDEST SWAP1 POP JUMPDEST PUSH0 PUSH0 PUSH1 0x16 PUSH0 CALLER PUSH20 0xFFFFFFFFFFFFFFFFFFFFFFFFFFFFFFFFFFFFFFFF AND PUSH20 0xFFFFFFFFFFFFFFFFFFFFFFFFFFFFFFFFFFFFFFFF AND DUP2 MSTORE PUSH1 0x20 ADD SWAP1 DUP2 MSTORE PUSH1 0x20 ADD PUSH0 KECCAK256 SLOAD EQ PUSH2 0x14C1 JUMPI PUSH1 0x16 PUSH0 CALLER PUSH20 0xFFFFFFFFFFFFFFFFFFFFFFFFFFFFFFFFFFFFFFFF AND PUSH20 0xFFFFFFFFFFFFFFFFFFFFFFFFFFFFFFFFFFFFFFFF AND DUP2 MSTORE PUSH1 0x20 ADD SWAP1 DUP2 MSTORE PUSH1 0x20 ADD PUSH0 KECCAK256 SLOAD PUSH2 0x14C4 JUMP JUMPDEST PUSH1 0x64 JUMPDEST SWAP1 POP PUSH1 0x64 DUP2 DUP4 PUSH2 0x14D4 SWAP2 SWAP1 PUSH2 0x2B82 JUMP JUMPDEST PUSH2 0x14DE SWAP2 SWAP1 PUSH2 0x2BF0 JUMP JUMPDEST SWAP2 POP PUSH0 DUP4 DUP4 DUP7 PUSH0 ADD SLOAD PUSH2 0x14F1 SWAP2 SWAP1 PUSH2 0x2B82 JUMP JUMPDEST PUSH2 0x14FB SWAP2 SWAP1 PUSH2 0x2B82 JUMP JUMPDEST SWAP1 POP PUSH1 0x64 PUSH1 0x19 PUSH0 CALLER PUSH20 0xFFFFFFFFFFFFFFFFFFFFFFFFFFFFFFFFFFFFFFFF AND PUSH20 0xFFFFFFFFFFFFFFFFFFFFFFFFFFFFFFFFFFFFFFFF AND DUP2 MSTORE PUSH1 0x20 ADD SWAP1 DUP2 MSTORE PUSH1 0x20 ADD PUSH0 KECCAK256 SLOAD DUP3 PUSH2 0x1548 SWAP2 SWAP1 PUSH2 0x2B82 JUMP JUMPDEST PUSH2 0x1552 SWAP2 SWAP1 PUSH2 0x2BF0 JUMP JUMPDEST SWAP1 POP PUSH1 0xE SLOAD DUP6 PUSH1 0x1 ADD SLOAD PUSH2 0x1566 SWAP2 SWAP1 PUSH2 0x2AE7 JUMP JUMPDEST TIMESTAMP GT ISZERO PUSH2 0x159A JUMPI PUSH0 PUSH1 0x64 PUSH1 0xF SLOAD DUP4 PUSH2 0x157E SWAP2 SWAP1 PUSH2 0x2B82 JUMP JUMPDEST PUSH2 0x1588 SWAP2 SWAP1 PUSH2 0x2BF0 JUMP JUMPDEST SWAP1 POP DUP1 DUP3 PUSH2 0x1596 SWAP2 SWAP1 PUSH2 0x2C20 JUMP JUMPDEST SWAP2 POP POP JUMPDEST TIMESTAMP DUP6 PUSH1 0x1 ADD DUP2 SWAP1 SSTORE POP PUSH1 0x2 PUSH0 SWAP1 SLOAD SWAP1 PUSH2 0x100 EXP SWAP1 DIV PUSH20 0xFFFFFFFFFFFFFFFFFFFFFFFFFFFFFFFFFFFFFFFF AND PUSH20 0xFFFFFFFFFFFFFFFFFFFFFFFFFFFFFFFFFFFFFFFF AND PUSH4 0x40C10F19 CALLER DUP4 PUSH1 0x40 MLOAD DUP4 PUSH4 0xFFFFFFFF AND PUSH1 0xE0 SHL DUP2 MSTORE PUSH1 0x4 ADD PUSH2 0x15FF SWAP3 SWAP2 SWAP1 PUSH2 0x2C53 JUMP JUMPDEST PUSH0 PUSH1 0x40 MLOAD DUP1 DUP4 SUB DUP2 PUSH0 DUP8 DUP1 EXTCODESIZE ISZERO DUP1 ISZERO PUSH2 0x1616 JUMPI PUSH0 PUSH0 REVERT JUMPDEST POP GAS CALL ISZERO DUP1 ISZERO PUSH2 0x1628 JUMPI RETURNDATASIZE PUSH0 PUSH0 RETURNDATACOPY RETURNDATASIZE PUSH0 REVERT JUMPDEST POP POP POP POP CALLER PUSH20 0xFFFFFFFFFFFFFFFFFFFFFFFFFFFFFFFFFFFFFFFF AND PUSH32 0x4DD465EB9D4BF90CAF3400CC334C731B4CEF0AA7F013E5D72F20B0CEC2E30EA9 DUP3 PUSH1 0x40 MLOAD PUSH2 0x1672 SWAP2 SWAP1 PUSH2 0x23F6 JUMP JUMPDEST PUSH1 0x40 MLOAD DUP1 SWAP2 SUB SWAP1 LOG2 POP POP POP POP POP PUSH2 0x1687 PUSH2 0x1E8E JUMP JUMPDEST POP JUMP JUMPDEST PUSH1 0x5 SLOAD DUP2 JUMP JUMPDEST PUSH1 0x11 PUSH0 SWAP1 SLOAD SWAP1 PUSH2 0x100 EXP SWAP1 DIV PUSH1 0xFF AND ISZERO PUSH2 0x16DF JUMPI PUSH1 0x40 MLOAD PUSH32 0x8C379A000000000000000000000000000000000000000000000000000000000 DUP2 MSTORE PUSH1 0x4 ADD PUSH2 0x16D6 SWAP1 PUSH2 0x2958 JUMP JUMPDEST PUSH1 0x40 MLOAD DUP1 SWAP2 SUB SWAP1 REVERT JUMPDEST PUSH2 0x16E7 PUSH2 0x1E3F JUMP JUMPDEST PUSH1 0x11 PUSH1 0x1 SWAP1 SLOAD SWAP1 PUSH2 0x100 EXP SWAP1 DIV PUSH1 0xFF AND PUSH2 0x1736 JUMPI PUSH1 0x40 MLOAD PUSH32 0x8C379A000000000000000000000000000000000000000000000000000000000 DUP2 MSTORE PUSH1 0x4 ADD PUSH2 0x172D SWAP1 PUSH2 0x29C0 JUMP JUMPDEST PUSH1 0x40 MLOAD DUP1 SWAP2 SUB SWAP1 REVERT JUMPDEST DUP2 PUSH1 0x12 PUSH0 CALLER PUSH20 0xFFFFFFFFFFFFFFFFFFFFFFFFFFFFFFFFFFFFFFFF AND PUSH20 0xFFFFFFFFFFFFFFFFFFFFFFFFFFFFFFFFFFFFFFFF AND DUP2 MSTORE PUSH1 0x20 ADD SWAP1 DUP2 MSTORE PUSH1 0x20 ADD PUSH0 KECCAK256 SLOAD EQ PUSH2 0x17B5 JUMPI PUSH1 0x40 MLOAD PUSH32 0x8C379A000000000000000000000000000000000000000000000000000000000 DUP2 MSTORE PUSH1 0x4 ADD PUSH2 0x17AC SWAP1 PUSH2 0x2D53 JUMP JUMPDEST PUSH1 0x40 MLOAD DUP1 SWAP2 SUB SWAP1 REVERT JUMPDEST PUSH2 0x17C0 CALLER DUP4 DUP4 PUSH2 0x1FDF JUMP JUMPDEST PUSH2 0x17FF JUMPI PUSH1 0x40 MLOAD PUSH32 0x8C379A000000000000000000000000000000000000000000000000000000000 DUP2 MSTORE PUSH1 0x4 ADD PUSH2 0x17F6 SWAP1 PUSH2 0x2ED2 JUMP JUMPDEST PUSH1 0x40 MLOAD DUP1 SWAP2 SUB SWAP1 REVERT JUMPDEST PUSH1 0x12 PUSH0 CALLER PUSH20 0xFFFFFFFFFFFFFFFFFFFFFFFFFFFFFFFFFFFFFFFF AND PUSH20 0xFFFFFFFFFFFFFFFFFFFFFFFFFFFFFFFFFFFFFFFF AND DUP2 MSTORE PUSH1 0x20 ADD SWAP1 DUP2 MSTORE PUSH1 0x20 ADD PUSH0 KECCAK256 PUSH0 DUP2 SLOAD DUP1 SWAP3 SWAP2 SWAP1 PUSH2 0x184C SWAP1 PUSH2 0x2D71 JUMP JUMPDEST SWAP2 SWAP1 POP SSTORE POP PUSH0 PUSH1 0x17 PUSH0 CALLER PUSH20 0xFFFFFFFFFFFFFFFFFFFFFFFFFFFFFFFFFFFFFFFF AND PUSH20 0xFFFFFFFFFFFFFFFFFFFFFFFFFFFFFFFFFFFFFFFF AND DUP2 MSTORE PUSH1 0x20 ADD SWAP1 DUP2 MSTORE PUSH1 0x20 ADD PUSH0 KECCAK256 SWAP1 POP PUSH1 0x7 SLOAD DUP2 PUSH1 0x3 ADD SLOAD PUSH2 0x18A3 SWAP2 SWAP1 PUSH2 0x2AE7 JUMP JUMPDEST TIMESTAMP LT ISZERO PUSH2 0x18E5 JUMPI PUSH1 0x40 MLOAD PUSH32 0x8C379A000000000000000000000000000000000000000000000000000000000 DUP2 MSTORE PUSH1 0x4 ADD PUSH2 0x18DC SWAP1 PUSH2 0x2F3A JUMP JUMPDEST PUSH1 0x40 MLOAD DUP1 SWAP2 SUB SWAP1 REVERT JUMPDEST PUSH0 DUP2 PUSH1 0x2 ADD SLOAD SWAP1 POP PUSH0 DUP2 GT PUSH2 0x192F JUMPI PUSH1 0x40 MLOAD PUSH32 0x8C379A000000000000000000000000000000000000000000000000000000000 DUP2 MSTORE PUSH1 0x4 ADD PUSH2 0x1926 SWAP1 PUSH2 0x2FA2 JUMP JUMPDEST PUSH1 0x40 MLOAD DUP1 SWAP2 SUB SWAP1 REVERT JUMPDEST PUSH1 0x10 SLOAD DUP2 GT ISZERO PUSH2 0x1974 JUMPI PUSH1 0x40 MLOAD PUSH32 0x8C379A000000000000000000000000000000000000000000000000000000000 DUP2 MSTORE PUSH1 0x4 ADD PUSH2 0x196B SWAP1 PUSH2 0x300A JUMP JUMPDEST PUSH1 0x40 MLOAD DUP1 SWAP2 SUB SWAP1 REVERT JUMPDEST PUSH0 DUP3 PUSH1 0x2 ADD DUP2 SWAP1 SSTORE POP TIMESTAMP DUP3 PUSH1 0x3 ADD DUP2 SWAP1 SSTORE POP PUSH1 0x2 PUSH0 SWAP1 SLOAD SWAP1 PUSH2 0x100 EXP SWAP1 DIV PUSH20 0xFFFFFFFFFFFFFFFFFFFFFFFFFFFFFFFFFFFFFFFF AND PUSH20 0xFFFFFFFFFFFFFFFFFFFFFFFFFFFFFFFFFFFFFFFF AND PUSH4 0x40C10F19 CALLER DUP4 PUSH1 0x40 MLOAD DUP4 PUSH4 0xFFFFFFFF AND PUSH1 0xE0 SHL DUP2 MSTORE PUSH1 0x4 ADD PUSH2 0x19E2 SWAP3 SWAP2 SWAP1 PUSH2 0x2C53 JUMP JUMPDEST PUSH0 PUSH1 0x40 MLOAD DUP1 DUP4 SUB DUP2 PUSH0 DUP8 DUP1 EXTCODESIZE ISZERO DUP1 ISZERO PUSH2 0x19F9 JUMPI PUSH0 PUSH0 REVERT JUMPDEST POP GAS CALL ISZERO DUP1 ISZERO PUSH2 0x1A0B JUMPI RETURNDATASIZE PUSH0 PUSH0 RETURNDATACOPY RETURNDATASIZE PUSH0 REVERT JUMPDEST POP POP POP POP CALLER PUSH20 0xFFFFFFFFFFFFFFFFFFFFFFFFFFFFFFFFFFFFFFFF AND PUSH32 0xB127973BF29D1DAE6424FEF4F7461E0B9C444636AB23A8392D9969500034A13D DUP3 PUSH1 0x40 MLOAD PUSH2 0x1A55 SWAP2 SWAP1 PUSH2 0x23F6 JUMP JUMPDEST PUSH1 0x40 MLOAD DUP1 SWAP2 SUB SWAP1 LOG2 POP POP PUSH2 0x1A67 PUSH2 0x1E8E JUMP JUMPDEST POP POP JUMP JUMPDEST PUSH1 0x11 PUSH0 SWAP1 SLOAD SWAP1 PUSH2 0x100 EXP SWAP1 DIV PUSH1 0xFF AND ISZERO PUSH2 0x1ABA JUMPI PUSH1 0x40 MLOAD PUSH32 0x8C379A000000000000000000000000000000000000000000000000000000000 DUP2 MSTORE PUSH1 0x4 ADD PUSH2 0x1AB1 SWAP1 PUSH2 0x2958 JUMP JUMPDEST PUSH1 0x40 MLOAD DUP1 SWAP2 SUB SWAP1 REVERT JUMPDEST PUSH2 0x1AC2 PUSH2 0x1E3F JUMP JUMPDEST PUSH1 0x11 PUSH1 0x1 SWAP1 SLOAD SWAP1 PUSH2 0x100 EXP SWAP1 DIV PUSH1 0xFF AND PUSH2 0x1B11 JUMPI PUSH1 0x40 MLOAD PUSH32 0x8C379A000000000000000000000000000000000000000000000000000000000 DUP2 MSTORE PUSH1 0x4 ADD PUSH2 0x1B08 SWAP1 PUSH2 0x29C0 JUMP JUMPDEST PUSH1 0x40 MLOAD DUP1 SWAP2 SUB SWAP1 REVERT JUMPDEST PUSH1 0xD SLOAD PUSH1 0xC SLOAD PUSH2 0x1B21 SWAP2 SWAP1 PUSH2 0x2AE7 JUMP JUMPDEST NUMBER LT PUSH2 0x1B36 JUMPI PUSH0 PUSH1 0x6 DUP2 SWAP1 SSTORE POP NUMBER PUSH1 0xC DUP2 SWAP1 SSTORE POP JUMPDEST PUSH1 0x1 PUSH1 0x5 PUSH0 DUP3 DUP3 SLOAD PUSH2 0x1B48 SWAP2 SWAP1 PUSH2 0x2AE7 JUMP JUMPDEST SWAP3 POP POP DUP2 SWAP1 SSTORE POP DUP2 PUSH1 0x6 PUSH0 DUP3 DUP3 SLOAD PUSH2 0x1B60 SWAP2 SWAP1 PUSH2 0x2AE7 JUMP JUMPDEST SWAP3 POP POP DUP2 SWAP1 SSTORE POP DUP2 PUSH1 0x8 PUSH0 DUP3 DUP3 SLOAD PUSH2 0x1B78 SWAP2 SWAP1 PUSH2 0x2AE7 JUMP JUMPDEST SWAP3 POP POP DUP2 SWAP1 SSTORE POP PUSH0 PUSH1 0x17 PUSH0 CALLER PUSH20 0xFFFFFFFFFFFFFFFFFFFFFFFFFFFFFFFFFFFFFFFF AND PUSH20 0xFFFFFFFFFFFFFFFFFFFFFFFFFFFFFFFFFFFFFFFF AND DUP2 MSTORE PUSH1 0x20 ADD SWAP1 DUP2 MSTORE PUSH1 0x20 ADD PUSH0 KECCAK256 SWAP1 POP PUSH1 0x1 DUP2 PUSH0 ADD PUSH0 DUP3 DUP3 SLOAD PUSH2 0x1BD2 SWAP2 SWAP1 PUSH2 0x2AE7 JUMP JUMPDEST SWAP3 POP POP DUP2 SWAP1 SSTORE POP DUP3 DUP2 PUSH1 0x1 ADD PUSH0 DUP3 DUP3 SLOAD PUSH2 0x1BEC SWAP2 SWAP1 PUSH2 0x2AE7 JUMP JUMPDEST SWAP3 POP POP DUP2 SWAP1 SSTORE POP PUSH0 PUSH1 0x9 SLOAD PUSH1 0x6 SLOAD LT PUSH2 0x1C06 JUMPI PUSH1 0x64 PUSH2 0x1C09 JUMP JUMPDEST PUSH1 0x96 JUMPDEST PUSH1 0xFF AND SWAP1 POP PUSH0 PUSH1 0x64 DUP3 PUSH1 0x3 SLOAD DUP8 PUSH2 0x1C20 SWAP2 SWAP1 PUSH2 0x2B82 JUMP JUMPDEST PUSH2 0x1C2A SWAP2 SWAP1 PUSH2 0x2B82 JUMP JUMPDEST PUSH2 0x1C34 SWAP2 SWAP1 PUSH2 0x2BF0 JUMP JUMPDEST SWAP1 POP DUP1 DUP4 PUSH1 0x2 ADD PUSH0 DUP3 DUP3 SLOAD PUSH2 0x1C49 SWAP2 SWAP1 PUSH2 0x2AE7 JUMP JUMPDEST SWAP3 POP POP DUP2 SWAP1 SSTORE POP DUP4 ISZERO PUSH2 0x1CBA JUMPI PUSH1 0x64 DUP6 PUSH2 0x1C63 SWAP2 SWAP1 PUSH2 0x2BF0 JUMP JUMPDEST PUSH1 0x14 PUSH0 CALLER PUSH20 0xFFFFFFFFFFFFFFFFFFFFFFFFFFFFFFFFFFFFFFFF AND PUSH20 0xFFFFFFFFFFFFFFFFFFFFFFFFFFFFFFFFFFFFFFFF AND DUP2 MSTORE PUSH1 0x20 ADD SWAP1 DUP2 MSTORE PUSH1 0x20 ADD PUSH0 KECCAK256 PUSH0 DUP3 DUP3 SLOAD PUSH2 0x1CAE SWAP2 SWAP1 PUSH2 0x2AE7 JUMP JUMPDEST SWAP3 POP POP DUP2 SWAP1 SSTORE POP PUSH2 0x1D1A JUMP JUMPDEST PUSH1 0x64 DUP6 PUSH2 0x1CC7 SWAP2 SWAP1 PUSH2 0x2BF0 JUMP JUMPDEST PUSH1 0x15 PUSH0 CALLER PUSH20 0xFFFFFFFFFFFFFFFFFFFFFFFFFFFFFFFFFFFFFFFF AND PUSH20 0xFFFFFFFFFFFFFFFFFFFFFFFFFFFFFFFFFFFFFFFF AND DUP2 MSTORE PUSH1 0x20 ADD SWAP1 DUP2 MSTORE PUSH1 0x20 ADD PUSH0 KECCAK256 PUSH0 DUP3 DUP3 SLOAD PUSH2 0x1D12 SWAP2 SWAP1 PUSH2 0x2AE7 JUMP JUMPDEST SWAP3 POP POP DUP2 SWAP1 SSTORE POP JUMPDEST PUSH0 DUP4 PUSH1 0x3 ADD SLOAD SUB PUSH2 0x1D2F JUMPI TIMESTAMP DUP4 PUSH1 0x3 ADD DUP2 SWAP1 SSTORE POP JUMPDEST CALLER PUSH20 0xFFFFFFFFFFFFFFFFFFFFFFFFFFFFFFFFFFFFFFFF AND PUSH32 0x4B85156045F2844CF6B638FF8A8DDB82C940CCDBE3C46E6E67D2583722C7DC71 DUP7 DUP7 PUSH1 0x40 MLOAD PUSH2 0x1D77 SWAP3 SWAP2 SWAP1 PUSH2 0x3028 JUMP JUMPDEST PUSH1 0x40 MLOAD DUP1 SWAP2 SUB SWAP1 LOG2 POP POP POP PUSH2 0x1D8A PUSH2 0x1E8E JUMP JUMPDEST POP POP JUMP JUMPDEST PUSH1 0x8 SLOAD DUP2 JUMP JUMPDEST PUSH1 0x10 SLOAD DUP2 JUMP JUMPDEST PUSH1 0x7 SLOAD DUP2 JUMP JUMPDEST PUSH2 0x1DA8 PUSH2 0x1E97 JUMP JUMPDEST PUSH0 PUSH20 0xFFFFFFFFFFFFFFFFFFFFFFFFFFFFFFFFFFFFFFFF AND DUP2 PUSH20 0xFFFFFFFFFFFFFFFFFFFFFFFFFFFFFFFFFFFFFFFF AND SUB PUSH2 0x1E18 JUMPI PUSH0 PUSH1 0x40 MLOAD PUSH32 0x1E4FBDF700000000000000000000000000000000000000000000000000000000 DUP2 MSTORE PUSH1 0x4 ADD PUSH2 0x1E0F SWAP2 SWAP1 PUSH2 0x2625 JUMP JUMPDEST PUSH1 0x40 MLOAD DUP1 SWAP2 SUB SWAP1 REVERT JUMPDEST PUSH2 0x1E21 DUP2 PUSH2 0x1F1E JUMP JUMPDEST POP JUMP JUMPDEST PUSH1 0x13 PUSH1 0x20 MSTORE DUP1 PUSH0 MSTORE PUSH1 0x40 PUSH0 KECCAK256 PUSH0 SWAP2 POP SWAP1 POP SLOAD DUP2 JUMP JUMPDEST PUSH1 0x3 SLOAD DUP2 JUMP JUMPDEST PUSH1 0x2 PUSH1 0x1 SLOAD SUB PUSH2 0x1E84 JUMPI PUSH1 0x40 MLOAD PUSH32 0x8C379A000000000000000000000000000000000000000000000000000000000 DUP2 MSTORE PUSH1 0x4 ADD PUSH2 0x1E7B SWAP1 PUSH2 0x3099 JUMP JUMPDEST PUSH1 0x40 MLOAD DUP1 SWAP2 SUB SWAP1 REVERT JUMPDEST PUSH1 0x2 PUSH1 0x1 DUP2 SWAP1 SSTORE POP JUMP JUMPDEST PUSH1 0x1 DUP1 DUP2 SWAP1 SSTORE POP JUMP JUMPDEST PUSH2 0x1E9F PUSH2 0x2079 JUMP JUMPDEST PUSH20 0xFFFFFFFFFFFFFFFFFFFFFFFFFFFFFFFFFFFFFFFF AND PUSH2 0x1EBD PUSH2 0x117D JUMP JUMPDEST PUSH20 0xFFFFFFFFFFFFFFFFFFFFFFFFFFFFFFFFFFFFFFFF AND EQ PUSH2 0x1F1C JUMPI PUSH2 0x1EE0 PUSH2 0x2079 JUMP JUMPDEST PUSH1 0x40 MLOAD PUSH32 0x118CDAA700000000000000000000000000000000000000000000000000000000 DUP2 MSTORE PUSH1 0x4 ADD PUSH2 0x1F13 SWAP2 SWAP1 PUSH2 0x2625 JUMP JUMPDEST PUSH1 0x40 MLOAD DUP1 SWAP2 SUB SWAP1 REVERT JUMPDEST JUMP JUMPDEST PUSH0 PUSH0 PUSH0 SWAP1 SLOAD SWAP1 PUSH2 0x100 EXP SWAP1 DIV PUSH20 0xFFFFFFFFFFFFFFFFFFFFFFFFFFFFFFFFFFFFFFFF AND SWAP1 POP DUP2 PUSH0 PUSH0 PUSH2 0x100 EXP DUP2 SLOAD DUP2 PUSH20 0xFFFFFFFFFFFFFFFFFFFFFFFFFFFFFFFFFFFFFFFF MUL NOT AND SWAP1 DUP4 PUSH20 0xFFFFFFFFFFFFFFFFFFFFFFFFFFFFFFFFFFFFFFFF AND MUL OR SWAP1 SSTORE POP DUP2 PUSH20 0xFFFFFFFFFFFFFFFFFFFFFFFFFFFFFFFFFFFFFFFF AND DUP2 PUSH20 0xFFFFFFFFFFFFFFFFFFFFFFFFFFFFFFFFFFFFFFFF AND PUSH32 0x8BE0079C531659141344CD1FD0A4F28419497F9722A3DAAFE3B4186F6B6457E0 PUSH1 0x40 MLOAD PUSH1 0x40 MLOAD DUP1 SWAP2 SUB SWAP1 LOG3 POP POP JUMP JUMPDEST PUSH0 PUSH0 DUP5 DUP5 PUSH1 0x40 MLOAD PUSH1 0x20 ADD PUSH2 0x1FF4 SWAP3 SWAP2 SWAP1 PUSH2 0x311C JUMP JUMPDEST PUSH1 0x40 MLOAD PUSH1 0x20 DUP2 DUP4 SUB SUB DUP2 MSTORE SWAP1 PUSH1 0x40 MSTORE DUP1 MLOAD SWAP1 PUSH1 0x20 ADD KECCAK256 SWAP1 POP PUSH0 DUP2 PUSH1 0x40 MLOAD PUSH1 0x20 ADD PUSH2 0x201E SWAP2 SWAP1 PUSH2 0x31C4 JUMP JUMPDEST PUSH1 0x40 MLOAD PUSH1 0x20 DUP2 DUP4 SUB SUB DUP2 MSTORE SWAP1 PUSH1 0x40 MSTORE DUP1 MLOAD SWAP1 PUSH1 0x20 ADD KECCAK256 SWAP1 POP DUP6 PUSH20 0xFFFFFFFFFFFFFFFFFFFFFFFFFFFFFFFFFFFFFFFF AND PUSH2 0x2057 DUP3 DUP7 PUSH2 0x2080 JUMP JUMPDEST PUSH20 0xFFFFFFFFFFFFFFFFFFFFFFFFFFFFFFFFFFFFFFFF AND EQ SWAP3 POP POP POP SWAP4 SWAP3 POP POP POP JUMP JUMPDEST PUSH0 CALLER SWAP1 POP SWAP1 JUMP JUMPDEST PUSH0 PUSH0 PUSH0 PUSH0 PUSH2 0x208E DUP7 DUP7 PUSH2 0x20AA JUMP JUMPDEST SWAP3 POP SWAP3 POP SWAP3 POP PUSH2 0x209E DUP3 DUP3 PUSH2 0x20FF JUMP JUMPDEST DUP3 SWAP4 POP POP POP POP SWAP3 SWAP2 POP POP JUMP JUMPDEST PUSH0 PUSH0 PUSH0 PUSH1 0x41 DUP5 MLOAD SUB PUSH2 0x20EA JUMPI PUSH0 PUSH0 PUSH0 PUSH1 0x20 DUP8 ADD MLOAD SWAP3 POP PUSH1 0x40 DUP8 ADD MLOAD SWAP2 POP PUSH1 0x60 DUP8 ADD MLOAD PUSH0 BYTE SWAP1 POP PUSH2 0x20DC DUP9 DUP3 DUP6 DUP6 PUSH2 0x2261 JUMP JUMPDEST SWAP6 POP SWAP6 POP SWAP6 POP POP POP POP PUSH2 0x20F8 JUMP JUMPDEST PUSH0 PUSH1 0x2 DUP6 MLOAD PUSH0 SHL SWAP3 POP SWAP3 POP SWAP3 POP JUMPDEST SWAP3 POP SWAP3 POP SWAP3 JUMP JUMPDEST PUSH0 PUSH1 0x3 DUP2 GT ISZERO PUSH2 0x2112 JUMPI PUSH2 0x2111 PUSH2 0x31E9 JUMP JUMPDEST JUMPDEST DUP3 PUSH1 0x3 DUP2 GT ISZERO PUSH2 0x2125 JUMPI PUSH2 0x2124 PUSH2 0x31E9 JUMP JUMPDEST JUMPDEST SUB ISZERO PUSH2 0x225D JUMPI PUSH1 0x1 PUSH1 0x3 DUP2 GT ISZERO PUSH2 0x213F JUMPI PUSH2 0x213E PUSH2 0x31E9 JUMP JUMPDEST JUMPDEST DUP3 PUSH1 0x3 DUP2 GT ISZERO PUSH2 0x2152 JUMPI PUSH2 0x2151 PUSH2 0x31E9 JUMP JUMPDEST JUMPDEST SUB PUSH2 0x2189 JUMPI PUSH1 0x40 MLOAD PUSH32 0xF645EEDF00000000000000000000000000000000000000000000000000000000 DUP2 MSTORE PUSH1 0x4 ADD PUSH1 0x40 MLOAD DUP1 SWAP2 SUB SWAP1 REVERT JUMPDEST PUSH1 0x2 PUSH1 0x3 DUP2 GT ISZERO PUSH2 0x219D JUMPI PUSH2 0x219C PUSH2 0x31E9 JUMP JUMPDEST JUMPDEST DUP3 PUSH1 0x3 DUP2 GT ISZERO PUSH2 0x21B0 JUMPI PUSH2 0x21AF PUSH2 0x31E9 JUMP JUMPDEST JUMPDEST SUB PUSH2 0x21F4 JUMPI DUP1 PUSH0 SHR PUSH1 0x40 MLOAD PUSH32 0xFCE698F700000000000000000000000000000000000000000000000000000000 DUP2 MSTORE PUSH1 0x4 ADD PUSH2 0x21EB SWAP2 SWAP1 PUSH2 0x23F6 JUMP JUMPDEST PUSH1 0x40 MLOAD DUP1 SWAP2 SUB SWAP1 REVERT JUMPDEST PUSH1 0x3 DUP1 DUP2 GT ISZERO PUSH2 0x2207 JUMPI PUSH2 0x2206 PUSH2 0x31E9 JUMP JUMPDEST JUMPDEST DUP3 PUSH1 0x3 DUP2 GT ISZERO PUSH2 0x221A JUMPI PUSH2 0x2219 PUSH2 0x31E9 JUMP JUMPDEST JUMPDEST SUB PUSH2 0x225C JUMPI DUP1 PUSH1 0x40 MLOAD PUSH32 0xD78BCE0C00000000000000000000000000000000000000000000000000000000 DUP2 MSTORE PUSH1 0x4 ADD PUSH2 0x2253 SWAP2 SWAP1 PUSH2 0x3225 JUMP JUMPDEST PUSH1 0x40 MLOAD DUP1 SWAP2 SUB SWAP1 REVERT JUMPDEST JUMPDEST POP POP JUMP JUMPDEST PUSH0 PUSH0 PUSH0 PUSH32 0x7FFFFFFFFFFFFFFFFFFFFFFFFFFFFFFF5D576E7357A4501DDFE92F46681B20A0 DUP5 PUSH0 SHR GT ISZERO PUSH2 0x229D JUMPI PUSH0 PUSH1 0x3 DUP6 SWAP3 POP SWAP3 POP SWAP3 POP PUSH2 0x233E JUMP JUMPDEST PUSH0 PUSH1 0x1 DUP9 DUP9 DUP9 DUP9 PUSH1 0x40 MLOAD PUSH0 DUP2 MSTORE PUSH1 0x20 ADD PUSH1 0x40 MSTORE PUSH1 0x40 MLOAD PUSH2 0x22C0 SWAP5 SWAP4 SWAP3 SWAP2 SWAP1 PUSH2 0x3259 JUMP JUMPDEST PUSH1 0x20 PUSH1 0x40 MLOAD PUSH1 0x20 DUP2 SUB SWAP1 DUP1 DUP5 SUB SWAP1 DUP6 GAS STATICCALL ISZERO DUP1 ISZERO PUSH2 0x22E0 JUMPI RETURNDATASIZE PUSH0 PUSH0 RETURNDATACOPY RETURNDATASIZE PUSH0 REVERT JUMPDEST POP POP POP PUSH1 0x20 PUSH1 0x40 MLOAD SUB MLOAD SWAP1 POP PUSH0 PUSH20 0xFFFFFFFFFFFFFFFFFFFFFFFFFFFFFFFFFFFFFFFF AND DUP2 PUSH20 0xFFFFFFFFFFFFFFFFFFFFFFFFFFFFFFFFFFFFFFFF AND SUB PUSH2 0x2331 JUMPI PUSH0 PUSH1 0x1 PUSH0 PUSH0 SHL SWAP4 POP SWAP4 POP SWAP4 POP POP PUSH2 0x233E JUMP JUMPDEST DUP1 PUSH0 PUSH0 PUSH0 SHL SWAP4 POP SWAP4 POP SWAP4 POP POP JUMPDEST SWAP5 POP SWAP5 POP SWAP5 SWAP2 POP POP JUMP JUMPDEST PUSH0 PUSH1 0x40 MLOAD SWAP1 POP SWAP1 JUMP JUMPDEST PUSH0 PUSH0 REVERT JUMPDEST PUSH0 PUSH0 REVERT JUMPDEST PUSH0 PUSH20 0xFFFFFFFFFFFFFFFFFFFFFFFFFFFFFFFFFFFFFFFF DUP3 AND SWAP1 POP SWAP2 SWAP1 POP JUMP JUMPDEST PUSH0 PUSH2 0x2382 DUP3 PUSH2 0x2359 JUMP JUMPDEST SWAP1 POP SWAP2 SWAP1 POP JUMP JUMPDEST PUSH2 0x2392 DUP2 PUSH2 0x2378 JUMP JUMPDEST DUP2 EQ PUSH2 0x239C JUMPI PUSH0 PUSH0 REVERT JUMPDEST POP JUMP JUMPDEST PUSH0 DUP2 CALLDATALOAD SWAP1 POP PUSH2 0x23AD DUP2 PUSH2 0x2389 JUMP JUMPDEST SWAP3 SWAP2 POP POP JUMP JUMPDEST PUSH0 PUSH1 0x20 DUP3 DUP5 SUB SLT ISZERO PUSH2 0x23C8 JUMPI PUSH2 0x23C7 PUSH2 0x2351 JUMP JUMPDEST JUMPDEST PUSH0 PUSH2 0x23D5 DUP5 DUP3 DUP6 ADD PUSH2 0x239F JUMP JUMPDEST SWAP2 POP POP SWAP3 SWAP2 POP POP JUMP JUMPDEST PUSH0 DUP2 SWAP1 POP SWAP2 SWAP1 POP JUMP JUMPDEST PUSH2 0x23F0 DUP2 PUSH2 0x23DE JUMP JUMPDEST DUP3 MSTORE POP POP JUMP JUMPDEST PUSH0 PUSH1 0x20 DUP3 ADD SWAP1 POP PUSH2 0x2409 PUSH0 DUP4 ADD DUP5 PUSH2 0x23E7 JUMP JUMPDEST SWAP3 SWAP2 POP POP JUMP JUMPDEST PUSH2 0x2418 DUP2 PUSH2 0x23DE JUMP JUMPDEST DUP2 EQ PUSH2 0x2422 JUMPI PUSH0 PUSH0 REVERT JUMPDEST POP JUMP JUMPDEST PUSH0 DUP2 CALLDATALOAD SWAP1 POP PUSH2 0x2433 DUP2 PUSH2 0x240F JUMP JUMPDEST SWAP3 SWAP2 POP POP JUMP JUMPDEST PUSH0 PUSH1 0x20 DUP3 DUP5 SUB SLT ISZERO PUSH2 0x244E JUMPI PUSH2 0x244D PUSH2 0x2351 JUMP JUMPDEST JUMPDEST PUSH0 PUSH2 0x245B DUP5 DUP3 DUP6 ADD PUSH2 0x2425 JUMP JUMPDEST SWAP2 POP POP SWAP3 SWAP2 POP POP JUMP JUMPDEST PUSH0 PUSH1 0x80 DUP3 ADD SWAP1 POP PUSH2 0x2477 PUSH0 DUP4 ADD DUP8 PUSH2 0x23E7 JUMP JUMPDEST PUSH2 0x2484 PUSH1 0x20 DUP4 ADD DUP7 PUSH2 0x23E7 JUMP JUMPDEST PUSH2 0x2491 PUSH1 0x40 DUP4 ADD DUP6 PUSH2 0x23E7 JUMP JUMPDEST PUSH2 0x249E PUSH1 0x60 DUP4 ADD DUP5 PUSH2 0x23E7 JUMP JUMPDEST SWAP6 SWAP5 POP POP POP POP POP JUMP JUMPDEST PUSH0 DUP2 SWAP1 POP SWAP2 SWAP1 POP JUMP JUMPDEST PUSH0 PUSH2 0x24CA PUSH2 0x24C5 PUSH2 0x24C0 DUP5 PUSH2 0x2359 JUMP JUMPDEST PUSH2 0x24A7 JUMP JUMPDEST PUSH2 0x2359 JUMP JUMPDEST SWAP1 POP SWAP2 SWAP1 POP JUMP JUMPDEST PUSH0 PUSH2 0x24DB DUP3 PUSH2 0x24B0 JUMP JUMPDEST SWAP1 POP SWAP2 SWAP1 POP JUMP JUMPDEST PUSH0 PUSH2 0x24EC DUP3 PUSH2 0x24D1 JUMP JUMPDEST SWAP1 POP SWAP2 SWAP1 POP JUMP JUMPDEST PUSH2 0x24FC DUP2 PUSH2 0x24E2 JUMP JUMPDEST DUP3 MSTORE POP POP JUMP JUMPDEST PUSH0 PUSH1 0x20 DUP3 ADD SWAP1 POP PUSH2 0x2515 PUSH0 DUP4 ADD DUP5 PUSH2 0x24F3 JUMP JUMPDEST SWAP3 SWAP2 POP POP JUMP JUMPDEST PUSH0 DUP2 ISZERO ISZERO SWAP1 POP SWAP2 SWAP1 POP JUMP JUMPDEST PUSH2 0x252F DUP2 PUSH2 0x251B JUMP JUMPDEST DUP3 MSTORE POP POP JUMP JUMPDEST PUSH0 PUSH1 0x20 DUP3 ADD SWAP1 POP PUSH2 0x2548 PUSH0 DUP4 ADD DUP5 PUSH2 0x2526 JUMP JUMPDEST SWAP3 SWAP2 POP POP JUMP JUMPDEST PUSH0 PUSH1 0x60 DUP3 ADD SWAP1 POP PUSH2 0x2561 PUSH0 DUP4 ADD DUP7 PUSH2 0x23E7 JUMP JUMPDEST PUSH2 0x256E PUSH1 0x20 DUP4 ADD DUP6 PUSH2 0x23E7 JUMP JUMPDEST PUSH2 0x257B PUSH1 0x40 DUP4 ADD DUP5 PUSH2 0x23E7 JUMP JUMPDEST SWAP5 SWAP4 POP POP POP POP JUMP JUMPDEST PUSH2 0x258C DUP2 PUSH2 0x251B JUMP JUMPDEST DUP2 EQ PUSH2 0x2596 JUMPI PUSH0 PUSH0 REVERT JUMPDEST POP JUMP JUMPDEST PUSH0 DUP2 CALLDATALOAD SWAP1 POP PUSH2 0x25A7 DUP2 PUSH2 0x2583 JUMP JUMPDEST SWAP3 SWAP2 POP POP JUMP JUMPDEST PUSH0 PUSH1 0x20 DUP3 DUP5 SUB SLT ISZERO PUSH2 0x25C2 JUMPI PUSH2 0x25C1 PUSH2 0x2351 JUMP JUMPDEST JUMPDEST PUSH0 PUSH2 0x25CF DUP5 DUP3 DUP6 ADD PUSH2 0x2599 JUMP JUMPDEST SWAP2 POP POP SWAP3 SWAP2 POP POP JUMP JUMPDEST PUSH0 PUSH0 PUSH1 0x40 DUP4 DUP6 SUB SLT ISZERO PUSH2 0x25EE JUMPI PUSH2 0x25ED PUSH2 0x2351 JUMP JUMPDEST JUMPDEST PUSH0 PUSH2 0x25FB DUP6 DUP3 DUP7 ADD PUSH2 0x239F JUMP JUMPDEST SWAP3 POP POP PUSH1 0x20 PUSH2 0x260C DUP6 DUP3 DUP7 ADD PUSH2 0x2425 JUMP JUMPDEST SWAP2 POP POP SWAP3 POP SWAP3 SWAP1 POP JUMP JUMPDEST PUSH2 0x261F DUP2 PUSH2 0x2378 JUMP JUMPDEST DUP3 MSTORE POP POP JUMP JUMPDEST PUSH0 PUSH1 0x20 DUP3 ADD SWAP1 POP PUSH2 0x2638 PUSH0 DUP4 ADD DUP5 PUSH2 0x2616 JUMP JUMPDEST SWAP3 SWAP2 POP POP JUMP JUMPDEST PUSH0 PUSH2 0x2648 DUP3 PUSH2 0x2378 JUMP JUMPDEST SWAP1 POP SWAP2 SWAP1 POP JUMP JUMPDEST PUSH2 0x2658 DUP2 PUSH2 0x263E JUMP JUMPDEST DUP2 EQ PUSH2 0x2662 JUMPI PUSH0 PUSH0 REVERT JUMPDEST POP JUMP JUMPDEST PUSH0 DUP2 CALLDATALOAD SWAP1 POP PUSH2 0x2673 DUP2 PUSH2 0x264F JUMP JUMPDEST SWAP3 SWAP2 POP POP JUMP JUMPDEST PUSH0 PUSH0 PUSH0 PUSH0 PUSH0 PUSH0 PUSH0 PUSH0 PUSH2 0x100 DUP10 DUP12 SUB SLT ISZERO PUSH2 0x2696 JUMPI PUSH2 0x2695 PUSH2 0x2351 JUMP JUMPDEST JUMPDEST PUSH0 PUSH2 0x26A3 DUP12 DUP3 DUP13 ADD PUSH2 0x2665 JUMP JUMPDEST SWAP9 POP POP PUSH1 0x20 PUSH2 0x26B4 DUP12 DUP3 DUP13 ADD PUSH2 0x2425 JUMP JUMPDEST SWAP8 POP POP PUSH1 0x40 PUSH2 0x26C5 DUP12 DUP3 DUP13 ADD PUSH2 0x2425 JUMP JUMPDEST SWAP7 POP POP PUSH1 0x60 PUSH2 0x26D6 DUP12 DUP3 DUP13 ADD PUSH2 0x2425 JUMP JUMPDEST SWAP6 POP POP PUSH1 0x80 PUSH2 0x26E7 DUP12 DUP3 DUP13 ADD PUSH2 0x2425 JUMP JUMPDEST SWAP5 POP POP PUSH1 0xA0 PUSH2 0x26F8 DUP12 DUP3 DUP13 ADD PUSH2 0x2425 JUMP JUMPDEST SWAP4 POP POP PUSH1 0xC0 PUSH2 0x2709 DUP12 DUP3 DUP13 ADD PUSH2 0x2425 JUMP JUMPDEST SWAP3 POP POP PUSH1 0xE0 PUSH2 0x271A DUP12 DUP3 DUP13 ADD PUSH2 0x239F JUMP JUMPDEST SWAP2 POP POP SWAP3 SWAP6 SWAP9 POP SWAP3 SWAP6 SWAP9 SWAP1 SWAP4 SWAP7 POP JUMP JUMPDEST PUSH0 PUSH0 REVERT JUMPDEST PUSH0 PUSH0 REVERT JUMPDEST PUSH0 PUSH1 0x1F NOT PUSH1 0x1F DUP4 ADD AND SWAP1 POP SWAP2 SWAP1 POP JUMP JUMPDEST PUSH32 0x4E487B7100000000000000000000000000000000000000000000000000000000 PUSH0 MSTORE PUSH1 0x41 PUSH1 0x4 MSTORE PUSH1 0x24 PUSH0 REVERT JUMPDEST PUSH2 0x2778 DUP3 PUSH2 0x2732 JUMP JUMPDEST DUP2 ADD DUP2 DUP2 LT PUSH8 0xFFFFFFFFFFFFFFFF DUP3 GT OR ISZERO PUSH2 0x2797 JUMPI PUSH2 0x2796 PUSH2 0x2742 JUMP JUMPDEST JUMPDEST DUP1 PUSH1 0x40 MSTORE POP POP POP JUMP JUMPDEST PUSH0 PUSH2 0x27A9 PUSH2 0x2348 JUMP JUMPDEST SWAP1 POP PUSH2 0x27B5 DUP3 DUP3 PUSH2 0x276F JUMP JUMPDEST SWAP2 SWAP1 POP JUMP JUMPDEST PUSH0 PUSH8 0xFFFFFFFFFFFFFFFF DUP3 GT ISZERO PUSH2 0x27D4 JUMPI PUSH2 0x27D3 PUSH2 0x2742 JUMP JUMPDEST JUMPDEST PUSH2 0x27DD DUP3 PUSH2 0x2732 JUMP JUMPDEST SWAP1 POP PUSH1 0x20 DUP2 ADD SWAP1 POP SWAP2 SWAP1 POP JUMP JUMPDEST DUP3 DUP2 DUP4 CALLDATACOPY PUSH0 DUP4 DUP4 ADD MSTORE POP POP POP JUMP JUMPDEST PUSH0 PUSH2 0x280A PUSH2 0x2805 DUP5 PUSH2 0x27BA JUMP JUMPDEST PUSH2 0x27A0 JUMP JUMPDEST SWAP1 POP DUP3 DUP2 MSTORE PUSH1 0x20 DUP2 ADD DUP5 DUP5 DUP5 ADD GT ISZERO PUSH2 0x2826 JUMPI PUSH2 0x2825 PUSH2 0x272E JUMP JUMPDEST JUMPDEST PUSH2 0x2831 DUP5 DUP3 DUP6 PUSH2 0x27EA JUMP JUMPDEST POP SWAP4 SWAP3 POP POP POP JUMP JUMPDEST PUSH0 DUP3 PUSH1 0x1F DUP4 ADD SLT PUSH2 0x284D JUMPI PUSH2 0x284C PUSH2 0x272A JUMP JUMPDEST JUMPDEST DUP2 CALLDATALOAD PUSH2 0x285D DUP5 DUP3 PUSH1 0x20 DUP7 ADD PUSH2 0x27F8 JUMP JUMPDEST SWAP2 POP POP SWAP3 SWAP2 POP POP JUMP JUMPDEST PUSH0 PUSH0 PUSH1 0x40 DUP4 DUP6 SUB SLT ISZERO PUSH2 0x287C JUMPI PUSH2 0x287B PUSH2 0x2351 JUMP JUMPDEST JUMPDEST PUSH0 PUSH2 0x2889 DUP6 DUP3 DUP7 ADD PUSH2 0x2425 JUMP JUMPDEST SWAP3 POP POP PUSH1 0x20 DUP4 ADD CALLDATALOAD PUSH8 0xFFFFFFFFFFFFFFFF DUP2 GT ISZERO PUSH2 0x28AA JUMPI PUSH2 0x28A9 PUSH2 0x2355 JUMP JUMPDEST JUMPDEST PUSH2 0x28B6 DUP6 DUP3 DUP7 ADD PUSH2 0x2839 JUMP JUMPDEST SWAP2 POP POP SWAP3 POP SWAP3 SWAP1 POP JUMP JUMPDEST PUSH0 PUSH0 PUSH1 0x40 DUP4 DUP6 SUB SLT ISZERO PUSH2 0x28D6 JUMPI PUSH2 0x28D5 PUSH2 0x2351 JUMP JUMPDEST JUMPDEST PUSH0 PUSH2 0x28E3 DUP6 DUP3 DUP7 ADD PUSH2 0x2425 JUMP JUMPDEST SWAP3 POP POP PUSH1 0x20 PUSH2 0x28F4 DUP6 DUP3 DUP7 ADD PUSH2 0x2599 JUMP JUMPDEST SWAP2 POP POP SWAP3 POP SWAP3 SWAP1 POP JUMP JUMPDEST PUSH0 DUP3 DUP3 MSTORE PUSH1 0x20 DUP3 ADD SWAP1 POP SWAP3 SWAP2 POP POP JUMP JUMPDEST PUSH32 0x436F6E7472616374206973207061757365640000000000000000000000000000 PUSH0 DUP3 ADD MSTORE POP JUMP JUMPDEST PUSH0 PUSH2 0x2942 PUSH1 0x12 DUP4 PUSH2 0x28FE JUMP JUMPDEST SWAP2 POP PUSH2 0x294D DUP3 PUSH2 0x290E JUMP JUMPDEST PUSH1 0x20 DUP3 ADD SWAP1 POP SWAP2 SWAP1 POP JUMP JUMPDEST PUSH0 PUSH1 0x20 DUP3 ADD SWAP1 POP DUP2 DUP2 SUB PUSH0 DUP4 ADD MSTORE PUSH2 0x296F DUP2 PUSH2 0x2936 JUMP JUMPDEST SWAP1 POP SWAP2 SWAP1 POP JUMP JUMPDEST PUSH32 0x4E6F7420696E697469616C697A65640000000000000000000000000000000000 PUSH0 DUP3 ADD MSTORE POP JUMP JUMPDEST PUSH0 PUSH2 0x29AA PUSH1 0xF DUP4 PUSH2 0x28FE JUMP JUMPDEST SWAP2 POP PUSH2 0x29B5 DUP3 PUSH2 0x2976 JUMP JUMPDEST PUSH1 0x20 DUP3 ADD SWAP1 POP SWAP2 SWAP1 POP JUMP JUMPDEST PUSH0 PUSH1 0x20 DUP3 ADD SWAP1 POP DUP2 DUP2 SUB PUSH0 DUP4 ADD MSTORE PUSH2 0x29D7 DUP2 PUSH2 0x299E JUMP JUMPDEST SWAP1 POP SWAP2 SWAP1 POP JUMP JUMPDEST PUSH0 PUSH1 0x60 DUP3 ADD SWAP1 POP PUSH2 0x29F1 PUSH0 DUP4 ADD DUP7 PUSH2 0x2616 JUMP JUMPDEST PUSH2 0x29FE PUSH1 0x20 DUP4 ADD DUP6 PUSH2 0x2616 JUMP JUMPDEST PUSH2 0x2A0B PUSH1 0x40 DUP4 ADD DUP5 PUSH2 0x23E7 JUMP JUMPDEST SWAP5 SWAP4 POP POP POP POP JUMP JUMPDEST PUSH0 DUP2 MLOAD SWAP1 POP PUSH2 0x2A21 DUP2 PUSH2 0x2583 JUMP JUMPDEST SWAP3 SWAP2 POP POP JUMP JUMPDEST PUSH0 PUSH1 0x20 DUP3 DUP5 SUB SLT ISZERO PUSH2 0x2A3C JUMPI PUSH2 0x2A3B PUSH2 0x2351 JUMP JUMPDEST JUMPDEST PUSH0 PUSH2 0x2A49 DUP5 DUP3 DUP6 ADD PUSH2 0x2A13 JUMP JUMPDEST SWAP2 POP POP SWAP3 SWAP2 POP POP JUMP JUMPDEST PUSH32 0x5472616E73666572206661696C65640000000000000000000000000000000000 PUSH0 DUP3 ADD MSTORE POP JUMP JUMPDEST PUSH0 PUSH2 0x2A86 PUSH1 0xF DUP4 PUSH2 0x28FE JUMP JUMPDEST SWAP2 POP PUSH2 0x2A91 DUP3 PUSH2 0x2A52 JUMP JUMPDEST PUSH1 0x20 DUP3 ADD SWAP1 POP SWAP2 SWAP1 POP JUMP JUMPDEST PUSH0 PUSH1 0x20 DUP3 ADD SWAP1 POP DUP2 DUP2 SUB PUSH0 DUP4 ADD MSTORE PUSH2 0x2AB3 DUP2 PUSH2 0x2A7A JUMP JUMPDEST SWAP1 POP SWAP2 SWAP1 POP JUMP JUMPDEST PUSH32 0x4E487B7100000000000000000000000000000000000000000000000000000000 PUSH0 MSTORE PUSH1 0x11 PUSH1 0x4 MSTORE PUSH1 0x24 PUSH0 REVERT JUMPDEST PUSH0 PUSH2 0x2AF1 DUP3 PUSH2 0x23DE JUMP JUMPDEST SWAP2 POP PUSH2 0x2AFC DUP4 PUSH2 0x23DE JUMP JUMPDEST SWAP3 POP DUP3 DUP3 ADD SWAP1 POP DUP1 DUP3 GT ISZERO PUSH2 0x2B14 JUMPI PUSH2 0x2B13 PUSH2 0x2ABA JUMP JUMPDEST JUMPDEST SWAP3 SWAP2 POP POP JUMP JUMPDEST PUSH32 0x496E73756666696369656E74207374616B656420616D6F756E74000000000000 PUSH0 DUP3 ADD MSTORE POP JUMP JUMPDEST PUSH0 PUSH2 0x2B4E PUSH1 0x1A DUP4 PUSH2 0x28FE JUMP JUMPDEST SWAP2 POP PUSH2 0x2B59 DUP3 PUSH2 0x2B1A JUMP JUMPDEST PUSH1 0x20 DUP3 ADD SWAP1 POP SWAP2 SWAP1 POP JUMP JUMPDEST PUSH0 PUSH1 0x20 DUP3 ADD SWAP1 POP DUP2 DUP2 SUB PUSH0 DUP4 ADD MSTORE PUSH2 0x2B7B DUP2 PUSH2 0x2B42 JUMP JUMPDEST SWAP1 POP SWAP2 SWAP1 POP JUMP JUMPDEST PUSH0 PUSH2 0x2B8C DUP3 PUSH2 0x23DE JUMP JUMPDEST SWAP2 POP PUSH2 0x2B97 DUP4 PUSH2 0x23DE JUMP JUMPDEST SWAP3 POP DUP3 DUP3 MUL PUSH2 0x2BA5 DUP2 PUSH2 0x23DE JUMP JUMPDEST SWAP2 POP DUP3 DUP3 DIV DUP5 EQ DUP4 ISZERO OR PUSH2 0x2BBC JUMPI PUSH2 0x2BBB PUSH2 0x2ABA JUMP JUMPDEST JUMPDEST POP SWAP3 SWAP2 POP POP JUMP JUMPDEST PUSH32 0x4E487B7100000000000000000000000000000000000000000000000000000000 PUSH0 MSTORE PUSH1 0x12 PUSH1 0x4 MSTORE PUSH1 0x24 PUSH0 REVERT JUMPDEST PUSH0 PUSH2 0x2BFA DUP3 PUSH2 0x23DE JUMP JUMPDEST SWAP2 POP PUSH2 0x2C05 DUP4 PUSH2 0x23DE JUMP JUMPDEST SWAP3 POP DUP3 PUSH2 0x2C15 JUMPI PUSH2 0x2C14 PUSH2 0x2BC3 JUMP JUMPDEST JUMPDEST DUP3 DUP3 DIV SWAP1 POP SWAP3 SWAP2 POP POP JUMP JUMPDEST PUSH0 PUSH2 0x2C2A DUP3 PUSH2 0x23DE JUMP JUMPDEST SWAP2 POP PUSH2 0x2C35 DUP4 PUSH2 0x23DE JUMP JUMPDEST SWAP3 POP DUP3 DUP3 SUB SWAP1 POP DUP2 DUP2 GT ISZERO PUSH2 0x2C4D JUMPI PUSH2 0x2C4C PUSH2 0x2ABA JUMP JUMPDEST JUMPDEST SWAP3 SWAP2 POP POP JUMP JUMPDEST PUSH0 PUSH1 0x40 DUP3 ADD SWAP1 POP PUSH2 0x2C66 PUSH0 DUP4 ADD DUP6 PUSH2 0x2616 JUMP JUMPDEST PUSH2 0x2C73 PUSH1 0x20 DUP4 ADD DUP5 PUSH2 0x23E7 JUMP JUMPDEST SWAP4 SWAP3 POP POP POP JUMP JUMPDEST PUSH0 PUSH1 0x40 DUP3 ADD SWAP1 POP PUSH2 0x2C8D PUSH0 DUP4 ADD DUP6 PUSH2 0x23E7 JUMP JUMPDEST PUSH2 0x2C9A PUSH1 0x20 DUP4 ADD DUP5 PUSH2 0x23E7 JUMP JUMPDEST SWAP4 SWAP3 POP POP POP JUMP JUMPDEST PUSH32 0x416C726561647920696E697469616C697A656400000000000000000000000000 PUSH0 DUP3 ADD MSTORE POP JUMP JUMPDEST PUSH0 PUSH2 0x2CD5 PUSH1 0x13 DUP4 PUSH2 0x28FE JUMP JUMPDEST SWAP2 POP PUSH2 0x2CE0 DUP3 PUSH2 0x2CA1 JUMP JUMPDEST PUSH1 0x20 DUP3 ADD SWAP1 POP SWAP2 SWAP1 POP JUMP JUMPDEST PUSH0 PUSH1 0x20 DUP3 ADD SWAP1 POP DUP2 DUP2 SUB PUSH0 DUP4 ADD MSTORE PUSH2 0x2D02 DUP2 PUSH2 0x2CC9 JUMP JUMPDEST SWAP1 POP SWAP2 SWAP1 POP JUMP JUMPDEST PUSH32 0x496E76616C6964206E6F6E636500000000000000000000000000000000000000 PUSH0 DUP3 ADD MSTORE POP JUMP JUMPDEST PUSH0 PUSH2 0x2D3D PUSH1 0xD DUP4 PUSH2 0x28FE JUMP JUMPDEST SWAP2 POP PUSH2 0x2D48 DUP3 PUSH2 0x2D09 JUMP JUMPDEST PUSH1 0x20 DUP3 ADD SWAP1 POP SWAP2 SWAP1 POP JUMP JUMPDEST PUSH0 PUSH1 0x20 DUP3 ADD SWAP1 POP DUP2 DUP2 SUB PUSH0 DUP4 ADD MSTORE PUSH2 0x2D6A DUP2 PUSH2 0x2D31 JUMP JUMPDEST SWAP1 POP SWAP2 SWAP1 POP JUMP JUMPDEST PUSH0 PUSH2 0x2D7B DUP3 PUSH2 0x23DE JUMP JUMPDEST SWAP2 POP PUSH32 0xFFFFFFFFFFFFFFFFFFFFFFFFFFFFFFFFFFFFFFFFFFFFFFFFFFFFFFFFFFFFFFFF DUP3 SUB PUSH2 0x2DAD JUMPI PUSH2 0x2DAC PUSH2 0x2ABA JUMP JUMPDEST JUMPDEST PUSH1 0x1 DUP3 ADD SWAP1 POP SWAP2 SWAP1 POP JUMP JUMPDEST PUSH32 0x4E6F207374616B6520666F756E64000000000000000000000000000000000000 PUSH0 DUP3 ADD MSTORE POP JUMP JUMPDEST PUSH0 PUSH2 0x2DEC PUSH1 0xE DUP4 PUSH2 0x28FE JUMP JUMPDEST SWAP2 POP PUSH2 0x2DF7 DUP3 PUSH2 0x2DB8 JUMP JUMPDEST PUSH1 0x20 DUP3 ADD SWAP1 POP SWAP2 SWAP1 POP JUMP JUMPDEST PUSH0 PUSH1 0x20 DUP3 ADD SWAP1 POP DUP2 DUP2 SUB PUSH0 DUP4 ADD MSTORE PUSH2 0x2E19 DUP2 PUSH2 0x2DE0 JUMP JUMPDEST SWAP1 POP SWAP2 SWAP1 POP JUMP JUMPDEST PUSH32 0x4E6F2074696D6520656C61707365640000000000000000000000000000000000 PUSH0 DUP3 ADD MSTORE POP JUMP JUMPDEST PUSH0 PUSH2 0x2E54 PUSH1 0xF DUP4 PUSH2 0x28FE JUMP JUMPDEST SWAP2 POP PUSH2 0x2E5F DUP3 PUSH2 0x2E20 JUMP JUMPDEST PUSH1 0x20 DUP3 ADD SWAP1 POP SWAP2 SWAP1 POP JUMP JUMPDEST PUSH0 PUSH1 0x20 DUP3 ADD SWAP1 POP DUP2 DUP2 SUB PUSH0 DUP4 ADD MSTORE PUSH2 0x2E81 DUP2 PUSH2 0x2E48 JUMP JUMPDEST SWAP1 POP SWAP2 SWAP1 POP JUMP JUMPDEST PUSH32 0x496E76616C6964207369676E6174757265000000000000000000000000000000 PUSH0 DUP3 ADD MSTORE POP JUMP JUMPDEST PUSH0 PUSH2 0x2EBC PUSH1 0x11 DUP4 PUSH2 0x28FE JUMP JUMPDEST SWAP2 POP PUSH2 0x2EC7 DUP3 PUSH2 0x2E88 JUMP JUMPDEST PUSH1 0x20 DUP3 ADD SWAP1 POP SWAP2 SWAP1 POP JUMP JUMPDEST PUSH0 PUSH1 0x20 DUP3 ADD SWAP1 POP DUP2 DUP2 SUB PUSH0 DUP4 ADD MSTORE PUSH2 0x2EE9 DUP2 PUSH2 0x2EB0 JUMP JUMPDEST SWAP1 POP SWAP2 SWAP1 POP JUMP JUMPDEST PUSH32 0x45706F6368206475726174696F6E206E6F7420656E6465640000000000000000 PUSH0 DUP3 ADD MSTORE POP JUMP JUMPDEST PUSH0 PUSH2 0x2F24 PUSH1 0x18 DUP4 PUSH2 0x28FE JUMP JUMPDEST SWAP2 POP PUSH2 0x2F2F DUP3 PUSH2 0x2EF0 JUMP JUMPDEST PUSH1 0x20 DUP3 ADD SWAP1 POP SWAP2 SWAP1 POP JUMP JUMPDEST PUSH0 PUSH1 0x20 DUP3 ADD SWAP1 POP DUP2 DUP2 SUB PUSH0 DUP4 ADD MSTORE PUSH2 0x2F51 DUP2 PUSH2 0x2F18 JUMP JUMPDEST SWAP1 POP SWAP2 SWAP1 POP JUMP JUMPDEST PUSH32 0x4E6F2070656E64696E6720726577617264730000000000000000000000000000 PUSH0 DUP3 ADD MSTORE POP JUMP JUMPDEST PUSH0 PUSH2 0x2F8C PUSH1 0x12 DUP4 PUSH2 0x28FE JUMP JUMPDEST SWAP2 POP PUSH2 0x2F97 DUP3 PUSH2 0x2F58 JUMP JUMPDEST PUSH1 0x20 DUP3 ADD SWAP1 POP SWAP2 SWAP1 POP JUMP JUMPDEST PUSH0 PUSH1 0x20 DUP3 ADD SWAP1 POP DUP2 DUP2 SUB PUSH0 DUP4 ADD MSTORE PUSH2 0x2FB9 DUP2 PUSH2 0x2F80 JUMP JUMPDEST SWAP1 POP SWAP2 SWAP1 POP JUMP JUMPDEST PUSH32 0x5265776172642065786365656473206D617820636C61696D61626C6500000000 PUSH0 DUP3 ADD MSTORE POP JUMP JUMPDEST PUSH0 PUSH2 0x2FF4 PUSH1 0x1C DUP4 PUSH2 0x28FE JUMP JUMPDEST SWAP2 POP PUSH2 0x2FFF DUP3 PUSH2 0x2FC0 JUMP JUMPDEST PUSH1 0x20 DUP3 ADD SWAP1 POP SWAP2 SWAP1 POP JUMP JUMPDEST PUSH0 PUSH1 0x20 DUP3 ADD SWAP1 POP DUP2 DUP2 SUB PUSH0 DUP4 ADD MSTORE PUSH2 0x3021 DUP2 PUSH2 0x2FE8 JUMP JUMPDEST SWAP1 POP SWAP2 SWAP1 POP JUMP JUMPDEST PUSH0 PUSH1 0x40 DUP3 ADD SWAP1 POP PUSH2 0x303B PUSH0 DUP4 ADD DUP6 PUSH2 0x23E7 JUMP JUMPDEST PUSH2 0x3048 PUSH1 0x20 DUP4 ADD DUP5 PUSH2 0x2526 JUMP JUMPDEST SWAP4 SWAP3 POP POP POP JUMP JUMPDEST PUSH32 0x5265656E7472616E637947756172643A207265656E7472616E742063616C6C00 PUSH0 DUP3 ADD MSTORE POP JUMP JUMPDEST PUSH0 PUSH2 0x3083 PUSH1 0x1F DUP4 PUSH2 0x28FE JUMP JUMPDEST SWAP2 POP PUSH2 0x308E DUP3 PUSH2 0x304F JUMP JUMPDEST PUSH1 0x20 DUP3 ADD SWAP1 POP SWAP2 SWAP1 POP JUMP JUMPDEST PUSH0 PUSH1 0x20 DUP3 ADD SWAP1 POP DUP2 DUP2 SUB PUSH0 DUP4 ADD MSTORE PUSH2 0x30B0 DUP2 PUSH2 0x3077 JUMP JUMPDEST SWAP1 POP SWAP2 SWAP1 POP JUMP JUMPDEST PUSH0 DUP2 PUSH1 0x60 SHL SWAP1 POP SWAP2 SWAP1 POP JUMP JUMPDEST PUSH0 PUSH2 0x30CD DUP3 PUSH2 0x30B7 JUMP JUMPDEST SWAP1 POP SWAP2 SWAP1 POP JUMP JUMPDEST PUSH0 PUSH2 0x30DE DUP3 PUSH2 0x30C3 JUMP JUMPDEST SWAP1 POP SWAP2 SWAP1 POP JUMP JUMPDEST PUSH2 0x30F6 PUSH2 0x30F1 DUP3 PUSH2 0x2378 JUMP JUMPDEST PUSH2 0x30D4 JUMP JUMPDEST DUP3 MSTORE POP POP JUMP JUMPDEST PUSH0 DUP2 SWAP1 POP SWAP2 SWAP1 POP JUMP JUMPDEST PUSH2 0x3116 PUSH2 0x3111 DUP3 PUSH2 0x23DE JUMP JUMPDEST PUSH2 0x30FC JUMP JUMPDEST DUP3 MSTORE POP POP JUMP JUMPDEST PUSH0 PUSH2 0x3127 DUP3 DUP6 PUSH2 0x30E5 JUMP JUMPDEST PUSH1 0x14 DUP3 ADD SWAP2 POP PUSH2 0x3137 DUP3 DUP5 PUSH2 0x3105 JUMP JUMPDEST PUSH1 0x20 DUP3 ADD SWAP2 POP DUP2 SWAP1 POP SWAP4 SWAP3 POP POP POP JUMP JUMPDEST PUSH0 DUP2 SWAP1 POP SWAP3 SWAP2 POP POP JUMP JUMPDEST PUSH32 0x19457468657265756D205369676E6564204D6573736167653A0A333200000000 PUSH0 DUP3 ADD MSTORE POP JUMP JUMPDEST PUSH0 PUSH2 0x3185 PUSH1 0x1C DUP4 PUSH2 0x3147 JUMP JUMPDEST SWAP2 POP PUSH2 0x3190 DUP3 PUSH2 0x3151 JUMP JUMPDEST PUSH1 0x1C DUP3 ADD SWAP1 POP SWAP2 SWAP1 POP JUMP JUMPDEST PUSH0 DUP2 SWAP1 POP SWAP2 SWAP1 POP JUMP JUMPDEST PUSH0 DUP2 SWAP1 POP SWAP2 SWAP1 POP JUMP JUMPDEST PUSH2 0x31BE PUSH2 0x31B9 DUP3 PUSH2 0x319B JUMP JUMPDEST PUSH2 0x31A4 JUMP JUMPDEST DUP3 MSTORE POP POP JUMP JUMPDEST PUSH0 PUSH2 0x31CE DUP3 PUSH2 0x3179 JUMP JUMPDEST SWAP2 POP PUSH2 0x31DA DUP3 DUP5 PUSH2 0x31AD JUMP JUMPDEST PUSH1 0x20 DUP3 ADD SWAP2 POP DUP2 SWAP1 POP SWAP3 SWAP2 POP POP JUMP JUMPDEST PUSH32 0x4E487B7100000000000000000000000000000000000000000000000000000000 PUSH0 MSTORE PUSH1 0x21 PUSH1 0x4 MSTORE PUSH1 0x24 PUSH0 REVERT JUMPDEST PUSH2 0x321F DUP2 PUSH2 0x319B JUMP JUMPDEST DUP3 MSTORE POP POP JUMP JUMPDEST PUSH0 PUSH1 0x20 DUP3 ADD SWAP1 POP PUSH2 0x3238 PUSH0 DUP4 ADD DUP5 PUSH2 0x3216 JUMP JUMPDEST SWAP3 SWAP2 POP POP JUMP JUMPDEST PUSH0 PUSH1 0xFF DUP3 AND SWAP1 POP SWAP2 SWAP1 POP JUMP JUMPDEST PUSH2 0x3253 DUP2 PUSH2 0x323E JUMP JUMPDEST DUP3 MSTORE POP POP JUMP JUMPDEST PUSH0 PUSH1 0x80 DUP3 ADD SWAP1 POP PUSH2 0x326C PUSH0 DUP4 ADD DUP8 PUSH2 0x3216 JUMP JUMPDEST PUSH2 0x3279 PUSH1 0x20 DUP4 ADD DUP7 PUSH2 0x324A JUMP JUMPDEST PUSH2 0x3286 PUSH1 0x40 DUP4 ADD DUP6 PUSH2 0x3216 JUMP JUMPDEST PUSH2 0x3293 PUSH1 0x60 DUP4 ADD DUP5 PUSH2 0x3216 JUMP JUMPDEST SWAP6 SWAP5 POP POP POP POP POP JUMP INVALID LOG2 PUSH5 0x6970667358 0x22 SLT KECCAK256 PUSH11 0x87094F0F185B690D1D9958 0xD3 RETURN DUP7 0x2B PUSH25 0xC5F9A998921FDB10D239BE1937C3264736F6C634300081C00 CALLER "
		},
		"gasEstimates": {
			"creation": {
				"codeDepositCost": "2602000",
				"executionCost": "infinite",
				"totalCost": "infinite"
			},
			"external": {
				"claimStakeRewards(uint256)": "infinite",
				"claimTradeRewards(uint256,bytes)": "infinite",
				"earlyWithdrawalFee()": "2493",
				"epochDuration()": "2559",
				"epochTradeVolume()": "2470",
				"inactivityPenaltyRate()": "2514",
				"inactivitySlashingTime()": "2537",
				"initialize(address,uint256,uint256,uint256,uint256,uint256,uint256,address)": "infinite",
				"initialized()": "2563",
				"lastEpochBlock()": "2536",
				"lastSignedClaim(address)": "2912",
				"latToken()": "infinite",
				"liquidityBoostMultiplier(address)": "2869",
				"makerRebates(address)": "2935",
				"maxClaimable()": "2469",
				"nonces(address)": "2892",
				"owner()": "2581",
				"paused()": "2577",
				"poolBoostMultiplier()": "2559",
				"poolTradingVolume()": "2558",
				"poolVolumeThreshold()": "2471",
				"recordTrade(uint256,bool)": "infinite",
				"renounceOwnership()": "infinite",
				"setPaused(bool)": "infinite",
				"stakeLat(uint256)": "infinite",
				"stakeRewardRate()": "2558",
				"stakedWeight(address)": "2891",
				"stakes(address)": "infinite",
				"takerFees(address)": "2849",
				"totalTrades()": "2492",
				"tradeEpochDuration()": "2491",
				"tradeRewardRate()": "2557",
				"traderStats(address)": "infinite",
				"transferOwnership(address)": "infinite",
				"updateLiquidityMultiplier(address,uint256)": "infinite",
				"vaultAddress()": "2598",
				"vestingSchedules(address,uint256)": "infinite",
				"withdrawStake(uint256)": "infinite"
			},
			"internal": {
				"verifySignature(address,uint256,bytes memory)": "infinite"
			}
		},
		"methodIdentifiers": {
			"claimStakeRewards(uint256)": "dd69becd",
			"claimTradeRewards(uint256,bytes)": "e90b0d76",
			"earlyWithdrawalFee()": "16330d40",
			"epochDuration()": "4ff0876a",
			"epochTradeVolume()": "519445e2",
			"inactivityPenaltyRate()": "94d9b235",
			"inactivitySlashingTime()": "8119185b",
			"initialize(address,uint256,uint256,uint256,uint256,uint256,uint256,address)": "848ff684",
			"initialized()": "158ef93e",
			"lastEpochBlock()": "c2362dd5",
			"lastSignedClaim(address)": "f3482650",
			"latToken()": "0fd7bf50",
			"liquidityBoostMultiplier(address)": "5829b3c7",
			"makerRebates(address)": "5e2a9fa2",
			"maxClaimable()": "f03f80c3",
			"nonces(address)": "7ecebe00",
			"owner()": "8da5cb5b",
			"paused()": "5c975abb",
			"poolBoostMultiplier()": "1bff38cd",
			"poolTradingVolume()": "eab35b77",
			"poolVolumeThreshold()": "64cb6142",
			"recordTrade(uint256,bool)": "e927e7c0",
			"renounceOwnership()": "715018a6",
			"setPaused(bool)": "16c38b3c",
			"stakeLat(uint256)": "0524fb7e",
			"stakeRewardRate()": "ccc8362c",
			"stakedWeight(address)": "58ba9d27",
			"stakes(address)": "16934fc4",
			"takerFees(address)": "011a4568",
			"totalTrades()": "e275c997",
			"tradeEpochDuration()": "f1ea7692",
			"tradeRewardRate()": "f6cc5157",
			"traderStats(address)": "05c50a35",
			"transferOwnership(address)": "f2fde38b",
			"updateLiquidityMultiplier(address,uint256)": "31fdc2ba",
			"vaultAddress()": "430bf08a",
			"vestingSchedules(address,uint256)": "45626bd6",
			"withdrawStake(uint256)": "25d5971f"
		}
	},
	"abi": [
		{
			"inputs": [],
			"stateMutability": "nonpayable",
			"type": "constructor"
		},
		{
			"inputs": [],
			"name": "ECDSAInvalidSignature",
			"type": "error"
		},
		{
			"inputs": [
				{
					"internalType": "uint256",
					"name": "length",
					"type": "uint256"
				}
			],
			"name": "ECDSAInvalidSignatureLength",
			"type": "error"
		},
		{
			"inputs": [
				{
					"internalType": "bytes32",
					"name": "s",
					"type": "bytes32"
				}
			],
			"name": "ECDSAInvalidSignatureS",
			"type": "error"
		},
		{
			"inputs": [
				{
					"internalType": "address",
					"name": "owner",
					"type": "address"
				}
			],
			"name": "OwnableInvalidOwner",
			"type": "error"
		},
		{
			"inputs": [
				{
					"internalType": "address",
					"name": "account",
					"type": "address"
				}
			],
			"name": "OwnableUnauthorizedAccount",
			"type": "error"
		},
		{
			"anonymous": false,
			"inputs": [
				{
					"indexed": true,
					"internalType": "address",
					"name": "trader",
					"type": "address"
				},
				{
					"indexed": false,
					"internalType": "uint256",
					"name": "multiplier",
					"type": "uint256"
				}
			],
			"name": "LiquidityMultiplierUpdated",
			"type": "event"
		},
		{
			"anonymous": false,
			"inputs": [
				{
					"indexed": true,
					"internalType": "address",
					"name": "previousOwner",
					"type": "address"
				},
				{
					"indexed": true,
					"internalType": "address",
					"name": "newOwner",
					"type": "address"
				}
			],
			"name": "OwnershipTransferred",
			"type": "event"
		},
		{
			"anonymous": false,
			"inputs": [
				{
					"indexed": false,
					"internalType": "bool",
					"name": "isPaused",
					"type": "bool"
				}
			],
			"name": "Paused",
			"type": "event"
		},
		{
			"anonymous": false,
			"inputs": [
				{
					"indexed": true,
					"internalType": "address",
					"name": "trader",
					"type": "address"
				},
				{
					"indexed": false,
					"internalType": "uint256",
					"name": "amount",
					"type": "uint256"
				}
			],
			"name": "StakeLat",
			"type": "event"
		},
		{
			"anonymous": false,
			"inputs": [
				{
					"indexed": true,
					"internalType": "address",
					"name": "trader",
					"type": "address"
				},
				{
					"indexed": false,
					"internalType": "uint256",
					"name": "reward",
					"type": "uint256"
				}
			],
			"name": "StakeRewardsClaimed",
			"type": "event"
		},
		{
			"anonymous": false,
			"inputs": [
				{
					"indexed": true,
					"internalType": "address",
					"name": "trader",
					"type": "address"
				},
				{
					"indexed": false,
					"internalType": "uint256",
					"name": "amountAfterPenalty",
					"type": "uint256"
				},
				{
					"indexed": false,
					"internalType": "uint256",
					"name": "penalty",
					"type": "uint256"
				}
			],
			"name": "StakeWithdrawn",
			"type": "event"
		},
		{
			"anonymous": false,
			"inputs": [
				{
					"indexed": true,
					"internalType": "address",
					"name": "trader",
					"type": "address"
				},
				{
					"indexed": false,
					"internalType": "uint256",
					"name": "tradeVolume",
					"type": "uint256"
				},
				{
					"indexed": false,
					"internalType": "bool",
					"name": "isMaker",
					"type": "bool"
				}
			],
			"name": "TradeRecorded",
			"type": "event"
		},
		{
			"anonymous": false,
			"inputs": [
				{
					"indexed": true,
					"internalType": "address",
					"name": "trader",
					"type": "address"
				},
				{
					"indexed": false,
					"internalType": "uint256",
					"name": "reward",
					"type": "uint256"
				}
			],
			"name": "TradeRewardsClaimed",
			"type": "event"
		},
		{
			"inputs": [
				{
					"internalType": "uint256",
					"name": "expectedNonce",
					"type": "uint256"
				}
			],
			"name": "claimStakeRewards",
			"outputs": [],
			"stateMutability": "nonpayable",
			"type": "function"
		},
		{
			"inputs": [
				{
					"internalType": "uint256",
					"name": "expectedNonce",
					"type": "uint256"
				},
				{
					"internalType": "bytes",
					"name": "signature",
					"type": "bytes"
				}
			],
			"name": "claimTradeRewards",
			"outputs": [],
			"stateMutability": "nonpayable",
			"type": "function"
		},
		{
			"inputs": [],
			"name": "earlyWithdrawalFee",
			"outputs": [
				{
					"internalType": "uint256",
					"name": "",
					"type": "uint256"
				}
			],
			"stateMutability": "view",
			"type": "function"
		},
		{
			"inputs": [],
			"name": "epochDuration",
			"outputs": [
				{
					"internalType": "uint256",
					"name": "",
					"type": "uint256"
				}
			],
			"stateMutability": "view",
			"type": "function"
		},
		{
			"inputs": [],
			"name": "epochTradeVolume",
			"outputs": [
				{
					"internalType": "uint256",
					"name": "",
					"type": "uint256"
				}
			],
			"stateMutability": "view",
			"type": "function"
		},
		{
			"inputs": [],
			"name": "inactivityPenaltyRate",
			"outputs": [
				{
					"internalType": "uint256",
					"name": "",
					"type": "uint256"
				}
			],
			"stateMutability": "view",
			"type": "function"
		},
		{
			"inputs": [],
			"name": "inactivitySlashingTime",
			"outputs": [
				{
					"internalType": "uint256",
					"name": "",
					"type": "uint256"
				}
			],
			"stateMutability": "view",
			"type": "function"
		},
		{
			"inputs": [
				{
					"internalType": "contract ILatToken",
					"name": "_latToken",
					"type": "address"
				},
				{
					"internalType": "uint256",
					"name": "_tradeRewardRate",
					"type": "uint256"
				},
				{
					"internalType": "uint256",
					"name": "_stakeRewardRate",
					"type": "uint256"
				},
				{
					"internalType": "uint256",
					"name": "_tradeEpochDuration",
					"type": "uint256"
				},
				{
					"internalType": "uint256",
					"name": "_poolVolumeThreshold",
					"type": "uint256"
				},
				{
					"internalType": "uint256",
					"name": "_poolBoostMultiplier",
					"type": "uint256"
				},
				{
					"internalType": "uint256",
					"name": "_epochDuration",
					"type": "uint256"
				},
				{
					"internalType": "address",
					"name": "_vaultAddress",
					"type": "address"
				}
			],
			"name": "initialize",
			"outputs": [],
			"stateMutability": "nonpayable",
			"type": "function"
		},
		{
			"inputs": [],
			"name": "initialized",
			"outputs": [
				{
					"internalType": "bool",
					"name": "",
					"type": "bool"
				}
			],
			"stateMutability": "view",
			"type": "function"
		},
		{
			"inputs": [],
			"name": "lastEpochBlock",
			"outputs": [
				{
					"internalType": "uint256",
					"name": "",
					"type": "uint256"
				}
			],
			"stateMutability": "view",
			"type": "function"
		},
		{
			"inputs": [
				{
					"internalType": "address",
					"name": "",
					"type": "address"
				}
			],
			"name": "lastSignedClaim",
			"outputs": [
				{
					"internalType": "uint256",
					"name": "",
					"type": "uint256"
				}
			],
			"stateMutability": "view",
			"type": "function"
		},
		{
			"inputs": [],
			"name": "latToken",
			"outputs": [
				{
					"internalType": "contract ILatToken",
					"name": "",
					"type": "address"
				}
			],
			"stateMutability": "view",
			"type": "function"
		},
		{
			"inputs": [
				{
					"internalType": "address",
					"name": "",
					"type": "address"
				}
			],
			"name": "liquidityBoostMultiplier",
			"outputs": [
				{
					"internalType": "uint256",
					"name": "",
					"type": "uint256"
				}
			],
			"stateMutability": "view",
			"type": "function"
		},
		{
			"inputs": [
				{
					"internalType": "address",
					"name": "",
					"type": "address"
				}
			],
			"name": "makerRebates",
			"outputs": [
				{
					"internalType": "uint256",
					"name": "",
					"type": "uint256"
				}
			],
			"stateMutability": "view",
			"type": "function"
		},
		{
			"inputs": [],
			"name": "maxClaimable",
			"outputs": [
				{
					"internalType": "uint256",
					"name": "",
					"type": "uint256"
				}
			],
			"stateMutability": "view",
			"type": "function"
		},
		{
			"inputs": [
				{
					"internalType": "address",
					"name": "",
					"type": "address"
				}
			],
			"name": "nonces",
			"outputs": [
				{
					"internalType": "uint256",
					"name": "",
					"type": "uint256"
				}
			],
			"stateMutability": "view",
			"type": "function"
		},
		{
			"inputs": [],
			"name": "owner",
			"outputs": [
				{
					"internalType": "address",
					"name": "",
					"type": "address"
				}
			],
			"stateMutability": "view",
			"type": "function"
		},
		{
			"inputs": [],
			"name": "paused",
			"outputs": [
				{
					"internalType": "bool",
					"name": "",
					"type": "bool"
				}
			],
			"stateMutability": "view",
			"type": "function"
		},
		{
			"inputs": [],
			"name": "poolBoostMultiplier",
			"outputs": [
				{
					"internalType": "uint256",
					"name": "",
					"type": "uint256"
				}
			],
			"stateMutability": "view",
			"type": "function"
		},
		{
			"inputs": [],
			"name": "poolTradingVolume",
			"outputs": [
				{
					"internalType": "uint256",
					"name": "",
					"type": "uint256"
				}
			],
			"stateMutability": "view",
			"type": "function"
		},
		{
			"inputs": [],
			"name": "poolVolumeThreshold",
			"outputs": [
				{
					"internalType": "uint256",
					"name": "",
					"type": "uint256"
				}
			],
			"stateMutability": "view",
			"type": "function"
		},
		{
			"inputs": [
				{
					"internalType": "uint256",
					"name": "tradeVolume",
					"type": "uint256"
				},
				{
					"internalType": "bool",
					"name": "isMaker",
					"type": "bool"
				}
			],
			"name": "recordTrade",
			"outputs": [],
			"stateMutability": "nonpayable",
			"type": "function"
		},
		{
			"inputs": [],
			"name": "renounceOwnership",
			"outputs": [],
			"stateMutability": "nonpayable",
			"type": "function"
		},
		{
			"inputs": [
				{
					"internalType": "bool",
					"name": "_paused",
					"type": "bool"
				}
			],
			"name": "setPaused",
			"outputs": [],
			"stateMutability": "nonpayable",
			"type": "function"
		},
		{
			"inputs": [
				{
					"internalType": "uint256",
					"name": "amount",
					"type": "uint256"
				}
			],
			"name": "stakeLat",
			"outputs": [],
			"stateMutability": "nonpayable",
			"type": "function"
		},
		{
			"inputs": [],
			"name": "stakeRewardRate",
			"outputs": [
				{
					"internalType": "uint256",
					"name": "",
					"type": "uint256"
				}
			],
			"stateMutability": "view",
			"type": "function"
		},
		{
			"inputs": [
				{
					"internalType": "address",
					"name": "",
					"type": "address"
				}
			],
			"name": "stakedWeight",
			"outputs": [
				{
					"internalType": "uint256",
					"name": "",
					"type": "uint256"
				}
			],
			"stateMutability": "view",
			"type": "function"
		},
		{
			"inputs": [
				{
					"internalType": "address",
					"name": "",
					"type": "address"
				}
			],
			"name": "stakes",
			"outputs": [
				{
					"internalType": "uint256",
					"name": "amount",
					"type": "uint256"
				},
				{
					"internalType": "uint256",
					"name": "lastUpdated",
					"type": "uint256"
				},
				{
					"internalType": "uint256",
					"name": "stakeStart",
					"type": "uint256"
				}
			],
			"stateMutability": "view",
			"type": "function"
		},
		{
			"inputs": [
				{
					"internalType": "address",
					"name": "",
					"type": "address"
				}
			],
			"name": "takerFees",
			"outputs": [
				{
					"internalType": "uint256",
					"name": "",
					"type": "uint256"
				}
			],
			"stateMutability": "view",
			"type": "function"
		},
		{
			"inputs": [],
			"name": "totalTrades",
			"outputs": [
				{
					"internalType": "uint256",
					"name": "",
					"type": "uint256"
				}
			],
			"stateMutability": "view",
			"type": "function"
		},
		{
			"inputs": [],
			"name": "tradeEpochDuration",
			"outputs": [
				{
					"internalType": "uint256",
					"name": "",
					"type": "uint256"
				}
			],
			"stateMutability": "view",
			"type": "function"
		},
		{
			"inputs": [],
			"name": "tradeRewardRate",
			"outputs": [
				{
					"internalType": "uint256",
					"name": "",
					"type": "uint256"
				}
			],
			"stateMutability": "view",
			"type": "function"
		},
		{
			"inputs": [
				{
					"internalType": "address",
					"name": "",
					"type": "address"
				}
			],
			"name": "traderStats",
			"outputs": [
				{
					"internalType": "uint256",
					"name": "tradeCount",
					"type": "uint256"
				},
				{
					"internalType": "uint256",
					"name": "totalVolume",
					"type": "uint256"
				},
				{
					"internalType": "uint256",
					"name": "pendingTradeRewards",
					"type": "uint256"
				},
				{
					"internalType": "uint256",
					"name": "lastClaim",
					"type": "uint256"
				}
			],
			"stateMutability": "view",
			"type": "function"
		},
		{
			"inputs": [
				{
					"internalType": "address",
					"name": "newOwner",
					"type": "address"
				}
			],
			"name": "transferOwnership",
			"outputs": [],
			"stateMutability": "nonpayable",
			"type": "function"
		},
		{
			"inputs": [
				{
					"internalType": "address",
					"name": "trader",
					"type": "address"
				},
				{
					"internalType": "uint256",
					"name": "lpTokens",
					"type": "uint256"
				}
			],
			"name": "updateLiquidityMultiplier",
			"outputs": [],
			"stateMutability": "nonpayable",
			"type": "function"
		},
		{
			"inputs": [],
			"name": "vaultAddress",
			"outputs": [
				{
					"internalType": "address",
					"name": "",
					"type": "address"
				}
			],
			"stateMutability": "view",
			"type": "function"
		},
		{
			"inputs": [
				{
					"internalType": "address",
					"name": "",
					"type": "address"
				},
				{
					"internalType": "uint256",
					"name": "",
					"type": "uint256"
				}
			],
			"name": "vestingSchedules",
			"outputs": [
				{
					"internalType": "uint256",
					"name": "totalReward",
					"type": "uint256"
				},
				{
					"internalType": "uint256",
					"name": "claimed",
					"type": "uint256"
				},
				{
					"internalType": "uint256",
					"name": "startTime",
					"type": "uint256"
				},
				{
					"internalType": "uint256",
					"name": "duration",
					"type": "uint256"
				}
			],
			"stateMutability": "view",
			"type": "function"
		},
		{
			"inputs": [
				{
					"internalType": "uint256",
					"name": "amount",
					"type": "uint256"
				}
			],
			"name": "withdrawStake",
			"outputs": [],
			"stateMutability": "nonpayable",
			"type": "function"
		}
	]
}