{
	"contracts/LiquidityAccelerationToken.sol": {
		"LiquidityAccelerationToken": {
			"abi": [
				{
					"inputs": [],
					"stateMutability": "nonpayable",
					"type": "constructor"
				},
				{
					"inputs": [],
					"name": "ECDSAInvalidSignature",
					"type": "error"
				},
				{
					"inputs": [
						{
							"internalType": "uint256",
							"name": "length",
							"type": "uint256"
						}
					],
					"name": "ECDSAInvalidSignatureLength",
					"type": "error"
				},
				{
					"inputs": [
						{
							"internalType": "bytes32",
							"name": "s",
							"type": "bytes32"
						}
					],
					"name": "ECDSAInvalidSignatureS",
					"type": "error"
				},
				{
					"inputs": [
						{
							"internalType": "address",
							"name": "owner",
							"type": "address"
						}
					],
					"name": "OwnableInvalidOwner",
					"type": "error"
				},
				{
					"inputs": [
						{
							"internalType": "address",
							"name": "account",
							"type": "address"
						}
					],
					"name": "OwnableUnauthorizedAccount",
					"type": "error"
				},
				{
					"anonymous": false,
					"inputs": [
						{
							"indexed": true,
							"internalType": "address",
							"name": "trader",
							"type": "address"
						},
						{
							"indexed": false,
							"internalType": "uint256",
							"name": "multiplier",
							"type": "uint256"
						}
					],
					"name": "LiquidityMultiplierUpdated",
					"type": "event"
				},
				{
					"anonymous": false,
					"inputs": [
						{
							"indexed": true,
							"internalType": "address",
							"name": "previousOwner",
							"type": "address"
						},
						{
							"indexed": true,
							"internalType": "address",
							"name": "newOwner",
							"type": "address"
						}
					],
					"name": "OwnershipTransferred",
					"type": "event"
				},
				{
					"anonymous": false,
					"inputs": [
						{
							"indexed": false,
							"internalType": "bool",
							"name": "isPaused",
							"type": "bool"
						}
					],
					"name": "Paused",
					"type": "event"
				},
				{
					"anonymous": false,
					"inputs": [
						{
							"indexed": true,
							"internalType": "address",
							"name": "trader",
							"type": "address"
						},
						{
							"indexed": false,
							"internalType": "uint256",
							"name": "amount",
							"type": "uint256"
						}
					],
					"name": "StakeLat",
					"type": "event"
				},
				{
					"anonymous": false,
					"inputs": [
						{
							"indexed": true,
							"internalType": "address",
							"name": "trader",
							"type": "address"
						},
						{
							"indexed": false,
							"internalType": "uint256",
							"name": "reward",
							"type": "uint256"
						}
					],
					"name": "StakeRewardsClaimed",
					"type": "event"
				},
				{
					"anonymous": false,
					"inputs": [
						{
							"indexed": true,
							"internalType": "address",
							"name": "trader",
							"type": "address"
						},
						{
							"indexed": false,
							"internalType": "uint256",
							"name": "amountAfterPenalty",
							"type": "uint256"
						},
						{
							"indexed": false,
							"internalType": "uint256",
							"name": "penalty",
							"type": "uint256"
						}
					],
					"name": "StakeWithdrawn",
					"type": "event"
				},
				{
					"anonymous": false,
					"inputs": [
						{
							"indexed": true,
							"internalType": "address",
							"name": "trader",
							"type": "address"
						},
						{
							"indexed": false,
							"internalType": "uint256",
							"name": "tradeVolume",
							"type": "uint256"
						},
						{
							"indexed": false,
							"internalType": "bool",
							"name": "isMaker",
							"type": "bool"
						}
					],
					"name": "TradeRecorded",
					"type": "event"
				},
				{
					"anonymous": false,
					"inputs": [
						{
							"indexed": true,
							"internalType": "address",
							"name": "trader",
							"type": "address"
						},
						{
							"indexed": false,
							"internalType": "uint256",
							"name": "reward",
							"type": "uint256"
						}
					],
					"name": "TradeRewardsClaimed",
					"type": "event"
				},
				{
					"inputs": [
						{
							"internalType": "uint256",
							"name": "expectedNonce",
							"type": "uint256"
						}
					],
					"name": "claimStakeRewards",
					"outputs": [],
					"stateMutability": "nonpayable",
					"type": "function"
				},
				{
					"inputs": [
						{
							"internalType": "uint256",
							"name": "expectedNonce",
							"type": "uint256"
						},
						{
							"internalType": "bytes",
							"name": "signature",
							"type": "bytes"
						}
					],
					"name": "claimTradeRewards",
					"outputs": [],
					"stateMutability": "nonpayable",
					"type": "function"
				},
				{
					"inputs": [],
					"name": "earlyWithdrawalFee",
					"outputs": [
						{
							"internalType": "uint256",
							"name": "",
							"type": "uint256"
						}
					],
					"stateMutability": "view",
					"type": "function"
				},
				{
					"inputs": [],
					"name": "epochDuration",
					"outputs": [
						{
							"internalType": "uint256",
							"name": "",
							"type": "uint256"
						}
					],
					"stateMutability": "view",
					"type": "function"
				},
				{
					"inputs": [],
					"name": "epochTradeVolume",
					"outputs": [
						{
							"internalType": "uint256",
							"name": "",
							"type": "uint256"
						}
					],
					"stateMutability": "view",
					"type": "function"
				},
				{
					"inputs": [],
					"name": "inactivityPenaltyRate",
					"outputs": [
						{
							"internalType": "uint256",
							"name": "",
							"type": "uint256"
						}
					],
					"stateMutability": "view",
					"type": "function"
				},
				{
					"inputs": [],
					"name": "inactivitySlashingTime",
					"outputs": [
						{
							"internalType": "uint256",
							"name": "",
							"type": "uint256"
						}
					],
					"stateMutability": "view",
					"type": "function"
				},
				{
					"inputs": [
						{
							"internalType": "contract ILatToken",
							"name": "_latToken",
							"type": "address"
						},
						{
							"internalType": "uint256",
							"name": "_tradeRewardRate",
							"type": "uint256"
						},
						{
							"internalType": "uint256",
							"name": "_stakeRewardRate",
							"type": "uint256"
						},
						{
							"internalType": "uint256",
							"name": "_tradeEpochDuration",
							"type": "uint256"
						},
						{
							"internalType": "uint256",
							"name": "_poolVolumeThreshold",
							"type": "uint256"
						},
						{
							"internalType": "uint256",
							"name": "_poolBoostMultiplier",
							"type": "uint256"
						},
						{
							"internalType": "uint256",
							"name": "_epochDuration",
							"type": "uint256"
						},
						{
							"internalType": "address",
							"name": "_vaultAddress",
							"type": "address"
						}
					],
					"name": "initialize",
					"outputs": [],
					"stateMutability": "nonpayable",
					"type": "function"
				},
				{
					"inputs": [],
					"name": "initialized",
					"outputs": [
						{
							"internalType": "bool",
							"name": "",
							"type": "bool"
						}
					],
					"stateMutability": "view",
					"type": "function"
				},
				{
					"inputs": [],
					"name": "lastEpochBlock",
					"outputs": [
						{
							"internalType": "uint256",
							"name": "",
							"type": "uint256"
						}
					],
					"stateMutability": "view",
					"type": "function"
				},
				{
					"inputs": [
						{
							"internalType": "address",
							"name": "",
							"type": "address"
						}
					],
					"name": "lastSignedClaim",
					"outputs": [
						{
							"internalType": "uint256",
							"name": "",
							"type": "uint256"
						}
					],
					"stateMutability": "view",
					"type": "function"
				},
				{
					"inputs": [],
					"name": "latToken",
					"outputs": [
						{
							"internalType": "contract ILatToken",
							"name": "",
							"type": "address"
						}
					],
					"stateMutability": "view",
					"type": "function"
				},
				{
					"inputs": [
						{
							"internalType": "address",
							"name": "",
							"type": "address"
						}
					],
					"name": "liquidityBoostMultiplier",
					"outputs": [
						{
							"internalType": "uint256",
							"name": "",
							"type": "uint256"
						}
					],
					"stateMutability": "view",
					"type": "function"
				},
				{
					"inputs": [
						{
							"internalType": "address",
							"name": "",
							"type": "address"
						}
					],
					"name": "makerRebates",
					"outputs": [
						{
							"internalType": "uint256",
							"name": "",
							"type": "uint256"
						}
					],
					"stateMutability": "view",
					"type": "function"
				},
				{
					"inputs": [],
					"name": "maxClaimable",
					"outputs": [
						{
							"internalType": "uint256",
							"name": "",
							"type": "uint256"
						}
					],
					"stateMutability": "view",
					"type": "function"
				},
				{
					"inputs": [
						{
							"internalType": "address",
							"name": "",
							"type": "address"
						}
					],
					"name": "nonces",
					"outputs": [
						{
							"internalType": "uint256",
							"name": "",
							"type": "uint256"
						}
					],
					"stateMutability": "view",
					"type": "function"
				},
				{
					"inputs": [],
					"name": "owner",
					"outputs": [
						{
							"internalType": "address",
							"name": "",
							"type": "address"
						}
					],
					"stateMutability": "view",
					"type": "function"
				},
				{
					"inputs": [],
					"name": "paused",
					"outputs": [
						{
							"internalType": "bool",
							"name": "",
							"type": "bool"
						}
					],
					"stateMutability": "view",
					"type": "function"
				},
				{
					"inputs": [],
					"name": "poolBoostMultiplier",
					"outputs": [
						{
							"internalType": "uint256",
							"name": "",
							"type": "uint256"
						}
					],
					"stateMutability": "view",
					"type": "function"
				},
				{
					"inputs": [],
					"name": "poolTradingVolume",
					"outputs": [
						{
							"internalType": "uint256",
							"name": "",
							"type": "uint256"
						}
					],
					"stateMutability": "view",
					"type": "function"
				},
				{
					"inputs": [],
					"name": "poolVolumeThreshold",
					"outputs": [
						{
							"internalType": "uint256",
							"name": "",
							"type": "uint256"
						}
					],
					"stateMutability": "view",
					"type": "function"
				},
				{
					"inputs": [
						{
							"internalType": "uint256",
							"name": "tradeVolume",
							"type": "uint256"
						},
						{
							"internalType": "bool",
							"name": "isMaker",
							"type": "bool"
						}
					],
					"name": "recordTrade",
					"outputs": [],
					"stateMutability": "nonpayable",
					"type": "function"
				},
				{
					"inputs": [],
					"name": "renounceOwnership",
					"outputs": [],
					"stateMutability": "nonpayable",
					"type": "function"
				},
				{
					"inputs": [
						{
							"internalType": "bool",
							"name": "_paused",
							"type": "bool"
						}
					],
					"name": "setPaused",
					"outputs": [],
					"stateMutability": "nonpayable",
					"type": "function"
				},
				{
					"inputs": [
						{
							"internalType": "uint256",
							"name": "amount",
							"type": "uint256"
						}
					],
					"name": "stakeLat",
					"outputs": [],
					"stateMutability": "nonpayable",
					"type": "function"
				},
				{
					"inputs": [],
					"name": "stakeRewardRate",
					"outputs": [
						{
							"internalType": "uint256",
							"name": "",
							"type": "uint256"
						}
					],
					"stateMutability": "view",
					"type": "function"
				},
				{
					"inputs": [
						{
							"internalType": "address",
							"name": "",
							"type": "address"
						}
					],
					"name": "stakedWeight",
					"outputs": [
						{
							"internalType": "uint256",
							"name": "",
							"type": "uint256"
						}
					],
					"stateMutability": "view",
					"type": "function"
				},
				{
					"inputs": [
						{
							"internalType": "address",
							"name": "",
							"type": "address"
						}
					],
					"name": "stakes",
					"outputs": [
						{
							"internalType": "uint256",
							"name": "amount",
							"type": "uint256"
						},
						{
							"internalType": "uint256",
							"name": "lastUpdated",
							"type": "uint256"
						},
						{
							"internalType": "uint256",
							"name": "stakeStart",
							"type": "uint256"
						}
					],
					"stateMutability": "view",
					"type": "function"
				},
				{
					"inputs": [
						{
							"internalType": "address",
							"name": "",
							"type": "address"
						}
					],
					"name": "takerFees",
					"outputs": [
						{
							"internalType": "uint256",
							"name": "",
							"type": "uint256"
						}
					],
					"stateMutability": "view",
					"type": "function"
				},
				{
					"inputs": [],
					"name": "totalTrades",
					"outputs": [
						{
							"internalType": "uint256",
							"name": "",
							"type": "uint256"
						}
					],
					"stateMutability": "view",
					"type": "function"
				},
				{
					"inputs": [],
					"name": "tradeEpochDuration",
					"outputs": [
						{
							"internalType": "uint256",
							"name": "",
							"type": "uint256"
						}
					],
					"stateMutability": "view",
					"type": "function"
				},
				{
					"inputs": [],
					"name": "tradeRewardRate",
					"outputs": [
						{
							"internalType": "uint256",
							"name": "",
							"type": "uint256"
						}
					],
					"stateMutability": "view",
					"type": "function"
				},
				{
					"inputs": [
						{
							"internalType": "address",
							"name": "",
							"type": "address"
						}
					],
					"name": "traderStats",
					"outputs": [
						{
							"internalType": "uint256",
							"name": "tradeCount",
							"type": "uint256"
						},
						{
							"internalType": "uint256",
							"name": "totalVolume",
							"type": "uint256"
						},
						{
							"internalType": "uint256",
							"name": "pendingTradeRewards",
							"type": "uint256"
						},
						{
							"internalType": "uint256",
							"name": "lastClaim",
							"type": "uint256"
						}
					],
					"stateMutability": "view",
					"type": "function"
				},
				{
					"inputs": [
						{
							"internalType": "address",
							"name": "newOwner",
							"type": "address"
						}
					],
					"name": "transferOwnership",
					"outputs": [],
					"stateMutability": "nonpayable",
					"type": "function"
				},
				{
					"inputs": [
						{
							"internalType": "address",
							"name": "trader",
							"type": "address"
						},
						{
							"internalType": "uint256",
							"name": "lpTokens",
							"type": "uint256"
						}
					],
					"name": "updateLiquidityMultiplier",
					"outputs": [],
					"stateMutability": "nonpayable",
					"type": "function"
				},
				{
					"inputs": [],
					"name": "vaultAddress",
					"outputs": [
						{
							"internalType": "address",
							"name": "",
							"type": "address"
						}
					],
					"stateMutability": "view",
					"type": "function"
				},
				{
					"inputs": [
						{
							"internalType": "address",
							"name": "",
							"type": "address"
						},
						{
							"internalType": "uint256",
							"name": "",
							"type": "uint256"
						}
					],
					"name": "vestingSchedules",
					"outputs": [
						{
							"internalType": "uint256",
							"name": "totalReward",
							"type": "uint256"
						},
						{
							"internalType": "uint256",
							"name": "claimed",
							"type": "uint256"
						},
						{
							"internalType": "uint256",
							"name": "startTime",
							"type": "uint256"
						},
						{
							"internalType": "uint256",
							"name": "duration",
							"type": "uint256"
						}
					],
					"stateMutability": "view",
					"type": "function"
				},
				{
					"inputs": [
						{
							"internalType": "uint256",
							"name": "amount",
							"type": "uint256"
						}
					],
					"name": "withdrawStake",
					"outputs": [],
					"stateMutability": "nonpayable",
					"type": "function"
				}
			],
			"devdoc": {
				"errors": {
					"ECDSAInvalidSignature()": [
						{
							"details": "The signature derives the `address(0)`."
						}
					],
					"ECDSAInvalidSignatureLength(uint256)": [
						{
							"details": "The signature has an invalid length."
						}
					],
					"ECDSAInvalidSignatureS(bytes32)": [
						{
							"details": "The signature has an S value that is in the upper half order."
						}
					],
					"OwnableInvalidOwner(address)": [
						{
							"details": "The owner is not a valid owner account. (eg. `address(0)`)"
						}
					],
					"OwnableUnauthorizedAccount(address)": [
						{
							"details": "The caller account is not authorized to perform an operation."
						}
					]
				},
				"kind": "dev",
				"methods": {
					"claimStakeRewards(uint256)": {
						"params": {
							"expectedNonce": "The expected nonce for msg.sender."
						}
					},
					"claimTradeRewards(uint256,bytes)": {
						"params": {
							"expectedNonce": "The expected nonce for msg.sender.",
							"signature": "The signature over (msg.sender, expectedNonce)."
						}
					},
					"initialize(address,uint256,uint256,uint256,uint256,uint256,uint256,address)": {
						"params": {
							"_epochDuration": "Epoch duration in blocks (for checkpointing).",
							"_latToken": "The mintable LAT token.",
							"_poolBoostMultiplier": "Boost multiplier (in percentage) for staking rewards.",
							"_poolVolumeThreshold": "Threshold to trigger liquidity pool boost.",
							"_stakeRewardRate": "Base reward rate for staking.",
							"_tradeEpochDuration": "Duration (in seconds) for trade reward epochs.",
							"_tradeRewardRate": "Base reward rate for trades.",
							"_vaultAddress": "The treasury vault address to hold staked tokens."
						}
					},
					"owner()": {
						"details": "Returns the address of the current owner."
					},
					"recordTrade(uint256,bool)": {
						"params": {
							"isMaker": "Whether the trader is a market maker.",
							"tradeVolume": "The volume of the trade."
						}
					},
					"renounceOwnership()": {
						"details": "Leaves the contract without owner. It will not be possible to call `onlyOwner` functions. Can only be called by the current owner. NOTE: Renouncing ownership will leave the contract without an owner, thereby disabling any functionality that is only available to the owner."
					},
					"stakeLat(uint256)": {
						"params": {
							"amount": "The amount of LAT tokens to stake."
						}
					},
					"transferOwnership(address)": {
						"details": "Transfers ownership of the contract to a new account (`newOwner`). Can only be called by the current owner."
					},
					"updateLiquidityMultiplier(address,uint256)": {
						"params": {
							"lpTokens": "The amount of liquidity provider tokens held (if > 0, multiplier is set to 120).",
							"trader": "The address of the trader."
						}
					},
					"withdrawStake(uint256)": {
						"params": {
							"amount": "The amount of staked tokens to withdraw."
						}
					}
				},
				"title": "LiquidityAccelerationToken",
				"version": 1
			},
			"evm": {
				"assembly": "    /* \"contracts/LiquidityAccelerationToken.sol\":1161:15541  contract LiquidityAccelerationToken is Ownable, ReentrancyGuard {... */\n  mstore(0x40, 0x80)\n    /* \"contracts/LiquidityAccelerationToken.sol\":1802:1804  10 */\n  0x0a\n    /* \"contracts/LiquidityAccelerationToken.sol\":1766:1804  uint256 public earlyWithdrawalFee = 10 */\n  0x0b\n  sstore\n    /* \"contracts/LiquidityAccelerationToken.sol\":2087:2094  30 days */\n  0x278d00\n    /* \"contracts/LiquidityAccelerationToken.sol\":2047:2094  uint256 public inactivitySlashingTime = 30 days */\n  0x0e\n  sstore\n    /* \"contracts/LiquidityAccelerationToken.sol\":2139:2141  20 */\n  0x14\n    /* \"contracts/LiquidityAccelerationToken.sol\":2100:2141  uint256 public inactivityPenaltyRate = 20 */\n  0x0f\n  sstore\n    /* \"contracts/LiquidityAccelerationToken.sol\":2273:2291  1_000_000 * 10**18 */\n  0xd3c21bcecceda1000000\n    /* \"contracts/LiquidityAccelerationToken.sol\":2243:2291  uint256 public maxClaimable = 1_000_000 * 10**18 */\n  0x10\n  sstore\n    /* \"contracts/LiquidityAccelerationToken.sol\":4780:4816  constructor() Ownable(msg.sender) {} */\n  callvalue\n  dup1\n  iszero\n  tag_1\n  jumpi\n  revert(0x00, 0x00)\ntag_1:\n  pop\n    /* \"contracts/LiquidityAccelerationToken.sol\":4802:4812  msg.sender */\n  caller\n    /* \"@openzeppelin/contracts/access/Ownable.sol\":1297:1298  0 */\n  0x00\n    /* \"@openzeppelin/contracts/access/Ownable.sol\":1273:1299  initialOwner == address(0) */\n  0xffffffffffffffffffffffffffffffffffffffff\n  and\n    /* \"@openzeppelin/contracts/access/Ownable.sol\":1273:1285  initialOwner */\n  dup2\n    /* \"@openzeppelin/contracts/access/Ownable.sol\":1273:1299  initialOwner == address(0) */\n  0xffffffffffffffffffffffffffffffffffffffff\n  and\n  sub\n    /* \"@openzeppelin/contracts/access/Ownable.sol\":1269:1364  if (initialOwner == address(0)) {... */\n  tag_6\n  jumpi\n    /* \"@openzeppelin/contracts/access/Ownable.sol\":1350:1351  0 */\n  0x00\n    /* \"@openzeppelin/contracts/access/Ownable.sol\":1322:1353  OwnableInvalidOwner(address(0)) */\n  mload(0x40)\n  0x1e4fbdf700000000000000000000000000000000000000000000000000000000\n  dup2\n  mstore\n  0x04\n  add\n  tag_7\n  swap2\n  swap1\n  tag_8\n  jump\t// in\ntag_7:\n  mload(0x40)\n  dup1\n  swap2\n  sub\n  swap1\n  revert\n    /* \"@openzeppelin/contracts/access/Ownable.sol\":1269:1364  if (initialOwner == address(0)) {... */\ntag_6:\n    /* \"@openzeppelin/contracts/access/Ownable.sol\":1373:1405  _transferOwnership(initialOwner) */\n  tag_9\n    /* \"@openzeppelin/contracts/access/Ownable.sol\":1392:1404  initialOwner */\n  dup2\n    /* \"@openzeppelin/contracts/access/Ownable.sol\":1373:1391  _transferOwnership */\n  shl(0x20, tag_10)\n    /* \"@openzeppelin/contracts/access/Ownable.sol\":1373:1405  _transferOwnership(initialOwner) */\n  0x20\n  shr\n  jump\t// in\ntag_9:\n    /* \"@openzeppelin/contracts/access/Ownable.sol\":1225:1412  constructor(address initialOwner) {... */\n  pop\n    /* \"@openzeppelin/contracts/security/ReentrancyGuard.sol\":1716:1717  1 */\n  0x01\n    /* \"@openzeppelin/contracts/security/ReentrancyGuard.sol\":1821:1828  _status */\n  dup1\n    /* \"@openzeppelin/contracts/security/ReentrancyGuard.sol\":1821:1843  _status = _NOT_ENTERED */\n  dup2\n  swap1\n  sstore\n  pop\n    /* \"contracts/LiquidityAccelerationToken.sol\":1161:15541  contract LiquidityAccelerationToken is Ownable, ReentrancyGuard {... */\n  jump(tag_13)\n    /* \"@openzeppelin/contracts/access/Ownable.sol\":2912:3099  function _transferOwnership(address newOwner) internal virtual {... */\ntag_10:\n    /* \"@openzeppelin/contracts/access/Ownable.sol\":2985:3001  address oldOwner */\n  0x00\n    /* \"@openzeppelin/contracts/access/Ownable.sol\":3004:3010  _owner */\n  0x00\n  0x00\n  swap1\n  sload\n  swap1\n  0x0100\n  exp\n  swap1\n  div\n  0xffffffffffffffffffffffffffffffffffffffff\n  and\n    /* \"@openzeppelin/contracts/access/Ownable.sol\":2985:3010  address oldOwner = _owner */\n  swap1\n  pop\n    /* \"@openzeppelin/contracts/access/Ownable.sol\":3029:3037  newOwner */\n  dup2\n    /* \"@openzeppelin/contracts/access/Ownable.sol\":3020:3026  _owner */\n  0x00\n  0x00\n    /* \"@openzeppelin/contracts/access/Ownable.sol\":3020:3037  _owner = newOwner */\n  0x0100\n  exp\n  dup2\n  sload\n  dup2\n  0xffffffffffffffffffffffffffffffffffffffff\n  mul\n  not\n  and\n  swap1\n  dup4\n  0xffffffffffffffffffffffffffffffffffffffff\n  and\n  mul\n  or\n  swap1\n  sstore\n  pop\n    /* \"@openzeppelin/contracts/access/Ownable.sol\":3083:3091  newOwner */\n  dup2\n    /* \"@openzeppelin/contracts/access/Ownable.sol\":3052:3092  OwnershipTransferred(oldOwner, newOwner) */\n  0xffffffffffffffffffffffffffffffffffffffff\n  and\n    /* \"@openzeppelin/contracts/access/Ownable.sol\":3073:3081  oldOwner */\n  dup2\n    /* \"@openzeppelin/contracts/access/Ownable.sol\":3052:3092  OwnershipTransferred(oldOwner, newOwner) */\n  0xffffffffffffffffffffffffffffffffffffffff\n  and\n  0x8be0079c531659141344cd1fd0a4f28419497f9722a3daafe3b4186f6b6457e0\n  mload(0x40)\n  mload(0x40)\n  dup1\n  swap2\n  sub\n  swap1\n  log3\n    /* \"@openzeppelin/contracts/access/Ownable.sol\":2975:3099  {... */\n  pop\n    /* \"@openzeppelin/contracts/access/Ownable.sol\":2912:3099  function _transferOwnership(address newOwner) internal virtual {... */\n  pop\n  jump\t// out\n    /* \"#utility.yul\":7:133   */\ntag_15:\n    /* \"#utility.yul\":44:51   */\n  0x00\n    /* \"#utility.yul\":84:126   */\n  0xffffffffffffffffffffffffffffffffffffffff\n    /* \"#utility.yul\":77:82   */\n  dup3\n    /* \"#utility.yul\":73:127   */\n  and\n    /* \"#utility.yul\":62:127   */\n  swap1\n  pop\n    /* \"#utility.yul\":7:133   */\n  swap2\n  swap1\n  pop\n  jump\t// out\n    /* \"#utility.yul\":139:235   */\ntag_16:\n    /* \"#utility.yul\":176:183   */\n  0x00\n    /* \"#utility.yul\":205:229   */\n  tag_21\n    /* \"#utility.yul\":223:228   */\n  dup3\n    /* \"#utility.yul\":205:229   */\n  tag_15\n  jump\t// in\ntag_21:\n    /* \"#utility.yul\":194:229   */\n  swap1\n  pop\n    /* \"#utility.yul\":139:235   */\n  swap2\n  swap1\n  pop\n  jump\t// out\n    /* \"#utility.yul\":241:359   */\ntag_17:\n    /* \"#utility.yul\":328:352   */\n  tag_23\n    /* \"#utility.yul\":346:351   */\n  dup2\n    /* \"#utility.yul\":328:352   */\n  tag_16\n  jump\t// in\ntag_23:\n    /* \"#utility.yul\":323:326   */\n  dup3\n    /* \"#utility.yul\":316:353   */\n  mstore\n    /* \"#utility.yul\":241:359   */\n  pop\n  pop\n  jump\t// out\n    /* \"#utility.yul\":365:587   */\ntag_8:\n    /* \"#utility.yul\":458:462   */\n  0x00\n    /* \"#utility.yul\":496:498   */\n  0x20\n    /* \"#utility.yul\":485:494   */\n  dup3\n    /* \"#utility.yul\":481:499   */\n  add\n    /* \"#utility.yul\":473:499   */\n  swap1\n  pop\n    /* \"#utility.yul\":509:580   */\n  tag_25\n    /* \"#utility.yul\":577:578   */\n  0x00\n    /* \"#utility.yul\":566:575   */\n  dup4\n    /* \"#utility.yul\":562:579   */\n  add\n    /* \"#utility.yul\":553:559   */\n  dup5\n    /* \"#utility.yul\":509:580   */\n  tag_17\n  jump\t// in\ntag_25:\n    /* \"#utility.yul\":365:587   */\n  swap3\n  swap2\n  pop\n  pop\n  jump\t// out\n    /* \"contracts/LiquidityAccelerationToken.sol\":1161:15541  contract LiquidityAccelerationToken is Ownable, ReentrancyGuard {... */\ntag_13:\n  dataSize(sub_0)\n  dup1\n  dataOffset(sub_0)\n  0x00\n  codecopy\n  0x00\n  return\nstop\n\nsub_0: assembly {\n        /* \"contracts/LiquidityAccelerationToken.sol\":1161:15541  contract LiquidityAccelerationToken is Ownable, ReentrancyGuard {... */\n      mstore(0x40, 0x80)\n      callvalue\n      dup1\n      iszero\n      tag_1\n      jumpi\n      revert(0x00, 0x00)\n    tag_1:\n      pop\n      jumpi(tag_2, lt(calldatasize, 0x04))\n      shr(0xe0, calldataload(0x00))\n      dup1\n      0x64cb6142\n      gt\n      tag_41\n      jumpi\n      dup1\n      0xdd69becd\n      gt\n      tag_42\n      jumpi\n      dup1\n      0xf03f80c3\n      gt\n      tag_43\n      jumpi\n      dup1\n      0xf03f80c3\n      eq\n      tag_36\n      jumpi\n      dup1\n      0xf1ea7692\n      eq\n      tag_37\n      jumpi\n      dup1\n      0xf2fde38b\n      eq\n      tag_38\n      jumpi\n      dup1\n      0xf3482650\n      eq\n      tag_39\n      jumpi\n      dup1\n      0xf6cc5157\n      eq\n      tag_40\n      jumpi\n      jump(tag_2)\n    tag_43:\n      dup1\n      0xdd69becd\n      eq\n      tag_31\n      jumpi\n      dup1\n      0xe275c997\n      eq\n      tag_32\n      jumpi\n      dup1\n      0xe90b0d76\n      eq\n      tag_33\n      jumpi\n      dup1\n      0xe927e7c0\n      eq\n      tag_34\n      jumpi\n      dup1\n      0xeab35b77\n      eq\n      tag_35\n      jumpi\n      jump(tag_2)\n    tag_42:\n      dup1\n      0x848ff684\n      gt\n      tag_44\n      jumpi\n      dup1\n      0x848ff684\n      eq\n      tag_26\n      jumpi\n      dup1\n      0x8da5cb5b\n      eq\n      tag_27\n      jumpi\n      dup1\n      0x94d9b235\n      eq\n      tag_28\n      jumpi\n      dup1\n      0xc2362dd5\n      eq\n      tag_29\n      jumpi\n      dup1\n      0xccc8362c\n      eq\n      tag_30\n      jumpi\n      jump(tag_2)\n    tag_44:\n      dup1\n      0x64cb6142\n      eq\n      tag_22\n      jumpi\n      dup1\n      0x715018a6\n      eq\n      tag_23\n      jumpi\n      dup1\n      0x7ecebe00\n      eq\n      tag_24\n      jumpi\n      dup1\n      0x8119185b\n      eq\n      tag_25\n      jumpi\n      jump(tag_2)\n    tag_41:\n      dup1\n      0x25d5971f\n      gt\n      tag_45\n      jumpi\n      dup1\n      0x519445e2\n      gt\n      tag_46\n      jumpi\n      dup1\n      0x519445e2\n      eq\n      tag_17\n      jumpi\n      dup1\n      0x5829b3c7\n      eq\n      tag_18\n      jumpi\n      dup1\n      0x58ba9d27\n      eq\n      tag_19\n      jumpi\n      dup1\n      0x5c975abb\n      eq\n      tag_20\n      jumpi\n      dup1\n      0x5e2a9fa2\n      eq\n      tag_21\n      jumpi\n      jump(tag_2)\n    tag_46:\n      dup1\n      0x25d5971f\n      eq\n      tag_12\n      jumpi\n      dup1\n      0x31fdc2ba\n      eq\n      tag_13\n      jumpi\n      dup1\n      0x430bf08a\n      eq\n      tag_14\n      jumpi\n      dup1\n      0x45626bd6\n      eq\n      tag_15\n      jumpi\n      dup1\n      0x4ff0876a\n      eq\n      tag_16\n      jumpi\n      jump(tag_2)\n    tag_45:\n      dup1\n      0x158ef93e\n      gt\n      tag_47\n      jumpi\n      dup1\n      0x158ef93e\n      eq\n      tag_7\n      jumpi\n      dup1\n      0x16330d40\n      eq\n      tag_8\n      jumpi\n      dup1\n      0x16934fc4\n      eq\n      tag_9\n      jumpi\n      dup1\n      0x16c38b3c\n      eq\n      tag_10\n      jumpi\n      dup1\n      0x1bff38cd\n      eq\n      tag_11\n      jumpi\n      jump(tag_2)\n    tag_47:\n      dup1\n      0x011a4568\n      eq\n      tag_3\n      jumpi\n      dup1\n      0x0524fb7e\n      eq\n      tag_4\n      jumpi\n      dup1\n      0x05c50a35\n      eq\n      tag_5\n      jumpi\n      dup1\n      0x0fd7bf50\n      eq\n      tag_6\n      jumpi\n    tag_2:\n      revert(0x00, 0x00)\n        /* \"contracts/LiquidityAccelerationToken.sol\":2763:2807  mapping(address => uint256) public takerFees */\n    tag_3:\n      tag_48\n      0x04\n      dup1\n      calldatasize\n      sub\n      dup2\n      add\n      swap1\n      tag_49\n      swap2\n      swap1\n      tag_50\n      jump\t// in\n    tag_49:\n      tag_51\n      jump\t// in\n    tag_48:\n      mload(0x40)\n      tag_52\n      swap2\n      swap1\n      tag_53\n      jump\t// in\n    tag_52:\n      mload(0x40)\n      dup1\n      swap2\n      sub\n      swap1\n      return\n        /* \"contracts/LiquidityAccelerationToken.sol\":10151:10856  function stakeLat(uint256 amount) external whenNotPaused nonReentrant {... */\n    tag_4:\n      tag_54\n      0x04\n      dup1\n      calldatasize\n      sub\n      dup2\n      add\n      swap1\n      tag_55\n      swap2\n      swap1\n      tag_56\n      jump\t// in\n    tag_55:\n      tag_57\n      jump\t// in\n    tag_54:\n      stop\n        /* \"contracts/LiquidityAccelerationToken.sol\":3134:3184  mapping(address => TraderStats) public traderStats */\n    tag_5:\n      tag_58\n      0x04\n      dup1\n      calldatasize\n      sub\n      dup2\n      add\n      swap1\n      tag_59\n      swap2\n      swap1\n      tag_50\n      jump\t// in\n    tag_59:\n      tag_60\n      jump\t// in\n    tag_58:\n      mload(0x40)\n      tag_61\n      swap5\n      swap4\n      swap3\n      swap2\n      swap1\n      tag_62\n      jump\t// in\n    tag_61:\n      mload(0x40)\n      dup1\n      swap2\n      sub\n      swap1\n      return\n        /* \"contracts/LiquidityAccelerationToken.sol\":1398:1423  ILatToken public latToken */\n    tag_6:\n      tag_63\n      tag_64\n      jump\t// in\n    tag_63:\n      mload(0x40)\n      tag_65\n      swap2\n      swap1\n      tag_66\n      jump\t// in\n    tag_65:\n      mload(0x40)\n      dup1\n      swap2\n      sub\n      swap1\n      return\n        /* \"contracts/LiquidityAccelerationToken.sol\":2408:2431  bool public initialized */\n    tag_7:\n      tag_67\n      tag_68\n      jump\t// in\n    tag_67:\n      mload(0x40)\n      tag_69\n      swap2\n      swap1\n      tag_70\n      jump\t// in\n    tag_69:\n      mload(0x40)\n      dup1\n      swap2\n      sub\n      swap1\n      return\n        /* \"contracts/LiquidityAccelerationToken.sol\":1766:1804  uint256 public earlyWithdrawalFee = 10 */\n    tag_8:\n      tag_71\n      tag_72\n      jump\t// in\n    tag_71:\n      mload(0x40)\n      tag_73\n      swap2\n      swap1\n      tag_53\n      jump\t// in\n    tag_73:\n      mload(0x40)\n      dup1\n      swap2\n      sub\n      swap1\n      return\n        /* \"contracts/LiquidityAccelerationToken.sol\":3325:3364  mapping(address => Stake) public stakes */\n    tag_9:\n      tag_74\n      0x04\n      dup1\n      calldatasize\n      sub\n      dup2\n      add\n      swap1\n      tag_75\n      swap2\n      swap1\n      tag_50\n      jump\t// in\n    tag_75:\n      tag_76\n      jump\t// in\n    tag_74:\n      mload(0x40)\n      tag_77\n      swap4\n      swap3\n      swap2\n      swap1\n      tag_78\n      jump\t// in\n    tag_77:\n      mload(0x40)\n      dup1\n      swap2\n      sub\n      swap1\n      return\n        /* \"contracts/LiquidityAccelerationToken.sol\":6563:6678  function setPaused(bool _paused) external onlyOwner {... */\n    tag_10:\n      tag_79\n      0x04\n      dup1\n      calldatasize\n      sub\n      dup2\n      add\n      swap1\n      tag_80\n      swap2\n      swap1\n      tag_81\n      jump\t// in\n    tag_80:\n      tag_82\n      jump\t// in\n    tag_79:\n      stop\n        /* \"contracts/LiquidityAccelerationToken.sol\":1726:1760  uint256 public poolBoostMultiplier */\n    tag_11:\n      tag_83\n      tag_84\n      jump\t// in\n    tag_83:\n      mload(0x40)\n      tag_85\n      swap2\n      swap1\n      tag_53\n      jump\t// in\n    tag_85:\n      mload(0x40)\n      dup1\n      swap2\n      sub\n      swap1\n      return\n        /* \"contracts/LiquidityAccelerationToken.sol\":13034:13967  function withdrawStake(uint256 amount) external whenNotPaused nonReentrant {... */\n    tag_12:\n      tag_86\n      0x04\n      dup1\n      calldatasize\n      sub\n      dup2\n      add\n      swap1\n      tag_87\n      swap2\n      swap1\n      tag_56\n      jump\t// in\n    tag_87:\n      tag_88\n      jump\t// in\n    tag_86:\n      stop\n        /* \"contracts/LiquidityAccelerationToken.sol\":14337:14584  function updateLiquidityMultiplier(address trader, uint256 lpTokens) external onlyOwner {... */\n    tag_13:\n      tag_89\n      0x04\n      dup1\n      calldatasize\n      sub\n      dup2\n      add\n      swap1\n      tag_90\n      swap2\n      swap1\n      tag_91\n      jump\t// in\n    tag_90:\n      tag_92\n      jump\t// in\n    tag_89:\n      stop\n        /* \"contracts/LiquidityAccelerationToken.sol\":3817:3844  address public vaultAddress */\n    tag_14:\n      tag_93\n      tag_94\n      jump\t// in\n    tag_93:\n      mload(0x40)\n      tag_95\n      swap2\n      swap1\n      tag_96\n      jump\t// in\n    tag_95:\n      mload(0x40)\n      dup1\n      swap2\n      sub\n      swap1\n      return\n        /* \"contracts/LiquidityAccelerationToken.sol\":3692:3750  mapping(address => VestingEntry[]) public vestingSchedules */\n    tag_15:\n      tag_97\n      0x04\n      dup1\n      calldatasize\n      sub\n      dup2\n      add\n      swap1\n      tag_98\n      swap2\n      swap1\n      tag_91\n      jump\t// in\n    tag_98:\n      tag_99\n      jump\t// in\n    tag_97:\n      mload(0x40)\n      tag_100\n      swap5\n      swap4\n      swap3\n      swap2\n      swap1\n      tag_62\n      jump\t// in\n    tag_100:\n      mload(0x40)\n      dup1\n      swap2\n      sub\n      swap1\n      return\n        /* \"contracts/LiquidityAccelerationToken.sol\":1933:1961  uint256 public epochDuration */\n    tag_16:\n      tag_101\n      tag_102\n      jump\t// in\n    tag_101:\n      mload(0x40)\n      tag_103\n      swap2\n      swap1\n      tag_53\n      jump\t// in\n    tag_103:\n      mload(0x40)\n      dup1\n      swap2\n      sub\n      swap1\n      return\n        /* \"contracts/LiquidityAccelerationToken.sol\":1534:1565  uint256 public epochTradeVolume */\n    tag_17:\n      tag_104\n      tag_105\n      jump\t// in\n    tag_104:\n      mload(0x40)\n      tag_106\n      swap2\n      swap1\n      tag_53\n      jump\t// in\n    tag_106:\n      mload(0x40)\n      dup1\n      swap2\n      sub\n      swap1\n      return\n        /* \"contracts/LiquidityAccelerationToken.sol\":2890:2949  mapping(address => uint256) public liquidityBoostMultiplier */\n    tag_18:\n      tag_107\n      0x04\n      dup1\n      calldatasize\n      sub\n      dup2\n      add\n      swap1\n      tag_108\n      swap2\n      swap1\n      tag_50\n      jump\t// in\n    tag_108:\n      tag_109\n      jump\t// in\n    tag_107:\n      mload(0x40)\n      tag_110\n      swap2\n      swap1\n      tag_53\n      jump\t// in\n    tag_110:\n      mload(0x40)\n      dup1\n      swap2\n      sub\n      swap1\n      return\n        /* \"contracts/LiquidityAccelerationToken.sol\":3429:3476  mapping(address => uint256) public stakedWeight */\n    tag_19:\n      tag_111\n      0x04\n      dup1\n      calldatasize\n      sub\n      dup2\n      add\n      swap1\n      tag_112\n      swap2\n      swap1\n      tag_50\n      jump\t// in\n    tag_112:\n      tag_113\n      jump\t// in\n    tag_111:\n      mload(0x40)\n      tag_114\n      swap2\n      swap1\n      tag_53\n      jump\t// in\n    tag_114:\n      mload(0x40)\n      dup1\n      swap2\n      sub\n      swap1\n      return\n        /* \"contracts/LiquidityAccelerationToken.sol\":2332:2350  bool public paused */\n    tag_20:\n      tag_115\n      tag_116\n      jump\t// in\n    tag_115:\n      mload(0x40)\n      tag_117\n      swap2\n      swap1\n      tag_70\n      jump\t// in\n    tag_117:\n      mload(0x40)\n      dup1\n      swap2\n      sub\n      swap1\n      return\n        /* \"contracts/LiquidityAccelerationToken.sol\":2710:2757  mapping(address => uint256) public makerRebates */\n    tag_21:\n      tag_118\n      0x04\n      dup1\n      calldatasize\n      sub\n      dup2\n      add\n      swap1\n      tag_119\n      swap2\n      swap1\n      tag_50\n      jump\t// in\n    tag_119:\n      tag_120\n      jump\t// in\n    tag_118:\n      mload(0x40)\n      tag_121\n      swap2\n      swap1\n      tag_53\n      jump\t// in\n    tag_121:\n      mload(0x40)\n      dup1\n      swap2\n      sub\n      swap1\n      return\n        /* \"contracts/LiquidityAccelerationToken.sol\":1686:1720  uint256 public poolVolumeThreshold */\n    tag_22:\n      tag_122\n      tag_123\n      jump\t// in\n    tag_122:\n      mload(0x40)\n      tag_124\n      swap2\n      swap1\n      tag_53\n      jump\t// in\n    tag_124:\n      mload(0x40)\n      dup1\n      swap2\n      sub\n      swap1\n      return\n        /* \"@openzeppelin/contracts/access/Ownable.sol\":2293:2394  function renounceOwnership() public virtual onlyOwner {... */\n    tag_23:\n      tag_125\n      tag_126\n      jump\t// in\n    tag_125:\n      stop\n        /* \"contracts/LiquidityAccelerationToken.sol\":2494:2535  mapping(address => uint256) public nonces */\n    tag_24:\n      tag_127\n      0x04\n      dup1\n      calldatasize\n      sub\n      dup2\n      add\n      swap1\n      tag_128\n      swap2\n      swap1\n      tag_50\n      jump\t// in\n    tag_128:\n      tag_129\n      jump\t// in\n    tag_127:\n      mload(0x40)\n      tag_130\n      swap2\n      swap1\n      tag_53\n      jump\t// in\n    tag_130:\n      mload(0x40)\n      dup1\n      swap2\n      sub\n      swap1\n      return\n        /* \"contracts/LiquidityAccelerationToken.sol\":2047:2094  uint256 public inactivitySlashingTime = 30 days */\n    tag_25:\n      tag_131\n      tag_132\n      jump\t// in\n    tag_131:\n      mload(0x40)\n      tag_133\n      swap2\n      swap1\n      tag_53\n      jump\t// in\n    tag_133:\n      mload(0x40)\n      dup1\n      swap2\n      sub\n      swap1\n      return\n        /* \"contracts/LiquidityAccelerationToken.sol\":5603:6485  function initialize(... */\n    tag_26:\n      tag_134\n      0x04\n      dup1\n      calldatasize\n      sub\n      dup2\n      add\n      swap1\n      tag_135\n      swap2\n      swap1\n      tag_136\n      jump\t// in\n    tag_135:\n      tag_137\n      jump\t// in\n    tag_134:\n      stop\n        /* \"@openzeppelin/contracts/access/Ownable.sol\":1638:1723  function owner() public view virtual returns (address) {... */\n    tag_27:\n      tag_138\n      tag_139\n      jump\t// in\n    tag_138:\n      mload(0x40)\n      tag_140\n      swap2\n      swap1\n      tag_96\n      jump\t// in\n    tag_140:\n      mload(0x40)\n      dup1\n      swap2\n      sub\n      swap1\n      return\n        /* \"contracts/LiquidityAccelerationToken.sol\":2100:2141  uint256 public inactivityPenaltyRate = 20 */\n    tag_28:\n      tag_141\n      tag_142\n      jump\t// in\n    tag_141:\n      mload(0x40)\n      tag_143\n      swap2\n      swap1\n      tag_53\n      jump\t// in\n    tag_143:\n      mload(0x40)\n      dup1\n      swap2\n      sub\n      swap1\n      return\n        /* \"contracts/LiquidityAccelerationToken.sol\":1898:1927  uint256 public lastEpochBlock */\n    tag_29:\n      tag_144\n      tag_145\n      jump\t// in\n    tag_144:\n      mload(0x40)\n      tag_146\n      swap2\n      swap1\n      tag_53\n      jump\t// in\n    tag_146:\n      mload(0x40)\n      dup1\n      swap2\n      sub\n      swap1\n      return\n        /* \"contracts/LiquidityAccelerationToken.sol\":1466:1496  uint256 public stakeRewardRate */\n    tag_30:\n      tag_147\n      tag_148\n      jump\t// in\n    tag_147:\n      mload(0x40)\n      tag_149\n      swap2\n      swap1\n      tag_53\n      jump\t// in\n    tag_149:\n      mload(0x40)\n      dup1\n      swap2\n      sub\n      swap1\n      return\n        /* \"contracts/LiquidityAccelerationToken.sol\":11155:12811  function claimStakeRewards(uint256 expectedNonce) external whenNotPaused nonReentrant {... */\n    tag_31:\n      tag_150\n      0x04\n      dup1\n      calldatasize\n      sub\n      dup2\n      add\n      swap1\n      tag_151\n      swap2\n      swap1\n      tag_56\n      jump\t// in\n    tag_151:\n      tag_152\n      jump\t// in\n    tag_150:\n      stop\n        /* \"contracts/LiquidityAccelerationToken.sol\":1502:1528  uint256 public totalTrades */\n    tag_32:\n      tag_153\n      tag_154\n      jump\t// in\n    tag_153:\n      mload(0x40)\n      tag_155\n      swap2\n      swap1\n      tag_53\n      jump\t// in\n    tag_155:\n      mload(0x40)\n      dup1\n      swap2\n      sub\n      swap1\n      return\n        /* \"contracts/LiquidityAccelerationToken.sol\":8805:9748  function claimTradeRewards(uint256 expectedNonce, bytes memory signature) external whenNotPaused nonReentrant {... */\n    tag_33:\n      tag_156\n      0x04\n      dup1\n      calldatasize\n      sub\n      dup2\n      add\n      swap1\n      tag_157\n      swap2\n      swap1\n      tag_158\n      jump\t// in\n    tag_157:\n      tag_159\n      jump\t// in\n    tag_156:\n      stop\n        /* \"contracts/LiquidityAccelerationToken.sol\":7128:8484  function recordTrade(uint256 tradeVolume, bool isMaker) external whenNotPaused nonReentrant {... */\n    tag_34:\n      tag_160\n      0x04\n      dup1\n      calldatasize\n      sub\n      dup2\n      add\n      swap1\n      tag_161\n      swap2\n      swap1\n      tag_162\n      jump\t// in\n    tag_161:\n      tag_163\n      jump\t// in\n    tag_160:\n      stop\n        /* \"contracts/LiquidityAccelerationToken.sol\":1648:1680  uint256 public poolTradingVolume */\n    tag_35:\n      tag_164\n      tag_165\n      jump\t// in\n    tag_164:\n      mload(0x40)\n      tag_166\n      swap2\n      swap1\n      tag_53\n      jump\t// in\n    tag_166:\n      mload(0x40)\n      dup1\n      swap2\n      sub\n      swap1\n      return\n        /* \"contracts/LiquidityAccelerationToken.sol\":2243:2291  uint256 public maxClaimable = 1_000_000 * 10**18 */\n    tag_36:\n      tag_167\n      tag_168\n      jump\t// in\n    tag_167:\n      mload(0x40)\n      tag_169\n      swap2\n      swap1\n      tag_53\n      jump\t// in\n    tag_169:\n      mload(0x40)\n      dup1\n      swap2\n      sub\n      swap1\n      return\n        /* \"contracts/LiquidityAccelerationToken.sol\":1571:1604  uint256 public tradeEpochDuration */\n    tag_37:\n      tag_170\n      tag_171\n      jump\t// in\n    tag_170:\n      mload(0x40)\n      tag_172\n      swap2\n      swap1\n      tag_53\n      jump\t// in\n    tag_172:\n      mload(0x40)\n      dup1\n      swap2\n      sub\n      swap1\n      return\n        /* \"@openzeppelin/contracts/access/Ownable.sol\":2543:2758  function transferOwnership(address newOwner) public virtual onlyOwner {... */\n    tag_38:\n      tag_173\n      0x04\n      dup1\n      calldatasize\n      sub\n      dup2\n      add\n      swap1\n      tag_174\n      swap2\n      swap1\n      tag_50\n      jump\t// in\n    tag_174:\n      tag_175\n      jump\t// in\n    tag_173:\n      stop\n        /* \"contracts/LiquidityAccelerationToken.sol\":2589:2639  mapping(address => uint256) public lastSignedClaim */\n    tag_39:\n      tag_176\n      0x04\n      dup1\n      calldatasize\n      sub\n      dup2\n      add\n      swap1\n      tag_177\n      swap2\n      swap1\n      tag_50\n      jump\t// in\n    tag_177:\n      tag_178\n      jump\t// in\n    tag_176:\n      mload(0x40)\n      tag_179\n      swap2\n      swap1\n      tag_53\n      jump\t// in\n    tag_179:\n      mload(0x40)\n      dup1\n      swap2\n      sub\n      swap1\n      return\n        /* \"contracts/LiquidityAccelerationToken.sol\":1430:1460  uint256 public tradeRewardRate */\n    tag_40:\n      tag_180\n      tag_181\n      jump\t// in\n    tag_180:\n      mload(0x40)\n      tag_182\n      swap2\n      swap1\n      tag_53\n      jump\t// in\n    tag_182:\n      mload(0x40)\n      dup1\n      swap2\n      sub\n      swap1\n      return\n        /* \"contracts/LiquidityAccelerationToken.sol\":2763:2807  mapping(address => uint256) public takerFees */\n    tag_51:\n      mstore(0x20, 0x15)\n      dup1\n      0x00\n      mstore\n      keccak256(0x00, 0x40)\n      0x00\n      swap2\n      pop\n      swap1\n      pop\n      sload\n      dup2\n      jump\t// out\n        /* \"contracts/LiquidityAccelerationToken.sol\":10151:10856  function stakeLat(uint256 amount) external whenNotPaused nonReentrant {... */\n    tag_57:\n        /* \"contracts/LiquidityAccelerationToken.sol\":4612:4618  paused */\n      0x11\n      0x00\n      swap1\n      sload\n      swap1\n      0x0100\n      exp\n      swap1\n      div\n      0xff\n      and\n        /* \"contracts/LiquidityAccelerationToken.sol\":4611:4618  !paused */\n      iszero\n        /* \"contracts/LiquidityAccelerationToken.sol\":4603:4641  require(!paused, \"Contract is paused\") */\n      tag_184\n      jumpi\n      mload(0x40)\n      0x08c379a000000000000000000000000000000000000000000000000000000000\n      dup2\n      mstore\n      0x04\n      add\n      tag_185\n      swap1\n      tag_186\n      jump\t// in\n    tag_185:\n      mload(0x40)\n      dup1\n      swap2\n      sub\n      swap1\n      revert\n    tag_184:\n        /* \"@openzeppelin/contracts/security/ReentrancyGuard.sol\":2261:2282  _nonReentrantBefore() */\n      tag_188\n        /* \"@openzeppelin/contracts/security/ReentrancyGuard.sol\":2261:2280  _nonReentrantBefore */\n      tag_189\n        /* \"@openzeppelin/contracts/security/ReentrancyGuard.sol\":2261:2282  _nonReentrantBefore() */\n      jump\t// in\n    tag_188:\n        /* \"contracts/LiquidityAccelerationToken.sol\":10239:10250  initialized */\n      0x11\n      0x01\n      swap1\n      sload\n      swap1\n      0x0100\n      exp\n      swap1\n      div\n      0xff\n      and\n        /* \"contracts/LiquidityAccelerationToken.sol\":10231:10270  require(initialized, \"Not initialized\") */\n      tag_191\n      jumpi\n      mload(0x40)\n      0x08c379a000000000000000000000000000000000000000000000000000000000\n      dup2\n      mstore\n      0x04\n      add\n      tag_192\n      swap1\n      tag_193\n      jump\t// in\n    tag_192:\n      mload(0x40)\n      dup1\n      swap2\n      sub\n      swap1\n      revert\n    tag_191:\n        /* \"contracts/LiquidityAccelerationToken.sol\":10352:10360  latToken */\n      0x02\n      0x00\n      swap1\n      sload\n      swap1\n      0x0100\n      exp\n      swap1\n      div\n      0xffffffffffffffffffffffffffffffffffffffff\n      and\n        /* \"contracts/LiquidityAccelerationToken.sol\":10352:10373  latToken.transferFrom */\n      0xffffffffffffffffffffffffffffffffffffffff\n      and\n      0x23b872dd\n        /* \"contracts/LiquidityAccelerationToken.sol\":10374:10384  msg.sender */\n      caller\n        /* \"contracts/LiquidityAccelerationToken.sol\":10386:10398  vaultAddress */\n      0x1b\n      0x00\n      swap1\n      sload\n      swap1\n      0x0100\n      exp\n      swap1\n      div\n      0xffffffffffffffffffffffffffffffffffffffff\n      and\n        /* \"contracts/LiquidityAccelerationToken.sol\":10400:10406  amount */\n      dup5\n        /* \"contracts/LiquidityAccelerationToken.sol\":10352:10407  latToken.transferFrom(msg.sender, vaultAddress, amount) */\n      mload(0x40)\n      dup5\n      0xffffffff\n      and\n      0xe0\n      shl\n      dup2\n      mstore\n      0x04\n      add\n      tag_194\n      swap4\n      swap3\n      swap2\n      swap1\n      tag_195\n      jump\t// in\n    tag_194:\n      0x20\n      mload(0x40)\n      dup1\n      dup4\n      sub\n      dup2\n      0x00\n      dup8\n      gas\n      call\n      iszero\n      dup1\n      iszero\n      tag_197\n      jumpi\n      returndatacopy(0x00, 0x00, returndatasize)\n      revert(0x00, returndatasize)\n    tag_197:\n      pop\n      pop\n      pop\n      pop\n      mload(0x40)\n      returndatasize\n      not(0x1f)\n      0x1f\n      dup3\n      add\n      and\n      dup3\n      add\n      dup1\n      0x40\n      mstore\n      pop\n      dup2\n      add\n      swap1\n      tag_198\n      swap2\n      swap1\n      tag_199\n      jump\t// in\n    tag_198:\n        /* \"contracts/LiquidityAccelerationToken.sol\":10344:10427  require(latToken.transferFrom(msg.sender, vaultAddress, amount), \"Transfer failed\") */\n      tag_200\n      jumpi\n      mload(0x40)\n      0x08c379a000000000000000000000000000000000000000000000000000000000\n      dup2\n      mstore\n      0x04\n      add\n      tag_201\n      swap1\n      tag_202\n      jump\t// in\n    tag_201:\n      mload(0x40)\n      dup1\n      swap2\n      sub\n      swap1\n      revert\n    tag_200:\n        /* \"contracts/LiquidityAccelerationToken.sol\":10438:10453  Stake storage s */\n      0x00\n        /* \"contracts/LiquidityAccelerationToken.sol\":10456:10462  stakes */\n      0x18\n        /* \"contracts/LiquidityAccelerationToken.sol\":10456:10474  stakes[msg.sender] */\n      0x00\n        /* \"contracts/LiquidityAccelerationToken.sol\":10463:10473  msg.sender */\n      caller\n        /* \"contracts/LiquidityAccelerationToken.sol\":10456:10474  stakes[msg.sender] */\n      0xffffffffffffffffffffffffffffffffffffffff\n      and\n      0xffffffffffffffffffffffffffffffffffffffff\n      and\n      dup2\n      mstore\n      0x20\n      add\n      swap1\n      dup2\n      mstore\n      0x20\n      add\n      0x00\n      keccak256\n        /* \"contracts/LiquidityAccelerationToken.sol\":10438:10474  Stake storage s = stakes[msg.sender] */\n      swap1\n      pop\n        /* \"contracts/LiquidityAccelerationToken.sol\":10504:10505  0 */\n      0x00\n        /* \"contracts/LiquidityAccelerationToken.sol\":10488:10489  s */\n      dup2\n        /* \"contracts/LiquidityAccelerationToken.sol\":10488:10500  s.stakeStart */\n      0x02\n      add\n      sload\n        /* \"contracts/LiquidityAccelerationToken.sol\":10488:10505  s.stakeStart == 0 */\n      sub\n        /* \"contracts/LiquidityAccelerationToken.sol\":10484:10737  if (s.stakeStart == 0) {... */\n      tag_203\n      jumpi\n        /* \"contracts/LiquidityAccelerationToken.sol\":10536:10551  block.timestamp */\n      timestamp\n        /* \"contracts/LiquidityAccelerationToken.sol\":10521:10522  s */\n      dup2\n        /* \"contracts/LiquidityAccelerationToken.sol\":10521:10533  s.stakeStart */\n      0x02\n      add\n        /* \"contracts/LiquidityAccelerationToken.sol\":10521:10551  s.stakeStart = block.timestamp */\n      dup2\n      swap1\n      sstore\n      pop\n        /* \"contracts/LiquidityAccelerationToken.sol\":10592:10595  100 */\n      0x64\n        /* \"contracts/LiquidityAccelerationToken.sol\":10565:10577  stakedWeight */\n      0x19\n        /* \"contracts/LiquidityAccelerationToken.sol\":10565:10589  stakedWeight[msg.sender] */\n      0x00\n        /* \"contracts/LiquidityAccelerationToken.sol\":10578:10588  msg.sender */\n      caller\n        /* \"contracts/LiquidityAccelerationToken.sol\":10565:10589  stakedWeight[msg.sender] */\n      0xffffffffffffffffffffffffffffffffffffffff\n      and\n      0xffffffffffffffffffffffffffffffffffffffff\n      and\n      dup2\n      mstore\n      0x20\n      add\n      swap1\n      dup2\n      mstore\n      0x20\n      add\n      0x00\n      keccak256\n        /* \"contracts/LiquidityAccelerationToken.sol\":10565:10595  stakedWeight[msg.sender] = 100 */\n      dup2\n      swap1\n      sstore\n      pop\n        /* \"contracts/LiquidityAccelerationToken.sol\":10484:10737  if (s.stakeStart == 0) {... */\n      jump(tag_204)\n    tag_203:\n        /* \"contracts/LiquidityAccelerationToken.sol\":10724:10726  10 */\n      0x0a\n        /* \"contracts/LiquidityAccelerationToken.sol\":10696:10708  stakedWeight */\n      0x19\n        /* \"contracts/LiquidityAccelerationToken.sol\":10696:10720  stakedWeight[msg.sender] */\n      0x00\n        /* \"contracts/LiquidityAccelerationToken.sol\":10709:10719  msg.sender */\n      caller\n        /* \"contracts/LiquidityAccelerationToken.sol\":10696:10720  stakedWeight[msg.sender] */\n      0xffffffffffffffffffffffffffffffffffffffff\n      and\n      0xffffffffffffffffffffffffffffffffffffffff\n      and\n      dup2\n      mstore\n      0x20\n      add\n      swap1\n      dup2\n      mstore\n      0x20\n      add\n      0x00\n      keccak256\n      0x00\n        /* \"contracts/LiquidityAccelerationToken.sol\":10696:10726  stakedWeight[msg.sender] += 10 */\n      dup3\n      dup3\n      sload\n      tag_205\n      swap2\n      swap1\n      tag_206\n      jump\t// in\n    tag_205:\n      swap3\n      pop\n      pop\n      dup2\n      swap1\n      sstore\n      pop\n        /* \"contracts/LiquidityAccelerationToken.sol\":10484:10737  if (s.stakeStart == 0) {... */\n    tag_204:\n        /* \"contracts/LiquidityAccelerationToken.sol\":10758:10764  amount */\n      dup2\n        /* \"contracts/LiquidityAccelerationToken.sol\":10746:10747  s */\n      dup2\n        /* \"contracts/LiquidityAccelerationToken.sol\":10746:10754  s.amount */\n      0x00\n      add\n      0x00\n        /* \"contracts/LiquidityAccelerationToken.sol\":10746:10764  s.amount += amount */\n      dup3\n      dup3\n      sload\n      tag_207\n      swap2\n      swap1\n      tag_206\n      jump\t// in\n    tag_207:\n      swap3\n      pop\n      pop\n      dup2\n      swap1\n      sstore\n      pop\n        /* \"contracts/LiquidityAccelerationToken.sol\":10790:10805  block.timestamp */\n      timestamp\n        /* \"contracts/LiquidityAccelerationToken.sol\":10774:10775  s */\n      dup2\n        /* \"contracts/LiquidityAccelerationToken.sol\":10774:10787  s.lastUpdated */\n      0x01\n      add\n        /* \"contracts/LiquidityAccelerationToken.sol\":10774:10805  s.lastUpdated = block.timestamp */\n      dup2\n      swap1\n      sstore\n      pop\n        /* \"contracts/LiquidityAccelerationToken.sol\":10830:10840  msg.sender */\n      caller\n        /* \"contracts/LiquidityAccelerationToken.sol\":10821:10849  StakeLat(msg.sender, amount) */\n      0xffffffffffffffffffffffffffffffffffffffff\n      and\n      0x6afd9b8c734cbfeda8ba55afbdd1ac413bf617456b50196186371d2cc95b8572\n        /* \"contracts/LiquidityAccelerationToken.sol\":10842:10848  amount */\n      dup4\n        /* \"contracts/LiquidityAccelerationToken.sol\":10821:10849  StakeLat(msg.sender, amount) */\n      mload(0x40)\n      tag_208\n      swap2\n      swap1\n      tag_53\n      jump\t// in\n    tag_208:\n      mload(0x40)\n      dup1\n      swap2\n      sub\n      swap1\n      log2\n        /* \"contracts/LiquidityAccelerationToken.sol\":10221:10856  {... */\n      pop\n        /* \"@openzeppelin/contracts/security/ReentrancyGuard.sol\":2303:2323  _nonReentrantAfter() */\n      tag_209\n        /* \"@openzeppelin/contracts/security/ReentrancyGuard.sol\":2303:2321  _nonReentrantAfter */\n      tag_210\n        /* \"@openzeppelin/contracts/security/ReentrancyGuard.sol\":2303:2323  _nonReentrantAfter() */\n      jump\t// in\n    tag_209:\n        /* \"contracts/LiquidityAccelerationToken.sol\":10151:10856  function stakeLat(uint256 amount) external whenNotPaused nonReentrant {... */\n      pop\n      jump\t// out\n        /* \"contracts/LiquidityAccelerationToken.sol\":3134:3184  mapping(address => TraderStats) public traderStats */\n    tag_60:\n      mstore(0x20, 0x17)\n      dup1\n      0x00\n      mstore\n      keccak256(0x00, 0x40)\n      0x00\n      swap2\n      pop\n      swap1\n      pop\n      dup1\n      0x00\n      add\n      sload\n      swap1\n      dup1\n      0x01\n      add\n      sload\n      swap1\n      dup1\n      0x02\n      add\n      sload\n      swap1\n      dup1\n      0x03\n      add\n      sload\n      swap1\n      pop\n      dup5\n      jump\t// out\n        /* \"contracts/LiquidityAccelerationToken.sol\":1398:1423  ILatToken public latToken */\n    tag_64:\n      0x02\n      0x00\n      swap1\n      sload\n      swap1\n      0x0100\n      exp\n      swap1\n      div\n      0xffffffffffffffffffffffffffffffffffffffff\n      and\n      dup2\n      jump\t// out\n        /* \"contracts/LiquidityAccelerationToken.sol\":2408:2431  bool public initialized */\n    tag_68:\n      0x11\n      0x01\n      swap1\n      sload\n      swap1\n      0x0100\n      exp\n      swap1\n      div\n      0xff\n      and\n      dup2\n      jump\t// out\n        /* \"contracts/LiquidityAccelerationToken.sol\":1766:1804  uint256 public earlyWithdrawalFee = 10 */\n    tag_72:\n      sload(0x0b)\n      dup2\n      jump\t// out\n        /* \"contracts/LiquidityAccelerationToken.sol\":3325:3364  mapping(address => Stake) public stakes */\n    tag_76:\n      mstore(0x20, 0x18)\n      dup1\n      0x00\n      mstore\n      keccak256(0x00, 0x40)\n      0x00\n      swap2\n      pop\n      swap1\n      pop\n      dup1\n      0x00\n      add\n      sload\n      swap1\n      dup1\n      0x01\n      add\n      sload\n      swap1\n      dup1\n      0x02\n      add\n      sload\n      swap1\n      pop\n      dup4\n      jump\t// out\n        /* \"contracts/LiquidityAccelerationToken.sol\":6563:6678  function setPaused(bool _paused) external onlyOwner {... */\n    tag_82:\n        /* \"@openzeppelin/contracts/access/Ownable.sol\":1531:1544  _checkOwner() */\n      tag_212\n        /* \"@openzeppelin/contracts/access/Ownable.sol\":1531:1542  _checkOwner */\n      tag_213\n        /* \"@openzeppelin/contracts/access/Ownable.sol\":1531:1544  _checkOwner() */\n      jump\t// in\n    tag_212:\n        /* \"contracts/LiquidityAccelerationToken.sol\":6634:6641  _paused */\n      dup1\n        /* \"contracts/LiquidityAccelerationToken.sol\":6625:6631  paused */\n      0x11\n      0x00\n        /* \"contracts/LiquidityAccelerationToken.sol\":6625:6641  paused = _paused */\n      0x0100\n      exp\n      dup2\n      sload\n      dup2\n      0xff\n      mul\n      not\n      and\n      swap1\n      dup4\n      iszero\n      iszero\n      mul\n      or\n      swap1\n      sstore\n      pop\n        /* \"contracts/LiquidityAccelerationToken.sol\":6656:6671  Paused(_paused) */\n      0x0e2fb031ee032dc02d8011dc50b816eb450cf856abd8261680dac74f72165bd2\n        /* \"contracts/LiquidityAccelerationToken.sol\":6663:6670  _paused */\n      dup2\n        /* \"contracts/LiquidityAccelerationToken.sol\":6656:6671  Paused(_paused) */\n      mload(0x40)\n      tag_215\n      swap2\n      swap1\n      tag_70\n      jump\t// in\n    tag_215:\n      mload(0x40)\n      dup1\n      swap2\n      sub\n      swap1\n      log1\n        /* \"contracts/LiquidityAccelerationToken.sol\":6563:6678  function setPaused(bool _paused) external onlyOwner {... */\n      pop\n      jump\t// out\n        /* \"contracts/LiquidityAccelerationToken.sol\":1726:1760  uint256 public poolBoostMultiplier */\n    tag_84:\n      sload(0x0a)\n      dup2\n      jump\t// out\n        /* \"contracts/LiquidityAccelerationToken.sol\":13034:13967  function withdrawStake(uint256 amount) external whenNotPaused nonReentrant {... */\n    tag_88:\n        /* \"contracts/LiquidityAccelerationToken.sol\":4612:4618  paused */\n      0x11\n      0x00\n      swap1\n      sload\n      swap1\n      0x0100\n      exp\n      swap1\n      div\n      0xff\n      and\n        /* \"contracts/LiquidityAccelerationToken.sol\":4611:4618  !paused */\n      iszero\n        /* \"contracts/LiquidityAccelerationToken.sol\":4603:4641  require(!paused, \"Contract is paused\") */\n      tag_217\n      jumpi\n      mload(0x40)\n      0x08c379a000000000000000000000000000000000000000000000000000000000\n      dup2\n      mstore\n      0x04\n      add\n      tag_218\n      swap1\n      tag_186\n      jump\t// in\n    tag_218:\n      mload(0x40)\n      dup1\n      swap2\n      sub\n      swap1\n      revert\n    tag_217:\n        /* \"@openzeppelin/contracts/security/ReentrancyGuard.sol\":2261:2282  _nonReentrantBefore() */\n      tag_220\n        /* \"@openzeppelin/contracts/security/ReentrancyGuard.sol\":2261:2280  _nonReentrantBefore */\n      tag_189\n        /* \"@openzeppelin/contracts/security/ReentrancyGuard.sol\":2261:2282  _nonReentrantBefore() */\n      jump\t// in\n    tag_220:\n        /* \"contracts/LiquidityAccelerationToken.sol\":13127:13138  initialized */\n      0x11\n      0x01\n      swap1\n      sload\n      swap1\n      0x0100\n      exp\n      swap1\n      div\n      0xff\n      and\n        /* \"contracts/LiquidityAccelerationToken.sol\":13119:13158  require(initialized, \"Not initialized\") */\n      tag_222\n      jumpi\n      mload(0x40)\n      0x08c379a000000000000000000000000000000000000000000000000000000000\n      dup2\n      mstore\n      0x04\n      add\n      tag_223\n      swap1\n      tag_193\n      jump\t// in\n    tag_223:\n      mload(0x40)\n      dup1\n      swap2\n      sub\n      swap1\n      revert\n    tag_222:\n        /* \"contracts/LiquidityAccelerationToken.sol\":13168:13183  Stake storage s */\n      0x00\n        /* \"contracts/LiquidityAccelerationToken.sol\":13186:13192  stakes */\n      0x18\n        /* \"contracts/LiquidityAccelerationToken.sol\":13186:13204  stakes[msg.sender] */\n      0x00\n        /* \"contracts/LiquidityAccelerationToken.sol\":13193:13203  msg.sender */\n      caller\n        /* \"contracts/LiquidityAccelerationToken.sol\":13186:13204  stakes[msg.sender] */\n      0xffffffffffffffffffffffffffffffffffffffff\n      and\n      0xffffffffffffffffffffffffffffffffffffffff\n      and\n      dup2\n      mstore\n      0x20\n      add\n      swap1\n      dup2\n      mstore\n      0x20\n      add\n      0x00\n      keccak256\n        /* \"contracts/LiquidityAccelerationToken.sol\":13168:13204  Stake storage s = stakes[msg.sender] */\n      swap1\n      pop\n        /* \"contracts/LiquidityAccelerationToken.sol\":13232:13233  s */\n      dup1\n        /* \"contracts/LiquidityAccelerationToken.sol\":13232:13240  s.amount */\n      0x00\n      add\n      sload\n        /* \"contracts/LiquidityAccelerationToken.sol\":13222:13228  amount */\n      dup3\n        /* \"contracts/LiquidityAccelerationToken.sol\":13222:13240  amount <= s.amount */\n      gt\n      iszero\n        /* \"contracts/LiquidityAccelerationToken.sol\":13214:13271  require(amount <= s.amount, \"Insufficient staked amount\") */\n      tag_224\n      jumpi\n      mload(0x40)\n      0x08c379a000000000000000000000000000000000000000000000000000000000\n      dup2\n      mstore\n      0x04\n      add\n      tag_225\n      swap1\n      tag_226\n      jump\t// in\n    tag_225:\n      mload(0x40)\n      dup1\n      swap2\n      sub\n      swap1\n      revert\n    tag_224:\n        /* \"contracts/LiquidityAccelerationToken.sol\":13282:13297  uint256 penalty */\n      0x00\n        /* \"contracts/LiquidityAccelerationToken.sol\":13300:13301  0 */\n      0x00\n        /* \"contracts/LiquidityAccelerationToken.sol\":13282:13301  uint256 penalty = 0 */\n      swap1\n      pop\n        /* \"contracts/LiquidityAccelerationToken.sol\":13430:13436  7 days */\n      0x093a80\n        /* \"contracts/LiquidityAccelerationToken.sol\":13415:13416  s */\n      dup3\n        /* \"contracts/LiquidityAccelerationToken.sol\":13415:13427  s.stakeStart */\n      0x02\n      add\n      sload\n        /* \"contracts/LiquidityAccelerationToken.sol\":13415:13436  s.stakeStart + 7 days */\n      tag_227\n      swap2\n      swap1\n      tag_206\n      jump\t// in\n    tag_227:\n        /* \"contracts/LiquidityAccelerationToken.sol\":13397:13412  block.timestamp */\n      timestamp\n        /* \"contracts/LiquidityAccelerationToken.sol\":13397:13436  block.timestamp < s.stakeStart + 7 days */\n      lt\n        /* \"contracts/LiquidityAccelerationToken.sol\":13393:13508  if (block.timestamp < s.stakeStart + 7 days) {... */\n      iszero\n      tag_228\n      jumpi\n        /* \"contracts/LiquidityAccelerationToken.sol\":13494:13497  100 */\n      0x64\n        /* \"contracts/LiquidityAccelerationToken.sol\":13472:13490  earlyWithdrawalFee */\n      sload(0x0b)\n        /* \"contracts/LiquidityAccelerationToken.sol\":13463:13469  amount */\n      dup5\n        /* \"contracts/LiquidityAccelerationToken.sol\":13463:13490  amount * earlyWithdrawalFee */\n      tag_229\n      swap2\n      swap1\n      tag_230\n      jump\t// in\n    tag_229:\n        /* \"contracts/LiquidityAccelerationToken.sol\":13462:13497  (amount * earlyWithdrawalFee) / 100 */\n      tag_231\n      swap2\n      swap1\n      tag_232\n      jump\t// in\n    tag_231:\n        /* \"contracts/LiquidityAccelerationToken.sol\":13452:13497  penalty = (amount * earlyWithdrawalFee) / 100 */\n      swap1\n      pop\n        /* \"contracts/LiquidityAccelerationToken.sol\":13393:13508  if (block.timestamp < s.stakeStart + 7 days) {... */\n    tag_228:\n        /* \"contracts/LiquidityAccelerationToken.sol\":13517:13543  uint256 amountAfterPenalty */\n      0x00\n        /* \"contracts/LiquidityAccelerationToken.sol\":13555:13562  penalty */\n      dup2\n        /* \"contracts/LiquidityAccelerationToken.sol\":13546:13552  amount */\n      dup5\n        /* \"contracts/LiquidityAccelerationToken.sol\":13546:13562  amount - penalty */\n      tag_233\n      swap2\n      swap1\n      tag_234\n      jump\t// in\n    tag_233:\n        /* \"contracts/LiquidityAccelerationToken.sol\":13517:13562  uint256 amountAfterPenalty = amount - penalty */\n      swap1\n      pop\n        /* \"contracts/LiquidityAccelerationToken.sol\":13584:13590  amount */\n      dup4\n        /* \"contracts/LiquidityAccelerationToken.sol\":13572:13573  s */\n      dup4\n        /* \"contracts/LiquidityAccelerationToken.sol\":13572:13580  s.amount */\n      0x00\n      add\n      0x00\n        /* \"contracts/LiquidityAccelerationToken.sol\":13572:13590  s.amount -= amount */\n      dup3\n      dup3\n      sload\n      tag_235\n      swap2\n      swap1\n      tag_234\n      jump\t// in\n    tag_235:\n      swap3\n      pop\n      pop\n      dup2\n      swap1\n      sstore\n      pop\n        /* \"contracts/LiquidityAccelerationToken.sol\":13676:13688  vaultAddress */\n      0x1b\n      0x00\n      swap1\n      sload\n      swap1\n      0x0100\n      exp\n      swap1\n      div\n      0xffffffffffffffffffffffffffffffffffffffff\n      and\n        /* \"contracts/LiquidityAccelerationToken.sol\":13661:13698  ITreasuryVault(vaultAddress).withdraw */\n      0xffffffffffffffffffffffffffffffffffffffff\n      and\n      0xf3fef3a3\n        /* \"contracts/LiquidityAccelerationToken.sol\":13699:13709  msg.sender */\n      caller\n        /* \"contracts/LiquidityAccelerationToken.sol\":13711:13729  amountAfterPenalty */\n      dup4\n        /* \"contracts/LiquidityAccelerationToken.sol\":13661:13730  ITreasuryVault(vaultAddress).withdraw(msg.sender, amountAfterPenalty) */\n      mload(0x40)\n      dup4\n      0xffffffff\n      and\n      0xe0\n      shl\n      dup2\n      mstore\n      0x04\n      add\n      tag_236\n      swap3\n      swap2\n      swap1\n      tag_237\n      jump\t// in\n    tag_236:\n      0x00\n      mload(0x40)\n      dup1\n      dup4\n      sub\n      dup2\n      0x00\n      dup8\n      dup1\n      extcodesize\n      iszero\n      dup1\n      iszero\n      tag_238\n      jumpi\n      revert(0x00, 0x00)\n    tag_238:\n      pop\n      gas\n      call\n      iszero\n      dup1\n      iszero\n      tag_240\n      jumpi\n      returndatacopy(0x00, 0x00, returndatasize)\n      revert(0x00, returndatasize)\n    tag_240:\n      pop\n      pop\n      pop\n      pop\n        /* \"contracts/LiquidityAccelerationToken.sol\":13807:13808  0 */\n      0x00\n        /* \"contracts/LiquidityAccelerationToken.sol\":13797:13804  penalty */\n      dup3\n        /* \"contracts/LiquidityAccelerationToken.sol\":13797:13808  penalty > 0 */\n      gt\n        /* \"contracts/LiquidityAccelerationToken.sol\":13793:13890  if (penalty > 0) {... */\n      iszero\n      tag_241\n      jumpi\n        /* \"contracts/LiquidityAccelerationToken.sol\":13839:13851  vaultAddress */\n      0x1b\n      0x00\n      swap1\n      sload\n      swap1\n      0x0100\n      exp\n      swap1\n      div\n      0xffffffffffffffffffffffffffffffffffffffff\n      and\n        /* \"contracts/LiquidityAccelerationToken.sol\":13824:13861  ITreasuryVault(vaultAddress).withdraw */\n      0xffffffffffffffffffffffffffffffffffffffff\n      and\n      0xf3fef3a3\n        /* \"contracts/LiquidityAccelerationToken.sol\":13862:13869  owner() */\n      tag_242\n        /* \"contracts/LiquidityAccelerationToken.sol\":13862:13867  owner */\n      tag_139\n        /* \"contracts/LiquidityAccelerationToken.sol\":13862:13869  owner() */\n      jump\t// in\n    tag_242:\n        /* \"contracts/LiquidityAccelerationToken.sol\":13871:13878  penalty */\n      dup5\n        /* \"contracts/LiquidityAccelerationToken.sol\":13824:13879  ITreasuryVault(vaultAddress).withdraw(owner(), penalty) */\n      mload(0x40)\n      dup4\n      0xffffffff\n      and\n      0xe0\n      shl\n      dup2\n      mstore\n      0x04\n      add\n      tag_243\n      swap3\n      swap2\n      swap1\n      tag_237\n      jump\t// in\n    tag_243:\n      0x00\n      mload(0x40)\n      dup1\n      dup4\n      sub\n      dup2\n      0x00\n      dup8\n      dup1\n      extcodesize\n      iszero\n      dup1\n      iszero\n      tag_244\n      jumpi\n      revert(0x00, 0x00)\n    tag_244:\n      pop\n      gas\n      call\n      iszero\n      dup1\n      iszero\n      tag_246\n      jumpi\n      returndatacopy(0x00, 0x00, returndatasize)\n      revert(0x00, returndatasize)\n    tag_246:\n      pop\n      pop\n      pop\n      pop\n        /* \"contracts/LiquidityAccelerationToken.sol\":13793:13890  if (penalty > 0) {... */\n    tag_241:\n        /* \"contracts/LiquidityAccelerationToken.sol\":13920:13930  msg.sender */\n      caller\n        /* \"contracts/LiquidityAccelerationToken.sol\":13905:13960  StakeWithdrawn(msg.sender, amountAfterPenalty, penalty) */\n      0xffffffffffffffffffffffffffffffffffffffff\n      and\n      0x933735aa8de6d7547d0126171b2f31b9c34dd00f3ecd4be85a0ba047db4fafef\n        /* \"contracts/LiquidityAccelerationToken.sol\":13932:13950  amountAfterPenalty */\n      dup3\n        /* \"contracts/LiquidityAccelerationToken.sol\":13952:13959  penalty */\n      dup5\n        /* \"contracts/LiquidityAccelerationToken.sol\":13905:13960  StakeWithdrawn(msg.sender, amountAfterPenalty, penalty) */\n      mload(0x40)\n      tag_247\n      swap3\n      swap2\n      swap1\n      tag_248\n      jump\t// in\n    tag_247:\n      mload(0x40)\n      dup1\n      swap2\n      sub\n      swap1\n      log2\n        /* \"contracts/LiquidityAccelerationToken.sol\":13109:13967  {... */\n      pop\n      pop\n      pop\n        /* \"@openzeppelin/contracts/security/ReentrancyGuard.sol\":2303:2323  _nonReentrantAfter() */\n      tag_249\n        /* \"@openzeppelin/contracts/security/ReentrancyGuard.sol\":2303:2321  _nonReentrantAfter */\n      tag_210\n        /* \"@openzeppelin/contracts/security/ReentrancyGuard.sol\":2303:2323  _nonReentrantAfter() */\n      jump\t// in\n    tag_249:\n        /* \"contracts/LiquidityAccelerationToken.sol\":13034:13967  function withdrawStake(uint256 amount) external whenNotPaused nonReentrant {... */\n      pop\n      jump\t// out\n        /* \"contracts/LiquidityAccelerationToken.sol\":14337:14584  function updateLiquidityMultiplier(address trader, uint256 lpTokens) external onlyOwner {... */\n    tag_92:\n        /* \"@openzeppelin/contracts/access/Ownable.sol\":1531:1544  _checkOwner() */\n      tag_251\n        /* \"@openzeppelin/contracts/access/Ownable.sol\":1531:1542  _checkOwner */\n      tag_213\n        /* \"@openzeppelin/contracts/access/Ownable.sol\":1531:1544  _checkOwner() */\n      jump\t// in\n    tag_251:\n        /* \"contracts/LiquidityAccelerationToken.sol\":14481:14482  0 */\n      0x00\n        /* \"contracts/LiquidityAccelerationToken.sol\":14470:14478  lpTokens */\n      dup2\n        /* \"contracts/LiquidityAccelerationToken.sol\":14470:14482  lpTokens > 0 */\n      gt\n        /* \"contracts/LiquidityAccelerationToken.sol\":14470:14494  lpTokens > 0 ? 120 : 100 */\n      tag_253\n      jumpi\n        /* \"contracts/LiquidityAccelerationToken.sol\":14491:14494  100 */\n      0x64\n        /* \"contracts/LiquidityAccelerationToken.sol\":14470:14494  lpTokens > 0 ? 120 : 100 */\n      jump(tag_254)\n    tag_253:\n        /* \"contracts/LiquidityAccelerationToken.sol\":14485:14488  120 */\n      0x78\n        /* \"contracts/LiquidityAccelerationToken.sol\":14470:14494  lpTokens > 0 ? 120 : 100 */\n    tag_254:\n        /* \"contracts/LiquidityAccelerationToken.sol\":14435:14494  liquidityBoostMultiplier[trader] = lpTokens > 0 ? 120 : 100 */\n      0xff\n      and\n        /* \"contracts/LiquidityAccelerationToken.sol\":14435:14459  liquidityBoostMultiplier */\n      0x16\n        /* \"contracts/LiquidityAccelerationToken.sol\":14435:14467  liquidityBoostMultiplier[trader] */\n      0x00\n        /* \"contracts/LiquidityAccelerationToken.sol\":14460:14466  trader */\n      dup5\n        /* \"contracts/LiquidityAccelerationToken.sol\":14435:14467  liquidityBoostMultiplier[trader] */\n      0xffffffffffffffffffffffffffffffffffffffff\n      and\n      0xffffffffffffffffffffffffffffffffffffffff\n      and\n      dup2\n      mstore\n      0x20\n      add\n      swap1\n      dup2\n      mstore\n      0x20\n      add\n      0x00\n      keccak256\n        /* \"contracts/LiquidityAccelerationToken.sol\":14435:14494  liquidityBoostMultiplier[trader] = lpTokens > 0 ? 120 : 100 */\n      dup2\n      swap1\n      sstore\n      pop\n        /* \"contracts/LiquidityAccelerationToken.sol\":14536:14542  trader */\n      dup2\n        /* \"contracts/LiquidityAccelerationToken.sol\":14509:14577  LiquidityMultiplierUpdated(trader, liquidityBoostMultiplier[trader]) */\n      0xffffffffffffffffffffffffffffffffffffffff\n      and\n      0xabcc9b515858a553f53609bb223669708665910a51030d923c842de23f099913\n        /* \"contracts/LiquidityAccelerationToken.sol\":14544:14568  liquidityBoostMultiplier */\n      0x16\n        /* \"contracts/LiquidityAccelerationToken.sol\":14544:14576  liquidityBoostMultiplier[trader] */\n      0x00\n        /* \"contracts/LiquidityAccelerationToken.sol\":14569:14575  trader */\n      dup6\n        /* \"contracts/LiquidityAccelerationToken.sol\":14544:14576  liquidityBoostMultiplier[trader] */\n      0xffffffffffffffffffffffffffffffffffffffff\n      and\n      0xffffffffffffffffffffffffffffffffffffffff\n      and\n      dup2\n      mstore\n      0x20\n      add\n      swap1\n      dup2\n      mstore\n      0x20\n      add\n      0x00\n      keccak256\n      sload\n        /* \"contracts/LiquidityAccelerationToken.sol\":14509:14577  LiquidityMultiplierUpdated(trader, liquidityBoostMultiplier[trader]) */\n      mload(0x40)\n      tag_255\n      swap2\n      swap1\n      tag_53\n      jump\t// in\n    tag_255:\n      mload(0x40)\n      dup1\n      swap2\n      sub\n      swap1\n      log2\n        /* \"contracts/LiquidityAccelerationToken.sol\":14337:14584  function updateLiquidityMultiplier(address trader, uint256 lpTokens) external onlyOwner {... */\n      pop\n      pop\n      jump\t// out\n        /* \"contracts/LiquidityAccelerationToken.sol\":3817:3844  address public vaultAddress */\n    tag_94:\n      0x1b\n      0x00\n      swap1\n      sload\n      swap1\n      0x0100\n      exp\n      swap1\n      div\n      0xffffffffffffffffffffffffffffffffffffffff\n      and\n      dup2\n      jump\t// out\n        /* \"contracts/LiquidityAccelerationToken.sol\":3692:3750  mapping(address => VestingEntry[]) public vestingSchedules */\n    tag_99:\n      mstore(0x20, 0x1a)\n      dup2\n      0x00\n      mstore\n      keccak256(0x00, 0x40)\n      dup2\n      dup2\n      sload\n      dup2\n      lt\n      tag_256\n      jumpi\n      0x00\n      dup1\n      revert\n    tag_256:\n      swap1\n      0x00\n      mstore\n      keccak256(0x00, 0x20)\n      swap1\n      0x04\n      mul\n      add\n      0x00\n      swap2\n      pop\n      swap2\n      pop\n      pop\n      dup1\n      0x00\n      add\n      sload\n      swap1\n      dup1\n      0x01\n      add\n      sload\n      swap1\n      dup1\n      0x02\n      add\n      sload\n      swap1\n      dup1\n      0x03\n      add\n      sload\n      swap1\n      pop\n      dup5\n      jump\t// out\n        /* \"contracts/LiquidityAccelerationToken.sol\":1933:1961  uint256 public epochDuration */\n    tag_102:\n      sload(0x0d)\n      dup2\n      jump\t// out\n        /* \"contracts/LiquidityAccelerationToken.sol\":1534:1565  uint256 public epochTradeVolume */\n    tag_105:\n      sload(0x06)\n      dup2\n      jump\t// out\n        /* \"contracts/LiquidityAccelerationToken.sol\":2890:2949  mapping(address => uint256) public liquidityBoostMultiplier */\n    tag_109:\n      mstore(0x20, 0x16)\n      dup1\n      0x00\n      mstore\n      keccak256(0x00, 0x40)\n      0x00\n      swap2\n      pop\n      swap1\n      pop\n      sload\n      dup2\n      jump\t// out\n        /* \"contracts/LiquidityAccelerationToken.sol\":3429:3476  mapping(address => uint256) public stakedWeight */\n    tag_113:\n      mstore(0x20, 0x19)\n      dup1\n      0x00\n      mstore\n      keccak256(0x00, 0x40)\n      0x00\n      swap2\n      pop\n      swap1\n      pop\n      sload\n      dup2\n      jump\t// out\n        /* \"contracts/LiquidityAccelerationToken.sol\":2332:2350  bool public paused */\n    tag_116:\n      0x11\n      0x00\n      swap1\n      sload\n      swap1\n      0x0100\n      exp\n      swap1\n      div\n      0xff\n      and\n      dup2\n      jump\t// out\n        /* \"contracts/LiquidityAccelerationToken.sol\":2710:2757  mapping(address => uint256) public makerRebates */\n    tag_120:\n      mstore(0x20, 0x14)\n      dup1\n      0x00\n      mstore\n      keccak256(0x00, 0x40)\n      0x00\n      swap2\n      pop\n      swap1\n      pop\n      sload\n      dup2\n      jump\t// out\n        /* \"contracts/LiquidityAccelerationToken.sol\":1686:1720  uint256 public poolVolumeThreshold */\n    tag_123:\n      sload(0x09)\n      dup2\n      jump\t// out\n        /* \"@openzeppelin/contracts/access/Ownable.sol\":2293:2394  function renounceOwnership() public virtual onlyOwner {... */\n    tag_126:\n        /* \"@openzeppelin/contracts/access/Ownable.sol\":1531:1544  _checkOwner() */\n      tag_259\n        /* \"@openzeppelin/contracts/access/Ownable.sol\":1531:1542  _checkOwner */\n      tag_213\n        /* \"@openzeppelin/contracts/access/Ownable.sol\":1531:1544  _checkOwner() */\n      jump\t// in\n    tag_259:\n        /* \"@openzeppelin/contracts/access/Ownable.sol\":2357:2387  _transferOwnership(address(0)) */\n      tag_261\n        /* \"@openzeppelin/contracts/access/Ownable.sol\":2384:2385  0 */\n      0x00\n        /* \"@openzeppelin/contracts/access/Ownable.sol\":2357:2375  _transferOwnership */\n      tag_262\n        /* \"@openzeppelin/contracts/access/Ownable.sol\":2357:2387  _transferOwnership(address(0)) */\n      jump\t// in\n    tag_261:\n        /* \"@openzeppelin/contracts/access/Ownable.sol\":2293:2394  function renounceOwnership() public virtual onlyOwner {... */\n      jump\t// out\n        /* \"contracts/LiquidityAccelerationToken.sol\":2494:2535  mapping(address => uint256) public nonces */\n    tag_129:\n      mstore(0x20, 0x12)\n      dup1\n      0x00\n      mstore\n      keccak256(0x00, 0x40)\n      0x00\n      swap2\n      pop\n      swap1\n      pop\n      sload\n      dup2\n      jump\t// out\n        /* \"contracts/LiquidityAccelerationToken.sol\":2047:2094  uint256 public inactivitySlashingTime = 30 days */\n    tag_132:\n      sload(0x0e)\n      dup2\n      jump\t// out\n        /* \"contracts/LiquidityAccelerationToken.sol\":5603:6485  function initialize(... */\n    tag_137:\n        /* \"@openzeppelin/contracts/access/Ownable.sol\":1531:1544  _checkOwner() */\n      tag_264\n        /* \"@openzeppelin/contracts/access/Ownable.sol\":1531:1542  _checkOwner */\n      tag_213\n        /* \"@openzeppelin/contracts/access/Ownable.sol\":1531:1544  _checkOwner() */\n      jump\t// in\n    tag_264:\n        /* \"contracts/LiquidityAccelerationToken.sol\":5940:5951  initialized */\n      0x11\n      0x01\n      swap1\n      sload\n      swap1\n      0x0100\n      exp\n      swap1\n      div\n      0xff\n      and\n        /* \"contracts/LiquidityAccelerationToken.sol\":5939:5951  !initialized */\n      iszero\n        /* \"contracts/LiquidityAccelerationToken.sol\":5931:5975  require(!initialized, \"Already initialized\") */\n      tag_266\n      jumpi\n      mload(0x40)\n      0x08c379a000000000000000000000000000000000000000000000000000000000\n      dup2\n      mstore\n      0x04\n      add\n      tag_267\n      swap1\n      tag_268\n      jump\t// in\n    tag_267:\n      mload(0x40)\n      dup1\n      swap2\n      sub\n      swap1\n      revert\n    tag_266:\n        /* \"contracts/LiquidityAccelerationToken.sol\":5996:6005  _latToken */\n      dup8\n        /* \"contracts/LiquidityAccelerationToken.sol\":5985:5993  latToken */\n      0x02\n      0x00\n        /* \"contracts/LiquidityAccelerationToken.sol\":5985:6005  latToken = _latToken */\n      0x0100\n      exp\n      dup2\n      sload\n      dup2\n      0xffffffffffffffffffffffffffffffffffffffff\n      mul\n      not\n      and\n      swap1\n      dup4\n      0xffffffffffffffffffffffffffffffffffffffff\n      and\n      mul\n      or\n      swap1\n      sstore\n      pop\n        /* \"contracts/LiquidityAccelerationToken.sol\":6033:6049  _tradeRewardRate */\n      dup7\n        /* \"contracts/LiquidityAccelerationToken.sol\":6015:6030  tradeRewardRate */\n      0x03\n        /* \"contracts/LiquidityAccelerationToken.sol\":6015:6049  tradeRewardRate = _tradeRewardRate */\n      dup2\n      swap1\n      sstore\n      pop\n        /* \"contracts/LiquidityAccelerationToken.sol\":6077:6093  _stakeRewardRate */\n      dup6\n        /* \"contracts/LiquidityAccelerationToken.sol\":6059:6074  stakeRewardRate */\n      0x04\n        /* \"contracts/LiquidityAccelerationToken.sol\":6059:6093  stakeRewardRate = _stakeRewardRate */\n      dup2\n      swap1\n      sstore\n      pop\n        /* \"contracts/LiquidityAccelerationToken.sol\":6117:6118  0 */\n      0x00\n        /* \"contracts/LiquidityAccelerationToken.sol\":6103:6114  totalTrades */\n      0x05\n        /* \"contracts/LiquidityAccelerationToken.sol\":6103:6118  totalTrades = 0 */\n      dup2\n      swap1\n      sstore\n      pop\n        /* \"contracts/LiquidityAccelerationToken.sol\":6147:6148  0 */\n      0x00\n        /* \"contracts/LiquidityAccelerationToken.sol\":6128:6144  epochTradeVolume */\n      0x06\n        /* \"contracts/LiquidityAccelerationToken.sol\":6128:6148  epochTradeVolume = 0 */\n      dup2\n      swap1\n      sstore\n      pop\n        /* \"contracts/LiquidityAccelerationToken.sol\":6179:6198  _tradeEpochDuration */\n      dup5\n        /* \"contracts/LiquidityAccelerationToken.sol\":6158:6176  tradeEpochDuration */\n      0x07\n        /* \"contracts/LiquidityAccelerationToken.sol\":6158:6198  tradeEpochDuration = _tradeEpochDuration */\n      dup2\n      swap1\n      sstore\n      pop\n        /* \"contracts/LiquidityAccelerationToken.sol\":6228:6229  0 */\n      0x00\n        /* \"contracts/LiquidityAccelerationToken.sol\":6208:6225  poolTradingVolume */\n      0x08\n        /* \"contracts/LiquidityAccelerationToken.sol\":6208:6229  poolTradingVolume = 0 */\n      dup2\n      swap1\n      sstore\n      pop\n        /* \"contracts/LiquidityAccelerationToken.sol\":6261:6281  _poolVolumeThreshold */\n      dup4\n        /* \"contracts/LiquidityAccelerationToken.sol\":6239:6258  poolVolumeThreshold */\n      0x09\n        /* \"contracts/LiquidityAccelerationToken.sol\":6239:6281  poolVolumeThreshold = _poolVolumeThreshold */\n      dup2\n      swap1\n      sstore\n      pop\n        /* \"contracts/LiquidityAccelerationToken.sol\":6313:6333  _poolBoostMultiplier */\n      dup3\n        /* \"contracts/LiquidityAccelerationToken.sol\":6291:6310  poolBoostMultiplier */\n      0x0a\n        /* \"contracts/LiquidityAccelerationToken.sol\":6291:6333  poolBoostMultiplier = _poolBoostMultiplier */\n      dup2\n      swap1\n      sstore\n      pop\n        /* \"contracts/LiquidityAccelerationToken.sol\":6359:6373  _epochDuration */\n      dup2\n        /* \"contracts/LiquidityAccelerationToken.sol\":6343:6356  epochDuration */\n      0x0d\n        /* \"contracts/LiquidityAccelerationToken.sol\":6343:6373  epochDuration = _epochDuration */\n      dup2\n      swap1\n      sstore\n      pop\n        /* \"contracts/LiquidityAccelerationToken.sol\":6400:6412  block.number */\n      number\n        /* \"contracts/LiquidityAccelerationToken.sol\":6383:6397  lastEpochBlock */\n      0x0c\n        /* \"contracts/LiquidityAccelerationToken.sol\":6383:6412  lastEpochBlock = block.number */\n      dup2\n      swap1\n      sstore\n      pop\n        /* \"contracts/LiquidityAccelerationToken.sol\":6437:6450  _vaultAddress */\n      dup1\n        /* \"contracts/LiquidityAccelerationToken.sol\":6422:6434  vaultAddress */\n      0x1b\n      0x00\n        /* \"contracts/LiquidityAccelerationToken.sol\":6422:6450  vaultAddress = _vaultAddress */\n      0x0100\n      exp\n      dup2\n      sload\n      dup2\n      0xffffffffffffffffffffffffffffffffffffffff\n      mul\n      not\n      and\n      swap1\n      dup4\n      0xffffffffffffffffffffffffffffffffffffffff\n      and\n      mul\n      or\n      swap1\n      sstore\n      pop\n        /* \"contracts/LiquidityAccelerationToken.sol\":6474:6478  true */\n      0x01\n        /* \"contracts/LiquidityAccelerationToken.sol\":6460:6471  initialized */\n      0x11\n      0x01\n        /* \"contracts/LiquidityAccelerationToken.sol\":6460:6478  initialized = true */\n      0x0100\n      exp\n      dup2\n      sload\n      dup2\n      0xff\n      mul\n      not\n      and\n      swap1\n      dup4\n      iszero\n      iszero\n      mul\n      or\n      swap1\n      sstore\n      pop\n        /* \"contracts/LiquidityAccelerationToken.sol\":5603:6485  function initialize(... */\n      pop\n      pop\n      pop\n      pop\n      pop\n      pop\n      pop\n      pop\n      jump\t// out\n        /* \"@openzeppelin/contracts/access/Ownable.sol\":1638:1723  function owner() public view virtual returns (address) {... */\n    tag_139:\n        /* \"@openzeppelin/contracts/access/Ownable.sol\":1684:1691  address */\n      0x00\n        /* \"@openzeppelin/contracts/access/Ownable.sol\":1710:1716  _owner */\n      0x00\n      0x00\n      swap1\n      sload\n      swap1\n      0x0100\n      exp\n      swap1\n      div\n      0xffffffffffffffffffffffffffffffffffffffff\n      and\n        /* \"@openzeppelin/contracts/access/Ownable.sol\":1703:1716  return _owner */\n      swap1\n      pop\n        /* \"@openzeppelin/contracts/access/Ownable.sol\":1638:1723  function owner() public view virtual returns (address) {... */\n      swap1\n      jump\t// out\n        /* \"contracts/LiquidityAccelerationToken.sol\":2100:2141  uint256 public inactivityPenaltyRate = 20 */\n    tag_142:\n      sload(0x0f)\n      dup2\n      jump\t// out\n        /* \"contracts/LiquidityAccelerationToken.sol\":1898:1927  uint256 public lastEpochBlock */\n    tag_145:\n      sload(0x0c)\n      dup2\n      jump\t// out\n        /* \"contracts/LiquidityAccelerationToken.sol\":1466:1496  uint256 public stakeRewardRate */\n    tag_148:\n      sload(0x04)\n      dup2\n      jump\t// out\n        /* \"contracts/LiquidityAccelerationToken.sol\":11155:12811  function claimStakeRewards(uint256 expectedNonce) external whenNotPaused nonReentrant {... */\n    tag_152:\n        /* \"contracts/LiquidityAccelerationToken.sol\":4612:4618  paused */\n      0x11\n      0x00\n      swap1\n      sload\n      swap1\n      0x0100\n      exp\n      swap1\n      div\n      0xff\n      and\n        /* \"contracts/LiquidityAccelerationToken.sol\":4611:4618  !paused */\n      iszero\n        /* \"contracts/LiquidityAccelerationToken.sol\":4603:4641  require(!paused, \"Contract is paused\") */\n      tag_271\n      jumpi\n      mload(0x40)\n      0x08c379a000000000000000000000000000000000000000000000000000000000\n      dup2\n      mstore\n      0x04\n      add\n      tag_272\n      swap1\n      tag_186\n      jump\t// in\n    tag_272:\n      mload(0x40)\n      dup1\n      swap2\n      sub\n      swap1\n      revert\n    tag_271:\n        /* \"@openzeppelin/contracts/security/ReentrancyGuard.sol\":2261:2282  _nonReentrantBefore() */\n      tag_274\n        /* \"@openzeppelin/contracts/security/ReentrancyGuard.sol\":2261:2280  _nonReentrantBefore */\n      tag_189\n        /* \"@openzeppelin/contracts/security/ReentrancyGuard.sol\":2261:2282  _nonReentrantBefore() */\n      jump\t// in\n    tag_274:\n        /* \"contracts/LiquidityAccelerationToken.sol\":11259:11270  initialized */\n      0x11\n      0x01\n      swap1\n      sload\n      swap1\n      0x0100\n      exp\n      swap1\n      div\n      0xff\n      and\n        /* \"contracts/LiquidityAccelerationToken.sol\":11251:11290  require(initialized, \"Not initialized\") */\n      tag_276\n      jumpi\n      mload(0x40)\n      0x08c379a000000000000000000000000000000000000000000000000000000000\n      dup2\n      mstore\n      0x04\n      add\n      tag_277\n      swap1\n      tag_193\n      jump\t// in\n    tag_277:\n      mload(0x40)\n      dup1\n      swap2\n      sub\n      swap1\n      revert\n    tag_276:\n        /* \"contracts/LiquidityAccelerationToken.sol\":11330:11343  expectedNonce */\n      dup1\n        /* \"contracts/LiquidityAccelerationToken.sol\":11308:11314  nonces */\n      0x12\n        /* \"contracts/LiquidityAccelerationToken.sol\":11308:11326  nonces[msg.sender] */\n      0x00\n        /* \"contracts/LiquidityAccelerationToken.sol\":11315:11325  msg.sender */\n      caller\n        /* \"contracts/LiquidityAccelerationToken.sol\":11308:11326  nonces[msg.sender] */\n      0xffffffffffffffffffffffffffffffffffffffff\n      and\n      0xffffffffffffffffffffffffffffffffffffffff\n      and\n      dup2\n      mstore\n      0x20\n      add\n      swap1\n      dup2\n      mstore\n      0x20\n      add\n      0x00\n      keccak256\n      sload\n        /* \"contracts/LiquidityAccelerationToken.sol\":11308:11343  nonces[msg.sender] == expectedNonce */\n      eq\n        /* \"contracts/LiquidityAccelerationToken.sol\":11300:11361  require(nonces[msg.sender] == expectedNonce, \"Invalid nonce\") */\n      tag_278\n      jumpi\n      mload(0x40)\n      0x08c379a000000000000000000000000000000000000000000000000000000000\n      dup2\n      mstore\n      0x04\n      add\n      tag_279\n      swap1\n      tag_280\n      jump\t// in\n    tag_279:\n      mload(0x40)\n      dup1\n      swap2\n      sub\n      swap1\n      revert\n    tag_278:\n        /* \"contracts/LiquidityAccelerationToken.sol\":11371:11377  nonces */\n      0x12\n        /* \"contracts/LiquidityAccelerationToken.sol\":11371:11389  nonces[msg.sender] */\n      0x00\n        /* \"contracts/LiquidityAccelerationToken.sol\":11378:11388  msg.sender */\n      caller\n        /* \"contracts/LiquidityAccelerationToken.sol\":11371:11389  nonces[msg.sender] */\n      0xffffffffffffffffffffffffffffffffffffffff\n      and\n      0xffffffffffffffffffffffffffffffffffffffff\n      and\n      dup2\n      mstore\n      0x20\n      add\n      swap1\n      dup2\n      mstore\n      0x20\n      add\n      0x00\n      keccak256\n      0x00\n        /* \"contracts/LiquidityAccelerationToken.sol\":11371:11391  nonces[msg.sender]++ */\n      dup2\n      sload\n      dup1\n      swap3\n      swap2\n      swap1\n      tag_281\n      swap1\n      tag_282\n      jump\t// in\n    tag_281:\n      swap2\n      swap1\n      pop\n      sstore\n      pop\n        /* \"contracts/LiquidityAccelerationToken.sol\":11402:11417  Stake storage s */\n      0x00\n        /* \"contracts/LiquidityAccelerationToken.sol\":11420:11426  stakes */\n      0x18\n        /* \"contracts/LiquidityAccelerationToken.sol\":11420:11438  stakes[msg.sender] */\n      0x00\n        /* \"contracts/LiquidityAccelerationToken.sol\":11427:11437  msg.sender */\n      caller\n        /* \"contracts/LiquidityAccelerationToken.sol\":11420:11438  stakes[msg.sender] */\n      0xffffffffffffffffffffffffffffffffffffffff\n      and\n      0xffffffffffffffffffffffffffffffffffffffff\n      and\n      dup2\n      mstore\n      0x20\n      add\n      swap1\n      dup2\n      mstore\n      0x20\n      add\n      0x00\n      keccak256\n        /* \"contracts/LiquidityAccelerationToken.sol\":11402:11438  Stake storage s = stakes[msg.sender] */\n      swap1\n      pop\n        /* \"contracts/LiquidityAccelerationToken.sol\":11472:11473  0 */\n      0x00\n        /* \"contracts/LiquidityAccelerationToken.sol\":11456:11457  s */\n      dup2\n        /* \"contracts/LiquidityAccelerationToken.sol\":11456:11468  s.stakeStart */\n      0x02\n      add\n      sload\n        /* \"contracts/LiquidityAccelerationToken.sol\":11456:11473  s.stakeStart != 0 */\n      sub\n        /* \"contracts/LiquidityAccelerationToken.sol\":11448:11492  require(s.stakeStart != 0, \"No stake found\") */\n      tag_283\n      jumpi\n      mload(0x40)\n      0x08c379a000000000000000000000000000000000000000000000000000000000\n      dup2\n      mstore\n      0x04\n      add\n      tag_284\n      swap1\n      tag_285\n      jump\t// in\n    tag_284:\n      mload(0x40)\n      dup1\n      swap2\n      sub\n      swap1\n      revert\n    tag_283:\n        /* \"contracts/LiquidityAccelerationToken.sol\":11503:11518  uint256 elapsed */\n      0x00\n        /* \"contracts/LiquidityAccelerationToken.sol\":11539:11540  s */\n      dup2\n        /* \"contracts/LiquidityAccelerationToken.sol\":11539:11552  s.lastUpdated */\n      0x01\n      add\n      sload\n        /* \"contracts/LiquidityAccelerationToken.sol\":11521:11536  block.timestamp */\n      timestamp\n        /* \"contracts/LiquidityAccelerationToken.sol\":11521:11552  block.timestamp - s.lastUpdated */\n      tag_286\n      swap2\n      swap1\n      tag_234\n      jump\t// in\n    tag_286:\n        /* \"contracts/LiquidityAccelerationToken.sol\":11503:11552  uint256 elapsed = block.timestamp - s.lastUpdated */\n      swap1\n      pop\n        /* \"contracts/LiquidityAccelerationToken.sol\":11580:11581  0 */\n      0x00\n        /* \"contracts/LiquidityAccelerationToken.sol\":11570:11577  elapsed */\n      dup2\n        /* \"contracts/LiquidityAccelerationToken.sol\":11570:11581  elapsed > 0 */\n      gt\n        /* \"contracts/LiquidityAccelerationToken.sol\":11562:11601  require(elapsed > 0, \"No time elapsed\") */\n      tag_287\n      jumpi\n      mload(0x40)\n      0x08c379a000000000000000000000000000000000000000000000000000000000\n      dup2\n      mstore\n      0x04\n      add\n      tag_288\n      swap1\n      tag_289\n      jump\t// in\n    tag_288:\n      mload(0x40)\n      dup1\n      swap2\n      sub\n      swap1\n      revert\n    tag_287:\n        /* \"contracts/LiquidityAccelerationToken.sol\":11662:11694  uint256 effectiveStakeRewardRate */\n      0x00\n        /* \"contracts/LiquidityAccelerationToken.sol\":11697:11712  stakeRewardRate */\n      sload(0x04)\n        /* \"contracts/LiquidityAccelerationToken.sol\":11662:11712  uint256 effectiveStakeRewardRate = stakeRewardRate */\n      swap1\n      pop\n        /* \"contracts/LiquidityAccelerationToken.sol\":11746:11765  poolVolumeThreshold */\n      sload(0x09)\n        /* \"contracts/LiquidityAccelerationToken.sol\":11726:11743  poolTradingVolume */\n      sload(0x08)\n        /* \"contracts/LiquidityAccelerationToken.sol\":11726:11765  poolTradingVolume > poolVolumeThreshold */\n      gt\n        /* \"contracts/LiquidityAccelerationToken.sol\":11722:11864  if (poolTradingVolume > poolVolumeThreshold) {... */\n      iszero\n      tag_290\n      jumpi\n        /* \"contracts/LiquidityAccelerationToken.sol\":11850:11853  100 */\n      0x64\n        /* \"contracts/LiquidityAccelerationToken.sol\":11827:11846  poolBoostMultiplier */\n      sload(0x0a)\n        /* \"contracts/LiquidityAccelerationToken.sol\":11809:11824  stakeRewardRate */\n      sload(0x04)\n        /* \"contracts/LiquidityAccelerationToken.sol\":11809:11846  stakeRewardRate * poolBoostMultiplier */\n      tag_291\n      swap2\n      swap1\n      tag_230\n      jump\t// in\n    tag_291:\n        /* \"contracts/LiquidityAccelerationToken.sol\":11808:11853  (stakeRewardRate * poolBoostMultiplier) / 100 */\n      tag_292\n      swap2\n      swap1\n      tag_232\n      jump\t// in\n    tag_292:\n        /* \"contracts/LiquidityAccelerationToken.sol\":11781:11853  effectiveStakeRewardRate = (stakeRewardRate * poolBoostMultiplier) / 100 */\n      swap1\n      pop\n        /* \"contracts/LiquidityAccelerationToken.sol\":11722:11864  if (poolTradingVolume > poolVolumeThreshold) {... */\n    tag_290:\n        /* \"contracts/LiquidityAccelerationToken.sol\":11946:11973  uint256 liquidityMultiplier */\n      0x00\n        /* \"contracts/LiquidityAccelerationToken.sol\":12016:12017  0 */\n      0x00\n        /* \"contracts/LiquidityAccelerationToken.sol\":11976:12000  liquidityBoostMultiplier */\n      0x16\n        /* \"contracts/LiquidityAccelerationToken.sol\":11976:12012  liquidityBoostMultiplier[msg.sender] */\n      0x00\n        /* \"contracts/LiquidityAccelerationToken.sol\":12001:12011  msg.sender */\n      caller\n        /* \"contracts/LiquidityAccelerationToken.sol\":11976:12012  liquidityBoostMultiplier[msg.sender] */\n      0xffffffffffffffffffffffffffffffffffffffff\n      and\n      0xffffffffffffffffffffffffffffffffffffffff\n      and\n      dup2\n      mstore\n      0x20\n      add\n      swap1\n      dup2\n      mstore\n      0x20\n      add\n      0x00\n      keccak256\n      sload\n        /* \"contracts/LiquidityAccelerationToken.sol\":11976:12017  liquidityBoostMultiplier[msg.sender] == 0 */\n      eq\n        /* \"contracts/LiquidityAccelerationToken.sol\":11976:12086  liquidityBoostMultiplier[msg.sender] == 0... */\n      tag_293\n      jumpi\n        /* \"contracts/LiquidityAccelerationToken.sol\":12050:12074  liquidityBoostMultiplier */\n      0x16\n        /* \"contracts/LiquidityAccelerationToken.sol\":12050:12086  liquidityBoostMultiplier[msg.sender] */\n      0x00\n        /* \"contracts/LiquidityAccelerationToken.sol\":12075:12085  msg.sender */\n      caller\n        /* \"contracts/LiquidityAccelerationToken.sol\":12050:12086  liquidityBoostMultiplier[msg.sender] */\n      0xffffffffffffffffffffffffffffffffffffffff\n      and\n      0xffffffffffffffffffffffffffffffffffffffff\n      and\n      dup2\n      mstore\n      0x20\n      add\n      swap1\n      dup2\n      mstore\n      0x20\n      add\n      0x00\n      keccak256\n      sload\n        /* \"contracts/LiquidityAccelerationToken.sol\":11976:12086  liquidityBoostMultiplier[msg.sender] == 0... */\n      jump(tag_294)\n    tag_293:\n        /* \"contracts/LiquidityAccelerationToken.sol\":12032:12035  100 */\n      0x64\n        /* \"contracts/LiquidityAccelerationToken.sol\":11976:12086  liquidityBoostMultiplier[msg.sender] == 0... */\n    tag_294:\n        /* \"contracts/LiquidityAccelerationToken.sol\":11946:12086  uint256 liquidityMultiplier = liquidityBoostMultiplier[msg.sender] == 0... */\n      swap1\n      pop\n        /* \"contracts/LiquidityAccelerationToken.sol\":12174:12177  100 */\n      0x64\n        /* \"contracts/LiquidityAccelerationToken.sol\":12151:12170  liquidityMultiplier */\n      dup2\n        /* \"contracts/LiquidityAccelerationToken.sol\":12124:12148  effectiveStakeRewardRate */\n      dup4\n        /* \"contracts/LiquidityAccelerationToken.sol\":12124:12170  effectiveStakeRewardRate * liquidityMultiplier */\n      tag_295\n      swap2\n      swap1\n      tag_230\n      jump\t// in\n    tag_295:\n        /* \"contracts/LiquidityAccelerationToken.sol\":12123:12177  (effectiveStakeRewardRate * liquidityMultiplier) / 100 */\n      tag_296\n      swap2\n      swap1\n      tag_232\n      jump\t// in\n    tag_296:\n        /* \"contracts/LiquidityAccelerationToken.sol\":12096:12177  effectiveStakeRewardRate = (effectiveStakeRewardRate * liquidityMultiplier) / 100 */\n      swap2\n      pop\n        /* \"contracts/LiquidityAccelerationToken.sol\":12224:12238  uint256 reward */\n      0x00\n        /* \"contracts/LiquidityAccelerationToken.sol\":12279:12286  elapsed */\n      dup4\n        /* \"contracts/LiquidityAccelerationToken.sol\":12252:12276  effectiveStakeRewardRate */\n      dup4\n        /* \"contracts/LiquidityAccelerationToken.sol\":12241:12242  s */\n      dup7\n        /* \"contracts/LiquidityAccelerationToken.sol\":12241:12249  s.amount */\n      0x00\n      add\n      sload\n        /* \"contracts/LiquidityAccelerationToken.sol\":12241:12276  s.amount * effectiveStakeRewardRate */\n      tag_297\n      swap2\n      swap1\n      tag_230\n      jump\t// in\n    tag_297:\n        /* \"contracts/LiquidityAccelerationToken.sol\":12241:12286  s.amount * effectiveStakeRewardRate * elapsed */\n      tag_298\n      swap2\n      swap1\n      tag_230\n      jump\t// in\n    tag_298:\n        /* \"contracts/LiquidityAccelerationToken.sol\":12224:12286  uint256 reward = s.amount * effectiveStakeRewardRate * elapsed */\n      swap1\n      pop\n        /* \"contracts/LiquidityAccelerationToken.sol\":12387:12390  100 */\n      0x64\n        /* \"contracts/LiquidityAccelerationToken.sol\":12359:12371  stakedWeight */\n      0x19\n        /* \"contracts/LiquidityAccelerationToken.sol\":12359:12383  stakedWeight[msg.sender] */\n      0x00\n        /* \"contracts/LiquidityAccelerationToken.sol\":12372:12382  msg.sender */\n      caller\n        /* \"contracts/LiquidityAccelerationToken.sol\":12359:12383  stakedWeight[msg.sender] */\n      0xffffffffffffffffffffffffffffffffffffffff\n      and\n      0xffffffffffffffffffffffffffffffffffffffff\n      and\n      dup2\n      mstore\n      0x20\n      add\n      swap1\n      dup2\n      mstore\n      0x20\n      add\n      0x00\n      keccak256\n      sload\n        /* \"contracts/LiquidityAccelerationToken.sol\":12350:12356  reward */\n      dup3\n        /* \"contracts/LiquidityAccelerationToken.sol\":12350:12383  reward * stakedWeight[msg.sender] */\n      tag_299\n      swap2\n      swap1\n      tag_230\n      jump\t// in\n    tag_299:\n        /* \"contracts/LiquidityAccelerationToken.sol\":12349:12390  (reward * stakedWeight[msg.sender]) / 100 */\n      tag_300\n      swap2\n      swap1\n      tag_232\n      jump\t// in\n    tag_300:\n        /* \"contracts/LiquidityAccelerationToken.sol\":12340:12390  reward = (reward * stakedWeight[msg.sender]) / 100 */\n      swap1\n      pop\n        /* \"contracts/LiquidityAccelerationToken.sol\":12522:12544  inactivitySlashingTime */\n      sload(0x0e)\n        /* \"contracts/LiquidityAccelerationToken.sol\":12506:12507  s */\n      dup6\n        /* \"contracts/LiquidityAccelerationToken.sol\":12506:12519  s.lastUpdated */\n      0x01\n      add\n      sload\n        /* \"contracts/LiquidityAccelerationToken.sol\":12506:12544  s.lastUpdated + inactivitySlashingTime */\n      tag_301\n      swap2\n      swap1\n      tag_206\n      jump\t// in\n    tag_301:\n        /* \"contracts/LiquidityAccelerationToken.sol\":12488:12503  block.timestamp */\n      timestamp\n        /* \"contracts/LiquidityAccelerationToken.sol\":12488:12544  block.timestamp > s.lastUpdated + inactivitySlashingTime */\n      gt\n        /* \"contracts/LiquidityAccelerationToken.sol\":12484:12666  if (block.timestamp > s.lastUpdated + inactivitySlashingTime) {... */\n      iszero\n      tag_302\n      jumpi\n        /* \"contracts/LiquidityAccelerationToken.sol\":12560:12575  uint256 penalty */\n      0x00\n        /* \"contracts/LiquidityAccelerationToken.sol\":12613:12616  100 */\n      0x64\n        /* \"contracts/LiquidityAccelerationToken.sol\":12588:12609  inactivityPenaltyRate */\n      sload(0x0f)\n        /* \"contracts/LiquidityAccelerationToken.sol\":12579:12585  reward */\n      dup4\n        /* \"contracts/LiquidityAccelerationToken.sol\":12579:12609  reward * inactivityPenaltyRate */\n      tag_303\n      swap2\n      swap1\n      tag_230\n      jump\t// in\n    tag_303:\n        /* \"contracts/LiquidityAccelerationToken.sol\":12578:12616  (reward * inactivityPenaltyRate) / 100 */\n      tag_304\n      swap2\n      swap1\n      tag_232\n      jump\t// in\n    tag_304:\n        /* \"contracts/LiquidityAccelerationToken.sol\":12560:12616  uint256 penalty = (reward * inactivityPenaltyRate) / 100 */\n      swap1\n      pop\n        /* \"contracts/LiquidityAccelerationToken.sol\":12648:12655  penalty */\n      dup1\n        /* \"contracts/LiquidityAccelerationToken.sol\":12639:12645  reward */\n      dup3\n        /* \"contracts/LiquidityAccelerationToken.sol\":12639:12655  reward - penalty */\n      tag_305\n      swap2\n      swap1\n      tag_234\n      jump\t// in\n    tag_305:\n        /* \"contracts/LiquidityAccelerationToken.sol\":12630:12655  reward = reward - penalty */\n      swap2\n      pop\n        /* \"contracts/LiquidityAccelerationToken.sol\":12546:12666  {... */\n      pop\n        /* \"contracts/LiquidityAccelerationToken.sol\":12484:12666  if (block.timestamp > s.lastUpdated + inactivitySlashingTime) {... */\n    tag_302:\n        /* \"contracts/LiquidityAccelerationToken.sol\":12692:12707  block.timestamp */\n      timestamp\n        /* \"contracts/LiquidityAccelerationToken.sol\":12676:12677  s */\n      dup6\n        /* \"contracts/LiquidityAccelerationToken.sol\":12676:12689  s.lastUpdated */\n      0x01\n      add\n        /* \"contracts/LiquidityAccelerationToken.sol\":12676:12707  s.lastUpdated = block.timestamp */\n      dup2\n      swap1\n      sstore\n      pop\n        /* \"contracts/LiquidityAccelerationToken.sol\":12717:12725  latToken */\n      0x02\n      0x00\n      swap1\n      sload\n      swap1\n      0x0100\n      exp\n      swap1\n      div\n      0xffffffffffffffffffffffffffffffffffffffff\n      and\n        /* \"contracts/LiquidityAccelerationToken.sol\":12717:12730  latToken.mint */\n      0xffffffffffffffffffffffffffffffffffffffff\n      and\n      0x40c10f19\n        /* \"contracts/LiquidityAccelerationToken.sol\":12731:12741  msg.sender */\n      caller\n        /* \"contracts/LiquidityAccelerationToken.sol\":12743:12749  reward */\n      dup4\n        /* \"contracts/LiquidityAccelerationToken.sol\":12717:12750  latToken.mint(msg.sender, reward) */\n      mload(0x40)\n      dup4\n      0xffffffff\n      and\n      0xe0\n      shl\n      dup2\n      mstore\n      0x04\n      add\n      tag_306\n      swap3\n      swap2\n      swap1\n      tag_237\n      jump\t// in\n    tag_306:\n      0x00\n      mload(0x40)\n      dup1\n      dup4\n      sub\n      dup2\n      0x00\n      dup8\n      dup1\n      extcodesize\n      iszero\n      dup1\n      iszero\n      tag_307\n      jumpi\n      revert(0x00, 0x00)\n    tag_307:\n      pop\n      gas\n      call\n      iszero\n      dup1\n      iszero\n      tag_309\n      jumpi\n      returndatacopy(0x00, 0x00, returndatasize)\n      revert(0x00, returndatasize)\n    tag_309:\n      pop\n      pop\n      pop\n      pop\n        /* \"contracts/LiquidityAccelerationToken.sol\":12785:12795  msg.sender */\n      caller\n        /* \"contracts/LiquidityAccelerationToken.sol\":12765:12804  StakeRewardsClaimed(msg.sender, reward) */\n      0xffffffffffffffffffffffffffffffffffffffff\n      and\n      0x4dd465eb9d4bf90caf3400cc334c731b4cef0aa7f013e5d72f20b0cec2e30ea9\n        /* \"contracts/LiquidityAccelerationToken.sol\":12797:12803  reward */\n      dup3\n        /* \"contracts/LiquidityAccelerationToken.sol\":12765:12804  StakeRewardsClaimed(msg.sender, reward) */\n      mload(0x40)\n      tag_310\n      swap2\n      swap1\n      tag_53\n      jump\t// in\n    tag_310:\n      mload(0x40)\n      dup1\n      swap2\n      sub\n      swap1\n      log2\n        /* \"contracts/LiquidityAccelerationToken.sol\":11241:12811  {... */\n      pop\n      pop\n      pop\n      pop\n      pop\n        /* \"@openzeppelin/contracts/security/ReentrancyGuard.sol\":2303:2323  _nonReentrantAfter() */\n      tag_311\n        /* \"@openzeppelin/contracts/security/ReentrancyGuard.sol\":2303:2321  _nonReentrantAfter */\n      tag_210\n        /* \"@openzeppelin/contracts/security/ReentrancyGuard.sol\":2303:2323  _nonReentrantAfter() */\n      jump\t// in\n    tag_311:\n        /* \"contracts/LiquidityAccelerationToken.sol\":11155:12811  function claimStakeRewards(uint256 expectedNonce) external whenNotPaused nonReentrant {... */\n      pop\n      jump\t// out\n        /* \"contracts/LiquidityAccelerationToken.sol\":1502:1528  uint256 public totalTrades */\n    tag_154:\n      sload(0x05)\n      dup2\n      jump\t// out\n        /* \"contracts/LiquidityAccelerationToken.sol\":8805:9748  function claimTradeRewards(uint256 expectedNonce, bytes memory signature) external whenNotPaused nonReentrant {... */\n    tag_159:\n        /* \"contracts/LiquidityAccelerationToken.sol\":4612:4618  paused */\n      0x11\n      0x00\n      swap1\n      sload\n      swap1\n      0x0100\n      exp\n      swap1\n      div\n      0xff\n      and\n        /* \"contracts/LiquidityAccelerationToken.sol\":4611:4618  !paused */\n      iszero\n        /* \"contracts/LiquidityAccelerationToken.sol\":4603:4641  require(!paused, \"Contract is paused\") */\n      tag_313\n      jumpi\n      mload(0x40)\n      0x08c379a000000000000000000000000000000000000000000000000000000000\n      dup2\n      mstore\n      0x04\n      add\n      tag_314\n      swap1\n      tag_186\n      jump\t// in\n    tag_314:\n      mload(0x40)\n      dup1\n      swap2\n      sub\n      swap1\n      revert\n    tag_313:\n        /* \"@openzeppelin/contracts/security/ReentrancyGuard.sol\":2261:2282  _nonReentrantBefore() */\n      tag_316\n        /* \"@openzeppelin/contracts/security/ReentrancyGuard.sol\":2261:2280  _nonReentrantBefore */\n      tag_189\n        /* \"@openzeppelin/contracts/security/ReentrancyGuard.sol\":2261:2282  _nonReentrantBefore() */\n      jump\t// in\n    tag_316:\n        /* \"contracts/LiquidityAccelerationToken.sol\":8933:8944  initialized */\n      0x11\n      0x01\n      swap1\n      sload\n      swap1\n      0x0100\n      exp\n      swap1\n      div\n      0xff\n      and\n        /* \"contracts/LiquidityAccelerationToken.sol\":8925:8964  require(initialized, \"Not initialized\") */\n      tag_318\n      jumpi\n      mload(0x40)\n      0x08c379a000000000000000000000000000000000000000000000000000000000\n      dup2\n      mstore\n      0x04\n      add\n      tag_319\n      swap1\n      tag_193\n      jump\t// in\n    tag_319:\n      mload(0x40)\n      dup1\n      swap2\n      sub\n      swap1\n      revert\n    tag_318:\n        /* \"contracts/LiquidityAccelerationToken.sol\":9004:9017  expectedNonce */\n      dup2\n        /* \"contracts/LiquidityAccelerationToken.sol\":8982:8988  nonces */\n      0x12\n        /* \"contracts/LiquidityAccelerationToken.sol\":8982:9000  nonces[msg.sender] */\n      0x00\n        /* \"contracts/LiquidityAccelerationToken.sol\":8989:8999  msg.sender */\n      caller\n        /* \"contracts/LiquidityAccelerationToken.sol\":8982:9000  nonces[msg.sender] */\n      0xffffffffffffffffffffffffffffffffffffffff\n      and\n      0xffffffffffffffffffffffffffffffffffffffff\n      and\n      dup2\n      mstore\n      0x20\n      add\n      swap1\n      dup2\n      mstore\n      0x20\n      add\n      0x00\n      keccak256\n      sload\n        /* \"contracts/LiquidityAccelerationToken.sol\":8982:9017  nonces[msg.sender] == expectedNonce */\n      eq\n        /* \"contracts/LiquidityAccelerationToken.sol\":8974:9035  require(nonces[msg.sender] == expectedNonce, \"Invalid nonce\") */\n      tag_320\n      jumpi\n      mload(0x40)\n      0x08c379a000000000000000000000000000000000000000000000000000000000\n      dup2\n      mstore\n      0x04\n      add\n      tag_321\n      swap1\n      tag_280\n      jump\t// in\n    tag_321:\n      mload(0x40)\n      dup1\n      swap2\n      sub\n      swap1\n      revert\n    tag_320:\n        /* \"contracts/LiquidityAccelerationToken.sol\":9053:9106  verifySignature(msg.sender, expectedNonce, signature) */\n      tag_322\n        /* \"contracts/LiquidityAccelerationToken.sol\":9069:9079  msg.sender */\n      caller\n        /* \"contracts/LiquidityAccelerationToken.sol\":9081:9094  expectedNonce */\n      dup4\n        /* \"contracts/LiquidityAccelerationToken.sol\":9096:9105  signature */\n      dup4\n        /* \"contracts/LiquidityAccelerationToken.sol\":9053:9068  verifySignature */\n      tag_323\n        /* \"contracts/LiquidityAccelerationToken.sol\":9053:9106  verifySignature(msg.sender, expectedNonce, signature) */\n      jump\t// in\n    tag_322:\n        /* \"contracts/LiquidityAccelerationToken.sol\":9045:9128  require(verifySignature(msg.sender, expectedNonce, signature), \"Invalid signature\") */\n      tag_324\n      jumpi\n      mload(0x40)\n      0x08c379a000000000000000000000000000000000000000000000000000000000\n      dup2\n      mstore\n      0x04\n      add\n      tag_325\n      swap1\n      tag_326\n      jump\t// in\n    tag_325:\n      mload(0x40)\n      dup1\n      swap2\n      sub\n      swap1\n      revert\n    tag_324:\n        /* \"contracts/LiquidityAccelerationToken.sol\":9139:9145  nonces */\n      0x12\n        /* \"contracts/LiquidityAccelerationToken.sol\":9139:9157  nonces[msg.sender] */\n      0x00\n        /* \"contracts/LiquidityAccelerationToken.sol\":9146:9156  msg.sender */\n      caller\n        /* \"contracts/LiquidityAccelerationToken.sol\":9139:9157  nonces[msg.sender] */\n      0xffffffffffffffffffffffffffffffffffffffff\n      and\n      0xffffffffffffffffffffffffffffffffffffffff\n      and\n      dup2\n      mstore\n      0x20\n      add\n      swap1\n      dup2\n      mstore\n      0x20\n      add\n      0x00\n      keccak256\n      0x00\n        /* \"contracts/LiquidityAccelerationToken.sol\":9139:9159  nonces[msg.sender]++ */\n      dup2\n      sload\n      dup1\n      swap3\n      swap2\n      swap1\n      tag_327\n      swap1\n      tag_282\n      jump\t// in\n    tag_327:\n      swap2\n      swap1\n      pop\n      sstore\n      pop\n        /* \"contracts/LiquidityAccelerationToken.sol\":9170:9195  TraderStats storage stats */\n      0x00\n        /* \"contracts/LiquidityAccelerationToken.sol\":9198:9209  traderStats */\n      0x17\n        /* \"contracts/LiquidityAccelerationToken.sol\":9198:9221  traderStats[msg.sender] */\n      0x00\n        /* \"contracts/LiquidityAccelerationToken.sol\":9210:9220  msg.sender */\n      caller\n        /* \"contracts/LiquidityAccelerationToken.sol\":9198:9221  traderStats[msg.sender] */\n      0xffffffffffffffffffffffffffffffffffffffff\n      and\n      0xffffffffffffffffffffffffffffffffffffffff\n      and\n      dup2\n      mstore\n      0x20\n      add\n      swap1\n      dup2\n      mstore\n      0x20\n      add\n      0x00\n      keccak256\n        /* \"contracts/LiquidityAccelerationToken.sol\":9170:9221  TraderStats storage stats = traderStats[msg.sender] */\n      swap1\n      pop\n        /* \"contracts/LiquidityAccelerationToken.sol\":9276:9294  tradeEpochDuration */\n      sload(0x07)\n        /* \"contracts/LiquidityAccelerationToken.sol\":9258:9263  stats */\n      dup2\n        /* \"contracts/LiquidityAccelerationToken.sol\":9258:9273  stats.lastClaim */\n      0x03\n      add\n      sload\n        /* \"contracts/LiquidityAccelerationToken.sol\":9258:9294  stats.lastClaim + tradeEpochDuration */\n      tag_328\n      swap2\n      swap1\n      tag_206\n      jump\t// in\n    tag_328:\n        /* \"contracts/LiquidityAccelerationToken.sol\":9239:9254  block.timestamp */\n      timestamp\n        /* \"contracts/LiquidityAccelerationToken.sol\":9239:9294  block.timestamp >= stats.lastClaim + tradeEpochDuration */\n      lt\n      iszero\n        /* \"contracts/LiquidityAccelerationToken.sol\":9231:9323  require(block.timestamp >= stats.lastClaim + tradeEpochDuration, \"Epoch duration not ended\") */\n      tag_329\n      jumpi\n      mload(0x40)\n      0x08c379a000000000000000000000000000000000000000000000000000000000\n      dup2\n      mstore\n      0x04\n      add\n      tag_330\n      swap1\n      tag_331\n      jump\t// in\n    tag_330:\n      mload(0x40)\n      dup1\n      swap2\n      sub\n      swap1\n      revert\n    tag_329:\n        /* \"contracts/LiquidityAccelerationToken.sol\":9333:9347  uint256 reward */\n      0x00\n        /* \"contracts/LiquidityAccelerationToken.sol\":9350:9355  stats */\n      dup2\n        /* \"contracts/LiquidityAccelerationToken.sol\":9350:9375  stats.pendingTradeRewards */\n      0x02\n      add\n      sload\n        /* \"contracts/LiquidityAccelerationToken.sol\":9333:9375  uint256 reward = stats.pendingTradeRewards */\n      swap1\n      pop\n        /* \"contracts/LiquidityAccelerationToken.sol\":9402:9403  0 */\n      0x00\n        /* \"contracts/LiquidityAccelerationToken.sol\":9393:9399  reward */\n      dup2\n        /* \"contracts/LiquidityAccelerationToken.sol\":9393:9403  reward > 0 */\n      gt\n        /* \"contracts/LiquidityAccelerationToken.sol\":9385:9426  require(reward > 0, \"No pending rewards\") */\n      tag_332\n      jumpi\n      mload(0x40)\n      0x08c379a000000000000000000000000000000000000000000000000000000000\n      dup2\n      mstore\n      0x04\n      add\n      tag_333\n      swap1\n      tag_334\n      jump\t// in\n    tag_333:\n      mload(0x40)\n      dup1\n      swap2\n      sub\n      swap1\n      revert\n    tag_332:\n        /* \"contracts/LiquidityAccelerationToken.sol\":9454:9466  maxClaimable */\n      sload(0x10)\n        /* \"contracts/LiquidityAccelerationToken.sol\":9444:9450  reward */\n      dup2\n        /* \"contracts/LiquidityAccelerationToken.sol\":9444:9466  reward <= maxClaimable */\n      gt\n      iszero\n        /* \"contracts/LiquidityAccelerationToken.sol\":9436:9499  require(reward <= maxClaimable, \"Reward exceeds max claimable\") */\n      tag_335\n      jumpi\n      mload(0x40)\n      0x08c379a000000000000000000000000000000000000000000000000000000000\n      dup2\n      mstore\n      0x04\n      add\n      tag_336\n      swap1\n      tag_337\n      jump\t// in\n    tag_336:\n      mload(0x40)\n      dup1\n      swap2\n      sub\n      swap1\n      revert\n    tag_335:\n        /* \"contracts/LiquidityAccelerationToken.sol\":9599:9600  0 */\n      0x00\n        /* \"contracts/LiquidityAccelerationToken.sol\":9571:9576  stats */\n      dup3\n        /* \"contracts/LiquidityAccelerationToken.sol\":9571:9596  stats.pendingTradeRewards */\n      0x02\n      add\n        /* \"contracts/LiquidityAccelerationToken.sol\":9571:9600  stats.pendingTradeRewards = 0 */\n      dup2\n      swap1\n      sstore\n      pop\n        /* \"contracts/LiquidityAccelerationToken.sol\":9628:9643  block.timestamp */\n      timestamp\n        /* \"contracts/LiquidityAccelerationToken.sol\":9610:9615  stats */\n      dup3\n        /* \"contracts/LiquidityAccelerationToken.sol\":9610:9625  stats.lastClaim */\n      0x03\n      add\n        /* \"contracts/LiquidityAccelerationToken.sol\":9610:9643  stats.lastClaim = block.timestamp */\n      dup2\n      swap1\n      sstore\n      pop\n        /* \"contracts/LiquidityAccelerationToken.sol\":9654:9662  latToken */\n      0x02\n      0x00\n      swap1\n      sload\n      swap1\n      0x0100\n      exp\n      swap1\n      div\n      0xffffffffffffffffffffffffffffffffffffffff\n      and\n        /* \"contracts/LiquidityAccelerationToken.sol\":9654:9667  latToken.mint */\n      0xffffffffffffffffffffffffffffffffffffffff\n      and\n      0x40c10f19\n        /* \"contracts/LiquidityAccelerationToken.sol\":9668:9678  msg.sender */\n      caller\n        /* \"contracts/LiquidityAccelerationToken.sol\":9680:9686  reward */\n      dup4\n        /* \"contracts/LiquidityAccelerationToken.sol\":9654:9687  latToken.mint(msg.sender, reward) */\n      mload(0x40)\n      dup4\n      0xffffffff\n      and\n      0xe0\n      shl\n      dup2\n      mstore\n      0x04\n      add\n      tag_338\n      swap3\n      swap2\n      swap1\n      tag_237\n      jump\t// in\n    tag_338:\n      0x00\n      mload(0x40)\n      dup1\n      dup4\n      sub\n      dup2\n      0x00\n      dup8\n      dup1\n      extcodesize\n      iszero\n      dup1\n      iszero\n      tag_339\n      jumpi\n      revert(0x00, 0x00)\n    tag_339:\n      pop\n      gas\n      call\n      iszero\n      dup1\n      iszero\n      tag_341\n      jumpi\n      returndatacopy(0x00, 0x00, returndatasize)\n      revert(0x00, returndatasize)\n    tag_341:\n      pop\n      pop\n      pop\n      pop\n        /* \"contracts/LiquidityAccelerationToken.sol\":9722:9732  msg.sender */\n      caller\n        /* \"contracts/LiquidityAccelerationToken.sol\":9702:9741  TradeRewardsClaimed(msg.sender, reward) */\n      0xffffffffffffffffffffffffffffffffffffffff\n      and\n      0xb127973bf29d1dae6424fef4f7461e0b9c444636ab23a8392d9969500034a13d\n        /* \"contracts/LiquidityAccelerationToken.sol\":9734:9740  reward */\n      dup3\n        /* \"contracts/LiquidityAccelerationToken.sol\":9702:9741  TradeRewardsClaimed(msg.sender, reward) */\n      mload(0x40)\n      tag_342\n      swap2\n      swap1\n      tag_53\n      jump\t// in\n    tag_342:\n      mload(0x40)\n      dup1\n      swap2\n      sub\n      swap1\n      log2\n        /* \"contracts/LiquidityAccelerationToken.sol\":8915:9748  {... */\n      pop\n      pop\n        /* \"@openzeppelin/contracts/security/ReentrancyGuard.sol\":2303:2323  _nonReentrantAfter() */\n      tag_343\n        /* \"@openzeppelin/contracts/security/ReentrancyGuard.sol\":2303:2321  _nonReentrantAfter */\n      tag_210\n        /* \"@openzeppelin/contracts/security/ReentrancyGuard.sol\":2303:2323  _nonReentrantAfter() */\n      jump\t// in\n    tag_343:\n        /* \"contracts/LiquidityAccelerationToken.sol\":8805:9748  function claimTradeRewards(uint256 expectedNonce, bytes memory signature) external whenNotPaused nonReentrant {... */\n      pop\n      pop\n      jump\t// out\n        /* \"contracts/LiquidityAccelerationToken.sol\":7128:8484  function recordTrade(uint256 tradeVolume, bool isMaker) external whenNotPaused nonReentrant {... */\n    tag_163:\n        /* \"contracts/LiquidityAccelerationToken.sol\":4612:4618  paused */\n      0x11\n      0x00\n      swap1\n      sload\n      swap1\n      0x0100\n      exp\n      swap1\n      div\n      0xff\n      and\n        /* \"contracts/LiquidityAccelerationToken.sol\":4611:4618  !paused */\n      iszero\n        /* \"contracts/LiquidityAccelerationToken.sol\":4603:4641  require(!paused, \"Contract is paused\") */\n      tag_345\n      jumpi\n      mload(0x40)\n      0x08c379a000000000000000000000000000000000000000000000000000000000\n      dup2\n      mstore\n      0x04\n      add\n      tag_346\n      swap1\n      tag_186\n      jump\t// in\n    tag_346:\n      mload(0x40)\n      dup1\n      swap2\n      sub\n      swap1\n      revert\n    tag_345:\n        /* \"@openzeppelin/contracts/security/ReentrancyGuard.sol\":2261:2282  _nonReentrantBefore() */\n      tag_348\n        /* \"@openzeppelin/contracts/security/ReentrancyGuard.sol\":2261:2280  _nonReentrantBefore */\n      tag_189\n        /* \"@openzeppelin/contracts/security/ReentrancyGuard.sol\":2261:2282  _nonReentrantBefore() */\n      jump\t// in\n    tag_348:\n        /* \"contracts/LiquidityAccelerationToken.sol\":7238:7249  initialized */\n      0x11\n      0x01\n      swap1\n      sload\n      swap1\n      0x0100\n      exp\n      swap1\n      div\n      0xff\n      and\n        /* \"contracts/LiquidityAccelerationToken.sol\":7230:7269  require(initialized, \"Not initialized\") */\n      tag_350\n      jumpi\n      mload(0x40)\n      0x08c379a000000000000000000000000000000000000000000000000000000000\n      dup2\n      mstore\n      0x04\n      add\n      tag_351\n      swap1\n      tag_193\n      jump\t// in\n    tag_351:\n      mload(0x40)\n      dup1\n      swap2\n      sub\n      swap1\n      revert\n    tag_350:\n        /* \"contracts/LiquidityAccelerationToken.sol\":7411:7424  epochDuration */\n      sload(0x0d)\n        /* \"contracts/LiquidityAccelerationToken.sol\":7394:7408  lastEpochBlock */\n      sload(0x0c)\n        /* \"contracts/LiquidityAccelerationToken.sol\":7394:7424  lastEpochBlock + epochDuration */\n      tag_352\n      swap2\n      swap1\n      tag_206\n      jump\t// in\n    tag_352:\n        /* \"contracts/LiquidityAccelerationToken.sol\":7378:7390  block.number */\n      number\n        /* \"contracts/LiquidityAccelerationToken.sol\":7378:7424  block.number >= lastEpochBlock + epochDuration */\n      lt\n        /* \"contracts/LiquidityAccelerationToken.sol\":7374:7514  if (block.number >= lastEpochBlock + epochDuration) {... */\n      tag_353\n      jumpi\n        /* \"contracts/LiquidityAccelerationToken.sol\":7459:7460  0 */\n      0x00\n        /* \"contracts/LiquidityAccelerationToken.sol\":7440:7456  epochTradeVolume */\n      0x06\n        /* \"contracts/LiquidityAccelerationToken.sol\":7440:7460  epochTradeVolume = 0 */\n      dup2\n      swap1\n      sstore\n      pop\n        /* \"contracts/LiquidityAccelerationToken.sol\":7491:7503  block.number */\n      number\n        /* \"contracts/LiquidityAccelerationToken.sol\":7474:7488  lastEpochBlock */\n      0x0c\n        /* \"contracts/LiquidityAccelerationToken.sol\":7474:7503  lastEpochBlock = block.number */\n      dup2\n      swap1\n      sstore\n      pop\n        /* \"contracts/LiquidityAccelerationToken.sol\":7374:7514  if (block.number >= lastEpochBlock + epochDuration) {... */\n    tag_353:\n        /* \"contracts/LiquidityAccelerationToken.sol\":7539:7540  1 */\n      0x01\n        /* \"contracts/LiquidityAccelerationToken.sol\":7524:7535  totalTrades */\n      0x05\n      0x00\n        /* \"contracts/LiquidityAccelerationToken.sol\":7524:7540  totalTrades += 1 */\n      dup3\n      dup3\n      sload\n      tag_354\n      swap2\n      swap1\n      tag_206\n      jump\t// in\n    tag_354:\n      swap3\n      pop\n      pop\n      dup2\n      swap1\n      sstore\n      pop\n        /* \"contracts/LiquidityAccelerationToken.sol\":7570:7581  tradeVolume */\n      dup2\n        /* \"contracts/LiquidityAccelerationToken.sol\":7550:7566  epochTradeVolume */\n      0x06\n      0x00\n        /* \"contracts/LiquidityAccelerationToken.sol\":7550:7581  epochTradeVolume += tradeVolume */\n      dup3\n      dup3\n      sload\n      tag_355\n      swap2\n      swap1\n      tag_206\n      jump\t// in\n    tag_355:\n      swap3\n      pop\n      pop\n      dup2\n      swap1\n      sstore\n      pop\n        /* \"contracts/LiquidityAccelerationToken.sol\":7612:7623  tradeVolume */\n      dup2\n        /* \"contracts/LiquidityAccelerationToken.sol\":7591:7608  poolTradingVolume */\n      0x08\n      0x00\n        /* \"contracts/LiquidityAccelerationToken.sol\":7591:7623  poolTradingVolume += tradeVolume */\n      dup3\n      dup3\n      sload\n      tag_356\n      swap2\n      swap1\n      tag_206\n      jump\t// in\n    tag_356:\n      swap3\n      pop\n      pop\n      dup2\n      swap1\n      sstore\n      pop\n        /* \"contracts/LiquidityAccelerationToken.sol\":7634:7659  TraderStats storage stats */\n      0x00\n        /* \"contracts/LiquidityAccelerationToken.sol\":7662:7673  traderStats */\n      0x17\n        /* \"contracts/LiquidityAccelerationToken.sol\":7662:7685  traderStats[msg.sender] */\n      0x00\n        /* \"contracts/LiquidityAccelerationToken.sol\":7674:7684  msg.sender */\n      caller\n        /* \"contracts/LiquidityAccelerationToken.sol\":7662:7685  traderStats[msg.sender] */\n      0xffffffffffffffffffffffffffffffffffffffff\n      and\n      0xffffffffffffffffffffffffffffffffffffffff\n      and\n      dup2\n      mstore\n      0x20\n      add\n      swap1\n      dup2\n      mstore\n      0x20\n      add\n      0x00\n      keccak256\n        /* \"contracts/LiquidityAccelerationToken.sol\":7634:7685  TraderStats storage stats = traderStats[msg.sender] */\n      swap1\n      pop\n        /* \"contracts/LiquidityAccelerationToken.sol\":7715:7716  1 */\n      0x01\n        /* \"contracts/LiquidityAccelerationToken.sol\":7695:7700  stats */\n      dup2\n        /* \"contracts/LiquidityAccelerationToken.sol\":7695:7711  stats.tradeCount */\n      0x00\n      add\n      0x00\n        /* \"contracts/LiquidityAccelerationToken.sol\":7695:7716  stats.tradeCount += 1 */\n      dup3\n      dup3\n      sload\n      tag_357\n      swap2\n      swap1\n      tag_206\n      jump\t// in\n    tag_357:\n      swap3\n      pop\n      pop\n      dup2\n      swap1\n      sstore\n      pop\n        /* \"contracts/LiquidityAccelerationToken.sol\":7747:7758  tradeVolume */\n      dup3\n        /* \"contracts/LiquidityAccelerationToken.sol\":7726:7731  stats */\n      dup2\n        /* \"contracts/LiquidityAccelerationToken.sol\":7726:7743  stats.totalVolume */\n      0x01\n      add\n      0x00\n        /* \"contracts/LiquidityAccelerationToken.sol\":7726:7758  stats.totalVolume += tradeVolume */\n      dup3\n      dup3\n      sload\n      tag_358\n      swap2\n      swap1\n      tag_206\n      jump\t// in\n    tag_358:\n      swap3\n      pop\n      pop\n      dup2\n      swap1\n      sstore\n      pop\n        /* \"contracts/LiquidityAccelerationToken.sol\":7848:7866  uint256 multiplier */\n      0x00\n        /* \"contracts/LiquidityAccelerationToken.sol\":7888:7907  poolVolumeThreshold */\n      sload(0x09)\n        /* \"contracts/LiquidityAccelerationToken.sol\":7869:7885  epochTradeVolume */\n      sload(0x06)\n        /* \"contracts/LiquidityAccelerationToken.sol\":7869:7907  epochTradeVolume < poolVolumeThreshold */\n      lt\n        /* \"contracts/LiquidityAccelerationToken.sol\":7869:7919  epochTradeVolume < poolVolumeThreshold ? 150 : 100 */\n      tag_359\n      jumpi\n        /* \"contracts/LiquidityAccelerationToken.sol\":7916:7919  100 */\n      0x64\n        /* \"contracts/LiquidityAccelerationToken.sol\":7869:7919  epochTradeVolume < poolVolumeThreshold ? 150 : 100 */\n      jump(tag_360)\n    tag_359:\n        /* \"contracts/LiquidityAccelerationToken.sol\":7910:7913  150 */\n      0x96\n        /* \"contracts/LiquidityAccelerationToken.sol\":7869:7919  epochTradeVolume < poolVolumeThreshold ? 150 : 100 */\n    tag_360:\n        /* \"contracts/LiquidityAccelerationToken.sol\":7848:7919  uint256 multiplier = epochTradeVolume < poolVolumeThreshold ? 150 : 100 */\n      0xff\n      and\n      swap1\n      pop\n        /* \"contracts/LiquidityAccelerationToken.sol\":7929:7943  uint256 reward */\n      0x00\n        /* \"contracts/LiquidityAccelerationToken.sol\":7993:7996  100 */\n      0x64\n        /* \"contracts/LiquidityAccelerationToken.sol\":7979:7989  multiplier */\n      dup3\n        /* \"contracts/LiquidityAccelerationToken.sol\":7961:7976  tradeRewardRate */\n      sload(0x03)\n        /* \"contracts/LiquidityAccelerationToken.sol\":7947:7958  tradeVolume */\n      dup8\n        /* \"contracts/LiquidityAccelerationToken.sol\":7947:7976  tradeVolume * tradeRewardRate */\n      tag_361\n      swap2\n      swap1\n      tag_230\n      jump\t// in\n    tag_361:\n        /* \"contracts/LiquidityAccelerationToken.sol\":7947:7989  tradeVolume * tradeRewardRate * multiplier */\n      tag_362\n      swap2\n      swap1\n      tag_230\n      jump\t// in\n    tag_362:\n        /* \"contracts/LiquidityAccelerationToken.sol\":7946:7996  (tradeVolume * tradeRewardRate * multiplier) / 100 */\n      tag_363\n      swap2\n      swap1\n      tag_232\n      jump\t// in\n    tag_363:\n        /* \"contracts/LiquidityAccelerationToken.sol\":7929:7996  uint256 reward = (tradeVolume * tradeRewardRate * multiplier) / 100 */\n      swap1\n      pop\n        /* \"contracts/LiquidityAccelerationToken.sol\":8035:8041  reward */\n      dup1\n        /* \"contracts/LiquidityAccelerationToken.sol\":8006:8011  stats */\n      dup4\n        /* \"contracts/LiquidityAccelerationToken.sol\":8006:8031  stats.pendingTradeRewards */\n      0x02\n      add\n      0x00\n        /* \"contracts/LiquidityAccelerationToken.sol\":8006:8041  stats.pendingTradeRewards += reward */\n      dup3\n      dup3\n      sload\n      tag_364\n      swap2\n      swap1\n      tag_206\n      jump\t// in\n    tag_364:\n      swap3\n      pop\n      pop\n      dup2\n      swap1\n      sstore\n      pop\n        /* \"contracts/LiquidityAccelerationToken.sol\":8115:8122  isMaker */\n      dup4\n        /* \"contracts/LiquidityAccelerationToken.sol\":8111:8267  if (isMaker) {... */\n      iszero\n      tag_365\n      jumpi\n        /* \"contracts/LiquidityAccelerationToken.sol\":8180:8183  100 */\n      0x64\n        /* \"contracts/LiquidityAccelerationToken.sol\":8166:8177  tradeVolume */\n      dup6\n        /* \"contracts/LiquidityAccelerationToken.sol\":8166:8183  tradeVolume / 100 */\n      tag_366\n      swap2\n      swap1\n      tag_232\n      jump\t// in\n    tag_366:\n        /* \"contracts/LiquidityAccelerationToken.sol\":8138:8150  makerRebates */\n      0x14\n        /* \"contracts/LiquidityAccelerationToken.sol\":8138:8162  makerRebates[msg.sender] */\n      0x00\n        /* \"contracts/LiquidityAccelerationToken.sol\":8151:8161  msg.sender */\n      caller\n        /* \"contracts/LiquidityAccelerationToken.sol\":8138:8162  makerRebates[msg.sender] */\n      0xffffffffffffffffffffffffffffffffffffffff\n      and\n      0xffffffffffffffffffffffffffffffffffffffff\n      and\n      dup2\n      mstore\n      0x20\n      add\n      swap1\n      dup2\n      mstore\n      0x20\n      add\n      0x00\n      keccak256\n      0x00\n        /* \"contracts/LiquidityAccelerationToken.sol\":8138:8183  makerRebates[msg.sender] += tradeVolume / 100 */\n      dup3\n      dup3\n      sload\n      tag_367\n      swap2\n      swap1\n      tag_206\n      jump\t// in\n    tag_367:\n      swap3\n      pop\n      pop\n      dup2\n      swap1\n      sstore\n      pop\n        /* \"contracts/LiquidityAccelerationToken.sol\":8111:8267  if (isMaker) {... */\n      jump(tag_368)\n    tag_365:\n        /* \"contracts/LiquidityAccelerationToken.sol\":8253:8256  100 */\n      0x64\n        /* \"contracts/LiquidityAccelerationToken.sol\":8239:8250  tradeVolume */\n      dup6\n        /* \"contracts/LiquidityAccelerationToken.sol\":8239:8256  tradeVolume / 100 */\n      tag_369\n      swap2\n      swap1\n      tag_232\n      jump\t// in\n    tag_369:\n        /* \"contracts/LiquidityAccelerationToken.sol\":8214:8223  takerFees */\n      0x15\n        /* \"contracts/LiquidityAccelerationToken.sol\":8214:8235  takerFees[msg.sender] */\n      0x00\n        /* \"contracts/LiquidityAccelerationToken.sol\":8224:8234  msg.sender */\n      caller\n        /* \"contracts/LiquidityAccelerationToken.sol\":8214:8235  takerFees[msg.sender] */\n      0xffffffffffffffffffffffffffffffffffffffff\n      and\n      0xffffffffffffffffffffffffffffffffffffffff\n      and\n      dup2\n      mstore\n      0x20\n      add\n      swap1\n      dup2\n      mstore\n      0x20\n      add\n      0x00\n      keccak256\n      0x00\n        /* \"contracts/LiquidityAccelerationToken.sol\":8214:8256  takerFees[msg.sender] += tradeVolume / 100 */\n      dup3\n      dup3\n      sload\n      tag_370\n      swap2\n      swap1\n      tag_206\n      jump\t// in\n    tag_370:\n      swap3\n      pop\n      pop\n      dup2\n      swap1\n      sstore\n      pop\n        /* \"contracts/LiquidityAccelerationToken.sol\":8111:8267  if (isMaker) {... */\n    tag_368:\n        /* \"contracts/LiquidityAccelerationToken.sol\":8354:8355  0 */\n      0x00\n        /* \"contracts/LiquidityAccelerationToken.sol\":8335:8340  stats */\n      dup4\n        /* \"contracts/LiquidityAccelerationToken.sol\":8335:8350  stats.lastClaim */\n      0x03\n      add\n      sload\n        /* \"contracts/LiquidityAccelerationToken.sol\":8335:8355  stats.lastClaim == 0 */\n      sub\n        /* \"contracts/LiquidityAccelerationToken.sol\":8331:8415  if (stats.lastClaim == 0) {... */\n      tag_371\n      jumpi\n        /* \"contracts/LiquidityAccelerationToken.sol\":8389:8404  block.timestamp */\n      timestamp\n        /* \"contracts/LiquidityAccelerationToken.sol\":8371:8376  stats */\n      dup4\n        /* \"contracts/LiquidityAccelerationToken.sol\":8371:8386  stats.lastClaim */\n      0x03\n      add\n        /* \"contracts/LiquidityAccelerationToken.sol\":8371:8404  stats.lastClaim = block.timestamp */\n      dup2\n      swap1\n      sstore\n      pop\n        /* \"contracts/LiquidityAccelerationToken.sol\":8331:8415  if (stats.lastClaim == 0) {... */\n    tag_371:\n        /* \"contracts/LiquidityAccelerationToken.sol\":8444:8454  msg.sender */\n      caller\n        /* \"contracts/LiquidityAccelerationToken.sol\":8430:8477  TradeRecorded(msg.sender, tradeVolume, isMaker) */\n      0xffffffffffffffffffffffffffffffffffffffff\n      and\n      0x4b85156045f2844cf6b638ff8a8ddb82c940ccdbe3c46e6e67d2583722c7dc71\n        /* \"contracts/LiquidityAccelerationToken.sol\":8456:8467  tradeVolume */\n      dup7\n        /* \"contracts/LiquidityAccelerationToken.sol\":8469:8476  isMaker */\n      dup7\n        /* \"contracts/LiquidityAccelerationToken.sol\":8430:8477  TradeRecorded(msg.sender, tradeVolume, isMaker) */\n      mload(0x40)\n      tag_372\n      swap3\n      swap2\n      swap1\n      tag_373\n      jump\t// in\n    tag_372:\n      mload(0x40)\n      dup1\n      swap2\n      sub\n      swap1\n      log2\n        /* \"contracts/LiquidityAccelerationToken.sol\":7220:8484  {... */\n      pop\n      pop\n      pop\n        /* \"@openzeppelin/contracts/security/ReentrancyGuard.sol\":2303:2323  _nonReentrantAfter() */\n      tag_374\n        /* \"@openzeppelin/contracts/security/ReentrancyGuard.sol\":2303:2321  _nonReentrantAfter */\n      tag_210\n        /* \"@openzeppelin/contracts/security/ReentrancyGuard.sol\":2303:2323  _nonReentrantAfter() */\n      jump\t// in\n    tag_374:\n        /* \"contracts/LiquidityAccelerationToken.sol\":7128:8484  function recordTrade(uint256 tradeVolume, bool isMaker) external whenNotPaused nonReentrant {... */\n      pop\n      pop\n      jump\t// out\n        /* \"contracts/LiquidityAccelerationToken.sol\":1648:1680  uint256 public poolTradingVolume */\n    tag_165:\n      sload(0x08)\n      dup2\n      jump\t// out\n        /* \"contracts/LiquidityAccelerationToken.sol\":2243:2291  uint256 public maxClaimable = 1_000_000 * 10**18 */\n    tag_168:\n      sload(0x10)\n      dup2\n      jump\t// out\n        /* \"contracts/LiquidityAccelerationToken.sol\":1571:1604  uint256 public tradeEpochDuration */\n    tag_171:\n      sload(0x07)\n      dup2\n      jump\t// out\n        /* \"@openzeppelin/contracts/access/Ownable.sol\":2543:2758  function transferOwnership(address newOwner) public virtual onlyOwner {... */\n    tag_175:\n        /* \"@openzeppelin/contracts/access/Ownable.sol\":1531:1544  _checkOwner() */\n      tag_376\n        /* \"@openzeppelin/contracts/access/Ownable.sol\":1531:1542  _checkOwner */\n      tag_213\n        /* \"@openzeppelin/contracts/access/Ownable.sol\":1531:1544  _checkOwner() */\n      jump\t// in\n    tag_376:\n        /* \"@openzeppelin/contracts/access/Ownable.sol\":2647:2648  0 */\n      0x00\n        /* \"@openzeppelin/contracts/access/Ownable.sol\":2627:2649  newOwner == address(0) */\n      0xffffffffffffffffffffffffffffffffffffffff\n      and\n        /* \"@openzeppelin/contracts/access/Ownable.sol\":2627:2635  newOwner */\n      dup2\n        /* \"@openzeppelin/contracts/access/Ownable.sol\":2627:2649  newOwner == address(0) */\n      0xffffffffffffffffffffffffffffffffffffffff\n      and\n      sub\n        /* \"@openzeppelin/contracts/access/Ownable.sol\":2623:2714  if (newOwner == address(0)) {... */\n      tag_378\n      jumpi\n        /* \"@openzeppelin/contracts/access/Ownable.sol\":2700:2701  0 */\n      0x00\n        /* \"@openzeppelin/contracts/access/Ownable.sol\":2672:2703  OwnableInvalidOwner(address(0)) */\n      mload(0x40)\n      0x1e4fbdf700000000000000000000000000000000000000000000000000000000\n      dup2\n      mstore\n      0x04\n      add\n      tag_379\n      swap2\n      swap1\n      tag_96\n      jump\t// in\n    tag_379:\n      mload(0x40)\n      dup1\n      swap2\n      sub\n      swap1\n      revert\n        /* \"@openzeppelin/contracts/access/Ownable.sol\":2623:2714  if (newOwner == address(0)) {... */\n    tag_378:\n        /* \"@openzeppelin/contracts/access/Ownable.sol\":2723:2751  _transferOwnership(newOwner) */\n      tag_380\n        /* \"@openzeppelin/contracts/access/Ownable.sol\":2742:2750  newOwner */\n      dup2\n        /* \"@openzeppelin/contracts/access/Ownable.sol\":2723:2741  _transferOwnership */\n      tag_262\n        /* \"@openzeppelin/contracts/access/Ownable.sol\":2723:2751  _transferOwnership(newOwner) */\n      jump\t// in\n    tag_380:\n        /* \"@openzeppelin/contracts/access/Ownable.sol\":2543:2758  function transferOwnership(address newOwner) public virtual onlyOwner {... */\n      pop\n      jump\t// out\n        /* \"contracts/LiquidityAccelerationToken.sol\":2589:2639  mapping(address => uint256) public lastSignedClaim */\n    tag_178:\n      mstore(0x20, 0x13)\n      dup1\n      0x00\n      mstore\n      keccak256(0x00, 0x40)\n      0x00\n      swap2\n      pop\n      swap1\n      pop\n      sload\n      dup2\n      jump\t// out\n        /* \"contracts/LiquidityAccelerationToken.sol\":1430:1460  uint256 public tradeRewardRate */\n    tag_181:\n      sload(0x03)\n      dup2\n      jump\t// out\n        /* \"@openzeppelin/contracts/security/ReentrancyGuard.sol\":2336:2623  function _nonReentrantBefore() private {... */\n    tag_189:\n        /* \"@openzeppelin/contracts/security/ReentrancyGuard.sol\":1759:1760  2 */\n      0x02\n        /* \"@openzeppelin/contracts/security/ReentrancyGuard.sol\":2468:2475  _status */\n      sload(0x01)\n        /* \"@openzeppelin/contracts/security/ReentrancyGuard.sol\":2468:2487  _status != _ENTERED */\n      sub\n        /* \"@openzeppelin/contracts/security/ReentrancyGuard.sol\":2460:2523  require(_status != _ENTERED, \"ReentrancyGuard: reentrant call\") */\n      tag_382\n      jumpi\n      mload(0x40)\n      0x08c379a000000000000000000000000000000000000000000000000000000000\n      dup2\n      mstore\n      0x04\n      add\n      tag_383\n      swap1\n      tag_384\n      jump\t// in\n    tag_383:\n      mload(0x40)\n      dup1\n      swap2\n      sub\n      swap1\n      revert\n    tag_382:\n        /* \"@openzeppelin/contracts/security/ReentrancyGuard.sol\":1759:1760  2 */\n      0x02\n        /* \"@openzeppelin/contracts/security/ReentrancyGuard.sol\":2598:2605  _status */\n      0x01\n        /* \"@openzeppelin/contracts/security/ReentrancyGuard.sol\":2598:2616  _status = _ENTERED */\n      dup2\n      swap1\n      sstore\n      pop\n        /* \"@openzeppelin/contracts/security/ReentrancyGuard.sol\":2336:2623  function _nonReentrantBefore() private {... */\n      jump\t// out\n        /* \"@openzeppelin/contracts/security/ReentrancyGuard.sol\":2629:2838  function _nonReentrantAfter() private {... */\n    tag_210:\n        /* \"@openzeppelin/contracts/security/ReentrancyGuard.sol\":1716:1717  1 */\n      0x01\n        /* \"@openzeppelin/contracts/security/ReentrancyGuard.sol\":2809:2816  _status */\n      dup1\n        /* \"@openzeppelin/contracts/security/ReentrancyGuard.sol\":2809:2831  _status = _NOT_ENTERED */\n      dup2\n      swap1\n      sstore\n      pop\n        /* \"@openzeppelin/contracts/security/ReentrancyGuard.sol\":2629:2838  function _nonReentrantAfter() private {... */\n      jump\t// out\n        /* \"@openzeppelin/contracts/access/Ownable.sol\":1796:1958  function _checkOwner() internal view virtual {... */\n    tag_213:\n        /* \"@openzeppelin/contracts/access/Ownable.sol\":1866:1878  _msgSender() */\n      tag_387\n        /* \"@openzeppelin/contracts/access/Ownable.sol\":1866:1876  _msgSender */\n      tag_388\n        /* \"@openzeppelin/contracts/access/Ownable.sol\":1866:1878  _msgSender() */\n      jump\t// in\n    tag_387:\n        /* \"@openzeppelin/contracts/access/Ownable.sol\":1855:1878  owner() != _msgSender() */\n      0xffffffffffffffffffffffffffffffffffffffff\n      and\n        /* \"@openzeppelin/contracts/access/Ownable.sol\":1855:1862  owner() */\n      tag_389\n        /* \"@openzeppelin/contracts/access/Ownable.sol\":1855:1860  owner */\n      tag_139\n        /* \"@openzeppelin/contracts/access/Ownable.sol\":1855:1862  owner() */\n      jump\t// in\n    tag_389:\n        /* \"@openzeppelin/contracts/access/Ownable.sol\":1855:1878  owner() != _msgSender() */\n      0xffffffffffffffffffffffffffffffffffffffff\n      and\n      eq\n        /* \"@openzeppelin/contracts/access/Ownable.sol\":1851:1952  if (owner() != _msgSender()) {... */\n      tag_390\n      jumpi\n        /* \"@openzeppelin/contracts/access/Ownable.sol\":1928:1940  _msgSender() */\n      tag_391\n        /* \"@openzeppelin/contracts/access/Ownable.sol\":1928:1938  _msgSender */\n      tag_388\n        /* \"@openzeppelin/contracts/access/Ownable.sol\":1928:1940  _msgSender() */\n      jump\t// in\n    tag_391:\n        /* \"@openzeppelin/contracts/access/Ownable.sol\":1901:1941  OwnableUnauthorizedAccount(_msgSender()) */\n      mload(0x40)\n      0x118cdaa700000000000000000000000000000000000000000000000000000000\n      dup2\n      mstore\n      0x04\n      add\n      tag_392\n      swap2\n      swap1\n      tag_96\n      jump\t// in\n    tag_392:\n      mload(0x40)\n      dup1\n      swap2\n      sub\n      swap1\n      revert\n        /* \"@openzeppelin/contracts/access/Ownable.sol\":1851:1952  if (owner() != _msgSender()) {... */\n    tag_390:\n        /* \"@openzeppelin/contracts/access/Ownable.sol\":1796:1958  function _checkOwner() internal view virtual {... */\n      jump\t// out\n        /* \"@openzeppelin/contracts/access/Ownable.sol\":2912:3099  function _transferOwnership(address newOwner) internal virtual {... */\n    tag_262:\n        /* \"@openzeppelin/contracts/access/Ownable.sol\":2985:3001  address oldOwner */\n      0x00\n        /* \"@openzeppelin/contracts/access/Ownable.sol\":3004:3010  _owner */\n      0x00\n      0x00\n      swap1\n      sload\n      swap1\n      0x0100\n      exp\n      swap1\n      div\n      0xffffffffffffffffffffffffffffffffffffffff\n      and\n        /* \"@openzeppelin/contracts/access/Ownable.sol\":2985:3010  address oldOwner = _owner */\n      swap1\n      pop\n        /* \"@openzeppelin/contracts/access/Ownable.sol\":3029:3037  newOwner */\n      dup2\n        /* \"@openzeppelin/contracts/access/Ownable.sol\":3020:3026  _owner */\n      0x00\n      0x00\n        /* \"@openzeppelin/contracts/access/Ownable.sol\":3020:3037  _owner = newOwner */\n      0x0100\n      exp\n      dup2\n      sload\n      dup2\n      0xffffffffffffffffffffffffffffffffffffffff\n      mul\n      not\n      and\n      swap1\n      dup4\n      0xffffffffffffffffffffffffffffffffffffffff\n      and\n      mul\n      or\n      swap1\n      sstore\n      pop\n        /* \"@openzeppelin/contracts/access/Ownable.sol\":3083:3091  newOwner */\n      dup2\n        /* \"@openzeppelin/contracts/access/Ownable.sol\":3052:3092  OwnershipTransferred(oldOwner, newOwner) */\n      0xffffffffffffffffffffffffffffffffffffffff\n      and\n        /* \"@openzeppelin/contracts/access/Ownable.sol\":3073:3081  oldOwner */\n      dup2\n        /* \"@openzeppelin/contracts/access/Ownable.sol\":3052:3092  OwnershipTransferred(oldOwner, newOwner) */\n      0xffffffffffffffffffffffffffffffffffffffff\n      and\n      0x8be0079c531659141344cd1fd0a4f28419497f9722a3daafe3b4186f6b6457e0\n      mload(0x40)\n      mload(0x40)\n      dup1\n      swap2\n      sub\n      swap1\n      log3\n        /* \"@openzeppelin/contracts/access/Ownable.sol\":2975:3099  {... */\n      pop\n        /* \"@openzeppelin/contracts/access/Ownable.sol\":2912:3099  function _transferOwnership(address newOwner) internal virtual {... */\n      pop\n      jump\t// out\n        /* \"contracts/LiquidityAccelerationToken.sol\":15124:15539  function verifySignature(address signer, uint256 expectedNonce, bytes memory signature) internal pure returns (bool) {... */\n    tag_323:\n        /* \"contracts/LiquidityAccelerationToken.sol\":15235:15239  bool */\n      0x00\n        /* \"contracts/LiquidityAccelerationToken.sol\":15256:15275  bytes32 messageHash */\n      0x00\n        /* \"contracts/LiquidityAccelerationToken.sol\":15305:15311  signer */\n      dup5\n        /* \"contracts/LiquidityAccelerationToken.sol\":15313:15326  expectedNonce */\n      dup5\n        /* \"contracts/LiquidityAccelerationToken.sol\":15288:15327  abi.encodePacked(signer, expectedNonce) */\n      add(0x20, mload(0x40))\n      tag_395\n      swap3\n      swap2\n      swap1\n      tag_396\n      jump\t// in\n    tag_395:\n      mload(0x40)\n      0x20\n      dup2\n      dup4\n      sub\n      sub\n      dup2\n      mstore\n      swap1\n      0x40\n      mstore\n        /* \"contracts/LiquidityAccelerationToken.sol\":15278:15328  keccak256(abi.encodePacked(signer, expectedNonce)) */\n      dup1\n      mload\n      swap1\n      0x20\n      add\n      keccak256\n        /* \"contracts/LiquidityAccelerationToken.sol\":15256:15328  bytes32 messageHash = keccak256(abi.encodePacked(signer, expectedNonce)) */\n      swap1\n      pop\n        /* \"contracts/LiquidityAccelerationToken.sol\":15343:15371  bytes32 ethSignedMessageHash */\n      0x00\n        /* \"contracts/LiquidityAccelerationToken.sol\":15437:15448  messageHash */\n      dup2\n        /* \"contracts/LiquidityAccelerationToken.sol\":15384:15449  abi.encodePacked(\"\\x19Ethereum Signed Message:\\n32\", messageHash) */\n      add(0x20, mload(0x40))\n      tag_397\n      swap2\n      swap1\n      tag_398\n      jump\t// in\n    tag_397:\n      mload(0x40)\n      0x20\n      dup2\n      dup4\n      sub\n      sub\n      dup2\n      mstore\n      swap1\n      0x40\n      mstore\n        /* \"contracts/LiquidityAccelerationToken.sol\":15374:15450  keccak256(abi.encodePacked(\"\\x19Ethereum Signed Message:\\n32\", messageHash)) */\n      dup1\n      mload\n      swap1\n      0x20\n      add\n      keccak256\n        /* \"contracts/LiquidityAccelerationToken.sol\":15343:15450  bytes32 ethSignedMessageHash = keccak256(abi.encodePacked(\"\\x19Ethereum Signed Message:\\n32\", messageHash)) */\n      swap1\n      pop\n        /* \"contracts/LiquidityAccelerationToken.sol\":15522:15528  signer */\n      dup6\n        /* \"contracts/LiquidityAccelerationToken.sol\":15472:15528  ECDSA.recover(ethSignedMessageHash, signature) == signer */\n      0xffffffffffffffffffffffffffffffffffffffff\n      and\n        /* \"contracts/LiquidityAccelerationToken.sol\":15472:15518  ECDSA.recover(ethSignedMessageHash, signature) */\n      tag_399\n        /* \"contracts/LiquidityAccelerationToken.sol\":15486:15506  ethSignedMessageHash */\n      dup3\n        /* \"contracts/LiquidityAccelerationToken.sol\":15508:15517  signature */\n      dup7\n        /* \"contracts/LiquidityAccelerationToken.sol\":15472:15485  ECDSA.recover */\n      tag_400\n        /* \"contracts/LiquidityAccelerationToken.sol\":15472:15518  ECDSA.recover(ethSignedMessageHash, signature) */\n      jump\t// in\n    tag_399:\n        /* \"contracts/LiquidityAccelerationToken.sol\":15472:15528  ECDSA.recover(ethSignedMessageHash, signature) == signer */\n      0xffffffffffffffffffffffffffffffffffffffff\n      and\n      eq\n        /* \"contracts/LiquidityAccelerationToken.sol\":15465:15528  return ECDSA.recover(ethSignedMessageHash, signature) == signer */\n      swap3\n      pop\n      pop\n      pop\n        /* \"contracts/LiquidityAccelerationToken.sol\":15124:15539  function verifySignature(address signer, uint256 expectedNonce, bytes memory signature) internal pure returns (bool) {... */\n      swap4\n      swap3\n      pop\n      pop\n      pop\n      jump\t// out\n        /* \"@openzeppelin/contracts/utils/Context.sol\":656:752  function _msgSender() internal view virtual returns (address) {... */\n    tag_388:\n        /* \"@openzeppelin/contracts/utils/Context.sol\":709:716  address */\n      0x00\n        /* \"@openzeppelin/contracts/utils/Context.sol\":735:745  msg.sender */\n      caller\n        /* \"@openzeppelin/contracts/utils/Context.sol\":728:745  return msg.sender */\n      swap1\n      pop\n        /* \"@openzeppelin/contracts/utils/Context.sol\":656:752  function _msgSender() internal view virtual returns (address) {... */\n      swap1\n      jump\t// out\n        /* \"@openzeppelin/contracts/utils/cryptography/ECDSA.sol\":3714:3969  function recover(bytes32 hash, bytes memory signature) internal pure returns (address) {... */\n    tag_400:\n        /* \"@openzeppelin/contracts/utils/cryptography/ECDSA.sol\":3792:3799  address */\n      0x00\n        /* \"@openzeppelin/contracts/utils/cryptography/ECDSA.sol\":3812:3829  address recovered */\n      0x00\n        /* \"@openzeppelin/contracts/utils/cryptography/ECDSA.sol\":3831:3849  RecoverError error */\n      0x00\n        /* \"@openzeppelin/contracts/utils/cryptography/ECDSA.sol\":3851:3867  bytes32 errorArg */\n      0x00\n        /* \"@openzeppelin/contracts/utils/cryptography/ECDSA.sol\":3871:3898  tryRecover(hash, signature) */\n      tag_403\n        /* \"@openzeppelin/contracts/utils/cryptography/ECDSA.sol\":3882:3886  hash */\n      dup7\n        /* \"@openzeppelin/contracts/utils/cryptography/ECDSA.sol\":3888:3897  signature */\n      dup7\n        /* \"@openzeppelin/contracts/utils/cryptography/ECDSA.sol\":3871:3881  tryRecover */\n      tag_404\n        /* \"@openzeppelin/contracts/utils/cryptography/ECDSA.sol\":3871:3898  tryRecover(hash, signature) */\n      jump\t// in\n    tag_403:\n        /* \"@openzeppelin/contracts/utils/cryptography/ECDSA.sol\":3811:3898  (address recovered, RecoverError error, bytes32 errorArg) = tryRecover(hash, signature) */\n      swap3\n      pop\n      swap3\n      pop\n      swap3\n      pop\n        /* \"@openzeppelin/contracts/utils/cryptography/ECDSA.sol\":3908:3936  _throwError(error, errorArg) */\n      tag_405\n        /* \"@openzeppelin/contracts/utils/cryptography/ECDSA.sol\":3920:3925  error */\n      dup3\n        /* \"@openzeppelin/contracts/utils/cryptography/ECDSA.sol\":3927:3935  errorArg */\n      dup3\n        /* \"@openzeppelin/contracts/utils/cryptography/ECDSA.sol\":3908:3919  _throwError */\n      tag_406\n        /* \"@openzeppelin/contracts/utils/cryptography/ECDSA.sol\":3908:3936  _throwError(error, errorArg) */\n      jump\t// in\n    tag_405:\n        /* \"@openzeppelin/contracts/utils/cryptography/ECDSA.sol\":3953:3962  recovered */\n      dup3\n        /* \"@openzeppelin/contracts/utils/cryptography/ECDSA.sol\":3946:3962  return recovered */\n      swap4\n      pop\n      pop\n      pop\n      pop\n        /* \"@openzeppelin/contracts/utils/cryptography/ECDSA.sol\":3714:3969  function recover(bytes32 hash, bytes memory signature) internal pure returns (address) {... */\n      swap3\n      swap2\n      pop\n      pop\n      jump\t// out\n        /* \"@openzeppelin/contracts/utils/cryptography/ECDSA.sol\":2129:2907  function tryRecover(... */\n    tag_404:\n        /* \"@openzeppelin/contracts/utils/cryptography/ECDSA.sol\":2232:2249  address recovered */\n      0x00\n        /* \"@openzeppelin/contracts/utils/cryptography/ECDSA.sol\":2251:2267  RecoverError err */\n      0x00\n        /* \"@openzeppelin/contracts/utils/cryptography/ECDSA.sol\":2269:2283  bytes32 errArg */\n      0x00\n        /* \"@openzeppelin/contracts/utils/cryptography/ECDSA.sol\":2319:2321  65 */\n      0x41\n        /* \"@openzeppelin/contracts/utils/cryptography/ECDSA.sol\":2299:2308  signature */\n      dup5\n        /* \"@openzeppelin/contracts/utils/cryptography/ECDSA.sol\":2299:2315  signature.length */\n      mload\n        /* \"@openzeppelin/contracts/utils/cryptography/ECDSA.sol\":2299:2321  signature.length == 65 */\n      sub\n        /* \"@openzeppelin/contracts/utils/cryptography/ECDSA.sol\":2295:2901  if (signature.length == 65) {... */\n      tag_408\n      jumpi\n        /* \"@openzeppelin/contracts/utils/cryptography/ECDSA.sol\":2337:2346  bytes32 r */\n      0x00\n        /* \"@openzeppelin/contracts/utils/cryptography/ECDSA.sol\":2360:2369  bytes32 s */\n      0x00\n        /* \"@openzeppelin/contracts/utils/cryptography/ECDSA.sol\":2383:2390  uint8 v */\n      0x00\n        /* \"@openzeppelin/contracts/utils/cryptography/ECDSA.sol\":2604:2608  0x20 */\n      0x20\n        /* \"@openzeppelin/contracts/utils/cryptography/ECDSA.sol\":2593:2602  signature */\n      dup8\n        /* \"@openzeppelin/contracts/utils/cryptography/ECDSA.sol\":2589:2609  add(signature, 0x20) */\n      add\n        /* \"@openzeppelin/contracts/utils/cryptography/ECDSA.sol\":2583:2610  mload(add(signature, 0x20)) */\n      mload\n        /* \"@openzeppelin/contracts/utils/cryptography/ECDSA.sol\":2578:2610  r := mload(add(signature, 0x20)) */\n      swap3\n      pop\n        /* \"@openzeppelin/contracts/utils/cryptography/ECDSA.sol\":2653:2657  0x40 */\n      0x40\n        /* \"@openzeppelin/contracts/utils/cryptography/ECDSA.sol\":2642:2651  signature */\n      dup8\n        /* \"@openzeppelin/contracts/utils/cryptography/ECDSA.sol\":2638:2658  add(signature, 0x40) */\n      add\n        /* \"@openzeppelin/contracts/utils/cryptography/ECDSA.sol\":2632:2659  mload(add(signature, 0x40)) */\n      mload\n        /* \"@openzeppelin/contracts/utils/cryptography/ECDSA.sol\":2627:2659  s := mload(add(signature, 0x40)) */\n      swap2\n      pop\n        /* \"@openzeppelin/contracts/utils/cryptography/ECDSA.sol\":2710:2714  0x60 */\n      0x60\n        /* \"@openzeppelin/contracts/utils/cryptography/ECDSA.sol\":2699:2708  signature */\n      dup8\n        /* \"@openzeppelin/contracts/utils/cryptography/ECDSA.sol\":2695:2715  add(signature, 0x60) */\n      add\n        /* \"@openzeppelin/contracts/utils/cryptography/ECDSA.sol\":2689:2716  mload(add(signature, 0x60)) */\n      mload\n        /* \"@openzeppelin/contracts/utils/cryptography/ECDSA.sol\":2686:2687  0 */\n      0x00\n        /* \"@openzeppelin/contracts/utils/cryptography/ECDSA.sol\":2681:2717  byte(0, mload(add(signature, 0x60))) */\n      byte\n        /* \"@openzeppelin/contracts/utils/cryptography/ECDSA.sol\":2676:2717  v := byte(0, mload(add(signature, 0x60))) */\n      swap1\n      pop\n        /* \"@openzeppelin/contracts/utils/cryptography/ECDSA.sol\":2751:2776  tryRecover(hash, v, r, s) */\n      tag_409\n        /* \"@openzeppelin/contracts/utils/cryptography/ECDSA.sol\":2762:2766  hash */\n      dup9\n        /* \"@openzeppelin/contracts/utils/cryptography/ECDSA.sol\":2768:2769  v */\n      dup3\n        /* \"@openzeppelin/contracts/utils/cryptography/ECDSA.sol\":2771:2772  r */\n      dup6\n        /* \"@openzeppelin/contracts/utils/cryptography/ECDSA.sol\":2774:2775  s */\n      dup6\n        /* \"@openzeppelin/contracts/utils/cryptography/ECDSA.sol\":2751:2761  tryRecover */\n      tag_410\n        /* \"@openzeppelin/contracts/utils/cryptography/ECDSA.sol\":2751:2776  tryRecover(hash, v, r, s) */\n      jump\t// in\n    tag_409:\n        /* \"@openzeppelin/contracts/utils/cryptography/ECDSA.sol\":2744:2776  return tryRecover(hash, v, r, s) */\n      swap6\n      pop\n      swap6\n      pop\n      swap6\n      pop\n      pop\n      pop\n      pop\n      jump(tag_407)\n        /* \"@openzeppelin/contracts/utils/cryptography/ECDSA.sol\":2295:2901  if (signature.length == 65) {... */\n    tag_408:\n        /* \"@openzeppelin/contracts/utils/cryptography/ECDSA.sol\":2823:2824  0 */\n      0x00\n        /* \"@openzeppelin/contracts/utils/cryptography/ECDSA.sol\":2827:2862  RecoverError.InvalidSignatureLength */\n      0x02\n        /* \"@openzeppelin/contracts/utils/cryptography/ECDSA.sol\":2872:2881  signature */\n      dup6\n        /* \"@openzeppelin/contracts/utils/cryptography/ECDSA.sol\":2872:2888  signature.length */\n      mload\n        /* \"@openzeppelin/contracts/utils/cryptography/ECDSA.sol\":2864:2889  bytes32(signature.length) */\n      0x00\n      shl\n        /* \"@openzeppelin/contracts/utils/cryptography/ECDSA.sol\":2807:2890  return (address(0), RecoverError.InvalidSignatureLength, bytes32(signature.length)) */\n      swap3\n      pop\n      swap3\n      pop\n      swap3\n      pop\n        /* \"@openzeppelin/contracts/utils/cryptography/ECDSA.sol\":2129:2907  function tryRecover(... */\n    tag_407:\n      swap3\n      pop\n      swap3\n      pop\n      swap3\n      jump\t// out\n        /* \"@openzeppelin/contracts/utils/cryptography/ECDSA.sol\":7280:7812  function _throwError(RecoverError error, bytes32 errorArg) private pure {... */\n    tag_406:\n        /* \"@openzeppelin/contracts/utils/cryptography/ECDSA.sol\":7375:7395  RecoverError.NoError */\n      0x00\n        /* \"@openzeppelin/contracts/utils/cryptography/ECDSA.sol\":7366:7395  error == RecoverError.NoError */\n      0x03\n      dup2\n      gt\n      iszero\n      tag_413\n      jumpi\n      tag_414\n      tag_415\n      jump\t// in\n    tag_414:\n    tag_413:\n        /* \"@openzeppelin/contracts/utils/cryptography/ECDSA.sol\":7366:7371  error */\n      dup3\n        /* \"@openzeppelin/contracts/utils/cryptography/ECDSA.sol\":7366:7395  error == RecoverError.NoError */\n      0x03\n      dup2\n      gt\n      iszero\n      tag_416\n      jumpi\n      tag_417\n      tag_415\n      jump\t// in\n    tag_417:\n    tag_416:\n      sub\n        /* \"@openzeppelin/contracts/utils/cryptography/ECDSA.sol\":7362:7806  if (error == RecoverError.NoError) {... */\n      iszero\n        /* \"@openzeppelin/contracts/utils/cryptography/ECDSA.sol\":7411:7418  return; */\n      tag_412\n        /* \"@openzeppelin/contracts/utils/cryptography/ECDSA.sol\":7362:7806  if (error == RecoverError.NoError) {... */\n      jumpi\n        /* \"@openzeppelin/contracts/utils/cryptography/ECDSA.sol\":7471:7500  RecoverError.InvalidSignature */\n      0x01\n        /* \"@openzeppelin/contracts/utils/cryptography/ECDSA.sol\":7462:7500  error == RecoverError.InvalidSignature */\n      0x03\n      dup2\n      gt\n      iszero\n      tag_420\n      jumpi\n      tag_421\n      tag_415\n      jump\t// in\n    tag_421:\n    tag_420:\n        /* \"@openzeppelin/contracts/utils/cryptography/ECDSA.sol\":7462:7467  error */\n      dup3\n        /* \"@openzeppelin/contracts/utils/cryptography/ECDSA.sol\":7462:7500  error == RecoverError.InvalidSignature */\n      0x03\n      dup2\n      gt\n      iszero\n      tag_422\n      jumpi\n      tag_423\n      tag_415\n      jump\t// in\n    tag_423:\n    tag_422:\n      sub\n        /* \"@openzeppelin/contracts/utils/cryptography/ECDSA.sol\":7458:7806  if (error == RecoverError.InvalidSignature) {... */\n      tag_424\n      jumpi\n        /* \"@openzeppelin/contracts/utils/cryptography/ECDSA.sol\":7523:7546  ECDSAInvalidSignature() */\n      mload(0x40)\n      0xf645eedf00000000000000000000000000000000000000000000000000000000\n      dup2\n      mstore\n      0x04\n      add\n      mload(0x40)\n      dup1\n      swap2\n      sub\n      swap1\n      revert\n        /* \"@openzeppelin/contracts/utils/cryptography/ECDSA.sol\":7458:7806  if (error == RecoverError.InvalidSignature) {... */\n    tag_424:\n        /* \"@openzeppelin/contracts/utils/cryptography/ECDSA.sol\":7576:7611  RecoverError.InvalidSignatureLength */\n      0x02\n        /* \"@openzeppelin/contracts/utils/cryptography/ECDSA.sol\":7567:7611  error == RecoverError.InvalidSignatureLength */\n      0x03\n      dup2\n      gt\n      iszero\n      tag_426\n      jumpi\n      tag_427\n      tag_415\n      jump\t// in\n    tag_427:\n    tag_426:\n        /* \"@openzeppelin/contracts/utils/cryptography/ECDSA.sol\":7567:7572  error */\n      dup3\n        /* \"@openzeppelin/contracts/utils/cryptography/ECDSA.sol\":7567:7611  error == RecoverError.InvalidSignatureLength */\n      0x03\n      dup2\n      gt\n      iszero\n      tag_428\n      jumpi\n      tag_429\n      tag_415\n      jump\t// in\n    tag_429:\n    tag_428:\n      sub\n        /* \"@openzeppelin/contracts/utils/cryptography/ECDSA.sol\":7563:7806  if (error == RecoverError.InvalidSignatureLength) {... */\n      tag_430\n      jumpi\n        /* \"@openzeppelin/contracts/utils/cryptography/ECDSA.sol\":7670:7678  errorArg */\n      dup1\n        /* \"@openzeppelin/contracts/utils/cryptography/ECDSA.sol\":7662:7679  uint256(errorArg) */\n      0x00\n      shr\n        /* \"@openzeppelin/contracts/utils/cryptography/ECDSA.sol\":7634:7680  ECDSAInvalidSignatureLength(uint256(errorArg)) */\n      mload(0x40)\n      0xfce698f700000000000000000000000000000000000000000000000000000000\n      dup2\n      mstore\n      0x04\n      add\n      tag_431\n      swap2\n      swap1\n      tag_53\n      jump\t// in\n    tag_431:\n      mload(0x40)\n      dup1\n      swap2\n      sub\n      swap1\n      revert\n        /* \"@openzeppelin/contracts/utils/cryptography/ECDSA.sol\":7563:7806  if (error == RecoverError.InvalidSignatureLength) {... */\n    tag_430:\n        /* \"@openzeppelin/contracts/utils/cryptography/ECDSA.sol\":7710:7740  RecoverError.InvalidSignatureS */\n      0x03\n        /* \"@openzeppelin/contracts/utils/cryptography/ECDSA.sol\":7701:7740  error == RecoverError.InvalidSignatureS */\n      dup1\n      dup2\n      gt\n      iszero\n      tag_433\n      jumpi\n      tag_434\n      tag_415\n      jump\t// in\n    tag_434:\n    tag_433:\n        /* \"@openzeppelin/contracts/utils/cryptography/ECDSA.sol\":7701:7706  error */\n      dup3\n        /* \"@openzeppelin/contracts/utils/cryptography/ECDSA.sol\":7701:7740  error == RecoverError.InvalidSignatureS */\n      0x03\n      dup2\n      gt\n      iszero\n      tag_435\n      jumpi\n      tag_436\n      tag_415\n      jump\t// in\n    tag_436:\n    tag_435:\n      sub\n        /* \"@openzeppelin/contracts/utils/cryptography/ECDSA.sol\":7697:7806  if (error == RecoverError.InvalidSignatureS) {... */\n      tag_437\n      jumpi\n        /* \"@openzeppelin/contracts/utils/cryptography/ECDSA.sol\":7786:7794  errorArg */\n      dup1\n        /* \"@openzeppelin/contracts/utils/cryptography/ECDSA.sol\":7763:7795  ECDSAInvalidSignatureS(errorArg) */\n      mload(0x40)\n      0xd78bce0c00000000000000000000000000000000000000000000000000000000\n      dup2\n      mstore\n      0x04\n      add\n      tag_438\n      swap2\n      swap1\n      tag_439\n      jump\t// in\n    tag_438:\n      mload(0x40)\n      dup1\n      swap2\n      sub\n      swap1\n      revert\n        /* \"@openzeppelin/contracts/utils/cryptography/ECDSA.sol\":7697:7806  if (error == RecoverError.InvalidSignatureS) {... */\n    tag_437:\n        /* \"@openzeppelin/contracts/utils/cryptography/ECDSA.sol\":7280:7812  function _throwError(RecoverError error, bytes32 errorArg) private pure {... */\n    tag_412:\n      pop\n      pop\n      jump\t// out\n        /* \"@openzeppelin/contracts/utils/cryptography/ECDSA.sol\":5203:6754  function tryRecover(... */\n    tag_410:\n        /* \"@openzeppelin/contracts/utils/cryptography/ECDSA.sol\":5329:5346  address recovered */\n      0x00\n        /* \"@openzeppelin/contracts/utils/cryptography/ECDSA.sol\":5348:5364  RecoverError err */\n      0x00\n        /* \"@openzeppelin/contracts/utils/cryptography/ECDSA.sol\":5366:5380  bytes32 errArg */\n      0x00\n        /* \"@openzeppelin/contracts/utils/cryptography/ECDSA.sol\":6283:6349  0x7FFFFFFFFFFFFFFFFFFFFFFFFFFFFFFF5D576E7357A4501DDFE92F46681B20A0 */\n      0x7fffffffffffffffffffffffffffffff5d576e7357a4501ddfe92f46681b20a0\n        /* \"@openzeppelin/contracts/utils/cryptography/ECDSA.sol\":6278:6279  s */\n      dup5\n        /* \"@openzeppelin/contracts/utils/cryptography/ECDSA.sol\":6270:6280  uint256(s) */\n      0x00\n      shr\n        /* \"@openzeppelin/contracts/utils/cryptography/ECDSA.sol\":6270:6349  uint256(s) > 0x7FFFFFFFFFFFFFFFFFFFFFFFFFFFFFFF5D576E7357A4501DDFE92F46681B20A0 */\n      gt\n        /* \"@openzeppelin/contracts/utils/cryptography/ECDSA.sol\":6266:6430  if (uint256(s) > 0x7FFFFFFFFFFFFFFFFFFFFFFFFFFFFFFF5D576E7357A4501DDFE92F46681B20A0) {... */\n      iszero\n      tag_441\n      jumpi\n        /* \"@openzeppelin/contracts/utils/cryptography/ECDSA.sol\":6381:6382  0 */\n      0x00\n        /* \"@openzeppelin/contracts/utils/cryptography/ECDSA.sol\":6385:6415  RecoverError.InvalidSignatureS */\n      0x03\n        /* \"@openzeppelin/contracts/utils/cryptography/ECDSA.sol\":6417:6418  s */\n      dup6\n        /* \"@openzeppelin/contracts/utils/cryptography/ECDSA.sol\":6365:6419  return (address(0), RecoverError.InvalidSignatureS, s) */\n      swap3\n      pop\n      swap3\n      pop\n      swap3\n      pop\n      jump(tag_440)\n        /* \"@openzeppelin/contracts/utils/cryptography/ECDSA.sol\":6266:6430  if (uint256(s) > 0x7FFFFFFFFFFFFFFFFFFFFFFFFFFFFFFF5D576E7357A4501DDFE92F46681B20A0) {... */\n    tag_441:\n        /* \"@openzeppelin/contracts/utils/cryptography/ECDSA.sol\":6524:6538  address signer */\n      0x00\n        /* \"@openzeppelin/contracts/utils/cryptography/ECDSA.sol\":6541:6565  ecrecover(hash, v, r, s) */\n      0x01\n        /* \"@openzeppelin/contracts/utils/cryptography/ECDSA.sol\":6551:6555  hash */\n      dup9\n        /* \"@openzeppelin/contracts/utils/cryptography/ECDSA.sol\":6557:6558  v */\n      dup9\n        /* \"@openzeppelin/contracts/utils/cryptography/ECDSA.sol\":6560:6561  r */\n      dup9\n        /* \"@openzeppelin/contracts/utils/cryptography/ECDSA.sol\":6563:6564  s */\n      dup9\n        /* \"@openzeppelin/contracts/utils/cryptography/ECDSA.sol\":6541:6565  ecrecover(hash, v, r, s) */\n      mload(0x40)\n      0x00\n      dup2\n      mstore\n      0x20\n      add\n      0x40\n      mstore\n      mload(0x40)\n      tag_442\n      swap5\n      swap4\n      swap3\n      swap2\n      swap1\n      tag_443\n      jump\t// in\n    tag_442:\n      0x20\n      mload(0x40)\n      0x20\n      dup2\n      sub\n      swap1\n      dup1\n      dup5\n      sub\n      swap1\n      dup6\n      gas\n      staticcall\n      iszero\n      dup1\n      iszero\n      tag_445\n      jumpi\n      returndatacopy(0x00, 0x00, returndatasize)\n      revert(0x00, returndatasize)\n    tag_445:\n      pop\n      pop\n      pop\n      mload(sub(mload(0x40), 0x20))\n        /* \"@openzeppelin/contracts/utils/cryptography/ECDSA.sol\":6524:6565  address signer = ecrecover(hash, v, r, s) */\n      swap1\n      pop\n        /* \"@openzeppelin/contracts/utils/cryptography/ECDSA.sol\":6597:6598  0 */\n      0x00\n        /* \"@openzeppelin/contracts/utils/cryptography/ECDSA.sol\":6579:6599  signer == address(0) */\n      0xffffffffffffffffffffffffffffffffffffffff\n      and\n        /* \"@openzeppelin/contracts/utils/cryptography/ECDSA.sol\":6579:6585  signer */\n      dup2\n        /* \"@openzeppelin/contracts/utils/cryptography/ECDSA.sol\":6579:6599  signer == address(0) */\n      0xffffffffffffffffffffffffffffffffffffffff\n      and\n      sub\n        /* \"@openzeppelin/contracts/utils/cryptography/ECDSA.sol\":6575:6688  if (signer == address(0)) {... */\n      tag_446\n      jumpi\n        /* \"@openzeppelin/contracts/utils/cryptography/ECDSA.sol\":6631:6632  0 */\n      0x00\n        /* \"@openzeppelin/contracts/utils/cryptography/ECDSA.sol\":6635:6664  RecoverError.InvalidSignature */\n      0x01\n        /* \"@openzeppelin/contracts/utils/cryptography/ECDSA.sol\":6674:6675  0 */\n      0x00\n        /* \"@openzeppelin/contracts/utils/cryptography/ECDSA.sol\":6666:6676  bytes32(0) */\n      0x00\n      shl\n        /* \"@openzeppelin/contracts/utils/cryptography/ECDSA.sol\":6615:6677  return (address(0), RecoverError.InvalidSignature, bytes32(0)) */\n      swap4\n      pop\n      swap4\n      pop\n      swap4\n      pop\n      pop\n      jump(tag_440)\n        /* \"@openzeppelin/contracts/utils/cryptography/ECDSA.sol\":6575:6688  if (signer == address(0)) {... */\n    tag_446:\n        /* \"@openzeppelin/contracts/utils/cryptography/ECDSA.sol\":6706:6712  signer */\n      dup1\n        /* \"@openzeppelin/contracts/utils/cryptography/ECDSA.sol\":6714:6734  RecoverError.NoError */\n      0x00\n        /* \"@openzeppelin/contracts/utils/cryptography/ECDSA.sol\":6744:6745  0 */\n      0x00\n        /* \"@openzeppelin/contracts/utils/cryptography/ECDSA.sol\":6736:6746  bytes32(0) */\n      0x00\n      shl\n        /* \"@openzeppelin/contracts/utils/cryptography/ECDSA.sol\":6698:6747  return (signer, RecoverError.NoError, bytes32(0)) */\n      swap4\n      pop\n      swap4\n      pop\n      swap4\n      pop\n      pop\n        /* \"@openzeppelin/contracts/utils/cryptography/ECDSA.sol\":5203:6754  function tryRecover(... */\n    tag_440:\n      swap5\n      pop\n      swap5\n      pop\n      swap5\n      swap2\n      pop\n      pop\n      jump\t// out\n        /* \"#utility.yul\":7:82   */\n    tag_447:\n        /* \"#utility.yul\":40:46   */\n      0x00\n        /* \"#utility.yul\":73:75   */\n      0x40\n        /* \"#utility.yul\":67:76   */\n      mload\n        /* \"#utility.yul\":57:76   */\n      swap1\n      pop\n        /* \"#utility.yul\":7:82   */\n      swap1\n      jump\t// out\n        /* \"#utility.yul\":88:205   */\n    tag_448:\n        /* \"#utility.yul\":197:198   */\n      0x00\n        /* \"#utility.yul\":194:195   */\n      0x00\n        /* \"#utility.yul\":187:199   */\n      revert\n        /* \"#utility.yul\":211:328   */\n    tag_449:\n        /* \"#utility.yul\":320:321   */\n      0x00\n        /* \"#utility.yul\":317:318   */\n      0x00\n        /* \"#utility.yul\":310:322   */\n      revert\n        /* \"#utility.yul\":334:460   */\n    tag_450:\n        /* \"#utility.yul\":371:378   */\n      0x00\n        /* \"#utility.yul\":411:453   */\n      0xffffffffffffffffffffffffffffffffffffffff\n        /* \"#utility.yul\":404:409   */\n      dup3\n        /* \"#utility.yul\":400:454   */\n      and\n        /* \"#utility.yul\":389:454   */\n      swap1\n      pop\n        /* \"#utility.yul\":334:460   */\n      swap2\n      swap1\n      pop\n      jump\t// out\n        /* \"#utility.yul\":466:562   */\n    tag_451:\n        /* \"#utility.yul\":503:510   */\n      0x00\n        /* \"#utility.yul\":532:556   */\n      tag_532\n        /* \"#utility.yul\":550:555   */\n      dup3\n        /* \"#utility.yul\":532:556   */\n      tag_450\n      jump\t// in\n    tag_532:\n        /* \"#utility.yul\":521:556   */\n      swap1\n      pop\n        /* \"#utility.yul\":466:562   */\n      swap2\n      swap1\n      pop\n      jump\t// out\n        /* \"#utility.yul\":568:690   */\n    tag_452:\n        /* \"#utility.yul\":641:665   */\n      tag_534\n        /* \"#utility.yul\":659:664   */\n      dup2\n        /* \"#utility.yul\":641:665   */\n      tag_451\n      jump\t// in\n    tag_534:\n        /* \"#utility.yul\":634:639   */\n      dup2\n        /* \"#utility.yul\":631:666   */\n      eq\n        /* \"#utility.yul\":621:684   */\n      tag_535\n      jumpi\n        /* \"#utility.yul\":680:681   */\n      0x00\n        /* \"#utility.yul\":677:678   */\n      0x00\n        /* \"#utility.yul\":670:682   */\n      revert\n        /* \"#utility.yul\":621:684   */\n    tag_535:\n        /* \"#utility.yul\":568:690   */\n      pop\n      jump\t// out\n        /* \"#utility.yul\":696:835   */\n    tag_453:\n        /* \"#utility.yul\":742:747   */\n      0x00\n        /* \"#utility.yul\":780:786   */\n      dup2\n        /* \"#utility.yul\":767:787   */\n      calldataload\n        /* \"#utility.yul\":758:787   */\n      swap1\n      pop\n        /* \"#utility.yul\":796:829   */\n      tag_537\n        /* \"#utility.yul\":823:828   */\n      dup2\n        /* \"#utility.yul\":796:829   */\n      tag_452\n      jump\t// in\n    tag_537:\n        /* \"#utility.yul\":696:835   */\n      swap3\n      swap2\n      pop\n      pop\n      jump\t// out\n        /* \"#utility.yul\":841:1170   */\n    tag_50:\n        /* \"#utility.yul\":900:906   */\n      0x00\n        /* \"#utility.yul\":949:951   */\n      0x20\n        /* \"#utility.yul\":937:946   */\n      dup3\n        /* \"#utility.yul\":928:935   */\n      dup5\n        /* \"#utility.yul\":924:947   */\n      sub\n        /* \"#utility.yul\":920:952   */\n      slt\n        /* \"#utility.yul\":917:1036   */\n      iszero\n      tag_539\n      jumpi\n        /* \"#utility.yul\":955:1034   */\n      tag_540\n      tag_448\n      jump\t// in\n    tag_540:\n        /* \"#utility.yul\":917:1036   */\n    tag_539:\n        /* \"#utility.yul\":1075:1076   */\n      0x00\n        /* \"#utility.yul\":1100:1153   */\n      tag_541\n        /* \"#utility.yul\":1145:1152   */\n      dup5\n        /* \"#utility.yul\":1136:1142   */\n      dup3\n        /* \"#utility.yul\":1125:1134   */\n      dup6\n        /* \"#utility.yul\":1121:1143   */\n      add\n        /* \"#utility.yul\":1100:1153   */\n      tag_453\n      jump\t// in\n    tag_541:\n        /* \"#utility.yul\":1090:1153   */\n      swap2\n      pop\n        /* \"#utility.yul\":1046:1163   */\n      pop\n        /* \"#utility.yul\":841:1170   */\n      swap3\n      swap2\n      pop\n      pop\n      jump\t// out\n        /* \"#utility.yul\":1176:1253   */\n    tag_454:\n        /* \"#utility.yul\":1213:1220   */\n      0x00\n        /* \"#utility.yul\":1242:1247   */\n      dup2\n        /* \"#utility.yul\":1231:1247   */\n      swap1\n      pop\n        /* \"#utility.yul\":1176:1253   */\n      swap2\n      swap1\n      pop\n      jump\t// out\n        /* \"#utility.yul\":1259:1377   */\n    tag_455:\n        /* \"#utility.yul\":1346:1370   */\n      tag_544\n        /* \"#utility.yul\":1364:1369   */\n      dup2\n        /* \"#utility.yul\":1346:1370   */\n      tag_454\n      jump\t// in\n    tag_544:\n        /* \"#utility.yul\":1341:1344   */\n      dup3\n        /* \"#utility.yul\":1334:1371   */\n      mstore\n        /* \"#utility.yul\":1259:1377   */\n      pop\n      pop\n      jump\t// out\n        /* \"#utility.yul\":1383:1605   */\n    tag_53:\n        /* \"#utility.yul\":1476:1480   */\n      0x00\n        /* \"#utility.yul\":1514:1516   */\n      0x20\n        /* \"#utility.yul\":1503:1512   */\n      dup3\n        /* \"#utility.yul\":1499:1517   */\n      add\n        /* \"#utility.yul\":1491:1517   */\n      swap1\n      pop\n        /* \"#utility.yul\":1527:1598   */\n      tag_546\n        /* \"#utility.yul\":1595:1596   */\n      0x00\n        /* \"#utility.yul\":1584:1593   */\n      dup4\n        /* \"#utility.yul\":1580:1597   */\n      add\n        /* \"#utility.yul\":1571:1577   */\n      dup5\n        /* \"#utility.yul\":1527:1598   */\n      tag_455\n      jump\t// in\n    tag_546:\n        /* \"#utility.yul\":1383:1605   */\n      swap3\n      swap2\n      pop\n      pop\n      jump\t// out\n        /* \"#utility.yul\":1611:1733   */\n    tag_456:\n        /* \"#utility.yul\":1684:1708   */\n      tag_548\n        /* \"#utility.yul\":1702:1707   */\n      dup2\n        /* \"#utility.yul\":1684:1708   */\n      tag_454\n      jump\t// in\n    tag_548:\n        /* \"#utility.yul\":1677:1682   */\n      dup2\n        /* \"#utility.yul\":1674:1709   */\n      eq\n        /* \"#utility.yul\":1664:1727   */\n      tag_549\n      jumpi\n        /* \"#utility.yul\":1723:1724   */\n      0x00\n        /* \"#utility.yul\":1720:1721   */\n      0x00\n        /* \"#utility.yul\":1713:1725   */\n      revert\n        /* \"#utility.yul\":1664:1727   */\n    tag_549:\n        /* \"#utility.yul\":1611:1733   */\n      pop\n      jump\t// out\n        /* \"#utility.yul\":1739:1878   */\n    tag_457:\n        /* \"#utility.yul\":1785:1790   */\n      0x00\n        /* \"#utility.yul\":1823:1829   */\n      dup2\n        /* \"#utility.yul\":1810:1830   */\n      calldataload\n        /* \"#utility.yul\":1801:1830   */\n      swap1\n      pop\n        /* \"#utility.yul\":1839:1872   */\n      tag_551\n        /* \"#utility.yul\":1866:1871   */\n      dup2\n        /* \"#utility.yul\":1839:1872   */\n      tag_456\n      jump\t// in\n    tag_551:\n        /* \"#utility.yul\":1739:1878   */\n      swap3\n      swap2\n      pop\n      pop\n      jump\t// out\n        /* \"#utility.yul\":1884:2213   */\n    tag_56:\n        /* \"#utility.yul\":1943:1949   */\n      0x00\n        /* \"#utility.yul\":1992:1994   */\n      0x20\n        /* \"#utility.yul\":1980:1989   */\n      dup3\n        /* \"#utility.yul\":1971:1978   */\n      dup5\n        /* \"#utility.yul\":1967:1990   */\n      sub\n        /* \"#utility.yul\":1963:1995   */\n      slt\n        /* \"#utility.yul\":1960:2079   */\n      iszero\n      tag_553\n      jumpi\n        /* \"#utility.yul\":1998:2077   */\n      tag_554\n      tag_448\n      jump\t// in\n    tag_554:\n        /* \"#utility.yul\":1960:2079   */\n    tag_553:\n        /* \"#utility.yul\":2118:2119   */\n      0x00\n        /* \"#utility.yul\":2143:2196   */\n      tag_555\n        /* \"#utility.yul\":2188:2195   */\n      dup5\n        /* \"#utility.yul\":2179:2185   */\n      dup3\n        /* \"#utility.yul\":2168:2177   */\n      dup6\n        /* \"#utility.yul\":2164:2186   */\n      add\n        /* \"#utility.yul\":2143:2196   */\n      tag_457\n      jump\t// in\n    tag_555:\n        /* \"#utility.yul\":2133:2196   */\n      swap2\n      pop\n        /* \"#utility.yul\":2089:2206   */\n      pop\n        /* \"#utility.yul\":1884:2213   */\n      swap3\n      swap2\n      pop\n      pop\n      jump\t// out\n        /* \"#utility.yul\":2219:2772   */\n    tag_62:\n        /* \"#utility.yul\":2396:2400   */\n      0x00\n        /* \"#utility.yul\":2434:2437   */\n      0x80\n        /* \"#utility.yul\":2423:2432   */\n      dup3\n        /* \"#utility.yul\":2419:2438   */\n      add\n        /* \"#utility.yul\":2411:2438   */\n      swap1\n      pop\n        /* \"#utility.yul\":2448:2519   */\n      tag_557\n        /* \"#utility.yul\":2516:2517   */\n      0x00\n        /* \"#utility.yul\":2505:2514   */\n      dup4\n        /* \"#utility.yul\":2501:2518   */\n      add\n        /* \"#utility.yul\":2492:2498   */\n      dup8\n        /* \"#utility.yul\":2448:2519   */\n      tag_455\n      jump\t// in\n    tag_557:\n        /* \"#utility.yul\":2529:2601   */\n      tag_558\n        /* \"#utility.yul\":2597:2599   */\n      0x20\n        /* \"#utility.yul\":2586:2595   */\n      dup4\n        /* \"#utility.yul\":2582:2600   */\n      add\n        /* \"#utility.yul\":2573:2579   */\n      dup7\n        /* \"#utility.yul\":2529:2601   */\n      tag_455\n      jump\t// in\n    tag_558:\n        /* \"#utility.yul\":2611:2683   */\n      tag_559\n        /* \"#utility.yul\":2679:2681   */\n      0x40\n        /* \"#utility.yul\":2668:2677   */\n      dup4\n        /* \"#utility.yul\":2664:2682   */\n      add\n        /* \"#utility.yul\":2655:2661   */\n      dup6\n        /* \"#utility.yul\":2611:2683   */\n      tag_455\n      jump\t// in\n    tag_559:\n        /* \"#utility.yul\":2693:2765   */\n      tag_560\n        /* \"#utility.yul\":2761:2763   */\n      0x60\n        /* \"#utility.yul\":2750:2759   */\n      dup4\n        /* \"#utility.yul\":2746:2764   */\n      add\n        /* \"#utility.yul\":2737:2743   */\n      dup5\n        /* \"#utility.yul\":2693:2765   */\n      tag_455\n      jump\t// in\n    tag_560:\n        /* \"#utility.yul\":2219:2772   */\n      swap6\n      swap5\n      pop\n      pop\n      pop\n      pop\n      pop\n      jump\t// out\n        /* \"#utility.yul\":2778:2838   */\n    tag_458:\n        /* \"#utility.yul\":2806:2809   */\n      0x00\n        /* \"#utility.yul\":2827:2832   */\n      dup2\n        /* \"#utility.yul\":2820:2832   */\n      swap1\n      pop\n        /* \"#utility.yul\":2778:2838   */\n      swap2\n      swap1\n      pop\n      jump\t// out\n        /* \"#utility.yul\":2844:2986   */\n    tag_459:\n        /* \"#utility.yul\":2894:2903   */\n      0x00\n        /* \"#utility.yul\":2927:2980   */\n      tag_563\n        /* \"#utility.yul\":2945:2979   */\n      tag_564\n        /* \"#utility.yul\":2954:2978   */\n      tag_565\n        /* \"#utility.yul\":2972:2977   */\n      dup5\n        /* \"#utility.yul\":2954:2978   */\n      tag_450\n      jump\t// in\n    tag_565:\n        /* \"#utility.yul\":2945:2979   */\n      tag_458\n      jump\t// in\n    tag_564:\n        /* \"#utility.yul\":2927:2980   */\n      tag_450\n      jump\t// in\n    tag_563:\n        /* \"#utility.yul\":2914:2980   */\n      swap1\n      pop\n        /* \"#utility.yul\":2844:2986   */\n      swap2\n      swap1\n      pop\n      jump\t// out\n        /* \"#utility.yul\":2992:3118   */\n    tag_460:\n        /* \"#utility.yul\":3042:3051   */\n      0x00\n        /* \"#utility.yul\":3075:3112   */\n      tag_567\n        /* \"#utility.yul\":3106:3111   */\n      dup3\n        /* \"#utility.yul\":3075:3112   */\n      tag_459\n      jump\t// in\n    tag_567:\n        /* \"#utility.yul\":3062:3112   */\n      swap1\n      pop\n        /* \"#utility.yul\":2992:3118   */\n      swap2\n      swap1\n      pop\n      jump\t// out\n        /* \"#utility.yul\":3124:3268   */\n    tag_461:\n        /* \"#utility.yul\":3192:3201   */\n      0x00\n        /* \"#utility.yul\":3225:3262   */\n      tag_569\n        /* \"#utility.yul\":3256:3261   */\n      dup3\n        /* \"#utility.yul\":3225:3262   */\n      tag_460\n      jump\t// in\n    tag_569:\n        /* \"#utility.yul\":3212:3262   */\n      swap1\n      pop\n        /* \"#utility.yul\":3124:3268   */\n      swap2\n      swap1\n      pop\n      jump\t// out\n        /* \"#utility.yul\":3274:3441   */\n    tag_462:\n        /* \"#utility.yul\":3379:3434   */\n      tag_571\n        /* \"#utility.yul\":3428:3433   */\n      dup2\n        /* \"#utility.yul\":3379:3434   */\n      tag_461\n      jump\t// in\n    tag_571:\n        /* \"#utility.yul\":3374:3377   */\n      dup3\n        /* \"#utility.yul\":3367:3435   */\n      mstore\n        /* \"#utility.yul\":3274:3441   */\n      pop\n      pop\n      jump\t// out\n        /* \"#utility.yul\":3447:3705   */\n    tag_66:\n        /* \"#utility.yul\":3558:3562   */\n      0x00\n        /* \"#utility.yul\":3596:3598   */\n      0x20\n        /* \"#utility.yul\":3585:3594   */\n      dup3\n        /* \"#utility.yul\":3581:3599   */\n      add\n        /* \"#utility.yul\":3573:3599   */\n      swap1\n      pop\n        /* \"#utility.yul\":3609:3698   */\n      tag_573\n        /* \"#utility.yul\":3695:3696   */\n      0x00\n        /* \"#utility.yul\":3684:3693   */\n      dup4\n        /* \"#utility.yul\":3680:3697   */\n      add\n        /* \"#utility.yul\":3671:3677   */\n      dup5\n        /* \"#utility.yul\":3609:3698   */\n      tag_462\n      jump\t// in\n    tag_573:\n        /* \"#utility.yul\":3447:3705   */\n      swap3\n      swap2\n      pop\n      pop\n      jump\t// out\n        /* \"#utility.yul\":3711:3801   */\n    tag_463:\n        /* \"#utility.yul\":3745:3752   */\n      0x00\n        /* \"#utility.yul\":3788:3793   */\n      dup2\n        /* \"#utility.yul\":3781:3794   */\n      iszero\n        /* \"#utility.yul\":3774:3795   */\n      iszero\n        /* \"#utility.yul\":3763:3795   */\n      swap1\n      pop\n        /* \"#utility.yul\":3711:3801   */\n      swap2\n      swap1\n      pop\n      jump\t// out\n        /* \"#utility.yul\":3807:3916   */\n    tag_464:\n        /* \"#utility.yul\":3888:3909   */\n      tag_576\n        /* \"#utility.yul\":3903:3908   */\n      dup2\n        /* \"#utility.yul\":3888:3909   */\n      tag_463\n      jump\t// in\n    tag_576:\n        /* \"#utility.yul\":3883:3886   */\n      dup3\n        /* \"#utility.yul\":3876:3910   */\n      mstore\n        /* \"#utility.yul\":3807:3916   */\n      pop\n      pop\n      jump\t// out\n        /* \"#utility.yul\":3922:4132   */\n    tag_70:\n        /* \"#utility.yul\":4009:4013   */\n      0x00\n        /* \"#utility.yul\":4047:4049   */\n      0x20\n        /* \"#utility.yul\":4036:4045   */\n      dup3\n        /* \"#utility.yul\":4032:4050   */\n      add\n        /* \"#utility.yul\":4024:4050   */\n      swap1\n      pop\n        /* \"#utility.yul\":4060:4125   */\n      tag_578\n        /* \"#utility.yul\":4122:4123   */\n      0x00\n        /* \"#utility.yul\":4111:4120   */\n      dup4\n        /* \"#utility.yul\":4107:4124   */\n      add\n        /* \"#utility.yul\":4098:4104   */\n      dup5\n        /* \"#utility.yul\":4060:4125   */\n      tag_464\n      jump\t// in\n    tag_578:\n        /* \"#utility.yul\":3922:4132   */\n      swap3\n      swap2\n      pop\n      pop\n      jump\t// out\n        /* \"#utility.yul\":4138:4580   */\n    tag_78:\n        /* \"#utility.yul\":4287:4291   */\n      0x00\n        /* \"#utility.yul\":4325:4327   */\n      0x60\n        /* \"#utility.yul\":4314:4323   */\n      dup3\n        /* \"#utility.yul\":4310:4328   */\n      add\n        /* \"#utility.yul\":4302:4328   */\n      swap1\n      pop\n        /* \"#utility.yul\":4338:4409   */\n      tag_580\n        /* \"#utility.yul\":4406:4407   */\n      0x00\n        /* \"#utility.yul\":4395:4404   */\n      dup4\n        /* \"#utility.yul\":4391:4408   */\n      add\n        /* \"#utility.yul\":4382:4388   */\n      dup7\n        /* \"#utility.yul\":4338:4409   */\n      tag_455\n      jump\t// in\n    tag_580:\n        /* \"#utility.yul\":4419:4491   */\n      tag_581\n        /* \"#utility.yul\":4487:4489   */\n      0x20\n        /* \"#utility.yul\":4476:4485   */\n      dup4\n        /* \"#utility.yul\":4472:4490   */\n      add\n        /* \"#utility.yul\":4463:4469   */\n      dup6\n        /* \"#utility.yul\":4419:4491   */\n      tag_455\n      jump\t// in\n    tag_581:\n        /* \"#utility.yul\":4501:4573   */\n      tag_582\n        /* \"#utility.yul\":4569:4571   */\n      0x40\n        /* \"#utility.yul\":4558:4567   */\n      dup4\n        /* \"#utility.yul\":4554:4572   */\n      add\n        /* \"#utility.yul\":4545:4551   */\n      dup5\n        /* \"#utility.yul\":4501:4573   */\n      tag_455\n      jump\t// in\n    tag_582:\n        /* \"#utility.yul\":4138:4580   */\n      swap5\n      swap4\n      pop\n      pop\n      pop\n      pop\n      jump\t// out\n        /* \"#utility.yul\":4586:4702   */\n    tag_465:\n        /* \"#utility.yul\":4656:4677   */\n      tag_584\n        /* \"#utility.yul\":4671:4676   */\n      dup2\n        /* \"#utility.yul\":4656:4677   */\n      tag_463\n      jump\t// in\n    tag_584:\n        /* \"#utility.yul\":4649:4654   */\n      dup2\n        /* \"#utility.yul\":4646:4678   */\n      eq\n        /* \"#utility.yul\":4636:4696   */\n      tag_585\n      jumpi\n        /* \"#utility.yul\":4692:4693   */\n      0x00\n        /* \"#utility.yul\":4689:4690   */\n      0x00\n        /* \"#utility.yul\":4682:4694   */\n      revert\n        /* \"#utility.yul\":4636:4696   */\n    tag_585:\n        /* \"#utility.yul\":4586:4702   */\n      pop\n      jump\t// out\n        /* \"#utility.yul\":4708:4841   */\n    tag_466:\n        /* \"#utility.yul\":4751:4756   */\n      0x00\n        /* \"#utility.yul\":4789:4795   */\n      dup2\n        /* \"#utility.yul\":4776:4796   */\n      calldataload\n        /* \"#utility.yul\":4767:4796   */\n      swap1\n      pop\n        /* \"#utility.yul\":4805:4835   */\n      tag_587\n        /* \"#utility.yul\":4829:4834   */\n      dup2\n        /* \"#utility.yul\":4805:4835   */\n      tag_465\n      jump\t// in\n    tag_587:\n        /* \"#utility.yul\":4708:4841   */\n      swap3\n      swap2\n      pop\n      pop\n      jump\t// out\n        /* \"#utility.yul\":4847:5170   */\n    tag_81:\n        /* \"#utility.yul\":4903:4909   */\n      0x00\n        /* \"#utility.yul\":4952:4954   */\n      0x20\n        /* \"#utility.yul\":4940:4949   */\n      dup3\n        /* \"#utility.yul\":4931:4938   */\n      dup5\n        /* \"#utility.yul\":4927:4950   */\n      sub\n        /* \"#utility.yul\":4923:4955   */\n      slt\n        /* \"#utility.yul\":4920:5039   */\n      iszero\n      tag_589\n      jumpi\n        /* \"#utility.yul\":4958:5037   */\n      tag_590\n      tag_448\n      jump\t// in\n    tag_590:\n        /* \"#utility.yul\":4920:5039   */\n    tag_589:\n        /* \"#utility.yul\":5078:5079   */\n      0x00\n        /* \"#utility.yul\":5103:5153   */\n      tag_591\n        /* \"#utility.yul\":5145:5152   */\n      dup5\n        /* \"#utility.yul\":5136:5142   */\n      dup3\n        /* \"#utility.yul\":5125:5134   */\n      dup6\n        /* \"#utility.yul\":5121:5143   */\n      add\n        /* \"#utility.yul\":5103:5153   */\n      tag_466\n      jump\t// in\n    tag_591:\n        /* \"#utility.yul\":5093:5153   */\n      swap2\n      pop\n        /* \"#utility.yul\":5049:5163   */\n      pop\n        /* \"#utility.yul\":4847:5170   */\n      swap3\n      swap2\n      pop\n      pop\n      jump\t// out\n        /* \"#utility.yul\":5176:5650   */\n    tag_91:\n        /* \"#utility.yul\":5244:5250   */\n      0x00\n        /* \"#utility.yul\":5252:5258   */\n      0x00\n        /* \"#utility.yul\":5301:5303   */\n      0x40\n        /* \"#utility.yul\":5289:5298   */\n      dup4\n        /* \"#utility.yul\":5280:5287   */\n      dup6\n        /* \"#utility.yul\":5276:5299   */\n      sub\n        /* \"#utility.yul\":5272:5304   */\n      slt\n        /* \"#utility.yul\":5269:5388   */\n      iszero\n      tag_593\n      jumpi\n        /* \"#utility.yul\":5307:5386   */\n      tag_594\n      tag_448\n      jump\t// in\n    tag_594:\n        /* \"#utility.yul\":5269:5388   */\n    tag_593:\n        /* \"#utility.yul\":5427:5428   */\n      0x00\n        /* \"#utility.yul\":5452:5505   */\n      tag_595\n        /* \"#utility.yul\":5497:5504   */\n      dup6\n        /* \"#utility.yul\":5488:5494   */\n      dup3\n        /* \"#utility.yul\":5477:5486   */\n      dup7\n        /* \"#utility.yul\":5473:5495   */\n      add\n        /* \"#utility.yul\":5452:5505   */\n      tag_453\n      jump\t// in\n    tag_595:\n        /* \"#utility.yul\":5442:5505   */\n      swap3\n      pop\n        /* \"#utility.yul\":5398:5515   */\n      pop\n        /* \"#utility.yul\":5554:5556   */\n      0x20\n        /* \"#utility.yul\":5580:5633   */\n      tag_596\n        /* \"#utility.yul\":5625:5632   */\n      dup6\n        /* \"#utility.yul\":5616:5622   */\n      dup3\n        /* \"#utility.yul\":5605:5614   */\n      dup7\n        /* \"#utility.yul\":5601:5623   */\n      add\n        /* \"#utility.yul\":5580:5633   */\n      tag_457\n      jump\t// in\n    tag_596:\n        /* \"#utility.yul\":5570:5633   */\n      swap2\n      pop\n        /* \"#utility.yul\":5525:5643   */\n      pop\n        /* \"#utility.yul\":5176:5650   */\n      swap3\n      pop\n      swap3\n      swap1\n      pop\n      jump\t// out\n        /* \"#utility.yul\":5656:5774   */\n    tag_467:\n        /* \"#utility.yul\":5743:5767   */\n      tag_598\n        /* \"#utility.yul\":5761:5766   */\n      dup2\n        /* \"#utility.yul\":5743:5767   */\n      tag_451\n      jump\t// in\n    tag_598:\n        /* \"#utility.yul\":5738:5741   */\n      dup3\n        /* \"#utility.yul\":5731:5768   */\n      mstore\n        /* \"#utility.yul\":5656:5774   */\n      pop\n      pop\n      jump\t// out\n        /* \"#utility.yul\":5780:6002   */\n    tag_96:\n        /* \"#utility.yul\":5873:5877   */\n      0x00\n        /* \"#utility.yul\":5911:5913   */\n      0x20\n        /* \"#utility.yul\":5900:5909   */\n      dup3\n        /* \"#utility.yul\":5896:5914   */\n      add\n        /* \"#utility.yul\":5888:5914   */\n      swap1\n      pop\n        /* \"#utility.yul\":5924:5995   */\n      tag_600\n        /* \"#utility.yul\":5992:5993   */\n      0x00\n        /* \"#utility.yul\":5981:5990   */\n      dup4\n        /* \"#utility.yul\":5977:5994   */\n      add\n        /* \"#utility.yul\":5968:5974   */\n      dup5\n        /* \"#utility.yul\":5924:5995   */\n      tag_467\n      jump\t// in\n    tag_600:\n        /* \"#utility.yul\":5780:6002   */\n      swap3\n      swap2\n      pop\n      pop\n      jump\t// out\n        /* \"#utility.yul\":6008:6122   */\n    tag_468:\n        /* \"#utility.yul\":6063:6070   */\n      0x00\n        /* \"#utility.yul\":6092:6116   */\n      tag_602\n        /* \"#utility.yul\":6110:6115   */\n      dup3\n        /* \"#utility.yul\":6092:6116   */\n      tag_451\n      jump\t// in\n    tag_602:\n        /* \"#utility.yul\":6081:6116   */\n      swap1\n      pop\n        /* \"#utility.yul\":6008:6122   */\n      swap2\n      swap1\n      pop\n      jump\t// out\n        /* \"#utility.yul\":6128:6286   */\n    tag_469:\n        /* \"#utility.yul\":6219:6261   */\n      tag_604\n        /* \"#utility.yul\":6255:6260   */\n      dup2\n        /* \"#utility.yul\":6219:6261   */\n      tag_468\n      jump\t// in\n    tag_604:\n        /* \"#utility.yul\":6212:6217   */\n      dup2\n        /* \"#utility.yul\":6209:6262   */\n      eq\n        /* \"#utility.yul\":6199:6280   */\n      tag_605\n      jumpi\n        /* \"#utility.yul\":6276:6277   */\n      0x00\n        /* \"#utility.yul\":6273:6274   */\n      0x00\n        /* \"#utility.yul\":6266:6278   */\n      revert\n        /* \"#utility.yul\":6199:6280   */\n    tag_605:\n        /* \"#utility.yul\":6128:6286   */\n      pop\n      jump\t// out\n        /* \"#utility.yul\":6292:6467   */\n    tag_470:\n        /* \"#utility.yul\":6356:6361   */\n      0x00\n        /* \"#utility.yul\":6394:6400   */\n      dup2\n        /* \"#utility.yul\":6381:6401   */\n      calldataload\n        /* \"#utility.yul\":6372:6401   */\n      swap1\n      pop\n        /* \"#utility.yul\":6410:6461   */\n      tag_607\n        /* \"#utility.yul\":6455:6460   */\n      dup2\n        /* \"#utility.yul\":6410:6461   */\n      tag_469\n      jump\t// in\n    tag_607:\n        /* \"#utility.yul\":6292:6467   */\n      swap3\n      swap2\n      pop\n      pop\n      jump\t// out\n        /* \"#utility.yul\":6473:7858   */\n    tag_136:\n        /* \"#utility.yul\":6613:6619   */\n      0x00\n        /* \"#utility.yul\":6621:6627   */\n      0x00\n        /* \"#utility.yul\":6629:6635   */\n      0x00\n        /* \"#utility.yul\":6637:6643   */\n      0x00\n        /* \"#utility.yul\":6645:6651   */\n      0x00\n        /* \"#utility.yul\":6653:6659   */\n      0x00\n        /* \"#utility.yul\":6661:6667   */\n      0x00\n        /* \"#utility.yul\":6669:6675   */\n      0x00\n        /* \"#utility.yul\":6718:6721   */\n      0x0100\n        /* \"#utility.yul\":6706:6715   */\n      dup10\n        /* \"#utility.yul\":6697:6704   */\n      dup12\n        /* \"#utility.yul\":6693:6716   */\n      sub\n        /* \"#utility.yul\":6689:6722   */\n      slt\n        /* \"#utility.yul\":6686:6806   */\n      iszero\n      tag_609\n      jumpi\n        /* \"#utility.yul\":6725:6804   */\n      tag_610\n      tag_448\n      jump\t// in\n    tag_610:\n        /* \"#utility.yul\":6686:6806   */\n    tag_609:\n        /* \"#utility.yul\":6845:6846   */\n      0x00\n        /* \"#utility.yul\":6870:6941   */\n      tag_611\n        /* \"#utility.yul\":6933:6940   */\n      dup12\n        /* \"#utility.yul\":6924:6930   */\n      dup3\n        /* \"#utility.yul\":6913:6922   */\n      dup13\n        /* \"#utility.yul\":6909:6931   */\n      add\n        /* \"#utility.yul\":6870:6941   */\n      tag_470\n      jump\t// in\n    tag_611:\n        /* \"#utility.yul\":6860:6941   */\n      swap9\n      pop\n        /* \"#utility.yul\":6816:6951   */\n      pop\n        /* \"#utility.yul\":6990:6992   */\n      0x20\n        /* \"#utility.yul\":7016:7069   */\n      tag_612\n        /* \"#utility.yul\":7061:7068   */\n      dup12\n        /* \"#utility.yul\":7052:7058   */\n      dup3\n        /* \"#utility.yul\":7041:7050   */\n      dup13\n        /* \"#utility.yul\":7037:7059   */\n      add\n        /* \"#utility.yul\":7016:7069   */\n      tag_457\n      jump\t// in\n    tag_612:\n        /* \"#utility.yul\":7006:7069   */\n      swap8\n      pop\n        /* \"#utility.yul\":6961:7079   */\n      pop\n        /* \"#utility.yul\":7118:7120   */\n      0x40\n        /* \"#utility.yul\":7144:7197   */\n      tag_613\n        /* \"#utility.yul\":7189:7196   */\n      dup12\n        /* \"#utility.yul\":7180:7186   */\n      dup3\n        /* \"#utility.yul\":7169:7178   */\n      dup13\n        /* \"#utility.yul\":7165:7187   */\n      add\n        /* \"#utility.yul\":7144:7197   */\n      tag_457\n      jump\t// in\n    tag_613:\n        /* \"#utility.yul\":7134:7197   */\n      swap7\n      pop\n        /* \"#utility.yul\":7089:7207   */\n      pop\n        /* \"#utility.yul\":7246:7248   */\n      0x60\n        /* \"#utility.yul\":7272:7325   */\n      tag_614\n        /* \"#utility.yul\":7317:7324   */\n      dup12\n        /* \"#utility.yul\":7308:7314   */\n      dup3\n        /* \"#utility.yul\":7297:7306   */\n      dup13\n        /* \"#utility.yul\":7293:7315   */\n      add\n        /* \"#utility.yul\":7272:7325   */\n      tag_457\n      jump\t// in\n    tag_614:\n        /* \"#utility.yul\":7262:7325   */\n      swap6\n      pop\n        /* \"#utility.yul\":7217:7335   */\n      pop\n        /* \"#utility.yul\":7374:7377   */\n      0x80\n        /* \"#utility.yul\":7401:7454   */\n      tag_615\n        /* \"#utility.yul\":7446:7453   */\n      dup12\n        /* \"#utility.yul\":7437:7443   */\n      dup3\n        /* \"#utility.yul\":7426:7435   */\n      dup13\n        /* \"#utility.yul\":7422:7444   */\n      add\n        /* \"#utility.yul\":7401:7454   */\n      tag_457\n      jump\t// in\n    tag_615:\n        /* \"#utility.yul\":7391:7454   */\n      swap5\n      pop\n        /* \"#utility.yul\":7345:7464   */\n      pop\n        /* \"#utility.yul\":7503:7506   */\n      0xa0\n        /* \"#utility.yul\":7530:7583   */\n      tag_616\n        /* \"#utility.yul\":7575:7582   */\n      dup12\n        /* \"#utility.yul\":7566:7572   */\n      dup3\n        /* \"#utility.yul\":7555:7564   */\n      dup13\n        /* \"#utility.yul\":7551:7573   */\n      add\n        /* \"#utility.yul\":7530:7583   */\n      tag_457\n      jump\t// in\n    tag_616:\n        /* \"#utility.yul\":7520:7583   */\n      swap4\n      pop\n        /* \"#utility.yul\":7474:7593   */\n      pop\n        /* \"#utility.yul\":7632:7635   */\n      0xc0\n        /* \"#utility.yul\":7659:7712   */\n      tag_617\n        /* \"#utility.yul\":7704:7711   */\n      dup12\n        /* \"#utility.yul\":7695:7701   */\n      dup3\n        /* \"#utility.yul\":7684:7693   */\n      dup13\n        /* \"#utility.yul\":7680:7702   */\n      add\n        /* \"#utility.yul\":7659:7712   */\n      tag_457\n      jump\t// in\n    tag_617:\n        /* \"#utility.yul\":7649:7712   */\n      swap3\n      pop\n        /* \"#utility.yul\":7603:7722   */\n      pop\n        /* \"#utility.yul\":7761:7764   */\n      0xe0\n        /* \"#utility.yul\":7788:7841   */\n      tag_618\n        /* \"#utility.yul\":7833:7840   */\n      dup12\n        /* \"#utility.yul\":7824:7830   */\n      dup3\n        /* \"#utility.yul\":7813:7822   */\n      dup13\n        /* \"#utility.yul\":7809:7831   */\n      add\n        /* \"#utility.yul\":7788:7841   */\n      tag_453\n      jump\t// in\n    tag_618:\n        /* \"#utility.yul\":7778:7841   */\n      swap2\n      pop\n        /* \"#utility.yul\":7732:7851   */\n      pop\n        /* \"#utility.yul\":6473:7858   */\n      swap3\n      swap6\n      swap9\n      pop\n      swap3\n      swap6\n      swap9\n      swap1\n      swap4\n      swap7\n      pop\n      jump\t// out\n        /* \"#utility.yul\":7864:7981   */\n    tag_471:\n        /* \"#utility.yul\":7973:7974   */\n      0x00\n        /* \"#utility.yul\":7970:7971   */\n      0x00\n        /* \"#utility.yul\":7963:7975   */\n      revert\n        /* \"#utility.yul\":7987:8104   */\n    tag_472:\n        /* \"#utility.yul\":8096:8097   */\n      0x00\n        /* \"#utility.yul\":8093:8094   */\n      0x00\n        /* \"#utility.yul\":8086:8098   */\n      revert\n        /* \"#utility.yul\":8110:8212   */\n    tag_473:\n        /* \"#utility.yul\":8151:8157   */\n      0x00\n        /* \"#utility.yul\":8202:8204   */\n      0x1f\n        /* \"#utility.yul\":8198:8205   */\n      not\n        /* \"#utility.yul\":8193:8195   */\n      0x1f\n        /* \"#utility.yul\":8186:8191   */\n      dup4\n        /* \"#utility.yul\":8182:8196   */\n      add\n        /* \"#utility.yul\":8178:8206   */\n      and\n        /* \"#utility.yul\":8168:8206   */\n      swap1\n      pop\n        /* \"#utility.yul\":8110:8212   */\n      swap2\n      swap1\n      pop\n      jump\t// out\n        /* \"#utility.yul\":8218:8398   */\n    tag_474:\n        /* \"#utility.yul\":8266:8343   */\n      0x4e487b7100000000000000000000000000000000000000000000000000000000\n        /* \"#utility.yul\":8263:8264   */\n      0x00\n        /* \"#utility.yul\":8256:8344   */\n      mstore\n        /* \"#utility.yul\":8363:8367   */\n      0x41\n        /* \"#utility.yul\":8360:8361   */\n      0x04\n        /* \"#utility.yul\":8353:8368   */\n      mstore\n        /* \"#utility.yul\":8387:8391   */\n      0x24\n        /* \"#utility.yul\":8384:8385   */\n      0x00\n        /* \"#utility.yul\":8377:8392   */\n      revert\n        /* \"#utility.yul\":8404:8685   */\n    tag_475:\n        /* \"#utility.yul\":8487:8514   */\n      tag_624\n        /* \"#utility.yul\":8509:8513   */\n      dup3\n        /* \"#utility.yul\":8487:8514   */\n      tag_473\n      jump\t// in\n    tag_624:\n        /* \"#utility.yul\":8479:8485   */\n      dup2\n        /* \"#utility.yul\":8475:8515   */\n      add\n        /* \"#utility.yul\":8617:8623   */\n      dup2\n        /* \"#utility.yul\":8605:8615   */\n      dup2\n        /* \"#utility.yul\":8602:8624   */\n      lt\n        /* \"#utility.yul\":8581:8599   */\n      0xffffffffffffffff\n        /* \"#utility.yul\":8569:8579   */\n      dup3\n        /* \"#utility.yul\":8566:8600   */\n      gt\n        /* \"#utility.yul\":8563:8625   */\n      or\n        /* \"#utility.yul\":8560:8648   */\n      iszero\n      tag_625\n      jumpi\n        /* \"#utility.yul\":8628:8646   */\n      tag_626\n      tag_474\n      jump\t// in\n    tag_626:\n        /* \"#utility.yul\":8560:8648   */\n    tag_625:\n        /* \"#utility.yul\":8668:8678   */\n      dup1\n        /* \"#utility.yul\":8664:8666   */\n      0x40\n        /* \"#utility.yul\":8657:8679   */\n      mstore\n        /* \"#utility.yul\":8447:8685   */\n      pop\n        /* \"#utility.yul\":8404:8685   */\n      pop\n      pop\n      jump\t// out\n        /* \"#utility.yul\":8691:8820   */\n    tag_476:\n        /* \"#utility.yul\":8725:8731   */\n      0x00\n        /* \"#utility.yul\":8752:8772   */\n      tag_628\n      tag_447\n      jump\t// in\n    tag_628:\n        /* \"#utility.yul\":8742:8772   */\n      swap1\n      pop\n        /* \"#utility.yul\":8781:8814   */\n      tag_629\n        /* \"#utility.yul\":8809:8813   */\n      dup3\n        /* \"#utility.yul\":8801:8807   */\n      dup3\n        /* \"#utility.yul\":8781:8814   */\n      tag_475\n      jump\t// in\n    tag_629:\n        /* \"#utility.yul\":8691:8820   */\n      swap2\n      swap1\n      pop\n      jump\t// out\n        /* \"#utility.yul\":8826:9133   */\n    tag_477:\n        /* \"#utility.yul\":8887:8891   */\n      0x00\n        /* \"#utility.yul\":8977:8995   */\n      0xffffffffffffffff\n        /* \"#utility.yul\":8969:8975   */\n      dup3\n        /* \"#utility.yul\":8966:8996   */\n      gt\n        /* \"#utility.yul\":8963:9019   */\n      iszero\n      tag_631\n      jumpi\n        /* \"#utility.yul\":8999:9017   */\n      tag_632\n      tag_474\n      jump\t// in\n    tag_632:\n        /* \"#utility.yul\":8963:9019   */\n    tag_631:\n        /* \"#utility.yul\":9037:9066   */\n      tag_633\n        /* \"#utility.yul\":9059:9065   */\n      dup3\n        /* \"#utility.yul\":9037:9066   */\n      tag_473\n      jump\t// in\n    tag_633:\n        /* \"#utility.yul\":9029:9066   */\n      swap1\n      pop\n        /* \"#utility.yul\":9121:9125   */\n      0x20\n        /* \"#utility.yul\":9115:9119   */\n      dup2\n        /* \"#utility.yul\":9111:9126   */\n      add\n        /* \"#utility.yul\":9103:9126   */\n      swap1\n      pop\n        /* \"#utility.yul\":8826:9133   */\n      swap2\n      swap1\n      pop\n      jump\t// out\n        /* \"#utility.yul\":9139:9287   */\n    tag_478:\n        /* \"#utility.yul\":9237:9243   */\n      dup3\n        /* \"#utility.yul\":9232:9235   */\n      dup2\n        /* \"#utility.yul\":9227:9230   */\n      dup4\n        /* \"#utility.yul\":9214:9244   */\n      calldatacopy\n        /* \"#utility.yul\":9278:9279   */\n      0x00\n        /* \"#utility.yul\":9269:9275   */\n      dup4\n        /* \"#utility.yul\":9264:9267   */\n      dup4\n        /* \"#utility.yul\":9260:9276   */\n      add\n        /* \"#utility.yul\":9253:9280   */\n      mstore\n        /* \"#utility.yul\":9139:9287   */\n      pop\n      pop\n      pop\n      jump\t// out\n        /* \"#utility.yul\":9293:9716   */\n    tag_479:\n        /* \"#utility.yul\":9370:9375   */\n      0x00\n        /* \"#utility.yul\":9395:9460   */\n      tag_636\n        /* \"#utility.yul\":9411:9459   */\n      tag_637\n        /* \"#utility.yul\":9452:9458   */\n      dup5\n        /* \"#utility.yul\":9411:9459   */\n      tag_477\n      jump\t// in\n    tag_637:\n        /* \"#utility.yul\":9395:9460   */\n      tag_476\n      jump\t// in\n    tag_636:\n        /* \"#utility.yul\":9386:9460   */\n      swap1\n      pop\n        /* \"#utility.yul\":9483:9489   */\n      dup3\n        /* \"#utility.yul\":9476:9481   */\n      dup2\n        /* \"#utility.yul\":9469:9490   */\n      mstore\n        /* \"#utility.yul\":9521:9525   */\n      0x20\n        /* \"#utility.yul\":9514:9519   */\n      dup2\n        /* \"#utility.yul\":9510:9526   */\n      add\n        /* \"#utility.yul\":9559:9562   */\n      dup5\n        /* \"#utility.yul\":9550:9556   */\n      dup5\n        /* \"#utility.yul\":9545:9548   */\n      dup5\n        /* \"#utility.yul\":9541:9557   */\n      add\n        /* \"#utility.yul\":9538:9563   */\n      gt\n        /* \"#utility.yul\":9535:9647   */\n      iszero\n      tag_638\n      jumpi\n        /* \"#utility.yul\":9566:9645   */\n      tag_639\n      tag_472\n      jump\t// in\n    tag_639:\n        /* \"#utility.yul\":9535:9647   */\n    tag_638:\n        /* \"#utility.yul\":9656:9710   */\n      tag_640\n        /* \"#utility.yul\":9703:9709   */\n      dup5\n        /* \"#utility.yul\":9698:9701   */\n      dup3\n        /* \"#utility.yul\":9693:9696   */\n      dup6\n        /* \"#utility.yul\":9656:9710   */\n      tag_478\n      jump\t// in\n    tag_640:\n        /* \"#utility.yul\":9376:9716   */\n      pop\n        /* \"#utility.yul\":9293:9716   */\n      swap4\n      swap3\n      pop\n      pop\n      pop\n      jump\t// out\n        /* \"#utility.yul\":9735:10073   */\n    tag_480:\n        /* \"#utility.yul\":9790:9795   */\n      0x00\n        /* \"#utility.yul\":9839:9842   */\n      dup3\n        /* \"#utility.yul\":9832:9836   */\n      0x1f\n        /* \"#utility.yul\":9824:9830   */\n      dup4\n        /* \"#utility.yul\":9820:9837   */\n      add\n        /* \"#utility.yul\":9816:9843   */\n      slt\n        /* \"#utility.yul\":9806:9928   */\n      tag_642\n      jumpi\n        /* \"#utility.yul\":9847:9926   */\n      tag_643\n      tag_471\n      jump\t// in\n    tag_643:\n        /* \"#utility.yul\":9806:9928   */\n    tag_642:\n        /* \"#utility.yul\":9964:9970   */\n      dup2\n        /* \"#utility.yul\":9951:9971   */\n      calldataload\n        /* \"#utility.yul\":9989:10067   */\n      tag_644\n        /* \"#utility.yul\":10063:10066   */\n      dup5\n        /* \"#utility.yul\":10055:10061   */\n      dup3\n        /* \"#utility.yul\":10048:10052   */\n      0x20\n        /* \"#utility.yul\":10040:10046   */\n      dup7\n        /* \"#utility.yul\":10036:10053   */\n      add\n        /* \"#utility.yul\":9989:10067   */\n      tag_479\n      jump\t// in\n    tag_644:\n        /* \"#utility.yul\":9980:10067   */\n      swap2\n      pop\n        /* \"#utility.yul\":9796:10073   */\n      pop\n        /* \"#utility.yul\":9735:10073   */\n      swap3\n      swap2\n      pop\n      pop\n      jump\t// out\n        /* \"#utility.yul\":10079:10731   */\n    tag_158:\n        /* \"#utility.yul\":10156:10162   */\n      0x00\n        /* \"#utility.yul\":10164:10170   */\n      0x00\n        /* \"#utility.yul\":10213:10215   */\n      0x40\n        /* \"#utility.yul\":10201:10210   */\n      dup4\n        /* \"#utility.yul\":10192:10199   */\n      dup6\n        /* \"#utility.yul\":10188:10211   */\n      sub\n        /* \"#utility.yul\":10184:10216   */\n      slt\n        /* \"#utility.yul\":10181:10300   */\n      iszero\n      tag_646\n      jumpi\n        /* \"#utility.yul\":10219:10298   */\n      tag_647\n      tag_448\n      jump\t// in\n    tag_647:\n        /* \"#utility.yul\":10181:10300   */\n    tag_646:\n        /* \"#utility.yul\":10339:10340   */\n      0x00\n        /* \"#utility.yul\":10364:10417   */\n      tag_648\n        /* \"#utility.yul\":10409:10416   */\n      dup6\n        /* \"#utility.yul\":10400:10406   */\n      dup3\n        /* \"#utility.yul\":10389:10398   */\n      dup7\n        /* \"#utility.yul\":10385:10407   */\n      add\n        /* \"#utility.yul\":10364:10417   */\n      tag_457\n      jump\t// in\n    tag_648:\n        /* \"#utility.yul\":10354:10417   */\n      swap3\n      pop\n        /* \"#utility.yul\":10310:10427   */\n      pop\n        /* \"#utility.yul\":10494:10496   */\n      0x20\n        /* \"#utility.yul\":10483:10492   */\n      dup4\n        /* \"#utility.yul\":10479:10497   */\n      add\n        /* \"#utility.yul\":10466:10498   */\n      calldataload\n        /* \"#utility.yul\":10525:10543   */\n      0xffffffffffffffff\n        /* \"#utility.yul\":10517:10523   */\n      dup2\n        /* \"#utility.yul\":10514:10544   */\n      gt\n        /* \"#utility.yul\":10511:10628   */\n      iszero\n      tag_649\n      jumpi\n        /* \"#utility.yul\":10547:10626   */\n      tag_650\n      tag_449\n      jump\t// in\n    tag_650:\n        /* \"#utility.yul\":10511:10628   */\n    tag_649:\n        /* \"#utility.yul\":10652:10714   */\n      tag_651\n        /* \"#utility.yul\":10706:10713   */\n      dup6\n        /* \"#utility.yul\":10697:10703   */\n      dup3\n        /* \"#utility.yul\":10686:10695   */\n      dup7\n        /* \"#utility.yul\":10682:10704   */\n      add\n        /* \"#utility.yul\":10652:10714   */\n      tag_480\n      jump\t// in\n    tag_651:\n        /* \"#utility.yul\":10642:10714   */\n      swap2\n      pop\n        /* \"#utility.yul\":10437:10724   */\n      pop\n        /* \"#utility.yul\":10079:10731   */\n      swap3\n      pop\n      swap3\n      swap1\n      pop\n      jump\t// out\n        /* \"#utility.yul\":10737:11205   */\n    tag_162:\n        /* \"#utility.yul\":10802:10808   */\n      0x00\n        /* \"#utility.yul\":10810:10816   */\n      0x00\n        /* \"#utility.yul\":10859:10861   */\n      0x40\n        /* \"#utility.yul\":10847:10856   */\n      dup4\n        /* \"#utility.yul\":10838:10845   */\n      dup6\n        /* \"#utility.yul\":10834:10857   */\n      sub\n        /* \"#utility.yul\":10830:10862   */\n      slt\n        /* \"#utility.yul\":10827:10946   */\n      iszero\n      tag_653\n      jumpi\n        /* \"#utility.yul\":10865:10944   */\n      tag_654\n      tag_448\n      jump\t// in\n    tag_654:\n        /* \"#utility.yul\":10827:10946   */\n    tag_653:\n        /* \"#utility.yul\":10985:10986   */\n      0x00\n        /* \"#utility.yul\":11010:11063   */\n      tag_655\n        /* \"#utility.yul\":11055:11062   */\n      dup6\n        /* \"#utility.yul\":11046:11052   */\n      dup3\n        /* \"#utility.yul\":11035:11044   */\n      dup7\n        /* \"#utility.yul\":11031:11053   */\n      add\n        /* \"#utility.yul\":11010:11063   */\n      tag_457\n      jump\t// in\n    tag_655:\n        /* \"#utility.yul\":11000:11063   */\n      swap3\n      pop\n        /* \"#utility.yul\":10956:11073   */\n      pop\n        /* \"#utility.yul\":11112:11114   */\n      0x20\n        /* \"#utility.yul\":11138:11188   */\n      tag_656\n        /* \"#utility.yul\":11180:11187   */\n      dup6\n        /* \"#utility.yul\":11171:11177   */\n      dup3\n        /* \"#utility.yul\":11160:11169   */\n      dup7\n        /* \"#utility.yul\":11156:11178   */\n      add\n        /* \"#utility.yul\":11138:11188   */\n      tag_466\n      jump\t// in\n    tag_656:\n        /* \"#utility.yul\":11128:11188   */\n      swap2\n      pop\n        /* \"#utility.yul\":11083:11198   */\n      pop\n        /* \"#utility.yul\":10737:11205   */\n      swap3\n      pop\n      swap3\n      swap1\n      pop\n      jump\t// out\n        /* \"#utility.yul\":11211:11380   */\n    tag_481:\n        /* \"#utility.yul\":11295:11306   */\n      0x00\n        /* \"#utility.yul\":11329:11335   */\n      dup3\n        /* \"#utility.yul\":11324:11327   */\n      dup3\n        /* \"#utility.yul\":11317:11336   */\n      mstore\n        /* \"#utility.yul\":11369:11373   */\n      0x20\n        /* \"#utility.yul\":11364:11367   */\n      dup3\n        /* \"#utility.yul\":11360:11374   */\n      add\n        /* \"#utility.yul\":11345:11374   */\n      swap1\n      pop\n        /* \"#utility.yul\":11211:11380   */\n      swap3\n      swap2\n      pop\n      pop\n      jump\t// out\n        /* \"#utility.yul\":11386:11554   */\n    tag_482:\n        /* \"#utility.yul\":11526:11546   */\n      0x436f6e7472616374206973207061757365640000000000000000000000000000\n        /* \"#utility.yul\":11522:11523   */\n      0x00\n        /* \"#utility.yul\":11514:11520   */\n      dup3\n        /* \"#utility.yul\":11510:11524   */\n      add\n        /* \"#utility.yul\":11503:11547   */\n      mstore\n        /* \"#utility.yul\":11386:11554   */\n      pop\n      jump\t// out\n        /* \"#utility.yul\":11560:11926   */\n    tag_483:\n        /* \"#utility.yul\":11702:11705   */\n      0x00\n        /* \"#utility.yul\":11723:11790   */\n      tag_660\n        /* \"#utility.yul\":11787:11789   */\n      0x12\n        /* \"#utility.yul\":11782:11785   */\n      dup4\n        /* \"#utility.yul\":11723:11790   */\n      tag_481\n      jump\t// in\n    tag_660:\n        /* \"#utility.yul\":11716:11790   */\n      swap2\n      pop\n        /* \"#utility.yul\":11799:11892   */\n      tag_661\n        /* \"#utility.yul\":11888:11891   */\n      dup3\n        /* \"#utility.yul\":11799:11892   */\n      tag_482\n      jump\t// in\n    tag_661:\n        /* \"#utility.yul\":11917:11919   */\n      0x20\n        /* \"#utility.yul\":11912:11915   */\n      dup3\n        /* \"#utility.yul\":11908:11920   */\n      add\n        /* \"#utility.yul\":11901:11920   */\n      swap1\n      pop\n        /* \"#utility.yul\":11560:11926   */\n      swap2\n      swap1\n      pop\n      jump\t// out\n        /* \"#utility.yul\":11932:12351   */\n    tag_186:\n        /* \"#utility.yul\":12098:12102   */\n      0x00\n        /* \"#utility.yul\":12136:12138   */\n      0x20\n        /* \"#utility.yul\":12125:12134   */\n      dup3\n        /* \"#utility.yul\":12121:12139   */\n      add\n        /* \"#utility.yul\":12113:12139   */\n      swap1\n      pop\n        /* \"#utility.yul\":12185:12194   */\n      dup2\n        /* \"#utility.yul\":12179:12183   */\n      dup2\n        /* \"#utility.yul\":12175:12195   */\n      sub\n        /* \"#utility.yul\":12171:12172   */\n      0x00\n        /* \"#utility.yul\":12160:12169   */\n      dup4\n        /* \"#utility.yul\":12156:12173   */\n      add\n        /* \"#utility.yul\":12149:12196   */\n      mstore\n        /* \"#utility.yul\":12213:12344   */\n      tag_663\n        /* \"#utility.yul\":12339:12343   */\n      dup2\n        /* \"#utility.yul\":12213:12344   */\n      tag_483\n      jump\t// in\n    tag_663:\n        /* \"#utility.yul\":12205:12344   */\n      swap1\n      pop\n        /* \"#utility.yul\":11932:12351   */\n      swap2\n      swap1\n      pop\n      jump\t// out\n        /* \"#utility.yul\":12357:12522   */\n    tag_484:\n        /* \"#utility.yul\":12497:12514   */\n      0x4e6f7420696e697469616c697a65640000000000000000000000000000000000\n        /* \"#utility.yul\":12493:12494   */\n      0x00\n        /* \"#utility.yul\":12485:12491   */\n      dup3\n        /* \"#utility.yul\":12481:12495   */\n      add\n        /* \"#utility.yul\":12474:12515   */\n      mstore\n        /* \"#utility.yul\":12357:12522   */\n      pop\n      jump\t// out\n        /* \"#utility.yul\":12528:12894   */\n    tag_485:\n        /* \"#utility.yul\":12670:12673   */\n      0x00\n        /* \"#utility.yul\":12691:12758   */\n      tag_666\n        /* \"#utility.yul\":12755:12757   */\n      0x0f\n        /* \"#utility.yul\":12750:12753   */\n      dup4\n        /* \"#utility.yul\":12691:12758   */\n      tag_481\n      jump\t// in\n    tag_666:\n        /* \"#utility.yul\":12684:12758   */\n      swap2\n      pop\n        /* \"#utility.yul\":12767:12860   */\n      tag_667\n        /* \"#utility.yul\":12856:12859   */\n      dup3\n        /* \"#utility.yul\":12767:12860   */\n      tag_484\n      jump\t// in\n    tag_667:\n        /* \"#utility.yul\":12885:12887   */\n      0x20\n        /* \"#utility.yul\":12880:12883   */\n      dup3\n        /* \"#utility.yul\":12876:12888   */\n      add\n        /* \"#utility.yul\":12869:12888   */\n      swap1\n      pop\n        /* \"#utility.yul\":12528:12894   */\n      swap2\n      swap1\n      pop\n      jump\t// out\n        /* \"#utility.yul\":12900:13319   */\n    tag_193:\n        /* \"#utility.yul\":13066:13070   */\n      0x00\n        /* \"#utility.yul\":13104:13106   */\n      0x20\n        /* \"#utility.yul\":13093:13102   */\n      dup3\n        /* \"#utility.yul\":13089:13107   */\n      add\n        /* \"#utility.yul\":13081:13107   */\n      swap1\n      pop\n        /* \"#utility.yul\":13153:13162   */\n      dup2\n        /* \"#utility.yul\":13147:13151   */\n      dup2\n        /* \"#utility.yul\":13143:13163   */\n      sub\n        /* \"#utility.yul\":13139:13140   */\n      0x00\n        /* \"#utility.yul\":13128:13137   */\n      dup4\n        /* \"#utility.yul\":13124:13141   */\n      add\n        /* \"#utility.yul\":13117:13164   */\n      mstore\n        /* \"#utility.yul\":13181:13312   */\n      tag_669\n        /* \"#utility.yul\":13307:13311   */\n      dup2\n        /* \"#utility.yul\":13181:13312   */\n      tag_485\n      jump\t// in\n    tag_669:\n        /* \"#utility.yul\":13173:13312   */\n      swap1\n      pop\n        /* \"#utility.yul\":12900:13319   */\n      swap2\n      swap1\n      pop\n      jump\t// out\n        /* \"#utility.yul\":13325:13767   */\n    tag_195:\n        /* \"#utility.yul\":13474:13478   */\n      0x00\n        /* \"#utility.yul\":13512:13514   */\n      0x60\n        /* \"#utility.yul\":13501:13510   */\n      dup3\n        /* \"#utility.yul\":13497:13515   */\n      add\n        /* \"#utility.yul\":13489:13515   */\n      swap1\n      pop\n        /* \"#utility.yul\":13525:13596   */\n      tag_671\n        /* \"#utility.yul\":13593:13594   */\n      0x00\n        /* \"#utility.yul\":13582:13591   */\n      dup4\n        /* \"#utility.yul\":13578:13595   */\n      add\n        /* \"#utility.yul\":13569:13575   */\n      dup7\n        /* \"#utility.yul\":13525:13596   */\n      tag_467\n      jump\t// in\n    tag_671:\n        /* \"#utility.yul\":13606:13678   */\n      tag_672\n        /* \"#utility.yul\":13674:13676   */\n      0x20\n        /* \"#utility.yul\":13663:13672   */\n      dup4\n        /* \"#utility.yul\":13659:13677   */\n      add\n        /* \"#utility.yul\":13650:13656   */\n      dup6\n        /* \"#utility.yul\":13606:13678   */\n      tag_467\n      jump\t// in\n    tag_672:\n        /* \"#utility.yul\":13688:13760   */\n      tag_673\n        /* \"#utility.yul\":13756:13758   */\n      0x40\n        /* \"#utility.yul\":13745:13754   */\n      dup4\n        /* \"#utility.yul\":13741:13759   */\n      add\n        /* \"#utility.yul\":13732:13738   */\n      dup5\n        /* \"#utility.yul\":13688:13760   */\n      tag_455\n      jump\t// in\n    tag_673:\n        /* \"#utility.yul\":13325:13767   */\n      swap5\n      swap4\n      pop\n      pop\n      pop\n      pop\n      jump\t// out\n        /* \"#utility.yul\":13773:13910   */\n    tag_486:\n        /* \"#utility.yul\":13827:13832   */\n      0x00\n        /* \"#utility.yul\":13858:13864   */\n      dup2\n        /* \"#utility.yul\":13852:13865   */\n      mload\n        /* \"#utility.yul\":13843:13865   */\n      swap1\n      pop\n        /* \"#utility.yul\":13874:13904   */\n      tag_675\n        /* \"#utility.yul\":13898:13903   */\n      dup2\n        /* \"#utility.yul\":13874:13904   */\n      tag_465\n      jump\t// in\n    tag_675:\n        /* \"#utility.yul\":13773:13910   */\n      swap3\n      swap2\n      pop\n      pop\n      jump\t// out\n        /* \"#utility.yul\":13916:14261   */\n    tag_199:\n        /* \"#utility.yul\":13983:13989   */\n      0x00\n        /* \"#utility.yul\":14032:14034   */\n      0x20\n        /* \"#utility.yul\":14020:14029   */\n      dup3\n        /* \"#utility.yul\":14011:14018   */\n      dup5\n        /* \"#utility.yul\":14007:14030   */\n      sub\n        /* \"#utility.yul\":14003:14035   */\n      slt\n        /* \"#utility.yul\":14000:14119   */\n      iszero\n      tag_677\n      jumpi\n        /* \"#utility.yul\":14038:14117   */\n      tag_678\n      tag_448\n      jump\t// in\n    tag_678:\n        /* \"#utility.yul\":14000:14119   */\n    tag_677:\n        /* \"#utility.yul\":14158:14159   */\n      0x00\n        /* \"#utility.yul\":14183:14244   */\n      tag_679\n        /* \"#utility.yul\":14236:14243   */\n      dup5\n        /* \"#utility.yul\":14227:14233   */\n      dup3\n        /* \"#utility.yul\":14216:14225   */\n      dup6\n        /* \"#utility.yul\":14212:14234   */\n      add\n        /* \"#utility.yul\":14183:14244   */\n      tag_486\n      jump\t// in\n    tag_679:\n        /* \"#utility.yul\":14173:14244   */\n      swap2\n      pop\n        /* \"#utility.yul\":14129:14254   */\n      pop\n        /* \"#utility.yul\":13916:14261   */\n      swap3\n      swap2\n      pop\n      pop\n      jump\t// out\n        /* \"#utility.yul\":14267:14432   */\n    tag_487:\n        /* \"#utility.yul\":14407:14424   */\n      0x5472616e73666572206661696c65640000000000000000000000000000000000\n        /* \"#utility.yul\":14403:14404   */\n      0x00\n        /* \"#utility.yul\":14395:14401   */\n      dup3\n        /* \"#utility.yul\":14391:14405   */\n      add\n        /* \"#utility.yul\":14384:14425   */\n      mstore\n        /* \"#utility.yul\":14267:14432   */\n      pop\n      jump\t// out\n        /* \"#utility.yul\":14438:14804   */\n    tag_488:\n        /* \"#utility.yul\":14580:14583   */\n      0x00\n        /* \"#utility.yul\":14601:14668   */\n      tag_682\n        /* \"#utility.yul\":14665:14667   */\n      0x0f\n        /* \"#utility.yul\":14660:14663   */\n      dup4\n        /* \"#utility.yul\":14601:14668   */\n      tag_481\n      jump\t// in\n    tag_682:\n        /* \"#utility.yul\":14594:14668   */\n      swap2\n      pop\n        /* \"#utility.yul\":14677:14770   */\n      tag_683\n        /* \"#utility.yul\":14766:14769   */\n      dup3\n        /* \"#utility.yul\":14677:14770   */\n      tag_487\n      jump\t// in\n    tag_683:\n        /* \"#utility.yul\":14795:14797   */\n      0x20\n        /* \"#utility.yul\":14790:14793   */\n      dup3\n        /* \"#utility.yul\":14786:14798   */\n      add\n        /* \"#utility.yul\":14779:14798   */\n      swap1\n      pop\n        /* \"#utility.yul\":14438:14804   */\n      swap2\n      swap1\n      pop\n      jump\t// out\n        /* \"#utility.yul\":14810:15229   */\n    tag_202:\n        /* \"#utility.yul\":14976:14980   */\n      0x00\n        /* \"#utility.yul\":15014:15016   */\n      0x20\n        /* \"#utility.yul\":15003:15012   */\n      dup3\n        /* \"#utility.yul\":14999:15017   */\n      add\n        /* \"#utility.yul\":14991:15017   */\n      swap1\n      pop\n        /* \"#utility.yul\":15063:15072   */\n      dup2\n        /* \"#utility.yul\":15057:15061   */\n      dup2\n        /* \"#utility.yul\":15053:15073   */\n      sub\n        /* \"#utility.yul\":15049:15050   */\n      0x00\n        /* \"#utility.yul\":15038:15047   */\n      dup4\n        /* \"#utility.yul\":15034:15051   */\n      add\n        /* \"#utility.yul\":15027:15074   */\n      mstore\n        /* \"#utility.yul\":15091:15222   */\n      tag_685\n        /* \"#utility.yul\":15217:15221   */\n      dup2\n        /* \"#utility.yul\":15091:15222   */\n      tag_488\n      jump\t// in\n    tag_685:\n        /* \"#utility.yul\":15083:15222   */\n      swap1\n      pop\n        /* \"#utility.yul\":14810:15229   */\n      swap2\n      swap1\n      pop\n      jump\t// out\n        /* \"#utility.yul\":15235:15415   */\n    tag_489:\n        /* \"#utility.yul\":15283:15360   */\n      0x4e487b7100000000000000000000000000000000000000000000000000000000\n        /* \"#utility.yul\":15280:15281   */\n      0x00\n        /* \"#utility.yul\":15273:15361   */\n      mstore\n        /* \"#utility.yul\":15380:15384   */\n      0x11\n        /* \"#utility.yul\":15377:15378   */\n      0x04\n        /* \"#utility.yul\":15370:15385   */\n      mstore\n        /* \"#utility.yul\":15404:15408   */\n      0x24\n        /* \"#utility.yul\":15401:15402   */\n      0x00\n        /* \"#utility.yul\":15394:15409   */\n      revert\n        /* \"#utility.yul\":15421:15612   */\n    tag_206:\n        /* \"#utility.yul\":15461:15464   */\n      0x00\n        /* \"#utility.yul\":15480:15500   */\n      tag_688\n        /* \"#utility.yul\":15498:15499   */\n      dup3\n        /* \"#utility.yul\":15480:15500   */\n      tag_454\n      jump\t// in\n    tag_688:\n        /* \"#utility.yul\":15475:15500   */\n      swap2\n      pop\n        /* \"#utility.yul\":15514:15534   */\n      tag_689\n        /* \"#utility.yul\":15532:15533   */\n      dup4\n        /* \"#utility.yul\":15514:15534   */\n      tag_454\n      jump\t// in\n    tag_689:\n        /* \"#utility.yul\":15509:15534   */\n      swap3\n      pop\n        /* \"#utility.yul\":15557:15558   */\n      dup3\n        /* \"#utility.yul\":15554:15555   */\n      dup3\n        /* \"#utility.yul\":15550:15559   */\n      add\n        /* \"#utility.yul\":15543:15559   */\n      swap1\n      pop\n        /* \"#utility.yul\":15578:15581   */\n      dup1\n        /* \"#utility.yul\":15575:15576   */\n      dup3\n        /* \"#utility.yul\":15572:15582   */\n      gt\n        /* \"#utility.yul\":15569:15605   */\n      iszero\n      tag_690\n      jumpi\n        /* \"#utility.yul\":15585:15603   */\n      tag_691\n      tag_489\n      jump\t// in\n    tag_691:\n        /* \"#utility.yul\":15569:15605   */\n    tag_690:\n        /* \"#utility.yul\":15421:15612   */\n      swap3\n      swap2\n      pop\n      pop\n      jump\t// out\n        /* \"#utility.yul\":15618:15794   */\n    tag_490:\n        /* \"#utility.yul\":15758:15786   */\n      0x496e73756666696369656e74207374616b656420616d6f756e74000000000000\n        /* \"#utility.yul\":15754:15755   */\n      0x00\n        /* \"#utility.yul\":15746:15752   */\n      dup3\n        /* \"#utility.yul\":15742:15756   */\n      add\n        /* \"#utility.yul\":15735:15787   */\n      mstore\n        /* \"#utility.yul\":15618:15794   */\n      pop\n      jump\t// out\n        /* \"#utility.yul\":15800:16166   */\n    tag_491:\n        /* \"#utility.yul\":15942:15945   */\n      0x00\n        /* \"#utility.yul\":15963:16030   */\n      tag_694\n        /* \"#utility.yul\":16027:16029   */\n      0x1a\n        /* \"#utility.yul\":16022:16025   */\n      dup4\n        /* \"#utility.yul\":15963:16030   */\n      tag_481\n      jump\t// in\n    tag_694:\n        /* \"#utility.yul\":15956:16030   */\n      swap2\n      pop\n        /* \"#utility.yul\":16039:16132   */\n      tag_695\n        /* \"#utility.yul\":16128:16131   */\n      dup3\n        /* \"#utility.yul\":16039:16132   */\n      tag_490\n      jump\t// in\n    tag_695:\n        /* \"#utility.yul\":16157:16159   */\n      0x20\n        /* \"#utility.yul\":16152:16155   */\n      dup3\n        /* \"#utility.yul\":16148:16160   */\n      add\n        /* \"#utility.yul\":16141:16160   */\n      swap1\n      pop\n        /* \"#utility.yul\":15800:16166   */\n      swap2\n      swap1\n      pop\n      jump\t// out\n        /* \"#utility.yul\":16172:16591   */\n    tag_226:\n        /* \"#utility.yul\":16338:16342   */\n      0x00\n        /* \"#utility.yul\":16376:16378   */\n      0x20\n        /* \"#utility.yul\":16365:16374   */\n      dup3\n        /* \"#utility.yul\":16361:16379   */\n      add\n        /* \"#utility.yul\":16353:16379   */\n      swap1\n      pop\n        /* \"#utility.yul\":16425:16434   */\n      dup2\n        /* \"#utility.yul\":16419:16423   */\n      dup2\n        /* \"#utility.yul\":16415:16435   */\n      sub\n        /* \"#utility.yul\":16411:16412   */\n      0x00\n        /* \"#utility.yul\":16400:16409   */\n      dup4\n        /* \"#utility.yul\":16396:16413   */\n      add\n        /* \"#utility.yul\":16389:16436   */\n      mstore\n        /* \"#utility.yul\":16453:16584   */\n      tag_697\n        /* \"#utility.yul\":16579:16583   */\n      dup2\n        /* \"#utility.yul\":16453:16584   */\n      tag_491\n      jump\t// in\n    tag_697:\n        /* \"#utility.yul\":16445:16584   */\n      swap1\n      pop\n        /* \"#utility.yul\":16172:16591   */\n      swap2\n      swap1\n      pop\n      jump\t// out\n        /* \"#utility.yul\":16597:17007   */\n    tag_230:\n        /* \"#utility.yul\":16637:16644   */\n      0x00\n        /* \"#utility.yul\":16660:16680   */\n      tag_699\n        /* \"#utility.yul\":16678:16679   */\n      dup3\n        /* \"#utility.yul\":16660:16680   */\n      tag_454\n      jump\t// in\n    tag_699:\n        /* \"#utility.yul\":16655:16680   */\n      swap2\n      pop\n        /* \"#utility.yul\":16694:16714   */\n      tag_700\n        /* \"#utility.yul\":16712:16713   */\n      dup4\n        /* \"#utility.yul\":16694:16714   */\n      tag_454\n      jump\t// in\n    tag_700:\n        /* \"#utility.yul\":16689:16714   */\n      swap3\n      pop\n        /* \"#utility.yul\":16749:16750   */\n      dup3\n        /* \"#utility.yul\":16746:16747   */\n      dup3\n        /* \"#utility.yul\":16742:16751   */\n      mul\n        /* \"#utility.yul\":16771:16801   */\n      tag_701\n        /* \"#utility.yul\":16789:16800   */\n      dup2\n        /* \"#utility.yul\":16771:16801   */\n      tag_454\n      jump\t// in\n    tag_701:\n        /* \"#utility.yul\":16760:16801   */\n      swap2\n      pop\n        /* \"#utility.yul\":16950:16951   */\n      dup3\n        /* \"#utility.yul\":16941:16948   */\n      dup3\n        /* \"#utility.yul\":16937:16952   */\n      div\n        /* \"#utility.yul\":16934:16935   */\n      dup5\n        /* \"#utility.yul\":16931:16953   */\n      eq\n        /* \"#utility.yul\":16911:16912   */\n      dup4\n        /* \"#utility.yul\":16904:16913   */\n      iszero\n        /* \"#utility.yul\":16884:16967   */\n      or\n        /* \"#utility.yul\":16861:17000   */\n      tag_702\n      jumpi\n        /* \"#utility.yul\":16980:16998   */\n      tag_703\n      tag_489\n      jump\t// in\n    tag_703:\n        /* \"#utility.yul\":16861:17000   */\n    tag_702:\n        /* \"#utility.yul\":16645:17007   */\n      pop\n        /* \"#utility.yul\":16597:17007   */\n      swap3\n      swap2\n      pop\n      pop\n      jump\t// out\n        /* \"#utility.yul\":17013:17193   */\n    tag_492:\n        /* \"#utility.yul\":17061:17138   */\n      0x4e487b7100000000000000000000000000000000000000000000000000000000\n        /* \"#utility.yul\":17058:17059   */\n      0x00\n        /* \"#utility.yul\":17051:17139   */\n      mstore\n        /* \"#utility.yul\":17158:17162   */\n      0x12\n        /* \"#utility.yul\":17155:17156   */\n      0x04\n        /* \"#utility.yul\":17148:17163   */\n      mstore\n        /* \"#utility.yul\":17182:17186   */\n      0x24\n        /* \"#utility.yul\":17179:17180   */\n      0x00\n        /* \"#utility.yul\":17172:17187   */\n      revert\n        /* \"#utility.yul\":17199:17384   */\n    tag_232:\n        /* \"#utility.yul\":17239:17240   */\n      0x00\n        /* \"#utility.yul\":17256:17276   */\n      tag_706\n        /* \"#utility.yul\":17274:17275   */\n      dup3\n        /* \"#utility.yul\":17256:17276   */\n      tag_454\n      jump\t// in\n    tag_706:\n        /* \"#utility.yul\":17251:17276   */\n      swap2\n      pop\n        /* \"#utility.yul\":17290:17310   */\n      tag_707\n        /* \"#utility.yul\":17308:17309   */\n      dup4\n        /* \"#utility.yul\":17290:17310   */\n      tag_454\n      jump\t// in\n    tag_707:\n        /* \"#utility.yul\":17285:17310   */\n      swap3\n      pop\n        /* \"#utility.yul\":17329:17330   */\n      dup3\n        /* \"#utility.yul\":17319:17354   */\n      tag_708\n      jumpi\n        /* \"#utility.yul\":17334:17352   */\n      tag_709\n      tag_492\n      jump\t// in\n    tag_709:\n        /* \"#utility.yul\":17319:17354   */\n    tag_708:\n        /* \"#utility.yul\":17376:17377   */\n      dup3\n        /* \"#utility.yul\":17373:17374   */\n      dup3\n        /* \"#utility.yul\":17369:17378   */\n      div\n        /* \"#utility.yul\":17364:17378   */\n      swap1\n      pop\n        /* \"#utility.yul\":17199:17384   */\n      swap3\n      swap2\n      pop\n      pop\n      jump\t// out\n        /* \"#utility.yul\":17390:17584   */\n    tag_234:\n        /* \"#utility.yul\":17430:17434   */\n      0x00\n        /* \"#utility.yul\":17450:17470   */\n      tag_711\n        /* \"#utility.yul\":17468:17469   */\n      dup3\n        /* \"#utility.yul\":17450:17470   */\n      tag_454\n      jump\t// in\n    tag_711:\n        /* \"#utility.yul\":17445:17470   */\n      swap2\n      pop\n        /* \"#utility.yul\":17484:17504   */\n      tag_712\n        /* \"#utility.yul\":17502:17503   */\n      dup4\n        /* \"#utility.yul\":17484:17504   */\n      tag_454\n      jump\t// in\n    tag_712:\n        /* \"#utility.yul\":17479:17504   */\n      swap3\n      pop\n        /* \"#utility.yul\":17528:17529   */\n      dup3\n        /* \"#utility.yul\":17525:17526   */\n      dup3\n        /* \"#utility.yul\":17521:17530   */\n      sub\n        /* \"#utility.yul\":17513:17530   */\n      swap1\n      pop\n        /* \"#utility.yul\":17552:17553   */\n      dup2\n        /* \"#utility.yul\":17546:17550   */\n      dup2\n        /* \"#utility.yul\":17543:17554   */\n      gt\n        /* \"#utility.yul\":17540:17577   */\n      iszero\n      tag_713\n      jumpi\n        /* \"#utility.yul\":17557:17575   */\n      tag_714\n      tag_489\n      jump\t// in\n    tag_714:\n        /* \"#utility.yul\":17540:17577   */\n    tag_713:\n        /* \"#utility.yul\":17390:17584   */\n      swap3\n      swap2\n      pop\n      pop\n      jump\t// out\n        /* \"#utility.yul\":17590:17922   */\n    tag_237:\n        /* \"#utility.yul\":17711:17715   */\n      0x00\n        /* \"#utility.yul\":17749:17751   */\n      0x40\n        /* \"#utility.yul\":17738:17747   */\n      dup3\n        /* \"#utility.yul\":17734:17752   */\n      add\n        /* \"#utility.yul\":17726:17752   */\n      swap1\n      pop\n        /* \"#utility.yul\":17762:17833   */\n      tag_716\n        /* \"#utility.yul\":17830:17831   */\n      0x00\n        /* \"#utility.yul\":17819:17828   */\n      dup4\n        /* \"#utility.yul\":17815:17832   */\n      add\n        /* \"#utility.yul\":17806:17812   */\n      dup6\n        /* \"#utility.yul\":17762:17833   */\n      tag_467\n      jump\t// in\n    tag_716:\n        /* \"#utility.yul\":17843:17915   */\n      tag_717\n        /* \"#utility.yul\":17911:17913   */\n      0x20\n        /* \"#utility.yul\":17900:17909   */\n      dup4\n        /* \"#utility.yul\":17896:17914   */\n      add\n        /* \"#utility.yul\":17887:17893   */\n      dup5\n        /* \"#utility.yul\":17843:17915   */\n      tag_455\n      jump\t// in\n    tag_717:\n        /* \"#utility.yul\":17590:17922   */\n      swap4\n      swap3\n      pop\n      pop\n      pop\n      jump\t// out\n        /* \"#utility.yul\":17928:18260   */\n    tag_248:\n        /* \"#utility.yul\":18049:18053   */\n      0x00\n        /* \"#utility.yul\":18087:18089   */\n      0x40\n        /* \"#utility.yul\":18076:18085   */\n      dup3\n        /* \"#utility.yul\":18072:18090   */\n      add\n        /* \"#utility.yul\":18064:18090   */\n      swap1\n      pop\n        /* \"#utility.yul\":18100:18171   */\n      tag_719\n        /* \"#utility.yul\":18168:18169   */\n      0x00\n        /* \"#utility.yul\":18157:18166   */\n      dup4\n        /* \"#utility.yul\":18153:18170   */\n      add\n        /* \"#utility.yul\":18144:18150   */\n      dup6\n        /* \"#utility.yul\":18100:18171   */\n      tag_455\n      jump\t// in\n    tag_719:\n        /* \"#utility.yul\":18181:18253   */\n      tag_720\n        /* \"#utility.yul\":18249:18251   */\n      0x20\n        /* \"#utility.yul\":18238:18247   */\n      dup4\n        /* \"#utility.yul\":18234:18252   */\n      add\n        /* \"#utility.yul\":18225:18231   */\n      dup5\n        /* \"#utility.yul\":18181:18253   */\n      tag_455\n      jump\t// in\n    tag_720:\n        /* \"#utility.yul\":17928:18260   */\n      swap4\n      swap3\n      pop\n      pop\n      pop\n      jump\t// out\n        /* \"#utility.yul\":18266:18435   */\n    tag_493:\n        /* \"#utility.yul\":18406:18427   */\n      0x416c726561647920696e697469616c697a656400000000000000000000000000\n        /* \"#utility.yul\":18402:18403   */\n      0x00\n        /* \"#utility.yul\":18394:18400   */\n      dup3\n        /* \"#utility.yul\":18390:18404   */\n      add\n        /* \"#utility.yul\":18383:18428   */\n      mstore\n        /* \"#utility.yul\":18266:18435   */\n      pop\n      jump\t// out\n        /* \"#utility.yul\":18441:18807   */\n    tag_494:\n        /* \"#utility.yul\":18583:18586   */\n      0x00\n        /* \"#utility.yul\":18604:18671   */\n      tag_723\n        /* \"#utility.yul\":18668:18670   */\n      0x13\n        /* \"#utility.yul\":18663:18666   */\n      dup4\n        /* \"#utility.yul\":18604:18671   */\n      tag_481\n      jump\t// in\n    tag_723:\n        /* \"#utility.yul\":18597:18671   */\n      swap2\n      pop\n        /* \"#utility.yul\":18680:18773   */\n      tag_724\n        /* \"#utility.yul\":18769:18772   */\n      dup3\n        /* \"#utility.yul\":18680:18773   */\n      tag_493\n      jump\t// in\n    tag_724:\n        /* \"#utility.yul\":18798:18800   */\n      0x20\n        /* \"#utility.yul\":18793:18796   */\n      dup3\n        /* \"#utility.yul\":18789:18801   */\n      add\n        /* \"#utility.yul\":18782:18801   */\n      swap1\n      pop\n        /* \"#utility.yul\":18441:18807   */\n      swap2\n      swap1\n      pop\n      jump\t// out\n        /* \"#utility.yul\":18813:19232   */\n    tag_268:\n        /* \"#utility.yul\":18979:18983   */\n      0x00\n        /* \"#utility.yul\":19017:19019   */\n      0x20\n        /* \"#utility.yul\":19006:19015   */\n      dup3\n        /* \"#utility.yul\":19002:19020   */\n      add\n        /* \"#utility.yul\":18994:19020   */\n      swap1\n      pop\n        /* \"#utility.yul\":19066:19075   */\n      dup2\n        /* \"#utility.yul\":19060:19064   */\n      dup2\n        /* \"#utility.yul\":19056:19076   */\n      sub\n        /* \"#utility.yul\":19052:19053   */\n      0x00\n        /* \"#utility.yul\":19041:19050   */\n      dup4\n        /* \"#utility.yul\":19037:19054   */\n      add\n        /* \"#utility.yul\":19030:19077   */\n      mstore\n        /* \"#utility.yul\":19094:19225   */\n      tag_726\n        /* \"#utility.yul\":19220:19224   */\n      dup2\n        /* \"#utility.yul\":19094:19225   */\n      tag_494\n      jump\t// in\n    tag_726:\n        /* \"#utility.yul\":19086:19225   */\n      swap1\n      pop\n        /* \"#utility.yul\":18813:19232   */\n      swap2\n      swap1\n      pop\n      jump\t// out\n        /* \"#utility.yul\":19238:19401   */\n    tag_495:\n        /* \"#utility.yul\":19378:19393   */\n      0x496e76616c6964206e6f6e636500000000000000000000000000000000000000\n        /* \"#utility.yul\":19374:19375   */\n      0x00\n        /* \"#utility.yul\":19366:19372   */\n      dup3\n        /* \"#utility.yul\":19362:19376   */\n      add\n        /* \"#utility.yul\":19355:19394   */\n      mstore\n        /* \"#utility.yul\":19238:19401   */\n      pop\n      jump\t// out\n        /* \"#utility.yul\":19407:19773   */\n    tag_496:\n        /* \"#utility.yul\":19549:19552   */\n      0x00\n        /* \"#utility.yul\":19570:19637   */\n      tag_729\n        /* \"#utility.yul\":19634:19636   */\n      0x0d\n        /* \"#utility.yul\":19629:19632   */\n      dup4\n        /* \"#utility.yul\":19570:19637   */\n      tag_481\n      jump\t// in\n    tag_729:\n        /* \"#utility.yul\":19563:19637   */\n      swap2\n      pop\n        /* \"#utility.yul\":19646:19739   */\n      tag_730\n        /* \"#utility.yul\":19735:19738   */\n      dup3\n        /* \"#utility.yul\":19646:19739   */\n      tag_495\n      jump\t// in\n    tag_730:\n        /* \"#utility.yul\":19764:19766   */\n      0x20\n        /* \"#utility.yul\":19759:19762   */\n      dup3\n        /* \"#utility.yul\":19755:19767   */\n      add\n        /* \"#utility.yul\":19748:19767   */\n      swap1\n      pop\n        /* \"#utility.yul\":19407:19773   */\n      swap2\n      swap1\n      pop\n      jump\t// out\n        /* \"#utility.yul\":19779:20198   */\n    tag_280:\n        /* \"#utility.yul\":19945:19949   */\n      0x00\n        /* \"#utility.yul\":19983:19985   */\n      0x20\n        /* \"#utility.yul\":19972:19981   */\n      dup3\n        /* \"#utility.yul\":19968:19986   */\n      add\n        /* \"#utility.yul\":19960:19986   */\n      swap1\n      pop\n        /* \"#utility.yul\":20032:20041   */\n      dup2\n        /* \"#utility.yul\":20026:20030   */\n      dup2\n        /* \"#utility.yul\":20022:20042   */\n      sub\n        /* \"#utility.yul\":20018:20019   */\n      0x00\n        /* \"#utility.yul\":20007:20016   */\n      dup4\n        /* \"#utility.yul\":20003:20020   */\n      add\n        /* \"#utility.yul\":19996:20043   */\n      mstore\n        /* \"#utility.yul\":20060:20191   */\n      tag_732\n        /* \"#utility.yul\":20186:20190   */\n      dup2\n        /* \"#utility.yul\":20060:20191   */\n      tag_496\n      jump\t// in\n    tag_732:\n        /* \"#utility.yul\":20052:20191   */\n      swap1\n      pop\n        /* \"#utility.yul\":19779:20198   */\n      swap2\n      swap1\n      pop\n      jump\t// out\n        /* \"#utility.yul\":20204:20437   */\n    tag_282:\n        /* \"#utility.yul\":20243:20246   */\n      0x00\n        /* \"#utility.yul\":20266:20290   */\n      tag_734\n        /* \"#utility.yul\":20284:20289   */\n      dup3\n        /* \"#utility.yul\":20266:20290   */\n      tag_454\n      jump\t// in\n    tag_734:\n        /* \"#utility.yul\":20257:20290   */\n      swap2\n      pop\n        /* \"#utility.yul\":20312:20378   */\n      0xffffffffffffffffffffffffffffffffffffffffffffffffffffffffffffffff\n        /* \"#utility.yul\":20305:20310   */\n      dup3\n        /* \"#utility.yul\":20302:20379   */\n      sub\n        /* \"#utility.yul\":20299:20402   */\n      tag_735\n      jumpi\n        /* \"#utility.yul\":20382:20400   */\n      tag_736\n      tag_489\n      jump\t// in\n    tag_736:\n        /* \"#utility.yul\":20299:20402   */\n    tag_735:\n        /* \"#utility.yul\":20429:20430   */\n      0x01\n        /* \"#utility.yul\":20422:20427   */\n      dup3\n        /* \"#utility.yul\":20418:20431   */\n      add\n        /* \"#utility.yul\":20411:20431   */\n      swap1\n      pop\n        /* \"#utility.yul\":20204:20437   */\n      swap2\n      swap1\n      pop\n      jump\t// out\n        /* \"#utility.yul\":20443:20607   */\n    tag_497:\n        /* \"#utility.yul\":20583:20599   */\n      0x4e6f207374616b6520666f756e64000000000000000000000000000000000000\n        /* \"#utility.yul\":20579:20580   */\n      0x00\n        /* \"#utility.yul\":20571:20577   */\n      dup3\n        /* \"#utility.yul\":20567:20581   */\n      add\n        /* \"#utility.yul\":20560:20600   */\n      mstore\n        /* \"#utility.yul\":20443:20607   */\n      pop\n      jump\t// out\n        /* \"#utility.yul\":20613:20979   */\n    tag_498:\n        /* \"#utility.yul\":20755:20758   */\n      0x00\n        /* \"#utility.yul\":20776:20843   */\n      tag_739\n        /* \"#utility.yul\":20840:20842   */\n      0x0e\n        /* \"#utility.yul\":20835:20838   */\n      dup4\n        /* \"#utility.yul\":20776:20843   */\n      tag_481\n      jump\t// in\n    tag_739:\n        /* \"#utility.yul\":20769:20843   */\n      swap2\n      pop\n        /* \"#utility.yul\":20852:20945   */\n      tag_740\n        /* \"#utility.yul\":20941:20944   */\n      dup3\n        /* \"#utility.yul\":20852:20945   */\n      tag_497\n      jump\t// in\n    tag_740:\n        /* \"#utility.yul\":20970:20972   */\n      0x20\n        /* \"#utility.yul\":20965:20968   */\n      dup3\n        /* \"#utility.yul\":20961:20973   */\n      add\n        /* \"#utility.yul\":20954:20973   */\n      swap1\n      pop\n        /* \"#utility.yul\":20613:20979   */\n      swap2\n      swap1\n      pop\n      jump\t// out\n        /* \"#utility.yul\":20985:21404   */\n    tag_285:\n        /* \"#utility.yul\":21151:21155   */\n      0x00\n        /* \"#utility.yul\":21189:21191   */\n      0x20\n        /* \"#utility.yul\":21178:21187   */\n      dup3\n        /* \"#utility.yul\":21174:21192   */\n      add\n        /* \"#utility.yul\":21166:21192   */\n      swap1\n      pop\n        /* \"#utility.yul\":21238:21247   */\n      dup2\n        /* \"#utility.yul\":21232:21236   */\n      dup2\n        /* \"#utility.yul\":21228:21248   */\n      sub\n        /* \"#utility.yul\":21224:21225   */\n      0x00\n        /* \"#utility.yul\":21213:21222   */\n      dup4\n        /* \"#utility.yul\":21209:21226   */\n      add\n        /* \"#utility.yul\":21202:21249   */\n      mstore\n        /* \"#utility.yul\":21266:21397   */\n      tag_742\n        /* \"#utility.yul\":21392:21396   */\n      dup2\n        /* \"#utility.yul\":21266:21397   */\n      tag_498\n      jump\t// in\n    tag_742:\n        /* \"#utility.yul\":21258:21397   */\n      swap1\n      pop\n        /* \"#utility.yul\":20985:21404   */\n      swap2\n      swap1\n      pop\n      jump\t// out\n        /* \"#utility.yul\":21410:21575   */\n    tag_499:\n        /* \"#utility.yul\":21550:21567   */\n      0x4e6f2074696d6520656c61707365640000000000000000000000000000000000\n        /* \"#utility.yul\":21546:21547   */\n      0x00\n        /* \"#utility.yul\":21538:21544   */\n      dup3\n        /* \"#utility.yul\":21534:21548   */\n      add\n        /* \"#utility.yul\":21527:21568   */\n      mstore\n        /* \"#utility.yul\":21410:21575   */\n      pop\n      jump\t// out\n        /* \"#utility.yul\":21581:21947   */\n    tag_500:\n        /* \"#utility.yul\":21723:21726   */\n      0x00\n        /* \"#utility.yul\":21744:21811   */\n      tag_745\n        /* \"#utility.yul\":21808:21810   */\n      0x0f\n        /* \"#utility.yul\":21803:21806   */\n      dup4\n        /* \"#utility.yul\":21744:21811   */\n      tag_481\n      jump\t// in\n    tag_745:\n        /* \"#utility.yul\":21737:21811   */\n      swap2\n      pop\n        /* \"#utility.yul\":21820:21913   */\n      tag_746\n        /* \"#utility.yul\":21909:21912   */\n      dup3\n        /* \"#utility.yul\":21820:21913   */\n      tag_499\n      jump\t// in\n    tag_746:\n        /* \"#utility.yul\":21938:21940   */\n      0x20\n        /* \"#utility.yul\":21933:21936   */\n      dup3\n        /* \"#utility.yul\":21929:21941   */\n      add\n        /* \"#utility.yul\":21922:21941   */\n      swap1\n      pop\n        /* \"#utility.yul\":21581:21947   */\n      swap2\n      swap1\n      pop\n      jump\t// out\n        /* \"#utility.yul\":21953:22372   */\n    tag_289:\n        /* \"#utility.yul\":22119:22123   */\n      0x00\n        /* \"#utility.yul\":22157:22159   */\n      0x20\n        /* \"#utility.yul\":22146:22155   */\n      dup3\n        /* \"#utility.yul\":22142:22160   */\n      add\n        /* \"#utility.yul\":22134:22160   */\n      swap1\n      pop\n        /* \"#utility.yul\":22206:22215   */\n      dup2\n        /* \"#utility.yul\":22200:22204   */\n      dup2\n        /* \"#utility.yul\":22196:22216   */\n      sub\n        /* \"#utility.yul\":22192:22193   */\n      0x00\n        /* \"#utility.yul\":22181:22190   */\n      dup4\n        /* \"#utility.yul\":22177:22194   */\n      add\n        /* \"#utility.yul\":22170:22217   */\n      mstore\n        /* \"#utility.yul\":22234:22365   */\n      tag_748\n        /* \"#utility.yul\":22360:22364   */\n      dup2\n        /* \"#utility.yul\":22234:22365   */\n      tag_500\n      jump\t// in\n    tag_748:\n        /* \"#utility.yul\":22226:22365   */\n      swap1\n      pop\n        /* \"#utility.yul\":21953:22372   */\n      swap2\n      swap1\n      pop\n      jump\t// out\n        /* \"#utility.yul\":22378:22545   */\n    tag_501:\n        /* \"#utility.yul\":22518:22537   */\n      0x496e76616c6964207369676e6174757265000000000000000000000000000000\n        /* \"#utility.yul\":22514:22515   */\n      0x00\n        /* \"#utility.yul\":22506:22512   */\n      dup3\n        /* \"#utility.yul\":22502:22516   */\n      add\n        /* \"#utility.yul\":22495:22538   */\n      mstore\n        /* \"#utility.yul\":22378:22545   */\n      pop\n      jump\t// out\n        /* \"#utility.yul\":22551:22917   */\n    tag_502:\n        /* \"#utility.yul\":22693:22696   */\n      0x00\n        /* \"#utility.yul\":22714:22781   */\n      tag_751\n        /* \"#utility.yul\":22778:22780   */\n      0x11\n        /* \"#utility.yul\":22773:22776   */\n      dup4\n        /* \"#utility.yul\":22714:22781   */\n      tag_481\n      jump\t// in\n    tag_751:\n        /* \"#utility.yul\":22707:22781   */\n      swap2\n      pop\n        /* \"#utility.yul\":22790:22883   */\n      tag_752\n        /* \"#utility.yul\":22879:22882   */\n      dup3\n        /* \"#utility.yul\":22790:22883   */\n      tag_501\n      jump\t// in\n    tag_752:\n        /* \"#utility.yul\":22908:22910   */\n      0x20\n        /* \"#utility.yul\":22903:22906   */\n      dup3\n        /* \"#utility.yul\":22899:22911   */\n      add\n        /* \"#utility.yul\":22892:22911   */\n      swap1\n      pop\n        /* \"#utility.yul\":22551:22917   */\n      swap2\n      swap1\n      pop\n      jump\t// out\n        /* \"#utility.yul\":22923:23342   */\n    tag_326:\n        /* \"#utility.yul\":23089:23093   */\n      0x00\n        /* \"#utility.yul\":23127:23129   */\n      0x20\n        /* \"#utility.yul\":23116:23125   */\n      dup3\n        /* \"#utility.yul\":23112:23130   */\n      add\n        /* \"#utility.yul\":23104:23130   */\n      swap1\n      pop\n        /* \"#utility.yul\":23176:23185   */\n      dup2\n        /* \"#utility.yul\":23170:23174   */\n      dup2\n        /* \"#utility.yul\":23166:23186   */\n      sub\n        /* \"#utility.yul\":23162:23163   */\n      0x00\n        /* \"#utility.yul\":23151:23160   */\n      dup4\n        /* \"#utility.yul\":23147:23164   */\n      add\n        /* \"#utility.yul\":23140:23187   */\n      mstore\n        /* \"#utility.yul\":23204:23335   */\n      tag_754\n        /* \"#utility.yul\":23330:23334   */\n      dup2\n        /* \"#utility.yul\":23204:23335   */\n      tag_502\n      jump\t// in\n    tag_754:\n        /* \"#utility.yul\":23196:23335   */\n      swap1\n      pop\n        /* \"#utility.yul\":22923:23342   */\n      swap2\n      swap1\n      pop\n      jump\t// out\n        /* \"#utility.yul\":23348:23522   */\n    tag_503:\n        /* \"#utility.yul\":23488:23514   */\n      0x45706f6368206475726174696f6e206e6f7420656e6465640000000000000000\n        /* \"#utility.yul\":23484:23485   */\n      0x00\n        /* \"#utility.yul\":23476:23482   */\n      dup3\n        /* \"#utility.yul\":23472:23486   */\n      add\n        /* \"#utility.yul\":23465:23515   */\n      mstore\n        /* \"#utility.yul\":23348:23522   */\n      pop\n      jump\t// out\n        /* \"#utility.yul\":23528:23894   */\n    tag_504:\n        /* \"#utility.yul\":23670:23673   */\n      0x00\n        /* \"#utility.yul\":23691:23758   */\n      tag_757\n        /* \"#utility.yul\":23755:23757   */\n      0x18\n        /* \"#utility.yul\":23750:23753   */\n      dup4\n        /* \"#utility.yul\":23691:23758   */\n      tag_481\n      jump\t// in\n    tag_757:\n        /* \"#utility.yul\":23684:23758   */\n      swap2\n      pop\n        /* \"#utility.yul\":23767:23860   */\n      tag_758\n        /* \"#utility.yul\":23856:23859   */\n      dup3\n        /* \"#utility.yul\":23767:23860   */\n      tag_503\n      jump\t// in\n    tag_758:\n        /* \"#utility.yul\":23885:23887   */\n      0x20\n        /* \"#utility.yul\":23880:23883   */\n      dup3\n        /* \"#utility.yul\":23876:23888   */\n      add\n        /* \"#utility.yul\":23869:23888   */\n      swap1\n      pop\n        /* \"#utility.yul\":23528:23894   */\n      swap2\n      swap1\n      pop\n      jump\t// out\n        /* \"#utility.yul\":23900:24319   */\n    tag_331:\n        /* \"#utility.yul\":24066:24070   */\n      0x00\n        /* \"#utility.yul\":24104:24106   */\n      0x20\n        /* \"#utility.yul\":24093:24102   */\n      dup3\n        /* \"#utility.yul\":24089:24107   */\n      add\n        /* \"#utility.yul\":24081:24107   */\n      swap1\n      pop\n        /* \"#utility.yul\":24153:24162   */\n      dup2\n        /* \"#utility.yul\":24147:24151   */\n      dup2\n        /* \"#utility.yul\":24143:24163   */\n      sub\n        /* \"#utility.yul\":24139:24140   */\n      0x00\n        /* \"#utility.yul\":24128:24137   */\n      dup4\n        /* \"#utility.yul\":24124:24141   */\n      add\n        /* \"#utility.yul\":24117:24164   */\n      mstore\n        /* \"#utility.yul\":24181:24312   */\n      tag_760\n        /* \"#utility.yul\":24307:24311   */\n      dup2\n        /* \"#utility.yul\":24181:24312   */\n      tag_504\n      jump\t// in\n    tag_760:\n        /* \"#utility.yul\":24173:24312   */\n      swap1\n      pop\n        /* \"#utility.yul\":23900:24319   */\n      swap2\n      swap1\n      pop\n      jump\t// out\n        /* \"#utility.yul\":24325:24493   */\n    tag_505:\n        /* \"#utility.yul\":24465:24485   */\n      0x4e6f2070656e64696e6720726577617264730000000000000000000000000000\n        /* \"#utility.yul\":24461:24462   */\n      0x00\n        /* \"#utility.yul\":24453:24459   */\n      dup3\n        /* \"#utility.yul\":24449:24463   */\n      add\n        /* \"#utility.yul\":24442:24486   */\n      mstore\n        /* \"#utility.yul\":24325:24493   */\n      pop\n      jump\t// out\n        /* \"#utility.yul\":24499:24865   */\n    tag_506:\n        /* \"#utility.yul\":24641:24644   */\n      0x00\n        /* \"#utility.yul\":24662:24729   */\n      tag_763\n        /* \"#utility.yul\":24726:24728   */\n      0x12\n        /* \"#utility.yul\":24721:24724   */\n      dup4\n        /* \"#utility.yul\":24662:24729   */\n      tag_481\n      jump\t// in\n    tag_763:\n        /* \"#utility.yul\":24655:24729   */\n      swap2\n      pop\n        /* \"#utility.yul\":24738:24831   */\n      tag_764\n        /* \"#utility.yul\":24827:24830   */\n      dup3\n        /* \"#utility.yul\":24738:24831   */\n      tag_505\n      jump\t// in\n    tag_764:\n        /* \"#utility.yul\":24856:24858   */\n      0x20\n        /* \"#utility.yul\":24851:24854   */\n      dup3\n        /* \"#utility.yul\":24847:24859   */\n      add\n        /* \"#utility.yul\":24840:24859   */\n      swap1\n      pop\n        /* \"#utility.yul\":24499:24865   */\n      swap2\n      swap1\n      pop\n      jump\t// out\n        /* \"#utility.yul\":24871:25290   */\n    tag_334:\n        /* \"#utility.yul\":25037:25041   */\n      0x00\n        /* \"#utility.yul\":25075:25077   */\n      0x20\n        /* \"#utility.yul\":25064:25073   */\n      dup3\n        /* \"#utility.yul\":25060:25078   */\n      add\n        /* \"#utility.yul\":25052:25078   */\n      swap1\n      pop\n        /* \"#utility.yul\":25124:25133   */\n      dup2\n        /* \"#utility.yul\":25118:25122   */\n      dup2\n        /* \"#utility.yul\":25114:25134   */\n      sub\n        /* \"#utility.yul\":25110:25111   */\n      0x00\n        /* \"#utility.yul\":25099:25108   */\n      dup4\n        /* \"#utility.yul\":25095:25112   */\n      add\n        /* \"#utility.yul\":25088:25135   */\n      mstore\n        /* \"#utility.yul\":25152:25283   */\n      tag_766\n        /* \"#utility.yul\":25278:25282   */\n      dup2\n        /* \"#utility.yul\":25152:25283   */\n      tag_506\n      jump\t// in\n    tag_766:\n        /* \"#utility.yul\":25144:25283   */\n      swap1\n      pop\n        /* \"#utility.yul\":24871:25290   */\n      swap2\n      swap1\n      pop\n      jump\t// out\n        /* \"#utility.yul\":25296:25474   */\n    tag_507:\n        /* \"#utility.yul\":25436:25466   */\n      0x5265776172642065786365656473206d617820636c61696d61626c6500000000\n        /* \"#utility.yul\":25432:25433   */\n      0x00\n        /* \"#utility.yul\":25424:25430   */\n      dup3\n        /* \"#utility.yul\":25420:25434   */\n      add\n        /* \"#utility.yul\":25413:25467   */\n      mstore\n        /* \"#utility.yul\":25296:25474   */\n      pop\n      jump\t// out\n        /* \"#utility.yul\":25480:25846   */\n    tag_508:\n        /* \"#utility.yul\":25622:25625   */\n      0x00\n        /* \"#utility.yul\":25643:25710   */\n      tag_769\n        /* \"#utility.yul\":25707:25709   */\n      0x1c\n        /* \"#utility.yul\":25702:25705   */\n      dup4\n        /* \"#utility.yul\":25643:25710   */\n      tag_481\n      jump\t// in\n    tag_769:\n        /* \"#utility.yul\":25636:25710   */\n      swap2\n      pop\n        /* \"#utility.yul\":25719:25812   */\n      tag_770\n        /* \"#utility.yul\":25808:25811   */\n      dup3\n        /* \"#utility.yul\":25719:25812   */\n      tag_507\n      jump\t// in\n    tag_770:\n        /* \"#utility.yul\":25837:25839   */\n      0x20\n        /* \"#utility.yul\":25832:25835   */\n      dup3\n        /* \"#utility.yul\":25828:25840   */\n      add\n        /* \"#utility.yul\":25821:25840   */\n      swap1\n      pop\n        /* \"#utility.yul\":25480:25846   */\n      swap2\n      swap1\n      pop\n      jump\t// out\n        /* \"#utility.yul\":25852:26271   */\n    tag_337:\n        /* \"#utility.yul\":26018:26022   */\n      0x00\n        /* \"#utility.yul\":26056:26058   */\n      0x20\n        /* \"#utility.yul\":26045:26054   */\n      dup3\n        /* \"#utility.yul\":26041:26059   */\n      add\n        /* \"#utility.yul\":26033:26059   */\n      swap1\n      pop\n        /* \"#utility.yul\":26105:26114   */\n      dup2\n        /* \"#utility.yul\":26099:26103   */\n      dup2\n        /* \"#utility.yul\":26095:26115   */\n      sub\n        /* \"#utility.yul\":26091:26092   */\n      0x00\n        /* \"#utility.yul\":26080:26089   */\n      dup4\n        /* \"#utility.yul\":26076:26093   */\n      add\n        /* \"#utility.yul\":26069:26116   */\n      mstore\n        /* \"#utility.yul\":26133:26264   */\n      tag_772\n        /* \"#utility.yul\":26259:26263   */\n      dup2\n        /* \"#utility.yul\":26133:26264   */\n      tag_508\n      jump\t// in\n    tag_772:\n        /* \"#utility.yul\":26125:26264   */\n      swap1\n      pop\n        /* \"#utility.yul\":25852:26271   */\n      swap2\n      swap1\n      pop\n      jump\t// out\n        /* \"#utility.yul\":26277:26597   */\n    tag_373:\n        /* \"#utility.yul\":26392:26396   */\n      0x00\n        /* \"#utility.yul\":26430:26432   */\n      0x40\n        /* \"#utility.yul\":26419:26428   */\n      dup3\n        /* \"#utility.yul\":26415:26433   */\n      add\n        /* \"#utility.yul\":26407:26433   */\n      swap1\n      pop\n        /* \"#utility.yul\":26443:26514   */\n      tag_774\n        /* \"#utility.yul\":26511:26512   */\n      0x00\n        /* \"#utility.yul\":26500:26509   */\n      dup4\n        /* \"#utility.yul\":26496:26513   */\n      add\n        /* \"#utility.yul\":26487:26493   */\n      dup6\n        /* \"#utility.yul\":26443:26514   */\n      tag_455\n      jump\t// in\n    tag_774:\n        /* \"#utility.yul\":26524:26590   */\n      tag_775\n        /* \"#utility.yul\":26586:26588   */\n      0x20\n        /* \"#utility.yul\":26575:26584   */\n      dup4\n        /* \"#utility.yul\":26571:26589   */\n      add\n        /* \"#utility.yul\":26562:26568   */\n      dup5\n        /* \"#utility.yul\":26524:26590   */\n      tag_464\n      jump\t// in\n    tag_775:\n        /* \"#utility.yul\":26277:26597   */\n      swap4\n      swap3\n      pop\n      pop\n      pop\n      jump\t// out\n        /* \"#utility.yul\":26603:26784   */\n    tag_509:\n        /* \"#utility.yul\":26743:26776   */\n      0x5265656e7472616e637947756172643a207265656e7472616e742063616c6c00\n        /* \"#utility.yul\":26739:26740   */\n      0x00\n        /* \"#utility.yul\":26731:26737   */\n      dup3\n        /* \"#utility.yul\":26727:26741   */\n      add\n        /* \"#utility.yul\":26720:26777   */\n      mstore\n        /* \"#utility.yul\":26603:26784   */\n      pop\n      jump\t// out\n        /* \"#utility.yul\":26790:27156   */\n    tag_510:\n        /* \"#utility.yul\":26932:26935   */\n      0x00\n        /* \"#utility.yul\":26953:27020   */\n      tag_778\n        /* \"#utility.yul\":27017:27019   */\n      0x1f\n        /* \"#utility.yul\":27012:27015   */\n      dup4\n        /* \"#utility.yul\":26953:27020   */\n      tag_481\n      jump\t// in\n    tag_778:\n        /* \"#utility.yul\":26946:27020   */\n      swap2\n      pop\n        /* \"#utility.yul\":27029:27122   */\n      tag_779\n        /* \"#utility.yul\":27118:27121   */\n      dup3\n        /* \"#utility.yul\":27029:27122   */\n      tag_509\n      jump\t// in\n    tag_779:\n        /* \"#utility.yul\":27147:27149   */\n      0x20\n        /* \"#utility.yul\":27142:27145   */\n      dup3\n        /* \"#utility.yul\":27138:27150   */\n      add\n        /* \"#utility.yul\":27131:27150   */\n      swap1\n      pop\n        /* \"#utility.yul\":26790:27156   */\n      swap2\n      swap1\n      pop\n      jump\t// out\n        /* \"#utility.yul\":27162:27581   */\n    tag_384:\n        /* \"#utility.yul\":27328:27332   */\n      0x00\n        /* \"#utility.yul\":27366:27368   */\n      0x20\n        /* \"#utility.yul\":27355:27364   */\n      dup3\n        /* \"#utility.yul\":27351:27369   */\n      add\n        /* \"#utility.yul\":27343:27369   */\n      swap1\n      pop\n        /* \"#utility.yul\":27415:27424   */\n      dup2\n        /* \"#utility.yul\":27409:27413   */\n      dup2\n        /* \"#utility.yul\":27405:27425   */\n      sub\n        /* \"#utility.yul\":27401:27402   */\n      0x00\n        /* \"#utility.yul\":27390:27399   */\n      dup4\n        /* \"#utility.yul\":27386:27403   */\n      add\n        /* \"#utility.yul\":27379:27426   */\n      mstore\n        /* \"#utility.yul\":27443:27574   */\n      tag_781\n        /* \"#utility.yul\":27569:27573   */\n      dup2\n        /* \"#utility.yul\":27443:27574   */\n      tag_510\n      jump\t// in\n    tag_781:\n        /* \"#utility.yul\":27435:27574   */\n      swap1\n      pop\n        /* \"#utility.yul\":27162:27581   */\n      swap2\n      swap1\n      pop\n      jump\t// out\n        /* \"#utility.yul\":27587:27681   */\n    tag_511:\n        /* \"#utility.yul\":27620:27628   */\n      0x00\n        /* \"#utility.yul\":27668:27673   */\n      dup2\n        /* \"#utility.yul\":27664:27666   */\n      0x60\n        /* \"#utility.yul\":27660:27674   */\n      shl\n        /* \"#utility.yul\":27639:27674   */\n      swap1\n      pop\n        /* \"#utility.yul\":27587:27681   */\n      swap2\n      swap1\n      pop\n      jump\t// out\n        /* \"#utility.yul\":27687:27781   */\n    tag_512:\n        /* \"#utility.yul\":27726:27733   */\n      0x00\n        /* \"#utility.yul\":27755:27775   */\n      tag_784\n        /* \"#utility.yul\":27769:27774   */\n      dup3\n        /* \"#utility.yul\":27755:27775   */\n      tag_511\n      jump\t// in\n    tag_784:\n        /* \"#utility.yul\":27744:27775   */\n      swap1\n      pop\n        /* \"#utility.yul\":27687:27781   */\n      swap2\n      swap1\n      pop\n      jump\t// out\n        /* \"#utility.yul\":27787:27887   */\n    tag_513:\n        /* \"#utility.yul\":27826:27833   */\n      0x00\n        /* \"#utility.yul\":27855:27881   */\n      tag_786\n        /* \"#utility.yul\":27875:27880   */\n      dup3\n        /* \"#utility.yul\":27855:27881   */\n      tag_512\n      jump\t// in\n    tag_786:\n        /* \"#utility.yul\":27844:27881   */\n      swap1\n      pop\n        /* \"#utility.yul\":27787:27887   */\n      swap2\n      swap1\n      pop\n      jump\t// out\n        /* \"#utility.yul\":27893:28050   */\n    tag_514:\n        /* \"#utility.yul\":27998:28043   */\n      tag_788\n        /* \"#utility.yul\":28018:28042   */\n      tag_789\n        /* \"#utility.yul\":28036:28041   */\n      dup3\n        /* \"#utility.yul\":28018:28042   */\n      tag_451\n      jump\t// in\n    tag_789:\n        /* \"#utility.yul\":27998:28043   */\n      tag_513\n      jump\t// in\n    tag_788:\n        /* \"#utility.yul\":27993:27996   */\n      dup3\n        /* \"#utility.yul\":27986:28044   */\n      mstore\n        /* \"#utility.yul\":27893:28050   */\n      pop\n      pop\n      jump\t// out\n        /* \"#utility.yul\":28056:28135   */\n    tag_515:\n        /* \"#utility.yul\":28095:28102   */\n      0x00\n        /* \"#utility.yul\":28124:28129   */\n      dup2\n        /* \"#utility.yul\":28113:28129   */\n      swap1\n      pop\n        /* \"#utility.yul\":28056:28135   */\n      swap2\n      swap1\n      pop\n      jump\t// out\n        /* \"#utility.yul\":28141:28298   */\n    tag_516:\n        /* \"#utility.yul\":28246:28291   */\n      tag_792\n        /* \"#utility.yul\":28266:28290   */\n      tag_793\n        /* \"#utility.yul\":28284:28289   */\n      dup3\n        /* \"#utility.yul\":28266:28290   */\n      tag_454\n      jump\t// in\n    tag_793:\n        /* \"#utility.yul\":28246:28291   */\n      tag_515\n      jump\t// in\n    tag_792:\n        /* \"#utility.yul\":28241:28244   */\n      dup3\n        /* \"#utility.yul\":28234:28292   */\n      mstore\n        /* \"#utility.yul\":28141:28298   */\n      pop\n      pop\n      jump\t// out\n        /* \"#utility.yul\":28304:28701   */\n    tag_396:\n        /* \"#utility.yul\":28444:28447   */\n      0x00\n        /* \"#utility.yul\":28459:28534   */\n      tag_795\n        /* \"#utility.yul\":28530:28533   */\n      dup3\n        /* \"#utility.yul\":28521:28527   */\n      dup6\n        /* \"#utility.yul\":28459:28534   */\n      tag_514\n      jump\t// in\n    tag_795:\n        /* \"#utility.yul\":28559:28561   */\n      0x14\n        /* \"#utility.yul\":28554:28557   */\n      dup3\n        /* \"#utility.yul\":28550:28562   */\n      add\n        /* \"#utility.yul\":28543:28562   */\n      swap2\n      pop\n        /* \"#utility.yul\":28572:28647   */\n      tag_796\n        /* \"#utility.yul\":28643:28646   */\n      dup3\n        /* \"#utility.yul\":28634:28640   */\n      dup5\n        /* \"#utility.yul\":28572:28647   */\n      tag_516\n      jump\t// in\n    tag_796:\n        /* \"#utility.yul\":28672:28674   */\n      0x20\n        /* \"#utility.yul\":28667:28670   */\n      dup3\n        /* \"#utility.yul\":28663:28675   */\n      add\n        /* \"#utility.yul\":28656:28675   */\n      swap2\n      pop\n        /* \"#utility.yul\":28692:28695   */\n      dup2\n        /* \"#utility.yul\":28685:28695   */\n      swap1\n      pop\n        /* \"#utility.yul\":28304:28701   */\n      swap4\n      swap3\n      pop\n      pop\n      pop\n      jump\t// out\n        /* \"#utility.yul\":28707:28855   */\n    tag_517:\n        /* \"#utility.yul\":28809:28820   */\n      0x00\n        /* \"#utility.yul\":28846:28849   */\n      dup2\n        /* \"#utility.yul\":28831:28849   */\n      swap1\n      pop\n        /* \"#utility.yul\":28707:28855   */\n      swap3\n      swap2\n      pop\n      pop\n      jump\t// out\n        /* \"#utility.yul\":28861:29075   */\n    tag_518:\n        /* \"#utility.yul\":29001:29067   */\n      0x19457468657265756d205369676e6564204d6573736167653a0a333200000000\n        /* \"#utility.yul\":28997:28998   */\n      0x00\n        /* \"#utility.yul\":28989:28995   */\n      dup3\n        /* \"#utility.yul\":28985:28999   */\n      add\n        /* \"#utility.yul\":28978:29068   */\n      mstore\n        /* \"#utility.yul\":28861:29075   */\n      pop\n      jump\t// out\n        /* \"#utility.yul\":29081:29483   */\n    tag_519:\n        /* \"#utility.yul\":29241:29244   */\n      0x00\n        /* \"#utility.yul\":29262:29347   */\n      tag_800\n        /* \"#utility.yul\":29344:29346   */\n      0x1c\n        /* \"#utility.yul\":29339:29342   */\n      dup4\n        /* \"#utility.yul\":29262:29347   */\n      tag_517\n      jump\t// in\n    tag_800:\n        /* \"#utility.yul\":29255:29347   */\n      swap2\n      pop\n        /* \"#utility.yul\":29356:29449   */\n      tag_801\n        /* \"#utility.yul\":29445:29448   */\n      dup3\n        /* \"#utility.yul\":29356:29449   */\n      tag_518\n      jump\t// in\n    tag_801:\n        /* \"#utility.yul\":29474:29476   */\n      0x1c\n        /* \"#utility.yul\":29469:29472   */\n      dup3\n        /* \"#utility.yul\":29465:29477   */\n      add\n        /* \"#utility.yul\":29458:29477   */\n      swap1\n      pop\n        /* \"#utility.yul\":29081:29483   */\n      swap2\n      swap1\n      pop\n      jump\t// out\n        /* \"#utility.yul\":29489:29566   */\n    tag_520:\n        /* \"#utility.yul\":29526:29533   */\n      0x00\n        /* \"#utility.yul\":29555:29560   */\n      dup2\n        /* \"#utility.yul\":29544:29560   */\n      swap1\n      pop\n        /* \"#utility.yul\":29489:29566   */\n      swap2\n      swap1\n      pop\n      jump\t// out\n        /* \"#utility.yul\":29572:29651   */\n    tag_521:\n        /* \"#utility.yul\":29611:29618   */\n      0x00\n        /* \"#utility.yul\":29640:29645   */\n      dup2\n        /* \"#utility.yul\":29629:29645   */\n      swap1\n      pop\n        /* \"#utility.yul\":29572:29651   */\n      swap2\n      swap1\n      pop\n      jump\t// out\n        /* \"#utility.yul\":29657:29814   */\n    tag_522:\n        /* \"#utility.yul\":29762:29807   */\n      tag_805\n        /* \"#utility.yul\":29782:29806   */\n      tag_806\n        /* \"#utility.yul\":29800:29805   */\n      dup3\n        /* \"#utility.yul\":29782:29806   */\n      tag_520\n      jump\t// in\n    tag_806:\n        /* \"#utility.yul\":29762:29807   */\n      tag_521\n      jump\t// in\n    tag_805:\n        /* \"#utility.yul\":29757:29760   */\n      dup3\n        /* \"#utility.yul\":29750:29808   */\n      mstore\n        /* \"#utility.yul\":29657:29814   */\n      pop\n      pop\n      jump\t// out\n        /* \"#utility.yul\":29820:30342   */\n    tag_398:\n        /* \"#utility.yul\":30033:30036   */\n      0x00\n        /* \"#utility.yul\":30055:30203   */\n      tag_808\n        /* \"#utility.yul\":30199:30202   */\n      dup3\n        /* \"#utility.yul\":30055:30203   */\n      tag_519\n      jump\t// in\n    tag_808:\n        /* \"#utility.yul\":30048:30203   */\n      swap2\n      pop\n        /* \"#utility.yul\":30213:30288   */\n      tag_809\n        /* \"#utility.yul\":30284:30287   */\n      dup3\n        /* \"#utility.yul\":30275:30281   */\n      dup5\n        /* \"#utility.yul\":30213:30288   */\n      tag_522\n      jump\t// in\n    tag_809:\n        /* \"#utility.yul\":30313:30315   */\n      0x20\n        /* \"#utility.yul\":30308:30311   */\n      dup3\n        /* \"#utility.yul\":30304:30316   */\n      add\n        /* \"#utility.yul\":30297:30316   */\n      swap2\n      pop\n        /* \"#utility.yul\":30333:30336   */\n      dup2\n        /* \"#utility.yul\":30326:30336   */\n      swap1\n      pop\n        /* \"#utility.yul\":29820:30342   */\n      swap3\n      swap2\n      pop\n      pop\n      jump\t// out\n        /* \"#utility.yul\":30348:30528   */\n    tag_415:\n        /* \"#utility.yul\":30396:30473   */\n      0x4e487b7100000000000000000000000000000000000000000000000000000000\n        /* \"#utility.yul\":30393:30394   */\n      0x00\n        /* \"#utility.yul\":30386:30474   */\n      mstore\n        /* \"#utility.yul\":30493:30497   */\n      0x21\n        /* \"#utility.yul\":30490:30491   */\n      0x04\n        /* \"#utility.yul\":30483:30498   */\n      mstore\n        /* \"#utility.yul\":30517:30521   */\n      0x24\n        /* \"#utility.yul\":30514:30515   */\n      0x00\n        /* \"#utility.yul\":30507:30522   */\n      revert\n        /* \"#utility.yul\":30534:30652   */\n    tag_523:\n        /* \"#utility.yul\":30621:30645   */\n      tag_812\n        /* \"#utility.yul\":30639:30644   */\n      dup2\n        /* \"#utility.yul\":30621:30645   */\n      tag_520\n      jump\t// in\n    tag_812:\n        /* \"#utility.yul\":30616:30619   */\n      dup3\n        /* \"#utility.yul\":30609:30646   */\n      mstore\n        /* \"#utility.yul\":30534:30652   */\n      pop\n      pop\n      jump\t// out\n        /* \"#utility.yul\":30658:30880   */\n    tag_439:\n        /* \"#utility.yul\":30751:30755   */\n      0x00\n        /* \"#utility.yul\":30789:30791   */\n      0x20\n        /* \"#utility.yul\":30778:30787   */\n      dup3\n        /* \"#utility.yul\":30774:30792   */\n      add\n        /* \"#utility.yul\":30766:30792   */\n      swap1\n      pop\n        /* \"#utility.yul\":30802:30873   */\n      tag_814\n        /* \"#utility.yul\":30870:30871   */\n      0x00\n        /* \"#utility.yul\":30859:30868   */\n      dup4\n        /* \"#utility.yul\":30855:30872   */\n      add\n        /* \"#utility.yul\":30846:30852   */\n      dup5\n        /* \"#utility.yul\":30802:30873   */\n      tag_523\n      jump\t// in\n    tag_814:\n        /* \"#utility.yul\":30658:30880   */\n      swap3\n      swap2\n      pop\n      pop\n      jump\t// out\n        /* \"#utility.yul\":30886:30972   */\n    tag_524:\n        /* \"#utility.yul\":30921:30928   */\n      0x00\n        /* \"#utility.yul\":30961:30965   */\n      0xff\n        /* \"#utility.yul\":30954:30959   */\n      dup3\n        /* \"#utility.yul\":30950:30966   */\n      and\n        /* \"#utility.yul\":30939:30966   */\n      swap1\n      pop\n        /* \"#utility.yul\":30886:30972   */\n      swap2\n      swap1\n      pop\n      jump\t// out\n        /* \"#utility.yul\":30978:31090   */\n    tag_525:\n        /* \"#utility.yul\":31061:31083   */\n      tag_817\n        /* \"#utility.yul\":31077:31082   */\n      dup2\n        /* \"#utility.yul\":31061:31083   */\n      tag_524\n      jump\t// in\n    tag_817:\n        /* \"#utility.yul\":31056:31059   */\n      dup3\n        /* \"#utility.yul\":31049:31084   */\n      mstore\n        /* \"#utility.yul\":30978:31090   */\n      pop\n      pop\n      jump\t// out\n        /* \"#utility.yul\":31096:31641   */\n    tag_443:\n        /* \"#utility.yul\":31269:31273   */\n      0x00\n        /* \"#utility.yul\":31307:31310   */\n      0x80\n        /* \"#utility.yul\":31296:31305   */\n      dup3\n        /* \"#utility.yul\":31292:31311   */\n      add\n        /* \"#utility.yul\":31284:31311   */\n      swap1\n      pop\n        /* \"#utility.yul\":31321:31392   */\n      tag_819\n        /* \"#utility.yul\":31389:31390   */\n      0x00\n        /* \"#utility.yul\":31378:31387   */\n      dup4\n        /* \"#utility.yul\":31374:31391   */\n      add\n        /* \"#utility.yul\":31365:31371   */\n      dup8\n        /* \"#utility.yul\":31321:31392   */\n      tag_523\n      jump\t// in\n    tag_819:\n        /* \"#utility.yul\":31402:31470   */\n      tag_820\n        /* \"#utility.yul\":31466:31468   */\n      0x20\n        /* \"#utility.yul\":31455:31464   */\n      dup4\n        /* \"#utility.yul\":31451:31469   */\n      add\n        /* \"#utility.yul\":31442:31448   */\n      dup7\n        /* \"#utility.yul\":31402:31470   */\n      tag_525\n      jump\t// in\n    tag_820:\n        /* \"#utility.yul\":31480:31552   */\n      tag_821\n        /* \"#utility.yul\":31548:31550   */\n      0x40\n        /* \"#utility.yul\":31537:31546   */\n      dup4\n        /* \"#utility.yul\":31533:31551   */\n      add\n        /* \"#utility.yul\":31524:31530   */\n      dup6\n        /* \"#utility.yul\":31480:31552   */\n      tag_523\n      jump\t// in\n    tag_821:\n        /* \"#utility.yul\":31562:31634   */\n      tag_822\n        /* \"#utility.yul\":31630:31632   */\n      0x60\n        /* \"#utility.yul\":31619:31628   */\n      dup4\n        /* \"#utility.yul\":31615:31633   */\n      add\n        /* \"#utility.yul\":31606:31612   */\n      dup5\n        /* \"#utility.yul\":31562:31634   */\n      tag_523\n      jump\t// in\n    tag_822:\n        /* \"#utility.yul\":31096:31641   */\n      swap6\n      swap5\n      pop\n      pop\n      pop\n      pop\n      pop\n      jump\t// out\n\n    auxdata: 0xa26469706673582212206a87094f0f185b690d1d9958d3f3862b780c5f9a998921fdb10d239be1937c3264736f6c634300081c0033\n}\n",
				"bytecode": {
					"linkReferences": {},
					"object": "6080604052600a600b5562278d00600e556014600f5569d3c21bcecceda100000060105534801561002e575f5ffd5b50335f73ffffffffffffffffffffffffffffffffffffffff168173ffffffffffffffffffffffffffffffffffffffff16036100a0575f6040517f1e4fbdf700000000000000000000000000000000000000000000000000000000815260040161009791906101bc565b60405180910390fd5b6100af816100bc60201b60201c565b50600180819055506101d5565b5f5f5f9054906101000a900473ffffffffffffffffffffffffffffffffffffffff169050815f5f6101000a81548173ffffffffffffffffffffffffffffffffffffffff021916908373ffffffffffffffffffffffffffffffffffffffff1602179055508173ffffffffffffffffffffffffffffffffffffffff168173ffffffffffffffffffffffffffffffffffffffff167f8be0079c531659141344cd1fd0a4f28419497f9722a3daafe3b4186f6b6457e060405160405180910390a35050565b5f73ffffffffffffffffffffffffffffffffffffffff82169050919050565b5f6101a68261017d565b9050919050565b6101b68161019c565b82525050565b5f6020820190506101cf5f8301846101ad565b92915050565b6132d2806101e25f395ff3fe608060405234801561000f575f5ffd5b5060043610610230575f3560e01c806364cb61421161012e578063dd69becd116100b6578063f03f80c31161007a578063f03f80c314610686578063f1ea7692146106a4578063f2fde38b146106c2578063f3482650146106de578063f6cc51571461070e57610230565b8063dd69becd146105f6578063e275c99714610612578063e90b0d7614610630578063e927e7c01461064c578063eab35b771461066857610230565b8063848ff684116100fd578063848ff684146105625780638da5cb5b1461057e57806394d9b2351461059c578063c2362dd5146105ba578063ccc8362c146105d857610230565b806364cb6142146104ec578063715018a61461050a5780637ecebe00146105145780638119185b1461054457610230565b806325d5971f116101bc578063519445e211610180578063519445e2146104205780635829b3c71461043e57806358ba9d271461046e5780635c975abb1461049e5780635e2a9fa2146104bc57610230565b806325d5971f1461037957806331fdc2ba14610395578063430bf08a146103b157806345626bd6146103cf5780634ff0876a1461040257610230565b8063158ef93e11610203578063158ef93e146102d157806316330d40146102ef57806316934fc41461030d57806316c38b3c1461033f5780631bff38cd1461035b57610230565b8063011a4568146102345780630524fb7e1461026457806305c50a35146102805780630fd7bf50146102b3575b5f5ffd5b61024e600480360381019061024991906123b3565b61072c565b60405161025b91906123f6565b60405180910390f35b61027e60048036038101906102799190612439565b610741565b005b61029a600480360381019061029591906123b3565b610a52565b6040516102aa9493929190612464565b60405180910390f35b6102bb610a7e565b6040516102c89190612502565b60405180910390f35b6102d9610aa3565b6040516102e69190612535565b60405180910390f35b6102f7610ab6565b60405161030491906123f6565b60405180910390f35b610327600480360381019061032291906123b3565b610abc565b6040516103369392919061254e565b60405180910390f35b610359600480360381019061035491906125ad565b610ae2565b005b610363610b3d565b60405161037091906123f6565b60405180910390f35b610393600480360381019061038e9190612439565b610b43565b005b6103af60048036038101906103aa91906125d8565b610e52565b005b6103b9610f3e565b6040516103c69190612625565b60405180910390f35b6103e960048036038101906103e491906125d8565b610f63565b6040516103f99493929190612464565b60405180910390f35b61040a610fa9565b60405161041791906123f6565b60405180910390f35b610428610faf565b60405161043591906123f6565b60405180910390f35b610458600480360381019061045391906123b3565b610fb5565b60405161046591906123f6565b60405180910390f35b610488600480360381019061048391906123b3565b610fca565b60405161049591906123f6565b60405180910390f35b6104a6610fdf565b6040516104b39190612535565b60405180910390f35b6104d660048036038101906104d191906123b3565b610ff1565b6040516104e391906123f6565b60405180910390f35b6104f4611006565b60405161050191906123f6565b60405180910390f35b61051261100c565b005b61052e600480360381019061052991906123b3565b61101f565b60405161053b91906123f6565b60405180910390f35b61054c611034565b60405161055991906123f6565b60405180910390f35b61057c60048036038101906105779190612679565b61103a565b005b61058661117d565b6040516105939190612625565b60405180910390f35b6105a46111a4565b6040516105b191906123f6565b60405180910390f35b6105c26111aa565b6040516105cf91906123f6565b60405180910390f35b6105e06111b0565b6040516105ed91906123f6565b60405180910390f35b610610600480360381019061060b9190612439565b6111b6565b005b61061a61168a565b60405161062791906123f6565b60405180910390f35b61064a60048036038101906106459190612866565b611690565b005b610666600480360381019061066191906128c0565b611a6b565b005b610670611d8e565b60405161067d91906123f6565b60405180910390f35b61068e611d94565b60405161069b91906123f6565b60405180910390f35b6106ac611d9a565b6040516106b991906123f6565b60405180910390f35b6106dc60048036038101906106d791906123b3565b611da0565b005b6106f860048036038101906106f391906123b3565b611e24565b60405161070591906123f6565b60405180910390f35b610716611e39565b60405161072391906123f6565b60405180910390f35b6015602052805f5260405f205f915090505481565b60115f9054906101000a900460ff1615610790576040517f08c379a000000000000000000000000000000000000000000000000000000000815260040161078790612958565b60405180910390fd5b610798611e3f565b601160019054906101000a900460ff166107e7576040517f08c379a00000000000000000000000000000000000000000000000000000000081526004016107de906129c0565b60405180910390fd5b60025f9054906101000a900473ffffffffffffffffffffffffffffffffffffffff1673ffffffffffffffffffffffffffffffffffffffff166323b872dd33601b5f9054906101000a900473ffffffffffffffffffffffffffffffffffffffff16846040518463ffffffff1660e01b8152600401610866939291906129de565b6020604051808303815f875af1158015610882573d5f5f3e3d5ffd5b505050506040513d601f19601f820116820180604052508101906108a69190612a27565b6108e5576040517f08c379a00000000000000000000000000000000000000000000000000000000081526004016108dc90612a9c565b60405180910390fd5b5f60185f3373ffffffffffffffffffffffffffffffffffffffff1673ffffffffffffffffffffffffffffffffffffffff1681526020019081526020015f2090505f81600201540361098157428160020181905550606460195f3373ffffffffffffffffffffffffffffffffffffffff1673ffffffffffffffffffffffffffffffffffffffff1681526020019081526020015f20819055506109d6565b600a60195f3373ffffffffffffffffffffffffffffffffffffffff1673ffffffffffffffffffffffffffffffffffffffff1681526020019081526020015f205f8282546109ce9190612ae7565b925050819055505b81815f015f8282546109e89190612ae7565b925050819055504281600101819055503373ffffffffffffffffffffffffffffffffffffffff167f6afd9b8c734cbfeda8ba55afbdd1ac413bf617456b50196186371d2cc95b857283604051610a3e91906123f6565b60405180910390a250610a4f611e8e565b50565b6017602052805f5260405f205f91509050805f0154908060010154908060020154908060030154905084565b60025f9054906101000a900473ffffffffffffffffffffffffffffffffffffffff1681565b601160019054906101000a900460ff1681565b600b5481565b6018602052805f5260405f205f91509050805f0154908060010154908060020154905083565b610aea611e97565b8060115f6101000a81548160ff0219169083151502179055507f0e2fb031ee032dc02d8011dc50b816eb450cf856abd8261680dac74f72165bd281604051610b329190612535565b60405180910390a150565b600a5481565b60115f9054906101000a900460ff1615610b92576040517f08c379a0000000000000000000000000000000000000000000000000000000008152600401610b8990612958565b60405180910390fd5b610b9a611e3f565b601160019054906101000a900460ff16610be9576040517f08c379a0000000000000000000000000000000000000000000000000000000008152600401610be0906129c0565b60405180910390fd5b5f60185f3373ffffffffffffffffffffffffffffffffffffffff1673ffffffffffffffffffffffffffffffffffffffff1681526020019081526020015f209050805f0154821115610c6f576040517f08c379a0000000000000000000000000000000000000000000000000000000008152600401610c6690612b64565b60405180910390fd5b5f5f905062093a808260020154610c869190612ae7565b421015610caa576064600b5484610c9d9190612b82565b610ca79190612bf0565b90505b5f8184610cb79190612c20565b905083835f015f828254610ccb9190612c20565b92505081905550601b5f9054906101000a900473ffffffffffffffffffffffffffffffffffffffff1673ffffffffffffffffffffffffffffffffffffffff1663f3fef3a333836040518363ffffffff1660e01b8152600401610d2e929190612c53565b5f604051808303815f87803b158015610d45575f5ffd5b505af1158015610d57573d5f5f3e3d5ffd5b505050505f821115610df457601b5f9054906101000a900473ffffffffffffffffffffffffffffffffffffffff1673ffffffffffffffffffffffffffffffffffffffff1663f3fef3a3610da861117d565b846040518363ffffffff1660e01b8152600401610dc6929190612c53565b5f604051808303815f87803b158015610ddd575f5ffd5b505af1158015610def573d5f5f3e3d5ffd5b505050505b3373ffffffffffffffffffffffffffffffffffffffff167f933735aa8de6d7547d0126171b2f31b9c34dd00f3ecd4be85a0ba047db4fafef8284604051610e3c929190612c7a565b60405180910390a2505050610e4f611e8e565b50565b610e5a611e97565b5f8111610e68576064610e6b565b60785b60ff1660165f8473ffffffffffffffffffffffffffffffffffffffff1673ffffffffffffffffffffffffffffffffffffffff1681526020019081526020015f20819055508173ffffffffffffffffffffffffffffffffffffffff167fabcc9b515858a553f53609bb223669708665910a51030d923c842de23f09991360165f8573ffffffffffffffffffffffffffffffffffffffff1673ffffffffffffffffffffffffffffffffffffffff1681526020019081526020015f2054604051610f3291906123f6565b60405180910390a25050565b601b5f9054906101000a900473ffffffffffffffffffffffffffffffffffffffff1681565b601a602052815f5260405f208181548110610f7c575f80fd5b905f5260205f2090600402015f9150915050805f0154908060010154908060020154908060030154905084565b600d5481565b60065481565b6016602052805f5260405f205f915090505481565b6019602052805f5260405f205f915090505481565b60115f9054906101000a900460ff1681565b6014602052805f5260405f205f915090505481565b60095481565b611014611e97565b61101d5f611f1e565b565b6012602052805f5260405f205f915090505481565b600e5481565b611042611e97565b601160019054906101000a900460ff1615611092576040517f08c379a000000000000000000000000000000000000000000000000000000000815260040161108990612ceb565b60405180910390fd5b8760025f6101000a81548173ffffffffffffffffffffffffffffffffffffffff021916908373ffffffffffffffffffffffffffffffffffffffff16021790555086600381905550856004819055505f6005819055505f600681905550846007819055505f6008819055508360098190555082600a8190555081600d8190555043600c8190555080601b5f6101000a81548173ffffffffffffffffffffffffffffffffffffffff021916908373ffffffffffffffffffffffffffffffffffffffff1602179055506001601160016101000a81548160ff0219169083151502179055505050505050505050565b5f5f5f9054906101000a900473ffffffffffffffffffffffffffffffffffffffff16905090565b600f5481565b600c5481565b60045481565b60115f9054906101000a900460ff1615611205576040517f08c379a00000000000000000000000000000000000000000000000000000000081526004016111fc90612958565b60405180910390fd5b61120d611e3f565b601160019054906101000a900460ff1661125c576040517f08c379a0000000000000000000000000000000000000000000000000000000008152600401611253906129c0565b60405180910390fd5b8060125f3373ffffffffffffffffffffffffffffffffffffffff1673ffffffffffffffffffffffffffffffffffffffff1681526020019081526020015f2054146112db576040517f08c379a00000000000000000000000000000000000000000000000000000000081526004016112d290612d53565b60405180910390fd5b60125f3373ffffffffffffffffffffffffffffffffffffffff1673ffffffffffffffffffffffffffffffffffffffff1681526020019081526020015f205f81548092919061132890612d71565b91905055505f60185f3373ffffffffffffffffffffffffffffffffffffffff1673ffffffffffffffffffffffffffffffffffffffff1681526020019081526020015f2090505f8160020154036113b3576040517f08c379a00000000000000000000000000000000000000000000000000000000081526004016113aa90612e02565b60405180910390fd5b5f8160010154426113c49190612c20565b90505f8111611408576040517f08c379a00000000000000000000000000000000000000000000000000000000081526004016113ff90612e6a565b60405180910390fd5b5f60045490506009546008541115611439576064600a5460045461142c9190612b82565b6114369190612bf0565b90505b5f5f60165f3373ffffffffffffffffffffffffffffffffffffffff1673ffffffffffffffffffffffffffffffffffffffff1681526020019081526020015f2054146114c15760165f3373ffffffffffffffffffffffffffffffffffffffff1673ffffffffffffffffffffffffffffffffffffffff1681526020019081526020015f20546114c4565b60645b9050606481836114d49190612b82565b6114de9190612bf0565b91505f8383865f01546114f19190612b82565b6114fb9190612b82565b9050606460195f3373ffffffffffffffffffffffffffffffffffffffff1673ffffffffffffffffffffffffffffffffffffffff1681526020019081526020015f2054826115489190612b82565b6115529190612bf0565b9050600e5485600101546115669190612ae7565b42111561159a575f6064600f548361157e9190612b82565b6115889190612bf0565b905080826115969190612c20565b9150505b42856001018190555060025f9054906101000a900473ffffffffffffffffffffffffffffffffffffffff1673ffffffffffffffffffffffffffffffffffffffff166340c10f1933836040518363ffffffff1660e01b81526004016115ff929190612c53565b5f604051808303815f87803b158015611616575f5ffd5b505af1158015611628573d5f5f3e3d5ffd5b505050503373ffffffffffffffffffffffffffffffffffffffff167f4dd465eb9d4bf90caf3400cc334c731b4cef0aa7f013e5d72f20b0cec2e30ea98260405161167291906123f6565b60405180910390a25050505050611687611e8e565b50565b60055481565b60115f9054906101000a900460ff16156116df576040517f08c379a00000000000000000000000000000000000000000000000000000000081526004016116d690612958565b60405180910390fd5b6116e7611e3f565b601160019054906101000a900460ff16611736576040517f08c379a000000000000000000000000000000000000000000000000000000000815260040161172d906129c0565b60405180910390fd5b8160125f3373ffffffffffffffffffffffffffffffffffffffff1673ffffffffffffffffffffffffffffffffffffffff1681526020019081526020015f2054146117b5576040517f08c379a00000000000000000000000000000000000000000000000000000000081526004016117ac90612d53565b60405180910390fd5b6117c0338383611fdf565b6117ff576040517f08c379a00000000000000000000000000000000000000000000000000000000081526004016117f690612ed2565b60405180910390fd5b60125f3373ffffffffffffffffffffffffffffffffffffffff1673ffffffffffffffffffffffffffffffffffffffff1681526020019081526020015f205f81548092919061184c90612d71565b91905055505f60175f3373ffffffffffffffffffffffffffffffffffffffff1673ffffffffffffffffffffffffffffffffffffffff1681526020019081526020015f20905060075481600301546118a39190612ae7565b4210156118e5576040517f08c379a00000000000000000000000000000000000000000000000000000000081526004016118dc90612f3a565b60405180910390fd5b5f816002015490505f811161192f576040517f08c379a000000000000000000000000000000000000000000000000000000000815260040161192690612fa2565b60405180910390fd5b601054811115611974576040517f08c379a000000000000000000000000000000000000000000000000000000000815260040161196b9061300a565b60405180910390fd5b5f826002018190555042826003018190555060025f9054906101000a900473ffffffffffffffffffffffffffffffffffffffff1673ffffffffffffffffffffffffffffffffffffffff166340c10f1933836040518363ffffffff1660e01b81526004016119e2929190612c53565b5f604051808303815f87803b1580156119f9575f5ffd5b505af1158015611a0b573d5f5f3e3d5ffd5b505050503373ffffffffffffffffffffffffffffffffffffffff167fb127973bf29d1dae6424fef4f7461e0b9c444636ab23a8392d9969500034a13d82604051611a5591906123f6565b60405180910390a25050611a67611e8e565b5050565b60115f9054906101000a900460ff1615611aba576040517f08c379a0000000000000000000000000000000000000000000000000000000008152600401611ab190612958565b60405180910390fd5b611ac2611e3f565b601160019054906101000a900460ff16611b11576040517f08c379a0000000000000000000000000000000000000000000000000000000008152600401611b08906129c0565b60405180910390fd5b600d54600c54611b219190612ae7565b4310611b36575f60068190555043600c819055505b600160055f828254611b489190612ae7565b925050819055508160065f828254611b609190612ae7565b925050819055508160085f828254611b789190612ae7565b925050819055505f60175f3373ffffffffffffffffffffffffffffffffffffffff1673ffffffffffffffffffffffffffffffffffffffff1681526020019081526020015f2090506001815f015f828254611bd29190612ae7565b9250508190555082816001015f828254611bec9190612ae7565b925050819055505f60095460065410611c06576064611c09565b60965b60ff1690505f60648260035487611c209190612b82565b611c2a9190612b82565b611c349190612bf0565b905080836002015f828254611c499190612ae7565b925050819055508315611cba57606485611c639190612bf0565b60145f3373ffffffffffffffffffffffffffffffffffffffff1673ffffffffffffffffffffffffffffffffffffffff1681526020019081526020015f205f828254611cae9190612ae7565b92505081905550611d1a565b606485611cc79190612bf0565b60155f3373ffffffffffffffffffffffffffffffffffffffff1673ffffffffffffffffffffffffffffffffffffffff1681526020019081526020015f205f828254611d129190612ae7565b925050819055505b5f836003015403611d2f574283600301819055505b3373ffffffffffffffffffffffffffffffffffffffff167f4b85156045f2844cf6b638ff8a8ddb82c940ccdbe3c46e6e67d2583722c7dc718686604051611d77929190613028565b60405180910390a2505050611d8a611e8e565b5050565b60085481565b60105481565b60075481565b611da8611e97565b5f73ffffffffffffffffffffffffffffffffffffffff168173ffffffffffffffffffffffffffffffffffffffff1603611e18575f6040517f1e4fbdf7000000000000000000000000000000000000000000000000000000008152600401611e0f9190612625565b60405180910390fd5b611e2181611f1e565b50565b6013602052805f5260405f205f915090505481565b60035481565b600260015403611e84576040517f08c379a0000000000000000000000000000000000000000000000000000000008152600401611e7b90613099565b60405180910390fd5b6002600181905550565b60018081905550565b611e9f612079565b73ffffffffffffffffffffffffffffffffffffffff16611ebd61117d565b73ffffffffffffffffffffffffffffffffffffffff1614611f1c57611ee0612079565b6040517f118cdaa7000000000000000000000000000000000000000000000000000000008152600401611f139190612625565b60405180910390fd5b565b5f5f5f9054906101000a900473ffffffffffffffffffffffffffffffffffffffff169050815f5f6101000a81548173ffffffffffffffffffffffffffffffffffffffff021916908373ffffffffffffffffffffffffffffffffffffffff1602179055508173ffffffffffffffffffffffffffffffffffffffff168173ffffffffffffffffffffffffffffffffffffffff167f8be0079c531659141344cd1fd0a4f28419497f9722a3daafe3b4186f6b6457e060405160405180910390a35050565b5f5f8484604051602001611ff492919061311c565b6040516020818303038152906040528051906020012090505f8160405160200161201e91906131c4565b6040516020818303038152906040528051906020012090508573ffffffffffffffffffffffffffffffffffffffff166120578286612080565b73ffffffffffffffffffffffffffffffffffffffff1614925050509392505050565b5f33905090565b5f5f5f5f61208e86866120aa565b92509250925061209e82826120ff565b82935050505092915050565b5f5f5f60418451036120ea575f5f5f602087015192506040870151915060608701515f1a90506120dc88828585612261565b9550955095505050506120f8565b5f600285515f1b9250925092505b9250925092565b5f6003811115612112576121116131e9565b5b826003811115612125576121246131e9565b5b031561225d576001600381111561213f5761213e6131e9565b5b826003811115612152576121516131e9565b5b03612189576040517ff645eedf00000000000000000000000000000000000000000000000000000000815260040160405180910390fd5b6002600381111561219d5761219c6131e9565b5b8260038111156121b0576121af6131e9565b5b036121f457805f1c6040517ffce698f70000000000000000000000000000000000000000000000000000000081526004016121eb91906123f6565b60405180910390fd5b600380811115612207576122066131e9565b5b82600381111561221a576122196131e9565b5b0361225c57806040517fd78bce0c0000000000000000000000000000000000000000000000000000000081526004016122539190613225565b60405180910390fd5b5b5050565b5f5f5f7f7fffffffffffffffffffffffffffffff5d576e7357a4501ddfe92f46681b20a0845f1c111561229d575f60038592509250925061233e565b5f6001888888886040515f81526020016040526040516122c09493929190613259565b6020604051602081039080840390855afa1580156122e0573d5f5f3e3d5ffd5b5050506020604051035190505f73ffffffffffffffffffffffffffffffffffffffff168173ffffffffffffffffffffffffffffffffffffffff1603612331575f60015f5f1b9350935093505061233e565b805f5f5f1b935093509350505b9450945094915050565b5f604051905090565b5f5ffd5b5f5ffd5b5f73ffffffffffffffffffffffffffffffffffffffff82169050919050565b5f61238282612359565b9050919050565b61239281612378565b811461239c575f5ffd5b50565b5f813590506123ad81612389565b92915050565b5f602082840312156123c8576123c7612351565b5b5f6123d58482850161239f565b91505092915050565b5f819050919050565b6123f0816123de565b82525050565b5f6020820190506124095f8301846123e7565b92915050565b612418816123de565b8114612422575f5ffd5b50565b5f813590506124338161240f565b92915050565b5f6020828403121561244e5761244d612351565b5b5f61245b84828501612425565b91505092915050565b5f6080820190506124775f8301876123e7565b61248460208301866123e7565b61249160408301856123e7565b61249e60608301846123e7565b95945050505050565b5f819050919050565b5f6124ca6124c56124c084612359565b6124a7565b612359565b9050919050565b5f6124db826124b0565b9050919050565b5f6124ec826124d1565b9050919050565b6124fc816124e2565b82525050565b5f6020820190506125155f8301846124f3565b92915050565b5f8115159050919050565b61252f8161251b565b82525050565b5f6020820190506125485f830184612526565b92915050565b5f6060820190506125615f8301866123e7565b61256e60208301856123e7565b61257b60408301846123e7565b949350505050565b61258c8161251b565b8114612596575f5ffd5b50565b5f813590506125a781612583565b92915050565b5f602082840312156125c2576125c1612351565b5b5f6125cf84828501612599565b91505092915050565b5f5f604083850312156125ee576125ed612351565b5b5f6125fb8582860161239f565b925050602061260c85828601612425565b9150509250929050565b61261f81612378565b82525050565b5f6020820190506126385f830184612616565b92915050565b5f61264882612378565b9050919050565b6126588161263e565b8114612662575f5ffd5b50565b5f813590506126738161264f565b92915050565b5f5f5f5f5f5f5f5f610100898b03121561269657612695612351565b5b5f6126a38b828c01612665565b98505060206126b48b828c01612425565b97505060406126c58b828c01612425565b96505060606126d68b828c01612425565b95505060806126e78b828c01612425565b94505060a06126f88b828c01612425565b93505060c06127098b828c01612425565b92505060e061271a8b828c0161239f565b9150509295985092959890939650565b5f5ffd5b5f5ffd5b5f601f19601f8301169050919050565b7f4e487b71000000000000000000000000000000000000000000000000000000005f52604160045260245ffd5b61277882612732565b810181811067ffffffffffffffff8211171561279757612796612742565b5b80604052505050565b5f6127a9612348565b90506127b5828261276f565b919050565b5f67ffffffffffffffff8211156127d4576127d3612742565b5b6127dd82612732565b9050602081019050919050565b828183375f83830152505050565b5f61280a612805846127ba565b6127a0565b9050828152602081018484840111156128265761282561272e565b5b6128318482856127ea565b509392505050565b5f82601f83011261284d5761284c61272a565b5b813561285d8482602086016127f8565b91505092915050565b5f5f6040838503121561287c5761287b612351565b5b5f61288985828601612425565b925050602083013567ffffffffffffffff8111156128aa576128a9612355565b5b6128b685828601612839565b9150509250929050565b5f5f604083850312156128d6576128d5612351565b5b5f6128e385828601612425565b92505060206128f485828601612599565b9150509250929050565b5f82825260208201905092915050565b7f436f6e74726163742069732070617573656400000000000000000000000000005f82015250565b5f6129426012836128fe565b915061294d8261290e565b602082019050919050565b5f6020820190508181035f83015261296f81612936565b9050919050565b7f4e6f7420696e697469616c697a656400000000000000000000000000000000005f82015250565b5f6129aa600f836128fe565b91506129b582612976565b602082019050919050565b5f6020820190508181035f8301526129d78161299e565b9050919050565b5f6060820190506129f15f830186612616565b6129fe6020830185612616565b612a0b60408301846123e7565b949350505050565b5f81519050612a2181612583565b92915050565b5f60208284031215612a3c57612a3b612351565b5b5f612a4984828501612a13565b91505092915050565b7f5472616e73666572206661696c656400000000000000000000000000000000005f82015250565b5f612a86600f836128fe565b9150612a9182612a52565b602082019050919050565b5f6020820190508181035f830152612ab381612a7a565b9050919050565b7f4e487b71000000000000000000000000000000000000000000000000000000005f52601160045260245ffd5b5f612af1826123de565b9150612afc836123de565b9250828201905080821115612b1457612b13612aba565b5b92915050565b7f496e73756666696369656e74207374616b656420616d6f756e740000000000005f82015250565b5f612b4e601a836128fe565b9150612b5982612b1a565b602082019050919050565b5f6020820190508181035f830152612b7b81612b42565b9050919050565b5f612b8c826123de565b9150612b97836123de565b9250828202612ba5816123de565b91508282048414831517612bbc57612bbb612aba565b5b5092915050565b7f4e487b71000000000000000000000000000000000000000000000000000000005f52601260045260245ffd5b5f612bfa826123de565b9150612c05836123de565b925082612c1557612c14612bc3565b5b828204905092915050565b5f612c2a826123de565b9150612c35836123de565b9250828203905081811115612c4d57612c4c612aba565b5b92915050565b5f604082019050612c665f830185612616565b612c7360208301846123e7565b9392505050565b5f604082019050612c8d5f8301856123e7565b612c9a60208301846123e7565b9392505050565b7f416c726561647920696e697469616c697a6564000000000000000000000000005f82015250565b5f612cd56013836128fe565b9150612ce082612ca1565b602082019050919050565b5f6020820190508181035f830152612d0281612cc9565b9050919050565b7f496e76616c6964206e6f6e6365000000000000000000000000000000000000005f82015250565b5f612d3d600d836128fe565b9150612d4882612d09565b602082019050919050565b5f6020820190508181035f830152612d6a81612d31565b9050919050565b5f612d7b826123de565b91507fffffffffffffffffffffffffffffffffffffffffffffffffffffffffffffffff8203612dad57612dac612aba565b5b600182019050919050565b7f4e6f207374616b6520666f756e640000000000000000000000000000000000005f82015250565b5f612dec600e836128fe565b9150612df782612db8565b602082019050919050565b5f6020820190508181035f830152612e1981612de0565b9050919050565b7f4e6f2074696d6520656c617073656400000000000000000000000000000000005f82015250565b5f612e54600f836128fe565b9150612e5f82612e20565b602082019050919050565b5f6020820190508181035f830152612e8181612e48565b9050919050565b7f496e76616c6964207369676e61747572650000000000000000000000000000005f82015250565b5f612ebc6011836128fe565b9150612ec782612e88565b602082019050919050565b5f6020820190508181035f830152612ee981612eb0565b9050919050565b7f45706f6368206475726174696f6e206e6f7420656e64656400000000000000005f82015250565b5f612f246018836128fe565b9150612f2f82612ef0565b602082019050919050565b5f6020820190508181035f830152612f5181612f18565b9050919050565b7f4e6f2070656e64696e67207265776172647300000000000000000000000000005f82015250565b5f612f8c6012836128fe565b9150612f9782612f58565b602082019050919050565b5f6020820190508181035f830152612fb981612f80565b9050919050565b7f5265776172642065786365656473206d617820636c61696d61626c65000000005f82015250565b5f612ff4601c836128fe565b9150612fff82612fc0565b602082019050919050565b5f6020820190508181035f83015261302181612fe8565b9050919050565b5f60408201905061303b5f8301856123e7565b6130486020830184612526565b9392505050565b7f5265656e7472616e637947756172643a207265656e7472616e742063616c6c005f82015250565b5f613083601f836128fe565b915061308e8261304f565b602082019050919050565b5f6020820190508181035f8301526130b081613077565b9050919050565b5f8160601b9050919050565b5f6130cd826130b7565b9050919050565b5f6130de826130c3565b9050919050565b6130f66130f182612378565b6130d4565b82525050565b5f819050919050565b613116613111826123de565b6130fc565b82525050565b5f61312782856130e5565b6014820191506131378284613105565b6020820191508190509392505050565b5f81905092915050565b7f19457468657265756d205369676e6564204d6573736167653a0a3332000000005f82015250565b5f613185601c83613147565b915061319082613151565b601c82019050919050565b5f819050919050565b5f819050919050565b6131be6131b98261319b565b6131a4565b82525050565b5f6131ce82613179565b91506131da82846131ad565b60208201915081905092915050565b7f4e487b71000000000000000000000000000000000000000000000000000000005f52602160045260245ffd5b61321f8161319b565b82525050565b5f6020820190506132385f830184613216565b92915050565b5f60ff82169050919050565b6132538161323e565b82525050565b5f60808201905061326c5f830187613216565b613279602083018661324a565b6132866040830185613216565b6132936060830184613216565b9594505050505056fea26469706673582212206a87094f0f185b690d1d9958d3f3862b780c5f9a998921fdb10d239be1937c3264736f6c634300081c0033",
					"opcodes": "PUSH1 0x80 PUSH1 0x40 MSTORE PUSH1 0xA PUSH1 0xB SSTORE PUSH3 0x278D00 PUSH1 0xE SSTORE PUSH1 0x14 PUSH1 0xF SSTORE PUSH10 0xD3C21BCECCEDA1000000 PUSH1 0x10 SSTORE CALLVALUE DUP1 ISZERO PUSH2 0x2E JUMPI PUSH0 PUSH0 REVERT JUMPDEST POP CALLER PUSH0 PUSH20 0xFFFFFFFFFFFFFFFFFFFFFFFFFFFFFFFFFFFFFFFF AND DUP2 PUSH20 0xFFFFFFFFFFFFFFFFFFFFFFFFFFFFFFFFFFFFFFFF AND SUB PUSH2 0xA0 JUMPI PUSH0 PUSH1 0x40 MLOAD PUSH32 0x1E4FBDF700000000000000000000000000000000000000000000000000000000 DUP2 MSTORE PUSH1 0x4 ADD PUSH2 0x97 SWAP2 SWAP1 PUSH2 0x1BC JUMP JUMPDEST PUSH1 0x40 MLOAD DUP1 SWAP2 SUB SWAP1 REVERT JUMPDEST PUSH2 0xAF DUP2 PUSH2 0xBC PUSH1 0x20 SHL PUSH1 0x20 SHR JUMP JUMPDEST POP PUSH1 0x1 DUP1 DUP2 SWAP1 SSTORE POP PUSH2 0x1D5 JUMP JUMPDEST PUSH0 PUSH0 PUSH0 SWAP1 SLOAD SWAP1 PUSH2 0x100 EXP SWAP1 DIV PUSH20 0xFFFFFFFFFFFFFFFFFFFFFFFFFFFFFFFFFFFFFFFF AND SWAP1 POP DUP2 PUSH0 PUSH0 PUSH2 0x100 EXP DUP2 SLOAD DUP2 PUSH20 0xFFFFFFFFFFFFFFFFFFFFFFFFFFFFFFFFFFFFFFFF MUL NOT AND SWAP1 DUP4 PUSH20 0xFFFFFFFFFFFFFFFFFFFFFFFFFFFFFFFFFFFFFFFF AND MUL OR SWAP1 SSTORE POP DUP2 PUSH20 0xFFFFFFFFFFFFFFFFFFFFFFFFFFFFFFFFFFFFFFFF AND DUP2 PUSH20 0xFFFFFFFFFFFFFFFFFFFFFFFFFFFFFFFFFFFFFFFF AND PUSH32 0x8BE0079C531659141344CD1FD0A4F28419497F9722A3DAAFE3B4186F6B6457E0 PUSH1 0x40 MLOAD PUSH1 0x40 MLOAD DUP1 SWAP2 SUB SWAP1 LOG3 POP POP JUMP JUMPDEST PUSH0 PUSH20 0xFFFFFFFFFFFFFFFFFFFFFFFFFFFFFFFFFFFFFFFF DUP3 AND SWAP1 POP SWAP2 SWAP1 POP JUMP JUMPDEST PUSH0 PUSH2 0x1A6 DUP3 PUSH2 0x17D JUMP JUMPDEST SWAP1 POP SWAP2 SWAP1 POP JUMP JUMPDEST PUSH2 0x1B6 DUP2 PUSH2 0x19C JUMP JUMPDEST DUP3 MSTORE POP POP JUMP JUMPDEST PUSH0 PUSH1 0x20 DUP3 ADD SWAP1 POP PUSH2 0x1CF PUSH0 DUP4 ADD DUP5 PUSH2 0x1AD JUMP JUMPDEST SWAP3 SWAP2 POP POP JUMP JUMPDEST PUSH2 0x32D2 DUP1 PUSH2 0x1E2 PUSH0 CODECOPY PUSH0 RETURN INVALID PUSH1 0x80 PUSH1 0x40 MSTORE CALLVALUE DUP1 ISZERO PUSH2 0xF JUMPI PUSH0 PUSH0 REVERT JUMPDEST POP PUSH1 0x4 CALLDATASIZE LT PUSH2 0x230 JUMPI PUSH0 CALLDATALOAD PUSH1 0xE0 SHR DUP1 PUSH4 0x64CB6142 GT PUSH2 0x12E JUMPI DUP1 PUSH4 0xDD69BECD GT PUSH2 0xB6 JUMPI DUP1 PUSH4 0xF03F80C3 GT PUSH2 0x7A JUMPI DUP1 PUSH4 0xF03F80C3 EQ PUSH2 0x686 JUMPI DUP1 PUSH4 0xF1EA7692 EQ PUSH2 0x6A4 JUMPI DUP1 PUSH4 0xF2FDE38B EQ PUSH2 0x6C2 JUMPI DUP1 PUSH4 0xF3482650 EQ PUSH2 0x6DE JUMPI DUP1 PUSH4 0xF6CC5157 EQ PUSH2 0x70E JUMPI PUSH2 0x230 JUMP JUMPDEST DUP1 PUSH4 0xDD69BECD EQ PUSH2 0x5F6 JUMPI DUP1 PUSH4 0xE275C997 EQ PUSH2 0x612 JUMPI DUP1 PUSH4 0xE90B0D76 EQ PUSH2 0x630 JUMPI DUP1 PUSH4 0xE927E7C0 EQ PUSH2 0x64C JUMPI DUP1 PUSH4 0xEAB35B77 EQ PUSH2 0x668 JUMPI PUSH2 0x230 JUMP JUMPDEST DUP1 PUSH4 0x848FF684 GT PUSH2 0xFD JUMPI DUP1 PUSH4 0x848FF684 EQ PUSH2 0x562 JUMPI DUP1 PUSH4 0x8DA5CB5B EQ PUSH2 0x57E JUMPI DUP1 PUSH4 0x94D9B235 EQ PUSH2 0x59C JUMPI DUP1 PUSH4 0xC2362DD5 EQ PUSH2 0x5BA JUMPI DUP1 PUSH4 0xCCC8362C EQ PUSH2 0x5D8 JUMPI PUSH2 0x230 JUMP JUMPDEST DUP1 PUSH4 0x64CB6142 EQ PUSH2 0x4EC JUMPI DUP1 PUSH4 0x715018A6 EQ PUSH2 0x50A JUMPI DUP1 PUSH4 0x7ECEBE00 EQ PUSH2 0x514 JUMPI DUP1 PUSH4 0x8119185B EQ PUSH2 0x544 JUMPI PUSH2 0x230 JUMP JUMPDEST DUP1 PUSH4 0x25D5971F GT PUSH2 0x1BC JUMPI DUP1 PUSH4 0x519445E2 GT PUSH2 0x180 JUMPI DUP1 PUSH4 0x519445E2 EQ PUSH2 0x420 JUMPI DUP1 PUSH4 0x5829B3C7 EQ PUSH2 0x43E JUMPI DUP1 PUSH4 0x58BA9D27 EQ PUSH2 0x46E JUMPI DUP1 PUSH4 0x5C975ABB EQ PUSH2 0x49E JUMPI DUP1 PUSH4 0x5E2A9FA2 EQ PUSH2 0x4BC JUMPI PUSH2 0x230 JUMP JUMPDEST DUP1 PUSH4 0x25D5971F EQ PUSH2 0x379 JUMPI DUP1 PUSH4 0x31FDC2BA EQ PUSH2 0x395 JUMPI DUP1 PUSH4 0x430BF08A EQ PUSH2 0x3B1 JUMPI DUP1 PUSH4 0x45626BD6 EQ PUSH2 0x3CF JUMPI DUP1 PUSH4 0x4FF0876A EQ PUSH2 0x402 JUMPI PUSH2 0x230 JUMP JUMPDEST DUP1 PUSH4 0x158EF93E GT PUSH2 0x203 JUMPI DUP1 PUSH4 0x158EF93E EQ PUSH2 0x2D1 JUMPI DUP1 PUSH4 0x16330D40 EQ PUSH2 0x2EF JUMPI DUP1 PUSH4 0x16934FC4 EQ PUSH2 0x30D JUMPI DUP1 PUSH4 0x16C38B3C EQ PUSH2 0x33F JUMPI DUP1 PUSH4 0x1BFF38CD EQ PUSH2 0x35B JUMPI PUSH2 0x230 JUMP JUMPDEST DUP1 PUSH4 0x11A4568 EQ PUSH2 0x234 JUMPI DUP1 PUSH4 0x524FB7E EQ PUSH2 0x264 JUMPI DUP1 PUSH4 0x5C50A35 EQ PUSH2 0x280 JUMPI DUP1 PUSH4 0xFD7BF50 EQ PUSH2 0x2B3 JUMPI JUMPDEST PUSH0 PUSH0 REVERT JUMPDEST PUSH2 0x24E PUSH1 0x4 DUP1 CALLDATASIZE SUB DUP2 ADD SWAP1 PUSH2 0x249 SWAP2 SWAP1 PUSH2 0x23B3 JUMP JUMPDEST PUSH2 0x72C JUMP JUMPDEST PUSH1 0x40 MLOAD PUSH2 0x25B SWAP2 SWAP1 PUSH2 0x23F6 JUMP JUMPDEST PUSH1 0x40 MLOAD DUP1 SWAP2 SUB SWAP1 RETURN JUMPDEST PUSH2 0x27E PUSH1 0x4 DUP1 CALLDATASIZE SUB DUP2 ADD SWAP1 PUSH2 0x279 SWAP2 SWAP1 PUSH2 0x2439 JUMP JUMPDEST PUSH2 0x741 JUMP JUMPDEST STOP JUMPDEST PUSH2 0x29A PUSH1 0x4 DUP1 CALLDATASIZE SUB DUP2 ADD SWAP1 PUSH2 0x295 SWAP2 SWAP1 PUSH2 0x23B3 JUMP JUMPDEST PUSH2 0xA52 JUMP JUMPDEST PUSH1 0x40 MLOAD PUSH2 0x2AA SWAP5 SWAP4 SWAP3 SWAP2 SWAP1 PUSH2 0x2464 JUMP JUMPDEST PUSH1 0x40 MLOAD DUP1 SWAP2 SUB SWAP1 RETURN JUMPDEST PUSH2 0x2BB PUSH2 0xA7E JUMP JUMPDEST PUSH1 0x40 MLOAD PUSH2 0x2C8 SWAP2 SWAP1 PUSH2 0x2502 JUMP JUMPDEST PUSH1 0x40 MLOAD DUP1 SWAP2 SUB SWAP1 RETURN JUMPDEST PUSH2 0x2D9 PUSH2 0xAA3 JUMP JUMPDEST PUSH1 0x40 MLOAD PUSH2 0x2E6 SWAP2 SWAP1 PUSH2 0x2535 JUMP JUMPDEST PUSH1 0x40 MLOAD DUP1 SWAP2 SUB SWAP1 RETURN JUMPDEST PUSH2 0x2F7 PUSH2 0xAB6 JUMP JUMPDEST PUSH1 0x40 MLOAD PUSH2 0x304 SWAP2 SWAP1 PUSH2 0x23F6 JUMP JUMPDEST PUSH1 0x40 MLOAD DUP1 SWAP2 SUB SWAP1 RETURN JUMPDEST PUSH2 0x327 PUSH1 0x4 DUP1 CALLDATASIZE SUB DUP2 ADD SWAP1 PUSH2 0x322 SWAP2 SWAP1 PUSH2 0x23B3 JUMP JUMPDEST PUSH2 0xABC JUMP JUMPDEST PUSH1 0x40 MLOAD PUSH2 0x336 SWAP4 SWAP3 SWAP2 SWAP1 PUSH2 0x254E JUMP JUMPDEST PUSH1 0x40 MLOAD DUP1 SWAP2 SUB SWAP1 RETURN JUMPDEST PUSH2 0x359 PUSH1 0x4 DUP1 CALLDATASIZE SUB DUP2 ADD SWAP1 PUSH2 0x354 SWAP2 SWAP1 PUSH2 0x25AD JUMP JUMPDEST PUSH2 0xAE2 JUMP JUMPDEST STOP JUMPDEST PUSH2 0x363 PUSH2 0xB3D JUMP JUMPDEST PUSH1 0x40 MLOAD PUSH2 0x370 SWAP2 SWAP1 PUSH2 0x23F6 JUMP JUMPDEST PUSH1 0x40 MLOAD DUP1 SWAP2 SUB SWAP1 RETURN JUMPDEST PUSH2 0x393 PUSH1 0x4 DUP1 CALLDATASIZE SUB DUP2 ADD SWAP1 PUSH2 0x38E SWAP2 SWAP1 PUSH2 0x2439 JUMP JUMPDEST PUSH2 0xB43 JUMP JUMPDEST STOP JUMPDEST PUSH2 0x3AF PUSH1 0x4 DUP1 CALLDATASIZE SUB DUP2 ADD SWAP1 PUSH2 0x3AA SWAP2 SWAP1 PUSH2 0x25D8 JUMP JUMPDEST PUSH2 0xE52 JUMP JUMPDEST STOP JUMPDEST PUSH2 0x3B9 PUSH2 0xF3E JUMP JUMPDEST PUSH1 0x40 MLOAD PUSH2 0x3C6 SWAP2 SWAP1 PUSH2 0x2625 JUMP JUMPDEST PUSH1 0x40 MLOAD DUP1 SWAP2 SUB SWAP1 RETURN JUMPDEST PUSH2 0x3E9 PUSH1 0x4 DUP1 CALLDATASIZE SUB DUP2 ADD SWAP1 PUSH2 0x3E4 SWAP2 SWAP1 PUSH2 0x25D8 JUMP JUMPDEST PUSH2 0xF63 JUMP JUMPDEST PUSH1 0x40 MLOAD PUSH2 0x3F9 SWAP5 SWAP4 SWAP3 SWAP2 SWAP1 PUSH2 0x2464 JUMP JUMPDEST PUSH1 0x40 MLOAD DUP1 SWAP2 SUB SWAP1 RETURN JUMPDEST PUSH2 0x40A PUSH2 0xFA9 JUMP JUMPDEST PUSH1 0x40 MLOAD PUSH2 0x417 SWAP2 SWAP1 PUSH2 0x23F6 JUMP JUMPDEST PUSH1 0x40 MLOAD DUP1 SWAP2 SUB SWAP1 RETURN JUMPDEST PUSH2 0x428 PUSH2 0xFAF JUMP JUMPDEST PUSH1 0x40 MLOAD PUSH2 0x435 SWAP2 SWAP1 PUSH2 0x23F6 JUMP JUMPDEST PUSH1 0x40 MLOAD DUP1 SWAP2 SUB SWAP1 RETURN JUMPDEST PUSH2 0x458 PUSH1 0x4 DUP1 CALLDATASIZE SUB DUP2 ADD SWAP1 PUSH2 0x453 SWAP2 SWAP1 PUSH2 0x23B3 JUMP JUMPDEST PUSH2 0xFB5 JUMP JUMPDEST PUSH1 0x40 MLOAD PUSH2 0x465 SWAP2 SWAP1 PUSH2 0x23F6 JUMP JUMPDEST PUSH1 0x40 MLOAD DUP1 SWAP2 SUB SWAP1 RETURN JUMPDEST PUSH2 0x488 PUSH1 0x4 DUP1 CALLDATASIZE SUB DUP2 ADD SWAP1 PUSH2 0x483 SWAP2 SWAP1 PUSH2 0x23B3 JUMP JUMPDEST PUSH2 0xFCA JUMP JUMPDEST PUSH1 0x40 MLOAD PUSH2 0x495 SWAP2 SWAP1 PUSH2 0x23F6 JUMP JUMPDEST PUSH1 0x40 MLOAD DUP1 SWAP2 SUB SWAP1 RETURN JUMPDEST PUSH2 0x4A6 PUSH2 0xFDF JUMP JUMPDEST PUSH1 0x40 MLOAD PUSH2 0x4B3 SWAP2 SWAP1 PUSH2 0x2535 JUMP JUMPDEST PUSH1 0x40 MLOAD DUP1 SWAP2 SUB SWAP1 RETURN JUMPDEST PUSH2 0x4D6 PUSH1 0x4 DUP1 CALLDATASIZE SUB DUP2 ADD SWAP1 PUSH2 0x4D1 SWAP2 SWAP1 PUSH2 0x23B3 JUMP JUMPDEST PUSH2 0xFF1 JUMP JUMPDEST PUSH1 0x40 MLOAD PUSH2 0x4E3 SWAP2 SWAP1 PUSH2 0x23F6 JUMP JUMPDEST PUSH1 0x40 MLOAD DUP1 SWAP2 SUB SWAP1 RETURN JUMPDEST PUSH2 0x4F4 PUSH2 0x1006 JUMP JUMPDEST PUSH1 0x40 MLOAD PUSH2 0x501 SWAP2 SWAP1 PUSH2 0x23F6 JUMP JUMPDEST PUSH1 0x40 MLOAD DUP1 SWAP2 SUB SWAP1 RETURN JUMPDEST PUSH2 0x512 PUSH2 0x100C JUMP JUMPDEST STOP JUMPDEST PUSH2 0x52E PUSH1 0x4 DUP1 CALLDATASIZE SUB DUP2 ADD SWAP1 PUSH2 0x529 SWAP2 SWAP1 PUSH2 0x23B3 JUMP JUMPDEST PUSH2 0x101F JUMP JUMPDEST PUSH1 0x40 MLOAD PUSH2 0x53B SWAP2 SWAP1 PUSH2 0x23F6 JUMP JUMPDEST PUSH1 0x40 MLOAD DUP1 SWAP2 SUB SWAP1 RETURN JUMPDEST PUSH2 0x54C PUSH2 0x1034 JUMP JUMPDEST PUSH1 0x40 MLOAD PUSH2 0x559 SWAP2 SWAP1 PUSH2 0x23F6 JUMP JUMPDEST PUSH1 0x40 MLOAD DUP1 SWAP2 SUB SWAP1 RETURN JUMPDEST PUSH2 0x57C PUSH1 0x4 DUP1 CALLDATASIZE SUB DUP2 ADD SWAP1 PUSH2 0x577 SWAP2 SWAP1 PUSH2 0x2679 JUMP JUMPDEST PUSH2 0x103A JUMP JUMPDEST STOP JUMPDEST PUSH2 0x586 PUSH2 0x117D JUMP JUMPDEST PUSH1 0x40 MLOAD PUSH2 0x593 SWAP2 SWAP1 PUSH2 0x2625 JUMP JUMPDEST PUSH1 0x40 MLOAD DUP1 SWAP2 SUB SWAP1 RETURN JUMPDEST PUSH2 0x5A4 PUSH2 0x11A4 JUMP JUMPDEST PUSH1 0x40 MLOAD PUSH2 0x5B1 SWAP2 SWAP1 PUSH2 0x23F6 JUMP JUMPDEST PUSH1 0x40 MLOAD DUP1 SWAP2 SUB SWAP1 RETURN JUMPDEST PUSH2 0x5C2 PUSH2 0x11AA JUMP JUMPDEST PUSH1 0x40 MLOAD PUSH2 0x5CF SWAP2 SWAP1 PUSH2 0x23F6 JUMP JUMPDEST PUSH1 0x40 MLOAD DUP1 SWAP2 SUB SWAP1 RETURN JUMPDEST PUSH2 0x5E0 PUSH2 0x11B0 JUMP JUMPDEST PUSH1 0x40 MLOAD PUSH2 0x5ED SWAP2 SWAP1 PUSH2 0x23F6 JUMP JUMPDEST PUSH1 0x40 MLOAD DUP1 SWAP2 SUB SWAP1 RETURN JUMPDEST PUSH2 0x610 PUSH1 0x4 DUP1 CALLDATASIZE SUB DUP2 ADD SWAP1 PUSH2 0x60B SWAP2 SWAP1 PUSH2 0x2439 JUMP JUMPDEST PUSH2 0x11B6 JUMP JUMPDEST STOP JUMPDEST PUSH2 0x61A PUSH2 0x168A JUMP JUMPDEST PUSH1 0x40 MLOAD PUSH2 0x627 SWAP2 SWAP1 PUSH2 0x23F6 JUMP JUMPDEST PUSH1 0x40 MLOAD DUP1 SWAP2 SUB SWAP1 RETURN JUMPDEST PUSH2 0x64A PUSH1 0x4 DUP1 CALLDATASIZE SUB DUP2 ADD SWAP1 PUSH2 0x645 SWAP2 SWAP1 PUSH2 0x2866 JUMP JUMPDEST PUSH2 0x1690 JUMP JUMPDEST STOP JUMPDEST PUSH2 0x666 PUSH1 0x4 DUP1 CALLDATASIZE SUB DUP2 ADD SWAP1 PUSH2 0x661 SWAP2 SWAP1 PUSH2 0x28C0 JUMP JUMPDEST PUSH2 0x1A6B JUMP JUMPDEST STOP JUMPDEST PUSH2 0x670 PUSH2 0x1D8E JUMP JUMPDEST PUSH1 0x40 MLOAD PUSH2 0x67D SWAP2 SWAP1 PUSH2 0x23F6 JUMP JUMPDEST PUSH1 0x40 MLOAD DUP1 SWAP2 SUB SWAP1 RETURN JUMPDEST PUSH2 0x68E PUSH2 0x1D94 JUMP JUMPDEST PUSH1 0x40 MLOAD PUSH2 0x69B SWAP2 SWAP1 PUSH2 0x23F6 JUMP JUMPDEST PUSH1 0x40 MLOAD DUP1 SWAP2 SUB SWAP1 RETURN JUMPDEST PUSH2 0x6AC PUSH2 0x1D9A JUMP JUMPDEST PUSH1 0x40 MLOAD PUSH2 0x6B9 SWAP2 SWAP1 PUSH2 0x23F6 JUMP JUMPDEST PUSH1 0x40 MLOAD DUP1 SWAP2 SUB SWAP1 RETURN JUMPDEST PUSH2 0x6DC PUSH1 0x4 DUP1 CALLDATASIZE SUB DUP2 ADD SWAP1 PUSH2 0x6D7 SWAP2 SWAP1 PUSH2 0x23B3 JUMP JUMPDEST PUSH2 0x1DA0 JUMP JUMPDEST STOP JUMPDEST PUSH2 0x6F8 PUSH1 0x4 DUP1 CALLDATASIZE SUB DUP2 ADD SWAP1 PUSH2 0x6F3 SWAP2 SWAP1 PUSH2 0x23B3 JUMP JUMPDEST PUSH2 0x1E24 JUMP JUMPDEST PUSH1 0x40 MLOAD PUSH2 0x705 SWAP2 SWAP1 PUSH2 0x23F6 JUMP JUMPDEST PUSH1 0x40 MLOAD DUP1 SWAP2 SUB SWAP1 RETURN JUMPDEST PUSH2 0x716 PUSH2 0x1E39 JUMP JUMPDEST PUSH1 0x40 MLOAD PUSH2 0x723 SWAP2 SWAP1 PUSH2 0x23F6 JUMP JUMPDEST PUSH1 0x40 MLOAD DUP1 SWAP2 SUB SWAP1 RETURN JUMPDEST PUSH1 0x15 PUSH1 0x20 MSTORE DUP1 PUSH0 MSTORE PUSH1 0x40 PUSH0 KECCAK256 PUSH0 SWAP2 POP SWAP1 POP SLOAD DUP2 JUMP JUMPDEST PUSH1 0x11 PUSH0 SWAP1 SLOAD SWAP1 PUSH2 0x100 EXP SWAP1 DIV PUSH1 0xFF AND ISZERO PUSH2 0x790 JUMPI PUSH1 0x40 MLOAD PUSH32 0x8C379A000000000000000000000000000000000000000000000000000000000 DUP2 MSTORE PUSH1 0x4 ADD PUSH2 0x787 SWAP1 PUSH2 0x2958 JUMP JUMPDEST PUSH1 0x40 MLOAD DUP1 SWAP2 SUB SWAP1 REVERT JUMPDEST PUSH2 0x798 PUSH2 0x1E3F JUMP JUMPDEST PUSH1 0x11 PUSH1 0x1 SWAP1 SLOAD SWAP1 PUSH2 0x100 EXP SWAP1 DIV PUSH1 0xFF AND PUSH2 0x7E7 JUMPI PUSH1 0x40 MLOAD PUSH32 0x8C379A000000000000000000000000000000000000000000000000000000000 DUP2 MSTORE PUSH1 0x4 ADD PUSH2 0x7DE SWAP1 PUSH2 0x29C0 JUMP JUMPDEST PUSH1 0x40 MLOAD DUP1 SWAP2 SUB SWAP1 REVERT JUMPDEST PUSH1 0x2 PUSH0 SWAP1 SLOAD SWAP1 PUSH2 0x100 EXP SWAP1 DIV PUSH20 0xFFFFFFFFFFFFFFFFFFFFFFFFFFFFFFFFFFFFFFFF AND PUSH20 0xFFFFFFFFFFFFFFFFFFFFFFFFFFFFFFFFFFFFFFFF AND PUSH4 0x23B872DD CALLER PUSH1 0x1B PUSH0 SWAP1 SLOAD SWAP1 PUSH2 0x100 EXP SWAP1 DIV PUSH20 0xFFFFFFFFFFFFFFFFFFFFFFFFFFFFFFFFFFFFFFFF AND DUP5 PUSH1 0x40 MLOAD DUP5 PUSH4 0xFFFFFFFF AND PUSH1 0xE0 SHL DUP2 MSTORE PUSH1 0x4 ADD PUSH2 0x866 SWAP4 SWAP3 SWAP2 SWAP1 PUSH2 0x29DE JUMP JUMPDEST PUSH1 0x20 PUSH1 0x40 MLOAD DUP1 DUP4 SUB DUP2 PUSH0 DUP8 GAS CALL ISZERO DUP1 ISZERO PUSH2 0x882 JUMPI RETURNDATASIZE PUSH0 PUSH0 RETURNDATACOPY RETURNDATASIZE PUSH0 REVERT JUMPDEST POP POP POP POP PUSH1 0x40 MLOAD RETURNDATASIZE PUSH1 0x1F NOT PUSH1 0x1F DUP3 ADD AND DUP3 ADD DUP1 PUSH1 0x40 MSTORE POP DUP2 ADD SWAP1 PUSH2 0x8A6 SWAP2 SWAP1 PUSH2 0x2A27 JUMP JUMPDEST PUSH2 0x8E5 JUMPI PUSH1 0x40 MLOAD PUSH32 0x8C379A000000000000000000000000000000000000000000000000000000000 DUP2 MSTORE PUSH1 0x4 ADD PUSH2 0x8DC SWAP1 PUSH2 0x2A9C JUMP JUMPDEST PUSH1 0x40 MLOAD DUP1 SWAP2 SUB SWAP1 REVERT JUMPDEST PUSH0 PUSH1 0x18 PUSH0 CALLER PUSH20 0xFFFFFFFFFFFFFFFFFFFFFFFFFFFFFFFFFFFFFFFF AND PUSH20 0xFFFFFFFFFFFFFFFFFFFFFFFFFFFFFFFFFFFFFFFF AND DUP2 MSTORE PUSH1 0x20 ADD SWAP1 DUP2 MSTORE PUSH1 0x20 ADD PUSH0 KECCAK256 SWAP1 POP PUSH0 DUP2 PUSH1 0x2 ADD SLOAD SUB PUSH2 0x981 JUMPI TIMESTAMP DUP2 PUSH1 0x2 ADD DUP2 SWAP1 SSTORE POP PUSH1 0x64 PUSH1 0x19 PUSH0 CALLER PUSH20 0xFFFFFFFFFFFFFFFFFFFFFFFFFFFFFFFFFFFFFFFF AND PUSH20 0xFFFFFFFFFFFFFFFFFFFFFFFFFFFFFFFFFFFFFFFF AND DUP2 MSTORE PUSH1 0x20 ADD SWAP1 DUP2 MSTORE PUSH1 0x20 ADD PUSH0 KECCAK256 DUP2 SWAP1 SSTORE POP PUSH2 0x9D6 JUMP JUMPDEST PUSH1 0xA PUSH1 0x19 PUSH0 CALLER PUSH20 0xFFFFFFFFFFFFFFFFFFFFFFFFFFFFFFFFFFFFFFFF AND PUSH20 0xFFFFFFFFFFFFFFFFFFFFFFFFFFFFFFFFFFFFFFFF AND DUP2 MSTORE PUSH1 0x20 ADD SWAP1 DUP2 MSTORE PUSH1 0x20 ADD PUSH0 KECCAK256 PUSH0 DUP3 DUP3 SLOAD PUSH2 0x9CE SWAP2 SWAP1 PUSH2 0x2AE7 JUMP JUMPDEST SWAP3 POP POP DUP2 SWAP1 SSTORE POP JUMPDEST DUP2 DUP2 PUSH0 ADD PUSH0 DUP3 DUP3 SLOAD PUSH2 0x9E8 SWAP2 SWAP1 PUSH2 0x2AE7 JUMP JUMPDEST SWAP3 POP POP DUP2 SWAP1 SSTORE POP TIMESTAMP DUP2 PUSH1 0x1 ADD DUP2 SWAP1 SSTORE POP CALLER PUSH20 0xFFFFFFFFFFFFFFFFFFFFFFFFFFFFFFFFFFFFFFFF AND PUSH32 0x6AFD9B8C734CBFEDA8BA55AFBDD1AC413BF617456B50196186371D2CC95B8572 DUP4 PUSH1 0x40 MLOAD PUSH2 0xA3E SWAP2 SWAP1 PUSH2 0x23F6 JUMP JUMPDEST PUSH1 0x40 MLOAD DUP1 SWAP2 SUB SWAP1 LOG2 POP PUSH2 0xA4F PUSH2 0x1E8E JUMP JUMPDEST POP JUMP JUMPDEST PUSH1 0x17 PUSH1 0x20 MSTORE DUP1 PUSH0 MSTORE PUSH1 0x40 PUSH0 KECCAK256 PUSH0 SWAP2 POP SWAP1 POP DUP1 PUSH0 ADD SLOAD SWAP1 DUP1 PUSH1 0x1 ADD SLOAD SWAP1 DUP1 PUSH1 0x2 ADD SLOAD SWAP1 DUP1 PUSH1 0x3 ADD SLOAD SWAP1 POP DUP5 JUMP JUMPDEST PUSH1 0x2 PUSH0 SWAP1 SLOAD SWAP1 PUSH2 0x100 EXP SWAP1 DIV PUSH20 0xFFFFFFFFFFFFFFFFFFFFFFFFFFFFFFFFFFFFFFFF AND DUP2 JUMP JUMPDEST PUSH1 0x11 PUSH1 0x1 SWAP1 SLOAD SWAP1 PUSH2 0x100 EXP SWAP1 DIV PUSH1 0xFF AND DUP2 JUMP JUMPDEST PUSH1 0xB SLOAD DUP2 JUMP JUMPDEST PUSH1 0x18 PUSH1 0x20 MSTORE DUP1 PUSH0 MSTORE PUSH1 0x40 PUSH0 KECCAK256 PUSH0 SWAP2 POP SWAP1 POP DUP1 PUSH0 ADD SLOAD SWAP1 DUP1 PUSH1 0x1 ADD SLOAD SWAP1 DUP1 PUSH1 0x2 ADD SLOAD SWAP1 POP DUP4 JUMP JUMPDEST PUSH2 0xAEA PUSH2 0x1E97 JUMP JUMPDEST DUP1 PUSH1 0x11 PUSH0 PUSH2 0x100 EXP DUP2 SLOAD DUP2 PUSH1 0xFF MUL NOT AND SWAP1 DUP4 ISZERO ISZERO MUL OR SWAP1 SSTORE POP PUSH32 0xE2FB031EE032DC02D8011DC50B816EB450CF856ABD8261680DAC74F72165BD2 DUP2 PUSH1 0x40 MLOAD PUSH2 0xB32 SWAP2 SWAP1 PUSH2 0x2535 JUMP JUMPDEST PUSH1 0x40 MLOAD DUP1 SWAP2 SUB SWAP1 LOG1 POP JUMP JUMPDEST PUSH1 0xA SLOAD DUP2 JUMP JUMPDEST PUSH1 0x11 PUSH0 SWAP1 SLOAD SWAP1 PUSH2 0x100 EXP SWAP1 DIV PUSH1 0xFF AND ISZERO PUSH2 0xB92 JUMPI PUSH1 0x40 MLOAD PUSH32 0x8C379A000000000000000000000000000000000000000000000000000000000 DUP2 MSTORE PUSH1 0x4 ADD PUSH2 0xB89 SWAP1 PUSH2 0x2958 JUMP JUMPDEST PUSH1 0x40 MLOAD DUP1 SWAP2 SUB SWAP1 REVERT JUMPDEST PUSH2 0xB9A PUSH2 0x1E3F JUMP JUMPDEST PUSH1 0x11 PUSH1 0x1 SWAP1 SLOAD SWAP1 PUSH2 0x100 EXP SWAP1 DIV PUSH1 0xFF AND PUSH2 0xBE9 JUMPI PUSH1 0x40 MLOAD PUSH32 0x8C379A000000000000000000000000000000000000000000000000000000000 DUP2 MSTORE PUSH1 0x4 ADD PUSH2 0xBE0 SWAP1 PUSH2 0x29C0 JUMP JUMPDEST PUSH1 0x40 MLOAD DUP1 SWAP2 SUB SWAP1 REVERT JUMPDEST PUSH0 PUSH1 0x18 PUSH0 CALLER PUSH20 0xFFFFFFFFFFFFFFFFFFFFFFFFFFFFFFFFFFFFFFFF AND PUSH20 0xFFFFFFFFFFFFFFFFFFFFFFFFFFFFFFFFFFFFFFFF AND DUP2 MSTORE PUSH1 0x20 ADD SWAP1 DUP2 MSTORE PUSH1 0x20 ADD PUSH0 KECCAK256 SWAP1 POP DUP1 PUSH0 ADD SLOAD DUP3 GT ISZERO PUSH2 0xC6F JUMPI PUSH1 0x40 MLOAD PUSH32 0x8C379A000000000000000000000000000000000000000000000000000000000 DUP2 MSTORE PUSH1 0x4 ADD PUSH2 0xC66 SWAP1 PUSH2 0x2B64 JUMP JUMPDEST PUSH1 0x40 MLOAD DUP1 SWAP2 SUB SWAP1 REVERT JUMPDEST PUSH0 PUSH0 SWAP1 POP PUSH3 0x93A80 DUP3 PUSH1 0x2 ADD SLOAD PUSH2 0xC86 SWAP2 SWAP1 PUSH2 0x2AE7 JUMP JUMPDEST TIMESTAMP LT ISZERO PUSH2 0xCAA JUMPI PUSH1 0x64 PUSH1 0xB SLOAD DUP5 PUSH2 0xC9D SWAP2 SWAP1 PUSH2 0x2B82 JUMP JUMPDEST PUSH2 0xCA7 SWAP2 SWAP1 PUSH2 0x2BF0 JUMP JUMPDEST SWAP1 POP JUMPDEST PUSH0 DUP2 DUP5 PUSH2 0xCB7 SWAP2 SWAP1 PUSH2 0x2C20 JUMP JUMPDEST SWAP1 POP DUP4 DUP4 PUSH0 ADD PUSH0 DUP3 DUP3 SLOAD PUSH2 0xCCB SWAP2 SWAP1 PUSH2 0x2C20 JUMP JUMPDEST SWAP3 POP POP DUP2 SWAP1 SSTORE POP PUSH1 0x1B PUSH0 SWAP1 SLOAD SWAP1 PUSH2 0x100 EXP SWAP1 DIV PUSH20 0xFFFFFFFFFFFFFFFFFFFFFFFFFFFFFFFFFFFFFFFF AND PUSH20 0xFFFFFFFFFFFFFFFFFFFFFFFFFFFFFFFFFFFFFFFF AND PUSH4 0xF3FEF3A3 CALLER DUP4 PUSH1 0x40 MLOAD DUP4 PUSH4 0xFFFFFFFF AND PUSH1 0xE0 SHL DUP2 MSTORE PUSH1 0x4 ADD PUSH2 0xD2E SWAP3 SWAP2 SWAP1 PUSH2 0x2C53 JUMP JUMPDEST PUSH0 PUSH1 0x40 MLOAD DUP1 DUP4 SUB DUP2 PUSH0 DUP8 DUP1 EXTCODESIZE ISZERO DUP1 ISZERO PUSH2 0xD45 JUMPI PUSH0 PUSH0 REVERT JUMPDEST POP GAS CALL ISZERO DUP1 ISZERO PUSH2 0xD57 JUMPI RETURNDATASIZE PUSH0 PUSH0 RETURNDATACOPY RETURNDATASIZE PUSH0 REVERT JUMPDEST POP POP POP POP PUSH0 DUP3 GT ISZERO PUSH2 0xDF4 JUMPI PUSH1 0x1B PUSH0 SWAP1 SLOAD SWAP1 PUSH2 0x100 EXP SWAP1 DIV PUSH20 0xFFFFFFFFFFFFFFFFFFFFFFFFFFFFFFFFFFFFFFFF AND PUSH20 0xFFFFFFFFFFFFFFFFFFFFFFFFFFFFFFFFFFFFFFFF AND PUSH4 0xF3FEF3A3 PUSH2 0xDA8 PUSH2 0x117D JUMP JUMPDEST DUP5 PUSH1 0x40 MLOAD DUP4 PUSH4 0xFFFFFFFF AND PUSH1 0xE0 SHL DUP2 MSTORE PUSH1 0x4 ADD PUSH2 0xDC6 SWAP3 SWAP2 SWAP1 PUSH2 0x2C53 JUMP JUMPDEST PUSH0 PUSH1 0x40 MLOAD DUP1 DUP4 SUB DUP2 PUSH0 DUP8 DUP1 EXTCODESIZE ISZERO DUP1 ISZERO PUSH2 0xDDD JUMPI PUSH0 PUSH0 REVERT JUMPDEST POP GAS CALL ISZERO DUP1 ISZERO PUSH2 0xDEF JUMPI RETURNDATASIZE PUSH0 PUSH0 RETURNDATACOPY RETURNDATASIZE PUSH0 REVERT JUMPDEST POP POP POP POP JUMPDEST CALLER PUSH20 0xFFFFFFFFFFFFFFFFFFFFFFFFFFFFFFFFFFFFFFFF AND PUSH32 0x933735AA8DE6D7547D0126171B2F31B9C34DD00F3ECD4BE85A0BA047DB4FAFEF DUP3 DUP5 PUSH1 0x40 MLOAD PUSH2 0xE3C SWAP3 SWAP2 SWAP1 PUSH2 0x2C7A JUMP JUMPDEST PUSH1 0x40 MLOAD DUP1 SWAP2 SUB SWAP1 LOG2 POP POP POP PUSH2 0xE4F PUSH2 0x1E8E JUMP JUMPDEST POP JUMP JUMPDEST PUSH2 0xE5A PUSH2 0x1E97 JUMP JUMPDEST PUSH0 DUP2 GT PUSH2 0xE68 JUMPI PUSH1 0x64 PUSH2 0xE6B JUMP JUMPDEST PUSH1 0x78 JUMPDEST PUSH1 0xFF AND PUSH1 0x16 PUSH0 DUP5 PUSH20 0xFFFFFFFFFFFFFFFFFFFFFFFFFFFFFFFFFFFFFFFF AND PUSH20 0xFFFFFFFFFFFFFFFFFFFFFFFFFFFFFFFFFFFFFFFF AND DUP2 MSTORE PUSH1 0x20 ADD SWAP1 DUP2 MSTORE PUSH1 0x20 ADD PUSH0 KECCAK256 DUP2 SWAP1 SSTORE POP DUP2 PUSH20 0xFFFFFFFFFFFFFFFFFFFFFFFFFFFFFFFFFFFFFFFF AND PUSH32 0xABCC9B515858A553F53609BB223669708665910A51030D923C842DE23F099913 PUSH1 0x16 PUSH0 DUP6 PUSH20 0xFFFFFFFFFFFFFFFFFFFFFFFFFFFFFFFFFFFFFFFF AND PUSH20 0xFFFFFFFFFFFFFFFFFFFFFFFFFFFFFFFFFFFFFFFF AND DUP2 MSTORE PUSH1 0x20 ADD SWAP1 DUP2 MSTORE PUSH1 0x20 ADD PUSH0 KECCAK256 SLOAD PUSH1 0x40 MLOAD PUSH2 0xF32 SWAP2 SWAP1 PUSH2 0x23F6 JUMP JUMPDEST PUSH1 0x40 MLOAD DUP1 SWAP2 SUB SWAP1 LOG2 POP POP JUMP JUMPDEST PUSH1 0x1B PUSH0 SWAP1 SLOAD SWAP1 PUSH2 0x100 EXP SWAP1 DIV PUSH20 0xFFFFFFFFFFFFFFFFFFFFFFFFFFFFFFFFFFFFFFFF AND DUP2 JUMP JUMPDEST PUSH1 0x1A PUSH1 0x20 MSTORE DUP2 PUSH0 MSTORE PUSH1 0x40 PUSH0 KECCAK256 DUP2 DUP2 SLOAD DUP2 LT PUSH2 0xF7C JUMPI PUSH0 DUP1 REVERT JUMPDEST SWAP1 PUSH0 MSTORE PUSH1 0x20 PUSH0 KECCAK256 SWAP1 PUSH1 0x4 MUL ADD PUSH0 SWAP2 POP SWAP2 POP POP DUP1 PUSH0 ADD SLOAD SWAP1 DUP1 PUSH1 0x1 ADD SLOAD SWAP1 DUP1 PUSH1 0x2 ADD SLOAD SWAP1 DUP1 PUSH1 0x3 ADD SLOAD SWAP1 POP DUP5 JUMP JUMPDEST PUSH1 0xD SLOAD DUP2 JUMP JUMPDEST PUSH1 0x6 SLOAD DUP2 JUMP JUMPDEST PUSH1 0x16 PUSH1 0x20 MSTORE DUP1 PUSH0 MSTORE PUSH1 0x40 PUSH0 KECCAK256 PUSH0 SWAP2 POP SWAP1 POP SLOAD DUP2 JUMP JUMPDEST PUSH1 0x19 PUSH1 0x20 MSTORE DUP1 PUSH0 MSTORE PUSH1 0x40 PUSH0 KECCAK256 PUSH0 SWAP2 POP SWAP1 POP SLOAD DUP2 JUMP JUMPDEST PUSH1 0x11 PUSH0 SWAP1 SLOAD SWAP1 PUSH2 0x100 EXP SWAP1 DIV PUSH1 0xFF AND DUP2 JUMP JUMPDEST PUSH1 0x14 PUSH1 0x20 MSTORE DUP1 PUSH0 MSTORE PUSH1 0x40 PUSH0 KECCAK256 PUSH0 SWAP2 POP SWAP1 POP SLOAD DUP2 JUMP JUMPDEST PUSH1 0x9 SLOAD DUP2 JUMP JUMPDEST PUSH2 0x1014 PUSH2 0x1E97 JUMP JUMPDEST PUSH2 0x101D PUSH0 PUSH2 0x1F1E JUMP JUMPDEST JUMP JUMPDEST PUSH1 0x12 PUSH1 0x20 MSTORE DUP1 PUSH0 MSTORE PUSH1 0x40 PUSH0 KECCAK256 PUSH0 SWAP2 POP SWAP1 POP SLOAD DUP2 JUMP JUMPDEST PUSH1 0xE SLOAD DUP2 JUMP JUMPDEST PUSH2 0x1042 PUSH2 0x1E97 JUMP JUMPDEST PUSH1 0x11 PUSH1 0x1 SWAP1 SLOAD SWAP1 PUSH2 0x100 EXP SWAP1 DIV PUSH1 0xFF AND ISZERO PUSH2 0x1092 JUMPI PUSH1 0x40 MLOAD PUSH32 0x8C379A000000000000000000000000000000000000000000000000000000000 DUP2 MSTORE PUSH1 0x4 ADD PUSH2 0x1089 SWAP1 PUSH2 0x2CEB JUMP JUMPDEST PUSH1 0x40 MLOAD DUP1 SWAP2 SUB SWAP1 REVERT JUMPDEST DUP8 PUSH1 0x2 PUSH0 PUSH2 0x100 EXP DUP2 SLOAD DUP2 PUSH20 0xFFFFFFFFFFFFFFFFFFFFFFFFFFFFFFFFFFFFFFFF MUL NOT AND SWAP1 DUP4 PUSH20 0xFFFFFFFFFFFFFFFFFFFFFFFFFFFFFFFFFFFFFFFF AND MUL OR SWAP1 SSTORE POP DUP7 PUSH1 0x3 DUP2 SWAP1 SSTORE POP DUP6 PUSH1 0x4 DUP2 SWAP1 SSTORE POP PUSH0 PUSH1 0x5 DUP2 SWAP1 SSTORE POP PUSH0 PUSH1 0x6 DUP2 SWAP1 SSTORE POP DUP5 PUSH1 0x7 DUP2 SWAP1 SSTORE POP PUSH0 PUSH1 0x8 DUP2 SWAP1 SSTORE POP DUP4 PUSH1 0x9 DUP2 SWAP1 SSTORE POP DUP3 PUSH1 0xA DUP2 SWAP1 SSTORE POP DUP2 PUSH1 0xD DUP2 SWAP1 SSTORE POP NUMBER PUSH1 0xC DUP2 SWAP1 SSTORE POP DUP1 PUSH1 0x1B PUSH0 PUSH2 0x100 EXP DUP2 SLOAD DUP2 PUSH20 0xFFFFFFFFFFFFFFFFFFFFFFFFFFFFFFFFFFFFFFFF MUL NOT AND SWAP1 DUP4 PUSH20 0xFFFFFFFFFFFFFFFFFFFFFFFFFFFFFFFFFFFFFFFF AND MUL OR SWAP1 SSTORE POP PUSH1 0x1 PUSH1 0x11 PUSH1 0x1 PUSH2 0x100 EXP DUP2 SLOAD DUP2 PUSH1 0xFF MUL NOT AND SWAP1 DUP4 ISZERO ISZERO MUL OR SWAP1 SSTORE POP POP POP POP POP POP POP POP POP JUMP JUMPDEST PUSH0 PUSH0 PUSH0 SWAP1 SLOAD SWAP1 PUSH2 0x100 EXP SWAP1 DIV PUSH20 0xFFFFFFFFFFFFFFFFFFFFFFFFFFFFFFFFFFFFFFFF AND SWAP1 POP SWAP1 JUMP JUMPDEST PUSH1 0xF SLOAD DUP2 JUMP JUMPDEST PUSH1 0xC SLOAD DUP2 JUMP JUMPDEST PUSH1 0x4 SLOAD DUP2 JUMP JUMPDEST PUSH1 0x11 PUSH0 SWAP1 SLOAD SWAP1 PUSH2 0x100 EXP SWAP1 DIV PUSH1 0xFF AND ISZERO PUSH2 0x1205 JUMPI PUSH1 0x40 MLOAD PUSH32 0x8C379A000000000000000000000000000000000000000000000000000000000 DUP2 MSTORE PUSH1 0x4 ADD PUSH2 0x11FC SWAP1 PUSH2 0x2958 JUMP JUMPDEST PUSH1 0x40 MLOAD DUP1 SWAP2 SUB SWAP1 REVERT JUMPDEST PUSH2 0x120D PUSH2 0x1E3F JUMP JUMPDEST PUSH1 0x11 PUSH1 0x1 SWAP1 SLOAD SWAP1 PUSH2 0x100 EXP SWAP1 DIV PUSH1 0xFF AND PUSH2 0x125C JUMPI PUSH1 0x40 MLOAD PUSH32 0x8C379A000000000000000000000000000000000000000000000000000000000 DUP2 MSTORE PUSH1 0x4 ADD PUSH2 0x1253 SWAP1 PUSH2 0x29C0 JUMP JUMPDEST PUSH1 0x40 MLOAD DUP1 SWAP2 SUB SWAP1 REVERT JUMPDEST DUP1 PUSH1 0x12 PUSH0 CALLER PUSH20 0xFFFFFFFFFFFFFFFFFFFFFFFFFFFFFFFFFFFFFFFF AND PUSH20 0xFFFFFFFFFFFFFFFFFFFFFFFFFFFFFFFFFFFFFFFF AND DUP2 MSTORE PUSH1 0x20 ADD SWAP1 DUP2 MSTORE PUSH1 0x20 ADD PUSH0 KECCAK256 SLOAD EQ PUSH2 0x12DB JUMPI PUSH1 0x40 MLOAD PUSH32 0x8C379A000000000000000000000000000000000000000000000000000000000 DUP2 MSTORE PUSH1 0x4 ADD PUSH2 0x12D2 SWAP1 PUSH2 0x2D53 JUMP JUMPDEST PUSH1 0x40 MLOAD DUP1 SWAP2 SUB SWAP1 REVERT JUMPDEST PUSH1 0x12 PUSH0 CALLER PUSH20 0xFFFFFFFFFFFFFFFFFFFFFFFFFFFFFFFFFFFFFFFF AND PUSH20 0xFFFFFFFFFFFFFFFFFFFFFFFFFFFFFFFFFFFFFFFF AND DUP2 MSTORE PUSH1 0x20 ADD SWAP1 DUP2 MSTORE PUSH1 0x20 ADD PUSH0 KECCAK256 PUSH0 DUP2 SLOAD DUP1 SWAP3 SWAP2 SWAP1 PUSH2 0x1328 SWAP1 PUSH2 0x2D71 JUMP JUMPDEST SWAP2 SWAP1 POP SSTORE POP PUSH0 PUSH1 0x18 PUSH0 CALLER PUSH20 0xFFFFFFFFFFFFFFFFFFFFFFFFFFFFFFFFFFFFFFFF AND PUSH20 0xFFFFFFFFFFFFFFFFFFFFFFFFFFFFFFFFFFFFFFFF AND DUP2 MSTORE PUSH1 0x20 ADD SWAP1 DUP2 MSTORE PUSH1 0x20 ADD PUSH0 KECCAK256 SWAP1 POP PUSH0 DUP2 PUSH1 0x2 ADD SLOAD SUB PUSH2 0x13B3 JUMPI PUSH1 0x40 MLOAD PUSH32 0x8C379A000000000000000000000000000000000000000000000000000000000 DUP2 MSTORE PUSH1 0x4 ADD PUSH2 0x13AA SWAP1 PUSH2 0x2E02 JUMP JUMPDEST PUSH1 0x40 MLOAD DUP1 SWAP2 SUB SWAP1 REVERT JUMPDEST PUSH0 DUP2 PUSH1 0x1 ADD SLOAD TIMESTAMP PUSH2 0x13C4 SWAP2 SWAP1 PUSH2 0x2C20 JUMP JUMPDEST SWAP1 POP PUSH0 DUP2 GT PUSH2 0x1408 JUMPI PUSH1 0x40 MLOAD PUSH32 0x8C379A000000000000000000000000000000000000000000000000000000000 DUP2 MSTORE PUSH1 0x4 ADD PUSH2 0x13FF SWAP1 PUSH2 0x2E6A JUMP JUMPDEST PUSH1 0x40 MLOAD DUP1 SWAP2 SUB SWAP1 REVERT JUMPDEST PUSH0 PUSH1 0x4 SLOAD SWAP1 POP PUSH1 0x9 SLOAD PUSH1 0x8 SLOAD GT ISZERO PUSH2 0x1439 JUMPI PUSH1 0x64 PUSH1 0xA SLOAD PUSH1 0x4 SLOAD PUSH2 0x142C SWAP2 SWAP1 PUSH2 0x2B82 JUMP JUMPDEST PUSH2 0x1436 SWAP2 SWAP1 PUSH2 0x2BF0 JUMP JUMPDEST SWAP1 POP JUMPDEST PUSH0 PUSH0 PUSH1 0x16 PUSH0 CALLER PUSH20 0xFFFFFFFFFFFFFFFFFFFFFFFFFFFFFFFFFFFFFFFF AND PUSH20 0xFFFFFFFFFFFFFFFFFFFFFFFFFFFFFFFFFFFFFFFF AND DUP2 MSTORE PUSH1 0x20 ADD SWAP1 DUP2 MSTORE PUSH1 0x20 ADD PUSH0 KECCAK256 SLOAD EQ PUSH2 0x14C1 JUMPI PUSH1 0x16 PUSH0 CALLER PUSH20 0xFFFFFFFFFFFFFFFFFFFFFFFFFFFFFFFFFFFFFFFF AND PUSH20 0xFFFFFFFFFFFFFFFFFFFFFFFFFFFFFFFFFFFFFFFF AND DUP2 MSTORE PUSH1 0x20 ADD SWAP1 DUP2 MSTORE PUSH1 0x20 ADD PUSH0 KECCAK256 SLOAD PUSH2 0x14C4 JUMP JUMPDEST PUSH1 0x64 JUMPDEST SWAP1 POP PUSH1 0x64 DUP2 DUP4 PUSH2 0x14D4 SWAP2 SWAP1 PUSH2 0x2B82 JUMP JUMPDEST PUSH2 0x14DE SWAP2 SWAP1 PUSH2 0x2BF0 JUMP JUMPDEST SWAP2 POP PUSH0 DUP4 DUP4 DUP7 PUSH0 ADD SLOAD PUSH2 0x14F1 SWAP2 SWAP1 PUSH2 0x2B82 JUMP JUMPDEST PUSH2 0x14FB SWAP2 SWAP1 PUSH2 0x2B82 JUMP JUMPDEST SWAP1 POP PUSH1 0x64 PUSH1 0x19 PUSH0 CALLER PUSH20 0xFFFFFFFFFFFFFFFFFFFFFFFFFFFFFFFFFFFFFFFF AND PUSH20 0xFFFFFFFFFFFFFFFFFFFFFFFFFFFFFFFFFFFFFFFF AND DUP2 MSTORE PUSH1 0x20 ADD SWAP1 DUP2 MSTORE PUSH1 0x20 ADD PUSH0 KECCAK256 SLOAD DUP3 PUSH2 0x1548 SWAP2 SWAP1 PUSH2 0x2B82 JUMP JUMPDEST PUSH2 0x1552 SWAP2 SWAP1 PUSH2 0x2BF0 JUMP JUMPDEST SWAP1 POP PUSH1 0xE SLOAD DUP6 PUSH1 0x1 ADD SLOAD PUSH2 0x1566 SWAP2 SWAP1 PUSH2 0x2AE7 JUMP JUMPDEST TIMESTAMP GT ISZERO PUSH2 0x159A JUMPI PUSH0 PUSH1 0x64 PUSH1 0xF SLOAD DUP4 PUSH2 0x157E SWAP2 SWAP1 PUSH2 0x2B82 JUMP JUMPDEST PUSH2 0x1588 SWAP2 SWAP1 PUSH2 0x2BF0 JUMP JUMPDEST SWAP1 POP DUP1 DUP3 PUSH2 0x1596 SWAP2 SWAP1 PUSH2 0x2C20 JUMP JUMPDEST SWAP2 POP POP JUMPDEST TIMESTAMP DUP6 PUSH1 0x1 ADD DUP2 SWAP1 SSTORE POP PUSH1 0x2 PUSH0 SWAP1 SLOAD SWAP1 PUSH2 0x100 EXP SWAP1 DIV PUSH20 0xFFFFFFFFFFFFFFFFFFFFFFFFFFFFFFFFFFFFFFFF AND PUSH20 0xFFFFFFFFFFFFFFFFFFFFFFFFFFFFFFFFFFFFFFFF AND PUSH4 0x40C10F19 CALLER DUP4 PUSH1 0x40 MLOAD DUP4 PUSH4 0xFFFFFFFF AND PUSH1 0xE0 SHL DUP2 MSTORE PUSH1 0x4 ADD PUSH2 0x15FF SWAP3 SWAP2 SWAP1 PUSH2 0x2C53 JUMP JUMPDEST PUSH0 PUSH1 0x40 MLOAD DUP1 DUP4 SUB DUP2 PUSH0 DUP8 DUP1 EXTCODESIZE ISZERO DUP1 ISZERO PUSH2 0x1616 JUMPI PUSH0 PUSH0 REVERT JUMPDEST POP GAS CALL ISZERO DUP1 ISZERO PUSH2 0x1628 JUMPI RETURNDATASIZE PUSH0 PUSH0 RETURNDATACOPY RETURNDATASIZE PUSH0 REVERT JUMPDEST POP POP POP POP CALLER PUSH20 0xFFFFFFFFFFFFFFFFFFFFFFFFFFFFFFFFFFFFFFFF AND PUSH32 0x4DD465EB9D4BF90CAF3400CC334C731B4CEF0AA7F013E5D72F20B0CEC2E30EA9 DUP3 PUSH1 0x40 MLOAD PUSH2 0x1672 SWAP2 SWAP1 PUSH2 0x23F6 JUMP JUMPDEST PUSH1 0x40 MLOAD DUP1 SWAP2 SUB SWAP1 LOG2 POP POP POP POP POP PUSH2 0x1687 PUSH2 0x1E8E JUMP JUMPDEST POP JUMP JUMPDEST PUSH1 0x5 SLOAD DUP2 JUMP JUMPDEST PUSH1 0x11 PUSH0 SWAP1 SLOAD SWAP1 PUSH2 0x100 EXP SWAP1 DIV PUSH1 0xFF AND ISZERO PUSH2 0x16DF JUMPI PUSH1 0x40 MLOAD PUSH32 0x8C379A000000000000000000000000000000000000000000000000000000000 DUP2 MSTORE PUSH1 0x4 ADD PUSH2 0x16D6 SWAP1 PUSH2 0x2958 JUMP JUMPDEST PUSH1 0x40 MLOAD DUP1 SWAP2 SUB SWAP1 REVERT JUMPDEST PUSH2 0x16E7 PUSH2 0x1E3F JUMP JUMPDEST PUSH1 0x11 PUSH1 0x1 SWAP1 SLOAD SWAP1 PUSH2 0x100 EXP SWAP1 DIV PUSH1 0xFF AND PUSH2 0x1736 JUMPI PUSH1 0x40 MLOAD PUSH32 0x8C379A000000000000000000000000000000000000000000000000000000000 DUP2 MSTORE PUSH1 0x4 ADD PUSH2 0x172D SWAP1 PUSH2 0x29C0 JUMP JUMPDEST PUSH1 0x40 MLOAD DUP1 SWAP2 SUB SWAP1 REVERT JUMPDEST DUP2 PUSH1 0x12 PUSH0 CALLER PUSH20 0xFFFFFFFFFFFFFFFFFFFFFFFFFFFFFFFFFFFFFFFF AND PUSH20 0xFFFFFFFFFFFFFFFFFFFFFFFFFFFFFFFFFFFFFFFF AND DUP2 MSTORE PUSH1 0x20 ADD SWAP1 DUP2 MSTORE PUSH1 0x20 ADD PUSH0 KECCAK256 SLOAD EQ PUSH2 0x17B5 JUMPI PUSH1 0x40 MLOAD PUSH32 0x8C379A000000000000000000000000000000000000000000000000000000000 DUP2 MSTORE PUSH1 0x4 ADD PUSH2 0x17AC SWAP1 PUSH2 0x2D53 JUMP JUMPDEST PUSH1 0x40 MLOAD DUP1 SWAP2 SUB SWAP1 REVERT JUMPDEST PUSH2 0x17C0 CALLER DUP4 DUP4 PUSH2 0x1FDF JUMP JUMPDEST PUSH2 0x17FF JUMPI PUSH1 0x40 MLOAD PUSH32 0x8C379A000000000000000000000000000000000000000000000000000000000 DUP2 MSTORE PUSH1 0x4 ADD PUSH2 0x17F6 SWAP1 PUSH2 0x2ED2 JUMP JUMPDEST PUSH1 0x40 MLOAD DUP1 SWAP2 SUB SWAP1 REVERT JUMPDEST PUSH1 0x12 PUSH0 CALLER PUSH20 0xFFFFFFFFFFFFFFFFFFFFFFFFFFFFFFFFFFFFFFFF AND PUSH20 0xFFFFFFFFFFFFFFFFFFFFFFFFFFFFFFFFFFFFFFFF AND DUP2 MSTORE PUSH1 0x20 ADD SWAP1 DUP2 MSTORE PUSH1 0x20 ADD PUSH0 KECCAK256 PUSH0 DUP2 SLOAD DUP1 SWAP3 SWAP2 SWAP1 PUSH2 0x184C SWAP1 PUSH2 0x2D71 JUMP JUMPDEST SWAP2 SWAP1 POP SSTORE POP PUSH0 PUSH1 0x17 PUSH0 CALLER PUSH20 0xFFFFFFFFFFFFFFFFFFFFFFFFFFFFFFFFFFFFFFFF AND PUSH20 0xFFFFFFFFFFFFFFFFFFFFFFFFFFFFFFFFFFFFFFFF AND DUP2 MSTORE PUSH1 0x20 ADD SWAP1 DUP2 MSTORE PUSH1 0x20 ADD PUSH0 KECCAK256 SWAP1 POP PUSH1 0x7 SLOAD DUP2 PUSH1 0x3 ADD SLOAD PUSH2 0x18A3 SWAP2 SWAP1 PUSH2 0x2AE7 JUMP JUMPDEST TIMESTAMP LT ISZERO PUSH2 0x18E5 JUMPI PUSH1 0x40 MLOAD PUSH32 0x8C379A000000000000000000000000000000000000000000000000000000000 DUP2 MSTORE PUSH1 0x4 ADD PUSH2 0x18DC SWAP1 PUSH2 0x2F3A JUMP JUMPDEST PUSH1 0x40 MLOAD DUP1 SWAP2 SUB SWAP1 REVERT JUMPDEST PUSH0 DUP2 PUSH1 0x2 ADD SLOAD SWAP1 POP PUSH0 DUP2 GT PUSH2 0x192F JUMPI PUSH1 0x40 MLOAD PUSH32 0x8C379A000000000000000000000000000000000000000000000000000000000 DUP2 MSTORE PUSH1 0x4 ADD PUSH2 0x1926 SWAP1 PUSH2 0x2FA2 JUMP JUMPDEST PUSH1 0x40 MLOAD DUP1 SWAP2 SUB SWAP1 REVERT JUMPDEST PUSH1 0x10 SLOAD DUP2 GT ISZERO PUSH2 0x1974 JUMPI PUSH1 0x40 MLOAD PUSH32 0x8C379A000000000000000000000000000000000000000000000000000000000 DUP2 MSTORE PUSH1 0x4 ADD PUSH2 0x196B SWAP1 PUSH2 0x300A JUMP JUMPDEST PUSH1 0x40 MLOAD DUP1 SWAP2 SUB SWAP1 REVERT JUMPDEST PUSH0 DUP3 PUSH1 0x2 ADD DUP2 SWAP1 SSTORE POP TIMESTAMP DUP3 PUSH1 0x3 ADD DUP2 SWAP1 SSTORE POP PUSH1 0x2 PUSH0 SWAP1 SLOAD SWAP1 PUSH2 0x100 EXP SWAP1 DIV PUSH20 0xFFFFFFFFFFFFFFFFFFFFFFFFFFFFFFFFFFFFFFFF AND PUSH20 0xFFFFFFFFFFFFFFFFFFFFFFFFFFFFFFFFFFFFFFFF AND PUSH4 0x40C10F19 CALLER DUP4 PUSH1 0x40 MLOAD DUP4 PUSH4 0xFFFFFFFF AND PUSH1 0xE0 SHL DUP2 MSTORE PUSH1 0x4 ADD PUSH2 0x19E2 SWAP3 SWAP2 SWAP1 PUSH2 0x2C53 JUMP JUMPDEST PUSH0 PUSH1 0x40 MLOAD DUP1 DUP4 SUB DUP2 PUSH0 DUP8 DUP1 EXTCODESIZE ISZERO DUP1 ISZERO PUSH2 0x19F9 JUMPI PUSH0 PUSH0 REVERT JUMPDEST POP GAS CALL ISZERO DUP1 ISZERO PUSH2 0x1A0B JUMPI RETURNDATASIZE PUSH0 PUSH0 RETURNDATACOPY RETURNDATASIZE PUSH0 REVERT JUMPDEST POP POP POP POP CALLER PUSH20 0xFFFFFFFFFFFFFFFFFFFFFFFFFFFFFFFFFFFFFFFF AND PUSH32 0xB127973BF29D1DAE6424FEF4F7461E0B9C444636AB23A8392D9969500034A13D DUP3 PUSH1 0x40 MLOAD PUSH2 0x1A55 SWAP2 SWAP1 PUSH2 0x23F6 JUMP JUMPDEST PUSH1 0x40 MLOAD DUP1 SWAP2 SUB SWAP1 LOG2 POP POP PUSH2 0x1A67 PUSH2 0x1E8E JUMP JUMPDEST POP POP JUMP JUMPDEST PUSH1 0x11 PUSH0 SWAP1 SLOAD SWAP1 PUSH2 0x100 EXP SWAP1 DIV PUSH1 0xFF AND ISZERO PUSH2 0x1ABA JUMPI PUSH1 0x40 MLOAD PUSH32 0x8C379A000000000000000000000000000000000000000000000000000000000 DUP2 MSTORE PUSH1 0x4 ADD PUSH2 0x1AB1 SWAP1 PUSH2 0x2958 JUMP JUMPDEST PUSH1 0x40 MLOAD DUP1 SWAP2 SUB SWAP1 REVERT JUMPDEST PUSH2 0x1AC2 PUSH2 0x1E3F JUMP JUMPDEST PUSH1 0x11 PUSH1 0x1 SWAP1 SLOAD SWAP1 PUSH2 0x100 EXP SWAP1 DIV PUSH1 0xFF AND PUSH2 0x1B11 JUMPI PUSH1 0x40 MLOAD PUSH32 0x8C379A000000000000000000000000000000000000000000000000000000000 DUP2 MSTORE PUSH1 0x4 ADD PUSH2 0x1B08 SWAP1 PUSH2 0x29C0 JUMP JUMPDEST PUSH1 0x40 MLOAD DUP1 SWAP2 SUB SWAP1 REVERT JUMPDEST PUSH1 0xD SLOAD PUSH1 0xC SLOAD PUSH2 0x1B21 SWAP2 SWAP1 PUSH2 0x2AE7 JUMP JUMPDEST NUMBER LT PUSH2 0x1B36 JUMPI PUSH0 PUSH1 0x6 DUP2 SWAP1 SSTORE POP NUMBER PUSH1 0xC DUP2 SWAP1 SSTORE POP JUMPDEST PUSH1 0x1 PUSH1 0x5 PUSH0 DUP3 DUP3 SLOAD PUSH2 0x1B48 SWAP2 SWAP1 PUSH2 0x2AE7 JUMP JUMPDEST SWAP3 POP POP DUP2 SWAP1 SSTORE POP DUP2 PUSH1 0x6 PUSH0 DUP3 DUP3 SLOAD PUSH2 0x1B60 SWAP2 SWAP1 PUSH2 0x2AE7 JUMP JUMPDEST SWAP3 POP POP DUP2 SWAP1 SSTORE POP DUP2 PUSH1 0x8 PUSH0 DUP3 DUP3 SLOAD PUSH2 0x1B78 SWAP2 SWAP1 PUSH2 0x2AE7 JUMP JUMPDEST SWAP3 POP POP DUP2 SWAP1 SSTORE POP PUSH0 PUSH1 0x17 PUSH0 CALLER PUSH20 0xFFFFFFFFFFFFFFFFFFFFFFFFFFFFFFFFFFFFFFFF AND PUSH20 0xFFFFFFFFFFFFFFFFFFFFFFFFFFFFFFFFFFFFFFFF AND DUP2 MSTORE PUSH1 0x20 ADD SWAP1 DUP2 MSTORE PUSH1 0x20 ADD PUSH0 KECCAK256 SWAP1 POP PUSH1 0x1 DUP2 PUSH0 ADD PUSH0 DUP3 DUP3 SLOAD PUSH2 0x1BD2 SWAP2 SWAP1 PUSH2 0x2AE7 JUMP JUMPDEST SWAP3 POP POP DUP2 SWAP1 SSTORE POP DUP3 DUP2 PUSH1 0x1 ADD PUSH0 DUP3 DUP3 SLOAD PUSH2 0x1BEC SWAP2 SWAP1 PUSH2 0x2AE7 JUMP JUMPDEST SWAP3 POP POP DUP2 SWAP1 SSTORE POP PUSH0 PUSH1 0x9 SLOAD PUSH1 0x6 SLOAD LT PUSH2 0x1C06 JUMPI PUSH1 0x64 PUSH2 0x1C09 JUMP JUMPDEST PUSH1 0x96 JUMPDEST PUSH1 0xFF AND SWAP1 POP PUSH0 PUSH1 0x64 DUP3 PUSH1 0x3 SLOAD DUP8 PUSH2 0x1C20 SWAP2 SWAP1 PUSH2 0x2B82 JUMP JUMPDEST PUSH2 0x1C2A SWAP2 SWAP1 PUSH2 0x2B82 JUMP JUMPDEST PUSH2 0x1C34 SWAP2 SWAP1 PUSH2 0x2BF0 JUMP JUMPDEST SWAP1 POP DUP1 DUP4 PUSH1 0x2 ADD PUSH0 DUP3 DUP3 SLOAD PUSH2 0x1C49 SWAP2 SWAP1 PUSH2 0x2AE7 JUMP JUMPDEST SWAP3 POP POP DUP2 SWAP1 SSTORE POP DUP4 ISZERO PUSH2 0x1CBA JUMPI PUSH1 0x64 DUP6 PUSH2 0x1C63 SWAP2 SWAP1 PUSH2 0x2BF0 JUMP JUMPDEST PUSH1 0x14 PUSH0 CALLER PUSH20 0xFFFFFFFFFFFFFFFFFFFFFFFFFFFFFFFFFFFFFFFF AND PUSH20 0xFFFFFFFFFFFFFFFFFFFFFFFFFFFFFFFFFFFFFFFF AND DUP2 MSTORE PUSH1 0x20 ADD SWAP1 DUP2 MSTORE PUSH1 0x20 ADD PUSH0 KECCAK256 PUSH0 DUP3 DUP3 SLOAD PUSH2 0x1CAE SWAP2 SWAP1 PUSH2 0x2AE7 JUMP JUMPDEST SWAP3 POP POP DUP2 SWAP1 SSTORE POP PUSH2 0x1D1A JUMP JUMPDEST PUSH1 0x64 DUP6 PUSH2 0x1CC7 SWAP2 SWAP1 PUSH2 0x2BF0 JUMP JUMPDEST PUSH1 0x15 PUSH0 CALLER PUSH20 0xFFFFFFFFFFFFFFFFFFFFFFFFFFFFFFFFFFFFFFFF AND PUSH20 0xFFFFFFFFFFFFFFFFFFFFFFFFFFFFFFFFFFFFFFFF AND DUP2 MSTORE PUSH1 0x20 ADD SWAP1 DUP2 MSTORE PUSH1 0x20 ADD PUSH0 KECCAK256 PUSH0 DUP3 DUP3 SLOAD PUSH2 0x1D12 SWAP2 SWAP1 PUSH2 0x2AE7 JUMP JUMPDEST SWAP3 POP POP DUP2 SWAP1 SSTORE POP JUMPDEST PUSH0 DUP4 PUSH1 0x3 ADD SLOAD SUB PUSH2 0x1D2F JUMPI TIMESTAMP DUP4 PUSH1 0x3 ADD DUP2 SWAP1 SSTORE POP JUMPDEST CALLER PUSH20 0xFFFFFFFFFFFFFFFFFFFFFFFFFFFFFFFFFFFFFFFF AND PUSH32 0x4B85156045F2844CF6B638FF8A8DDB82C940CCDBE3C46E6E67D2583722C7DC71 DUP7 DUP7 PUSH1 0x40 MLOAD PUSH2 0x1D77 SWAP3 SWAP2 SWAP1 PUSH2 0x3028 JUMP JUMPDEST PUSH1 0x40 MLOAD DUP1 SWAP2 SUB SWAP1 LOG2 POP POP POP PUSH2 0x1D8A PUSH2 0x1E8E JUMP JUMPDEST POP POP JUMP JUMPDEST PUSH1 0x8 SLOAD DUP2 JUMP JUMPDEST PUSH1 0x10 SLOAD DUP2 JUMP JUMPDEST PUSH1 0x7 SLOAD DUP2 JUMP JUMPDEST PUSH2 0x1DA8 PUSH2 0x1E97 JUMP JUMPDEST PUSH0 PUSH20 0xFFFFFFFFFFFFFFFFFFFFFFFFFFFFFFFFFFFFFFFF AND DUP2 PUSH20 0xFFFFFFFFFFFFFFFFFFFFFFFFFFFFFFFFFFFFFFFF AND SUB PUSH2 0x1E18 JUMPI PUSH0 PUSH1 0x40 MLOAD PUSH32 0x1E4FBDF700000000000000000000000000000000000000000000000000000000 DUP2 MSTORE PUSH1 0x4 ADD PUSH2 0x1E0F SWAP2 SWAP1 PUSH2 0x2625 JUMP JUMPDEST PUSH1 0x40 MLOAD DUP1 SWAP2 SUB SWAP1 REVERT JUMPDEST PUSH2 0x1E21 DUP2 PUSH2 0x1F1E JUMP JUMPDEST POP JUMP JUMPDEST PUSH1 0x13 PUSH1 0x20 MSTORE DUP1 PUSH0 MSTORE PUSH1 0x40 PUSH0 KECCAK256 PUSH0 SWAP2 POP SWAP1 POP SLOAD DUP2 JUMP JUMPDEST PUSH1 0x3 SLOAD DUP2 JUMP JUMPDEST PUSH1 0x2 PUSH1 0x1 SLOAD SUB PUSH2 0x1E84 JUMPI PUSH1 0x40 MLOAD PUSH32 0x8C379A000000000000000000000000000000000000000000000000000000000 DUP2 MSTORE PUSH1 0x4 ADD PUSH2 0x1E7B SWAP1 PUSH2 0x3099 JUMP JUMPDEST PUSH1 0x40 MLOAD DUP1 SWAP2 SUB SWAP1 REVERT JUMPDEST PUSH1 0x2 PUSH1 0x1 DUP2 SWAP1 SSTORE POP JUMP JUMPDEST PUSH1 0x1 DUP1 DUP2 SWAP1 SSTORE POP JUMP JUMPDEST PUSH2 0x1E9F PUSH2 0x2079 JUMP JUMPDEST PUSH20 0xFFFFFFFFFFFFFFFFFFFFFFFFFFFFFFFFFFFFFFFF AND PUSH2 0x1EBD PUSH2 0x117D JUMP JUMPDEST PUSH20 0xFFFFFFFFFFFFFFFFFFFFFFFFFFFFFFFFFFFFFFFF AND EQ PUSH2 0x1F1C JUMPI PUSH2 0x1EE0 PUSH2 0x2079 JUMP JUMPDEST PUSH1 0x40 MLOAD PUSH32 0x118CDAA700000000000000000000000000000000000000000000000000000000 DUP2 MSTORE PUSH1 0x4 ADD PUSH2 0x1F13 SWAP2 SWAP1 PUSH2 0x2625 JUMP JUMPDEST PUSH1 0x40 MLOAD DUP1 SWAP2 SUB SWAP1 REVERT JUMPDEST JUMP JUMPDEST PUSH0 PUSH0 PUSH0 SWAP1 SLOAD SWAP1 PUSH2 0x100 EXP SWAP1 DIV PUSH20 0xFFFFFFFFFFFFFFFFFFFFFFFFFFFFFFFFFFFFFFFF AND SWAP1 POP DUP2 PUSH0 PUSH0 PUSH2 0x100 EXP DUP2 SLOAD DUP2 PUSH20 0xFFFFFFFFFFFFFFFFFFFFFFFFFFFFFFFFFFFFFFFF MUL NOT AND SWAP1 DUP4 PUSH20 0xFFFFFFFFFFFFFFFFFFFFFFFFFFFFFFFFFFFFFFFF AND MUL OR SWAP1 SSTORE POP DUP2 PUSH20 0xFFFFFFFFFFFFFFFFFFFFFFFFFFFFFFFFFFFFFFFF AND DUP2 PUSH20 0xFFFFFFFFFFFFFFFFFFFFFFFFFFFFFFFFFFFFFFFF AND PUSH32 0x8BE0079C531659141344CD1FD0A4F28419497F9722A3DAAFE3B4186F6B6457E0 PUSH1 0x40 MLOAD PUSH1 0x40 MLOAD DUP1 SWAP2 SUB SWAP1 LOG3 POP POP JUMP JUMPDEST PUSH0 PUSH0 DUP5 DUP5 PUSH1 0x40 MLOAD PUSH1 0x20 ADD PUSH2 0x1FF4 SWAP3 SWAP2 SWAP1 PUSH2 0x311C JUMP JUMPDEST PUSH1 0x40 MLOAD PUSH1 0x20 DUP2 DUP4 SUB SUB DUP2 MSTORE SWAP1 PUSH1 0x40 MSTORE DUP1 MLOAD SWAP1 PUSH1 0x20 ADD KECCAK256 SWAP1 POP PUSH0 DUP2 PUSH1 0x40 MLOAD PUSH1 0x20 ADD PUSH2 0x201E SWAP2 SWAP1 PUSH2 0x31C4 JUMP JUMPDEST PUSH1 0x40 MLOAD PUSH1 0x20 DUP2 DUP4 SUB SUB DUP2 MSTORE SWAP1 PUSH1 0x40 MSTORE DUP1 MLOAD SWAP1 PUSH1 0x20 ADD KECCAK256 SWAP1 POP DUP6 PUSH20 0xFFFFFFFFFFFFFFFFFFFFFFFFFFFFFFFFFFFFFFFF AND PUSH2 0x2057 DUP3 DUP7 PUSH2 0x2080 JUMP JUMPDEST PUSH20 0xFFFFFFFFFFFFFFFFFFFFFFFFFFFFFFFFFFFFFFFF AND EQ SWAP3 POP POP POP SWAP4 SWAP3 POP POP POP JUMP JUMPDEST PUSH0 CALLER SWAP1 POP SWAP1 JUMP JUMPDEST PUSH0 PUSH0 PUSH0 PUSH0 PUSH2 0x208E DUP7 DUP7 PUSH2 0x20AA JUMP JUMPDEST SWAP3 POP SWAP3 POP SWAP3 POP PUSH2 0x209E DUP3 DUP3 PUSH2 0x20FF JUMP JUMPDEST DUP3 SWAP4 POP POP POP POP SWAP3 SWAP2 POP POP JUMP JUMPDEST PUSH0 PUSH0 PUSH0 PUSH1 0x41 DUP5 MLOAD SUB PUSH2 0x20EA JUMPI PUSH0 PUSH0 PUSH0 PUSH1 0x20 DUP8 ADD MLOAD SWAP3 POP PUSH1 0x40 DUP8 ADD MLOAD SWAP2 POP PUSH1 0x60 DUP8 ADD MLOAD PUSH0 BYTE SWAP1 POP PUSH2 0x20DC DUP9 DUP3 DUP6 DUP6 PUSH2 0x2261 JUMP JUMPDEST SWAP6 POP SWAP6 POP SWAP6 POP POP POP POP PUSH2 0x20F8 JUMP JUMPDEST PUSH0 PUSH1 0x2 DUP6 MLOAD PUSH0 SHL SWAP3 POP SWAP3 POP SWAP3 POP JUMPDEST SWAP3 POP SWAP3 POP SWAP3 JUMP JUMPDEST PUSH0 PUSH1 0x3 DUP2 GT ISZERO PUSH2 0x2112 JUMPI PUSH2 0x2111 PUSH2 0x31E9 JUMP JUMPDEST JUMPDEST DUP3 PUSH1 0x3 DUP2 GT ISZERO PUSH2 0x2125 JUMPI PUSH2 0x2124 PUSH2 0x31E9 JUMP JUMPDEST JUMPDEST SUB ISZERO PUSH2 0x225D JUMPI PUSH1 0x1 PUSH1 0x3 DUP2 GT ISZERO PUSH2 0x213F JUMPI PUSH2 0x213E PUSH2 0x31E9 JUMP JUMPDEST JUMPDEST DUP3 PUSH1 0x3 DUP2 GT ISZERO PUSH2 0x2152 JUMPI PUSH2 0x2151 PUSH2 0x31E9 JUMP JUMPDEST JUMPDEST SUB PUSH2 0x2189 JUMPI PUSH1 0x40 MLOAD PUSH32 0xF645EEDF00000000000000000000000000000000000000000000000000000000 DUP2 MSTORE PUSH1 0x4 ADD PUSH1 0x40 MLOAD DUP1 SWAP2 SUB SWAP1 REVERT JUMPDEST PUSH1 0x2 PUSH1 0x3 DUP2 GT ISZERO PUSH2 0x219D JUMPI PUSH2 0x219C PUSH2 0x31E9 JUMP JUMPDEST JUMPDEST DUP3 PUSH1 0x3 DUP2 GT ISZERO PUSH2 0x21B0 JUMPI PUSH2 0x21AF PUSH2 0x31E9 JUMP JUMPDEST JUMPDEST SUB PUSH2 0x21F4 JUMPI DUP1 PUSH0 SHR PUSH1 0x40 MLOAD PUSH32 0xFCE698F700000000000000000000000000000000000000000000000000000000 DUP2 MSTORE PUSH1 0x4 ADD PUSH2 0x21EB SWAP2 SWAP1 PUSH2 0x23F6 JUMP JUMPDEST PUSH1 0x40 MLOAD DUP1 SWAP2 SUB SWAP1 REVERT JUMPDEST PUSH1 0x3 DUP1 DUP2 GT ISZERO PUSH2 0x2207 JUMPI PUSH2 0x2206 PUSH2 0x31E9 JUMP JUMPDEST JUMPDEST DUP3 PUSH1 0x3 DUP2 GT ISZERO PUSH2 0x221A JUMPI PUSH2 0x2219 PUSH2 0x31E9 JUMP JUMPDEST JUMPDEST SUB PUSH2 0x225C JUMPI DUP1 PUSH1 0x40 MLOAD PUSH32 0xD78BCE0C00000000000000000000000000000000000000000000000000000000 DUP2 MSTORE PUSH1 0x4 ADD PUSH2 0x2253 SWAP2 SWAP1 PUSH2 0x3225 JUMP JUMPDEST PUSH1 0x40 MLOAD DUP1 SWAP2 SUB SWAP1 REVERT JUMPDEST JUMPDEST POP POP JUMP JUMPDEST PUSH0 PUSH0 PUSH0 PUSH32 0x7FFFFFFFFFFFFFFFFFFFFFFFFFFFFFFF5D576E7357A4501DDFE92F46681B20A0 DUP5 PUSH0 SHR GT ISZERO PUSH2 0x229D JUMPI PUSH0 PUSH1 0x3 DUP6 SWAP3 POP SWAP3 POP SWAP3 POP PUSH2 0x233E JUMP JUMPDEST PUSH0 PUSH1 0x1 DUP9 DUP9 DUP9 DUP9 PUSH1 0x40 MLOAD PUSH0 DUP2 MSTORE PUSH1 0x20 ADD PUSH1 0x40 MSTORE PUSH1 0x40 MLOAD PUSH2 0x22C0 SWAP5 SWAP4 SWAP3 SWAP2 SWAP1 PUSH2 0x3259 JUMP JUMPDEST PUSH1 0x20 PUSH1 0x40 MLOAD PUSH1 0x20 DUP2 SUB SWAP1 DUP1 DUP5 SUB SWAP1 DUP6 GAS STATICCALL ISZERO DUP1 ISZERO PUSH2 0x22E0 JUMPI RETURNDATASIZE PUSH0 PUSH0 RETURNDATACOPY RETURNDATASIZE PUSH0 REVERT JUMPDEST POP POP POP PUSH1 0x20 PUSH1 0x40 MLOAD SUB MLOAD SWAP1 POP PUSH0 PUSH20 0xFFFFFFFFFFFFFFFFFFFFFFFFFFFFFFFFFFFFFFFF AND DUP2 PUSH20 0xFFFFFFFFFFFFFFFFFFFFFFFFFFFFFFFFFFFFFFFF AND SUB PUSH2 0x2331 JUMPI PUSH0 PUSH1 0x1 PUSH0 PUSH0 SHL SWAP4 POP SWAP4 POP SWAP4 POP POP PUSH2 0x233E JUMP JUMPDEST DUP1 PUSH0 PUSH0 PUSH0 SHL SWAP4 POP SWAP4 POP SWAP4 POP POP JUMPDEST SWAP5 POP SWAP5 POP SWAP5 SWAP2 POP POP JUMP JUMPDEST PUSH0 PUSH1 0x40 MLOAD SWAP1 POP SWAP1 JUMP JUMPDEST PUSH0 PUSH0 REVERT JUMPDEST PUSH0 PUSH0 REVERT JUMPDEST PUSH0 PUSH20 0xFFFFFFFFFFFFFFFFFFFFFFFFFFFFFFFFFFFFFFFF DUP3 AND SWAP1 POP SWAP2 SWAP1 POP JUMP JUMPDEST PUSH0 PUSH2 0x2382 DUP3 PUSH2 0x2359 JUMP JUMPDEST SWAP1 POP SWAP2 SWAP1 POP JUMP JUMPDEST PUSH2 0x2392 DUP2 PUSH2 0x2378 JUMP JUMPDEST DUP2 EQ PUSH2 0x239C JUMPI PUSH0 PUSH0 REVERT JUMPDEST POP JUMP JUMPDEST PUSH0 DUP2 CALLDATALOAD SWAP1 POP PUSH2 0x23AD DUP2 PUSH2 0x2389 JUMP JUMPDEST SWAP3 SWAP2 POP POP JUMP JUMPDEST PUSH0 PUSH1 0x20 DUP3 DUP5 SUB SLT ISZERO PUSH2 0x23C8 JUMPI PUSH2 0x23C7 PUSH2 0x2351 JUMP JUMPDEST JUMPDEST PUSH0 PUSH2 0x23D5 DUP5 DUP3 DUP6 ADD PUSH2 0x239F JUMP JUMPDEST SWAP2 POP POP SWAP3 SWAP2 POP POP JUMP JUMPDEST PUSH0 DUP2 SWAP1 POP SWAP2 SWAP1 POP JUMP JUMPDEST PUSH2 0x23F0 DUP2 PUSH2 0x23DE JUMP JUMPDEST DUP3 MSTORE POP POP JUMP JUMPDEST PUSH0 PUSH1 0x20 DUP3 ADD SWAP1 POP PUSH2 0x2409 PUSH0 DUP4 ADD DUP5 PUSH2 0x23E7 JUMP JUMPDEST SWAP3 SWAP2 POP POP JUMP JUMPDEST PUSH2 0x2418 DUP2 PUSH2 0x23DE JUMP JUMPDEST DUP2 EQ PUSH2 0x2422 JUMPI PUSH0 PUSH0 REVERT JUMPDEST POP JUMP JUMPDEST PUSH0 DUP2 CALLDATALOAD SWAP1 POP PUSH2 0x2433 DUP2 PUSH2 0x240F JUMP JUMPDEST SWAP3 SWAP2 POP POP JUMP JUMPDEST PUSH0 PUSH1 0x20 DUP3 DUP5 SUB SLT ISZERO PUSH2 0x244E JUMPI PUSH2 0x244D PUSH2 0x2351 JUMP JUMPDEST JUMPDEST PUSH0 PUSH2 0x245B DUP5 DUP3 DUP6 ADD PUSH2 0x2425 JUMP JUMPDEST SWAP2 POP POP SWAP3 SWAP2 POP POP JUMP JUMPDEST PUSH0 PUSH1 0x80 DUP3 ADD SWAP1 POP PUSH2 0x2477 PUSH0 DUP4 ADD DUP8 PUSH2 0x23E7 JUMP JUMPDEST PUSH2 0x2484 PUSH1 0x20 DUP4 ADD DUP7 PUSH2 0x23E7 JUMP JUMPDEST PUSH2 0x2491 PUSH1 0x40 DUP4 ADD DUP6 PUSH2 0x23E7 JUMP JUMPDEST PUSH2 0x249E PUSH1 0x60 DUP4 ADD DUP5 PUSH2 0x23E7 JUMP JUMPDEST SWAP6 SWAP5 POP POP POP POP POP JUMP JUMPDEST PUSH0 DUP2 SWAP1 POP SWAP2 SWAP1 POP JUMP JUMPDEST PUSH0 PUSH2 0x24CA PUSH2 0x24C5 PUSH2 0x24C0 DUP5 PUSH2 0x2359 JUMP JUMPDEST PUSH2 0x24A7 JUMP JUMPDEST PUSH2 0x2359 JUMP JUMPDEST SWAP1 POP SWAP2 SWAP1 POP JUMP JUMPDEST PUSH0 PUSH2 0x24DB DUP3 PUSH2 0x24B0 JUMP JUMPDEST SWAP1 POP SWAP2 SWAP1 POP JUMP JUMPDEST PUSH0 PUSH2 0x24EC DUP3 PUSH2 0x24D1 JUMP JUMPDEST SWAP1 POP SWAP2 SWAP1 POP JUMP JUMPDEST PUSH2 0x24FC DUP2 PUSH2 0x24E2 JUMP JUMPDEST DUP3 MSTORE POP POP JUMP JUMPDEST PUSH0 PUSH1 0x20 DUP3 ADD SWAP1 POP PUSH2 0x2515 PUSH0 DUP4 ADD DUP5 PUSH2 0x24F3 JUMP JUMPDEST SWAP3 SWAP2 POP POP JUMP JUMPDEST PUSH0 DUP2 ISZERO ISZERO SWAP1 POP SWAP2 SWAP1 POP JUMP JUMPDEST PUSH2 0x252F DUP2 PUSH2 0x251B JUMP JUMPDEST DUP3 MSTORE POP POP JUMP JUMPDEST PUSH0 PUSH1 0x20 DUP3 ADD SWAP1 POP PUSH2 0x2548 PUSH0 DUP4 ADD DUP5 PUSH2 0x2526 JUMP JUMPDEST SWAP3 SWAP2 POP POP JUMP JUMPDEST PUSH0 PUSH1 0x60 DUP3 ADD SWAP1 POP PUSH2 0x2561 PUSH0 DUP4 ADD DUP7 PUSH2 0x23E7 JUMP JUMPDEST PUSH2 0x256E PUSH1 0x20 DUP4 ADD DUP6 PUSH2 0x23E7 JUMP JUMPDEST PUSH2 0x257B PUSH1 0x40 DUP4 ADD DUP5 PUSH2 0x23E7 JUMP JUMPDEST SWAP5 SWAP4 POP POP POP POP JUMP JUMPDEST PUSH2 0x258C DUP2 PUSH2 0x251B JUMP JUMPDEST DUP2 EQ PUSH2 0x2596 JUMPI PUSH0 PUSH0 REVERT JUMPDEST POP JUMP JUMPDEST PUSH0 DUP2 CALLDATALOAD SWAP1 POP PUSH2 0x25A7 DUP2 PUSH2 0x2583 JUMP JUMPDEST SWAP3 SWAP2 POP POP JUMP JUMPDEST PUSH0 PUSH1 0x20 DUP3 DUP5 SUB SLT ISZERO PUSH2 0x25C2 JUMPI PUSH2 0x25C1 PUSH2 0x2351 JUMP JUMPDEST JUMPDEST PUSH0 PUSH2 0x25CF DUP5 DUP3 DUP6 ADD PUSH2 0x2599 JUMP JUMPDEST SWAP2 POP POP SWAP3 SWAP2 POP POP JUMP JUMPDEST PUSH0 PUSH0 PUSH1 0x40 DUP4 DUP6 SUB SLT ISZERO PUSH2 0x25EE JUMPI PUSH2 0x25ED PUSH2 0x2351 JUMP JUMPDEST JUMPDEST PUSH0 PUSH2 0x25FB DUP6 DUP3 DUP7 ADD PUSH2 0x239F JUMP JUMPDEST SWAP3 POP POP PUSH1 0x20 PUSH2 0x260C DUP6 DUP3 DUP7 ADD PUSH2 0x2425 JUMP JUMPDEST SWAP2 POP POP SWAP3 POP SWAP3 SWAP1 POP JUMP JUMPDEST PUSH2 0x261F DUP2 PUSH2 0x2378 JUMP JUMPDEST DUP3 MSTORE POP POP JUMP JUMPDEST PUSH0 PUSH1 0x20 DUP3 ADD SWAP1 POP PUSH2 0x2638 PUSH0 DUP4 ADD DUP5 PUSH2 0x2616 JUMP JUMPDEST SWAP3 SWAP2 POP POP JUMP JUMPDEST PUSH0 PUSH2 0x2648 DUP3 PUSH2 0x2378 JUMP JUMPDEST SWAP1 POP SWAP2 SWAP1 POP JUMP JUMPDEST PUSH2 0x2658 DUP2 PUSH2 0x263E JUMP JUMPDEST DUP2 EQ PUSH2 0x2662 JUMPI PUSH0 PUSH0 REVERT JUMPDEST POP JUMP JUMPDEST PUSH0 DUP2 CALLDATALOAD SWAP1 POP PUSH2 0x2673 DUP2 PUSH2 0x264F JUMP JUMPDEST SWAP3 SWAP2 POP POP JUMP JUMPDEST PUSH0 PUSH0 PUSH0 PUSH0 PUSH0 PUSH0 PUSH0 PUSH0 PUSH2 0x100 DUP10 DUP12 SUB SLT ISZERO PUSH2 0x2696 JUMPI PUSH2 0x2695 PUSH2 0x2351 JUMP JUMPDEST JUMPDEST PUSH0 PUSH2 0x26A3 DUP12 DUP3 DUP13 ADD PUSH2 0x2665 JUMP JUMPDEST SWAP9 POP POP PUSH1 0x20 PUSH2 0x26B4 DUP12 DUP3 DUP13 ADD PUSH2 0x2425 JUMP JUMPDEST SWAP8 POP POP PUSH1 0x40 PUSH2 0x26C5 DUP12 DUP3 DUP13 ADD PUSH2 0x2425 JUMP JUMPDEST SWAP7 POP POP PUSH1 0x60 PUSH2 0x26D6 DUP12 DUP3 DUP13 ADD PUSH2 0x2425 JUMP JUMPDEST SWAP6 POP POP PUSH1 0x80 PUSH2 0x26E7 DUP12 DUP3 DUP13 ADD PUSH2 0x2425 JUMP JUMPDEST SWAP5 POP POP PUSH1 0xA0 PUSH2 0x26F8 DUP12 DUP3 DUP13 ADD PUSH2 0x2425 JUMP JUMPDEST SWAP4 POP POP PUSH1 0xC0 PUSH2 0x2709 DUP12 DUP3 DUP13 ADD PUSH2 0x2425 JUMP JUMPDEST SWAP3 POP POP PUSH1 0xE0 PUSH2 0x271A DUP12 DUP3 DUP13 ADD PUSH2 0x239F JUMP JUMPDEST SWAP2 POP POP SWAP3 SWAP6 SWAP9 POP SWAP3 SWAP6 SWAP9 SWAP1 SWAP4 SWAP7 POP JUMP JUMPDEST PUSH0 PUSH0 REVERT JUMPDEST PUSH0 PUSH0 REVERT JUMPDEST PUSH0 PUSH1 0x1F NOT PUSH1 0x1F DUP4 ADD AND SWAP1 POP SWAP2 SWAP1 POP JUMP JUMPDEST PUSH32 0x4E487B7100000000000000000000000000000000000000000000000000000000 PUSH0 MSTORE PUSH1 0x41 PUSH1 0x4 MSTORE PUSH1 0x24 PUSH0 REVERT JUMPDEST PUSH2 0x2778 DUP3 PUSH2 0x2732 JUMP JUMPDEST DUP2 ADD DUP2 DUP2 LT PUSH8 0xFFFFFFFFFFFFFFFF DUP3 GT OR ISZERO PUSH2 0x2797 JUMPI PUSH2 0x2796 PUSH2 0x2742 JUMP JUMPDEST JUMPDEST DUP1 PUSH1 0x40 MSTORE POP POP POP JUMP JUMPDEST PUSH0 PUSH2 0x27A9 PUSH2 0x2348 JUMP JUMPDEST SWAP1 POP PUSH2 0x27B5 DUP3 DUP3 PUSH2 0x276F JUMP JUMPDEST SWAP2 SWAP1 POP JUMP JUMPDEST PUSH0 PUSH8 0xFFFFFFFFFFFFFFFF DUP3 GT ISZERO PUSH2 0x27D4 JUMPI PUSH2 0x27D3 PUSH2 0x2742 JUMP JUMPDEST JUMPDEST PUSH2 0x27DD DUP3 PUSH2 0x2732 JUMP JUMPDEST SWAP1 POP PUSH1 0x20 DUP2 ADD SWAP1 POP SWAP2 SWAP1 POP JUMP JUMPDEST DUP3 DUP2 DUP4 CALLDATACOPY PUSH0 DUP4 DUP4 ADD MSTORE POP POP POP JUMP JUMPDEST PUSH0 PUSH2 0x280A PUSH2 0x2805 DUP5 PUSH2 0x27BA JUMP JUMPDEST PUSH2 0x27A0 JUMP JUMPDEST SWAP1 POP DUP3 DUP2 MSTORE PUSH1 0x20 DUP2 ADD DUP5 DUP5 DUP5 ADD GT ISZERO PUSH2 0x2826 JUMPI PUSH2 0x2825 PUSH2 0x272E JUMP JUMPDEST JUMPDEST PUSH2 0x2831 DUP5 DUP3 DUP6 PUSH2 0x27EA JUMP JUMPDEST POP SWAP4 SWAP3 POP POP POP JUMP JUMPDEST PUSH0 DUP3 PUSH1 0x1F DUP4 ADD SLT PUSH2 0x284D JUMPI PUSH2 0x284C PUSH2 0x272A JUMP JUMPDEST JUMPDEST DUP2 CALLDATALOAD PUSH2 0x285D DUP5 DUP3 PUSH1 0x20 DUP7 ADD PUSH2 0x27F8 JUMP JUMPDEST SWAP2 POP POP SWAP3 SWAP2 POP POP JUMP JUMPDEST PUSH0 PUSH0 PUSH1 0x40 DUP4 DUP6 SUB SLT ISZERO PUSH2 0x287C JUMPI PUSH2 0x287B PUSH2 0x2351 JUMP JUMPDEST JUMPDEST PUSH0 PUSH2 0x2889 DUP6 DUP3 DUP7 ADD PUSH2 0x2425 JUMP JUMPDEST SWAP3 POP POP PUSH1 0x20 DUP4 ADD CALLDATALOAD PUSH8 0xFFFFFFFFFFFFFFFF DUP2 GT ISZERO PUSH2 0x28AA JUMPI PUSH2 0x28A9 PUSH2 0x2355 JUMP JUMPDEST JUMPDEST PUSH2 0x28B6 DUP6 DUP3 DUP7 ADD PUSH2 0x2839 JUMP JUMPDEST SWAP2 POP POP SWAP3 POP SWAP3 SWAP1 POP JUMP JUMPDEST PUSH0 PUSH0 PUSH1 0x40 DUP4 DUP6 SUB SLT ISZERO PUSH2 0x28D6 JUMPI PUSH2 0x28D5 PUSH2 0x2351 JUMP JUMPDEST JUMPDEST PUSH0 PUSH2 0x28E3 DUP6 DUP3 DUP7 ADD PUSH2 0x2425 JUMP JUMPDEST SWAP3 POP POP PUSH1 0x20 PUSH2 0x28F4 DUP6 DUP3 DUP7 ADD PUSH2 0x2599 JUMP JUMPDEST SWAP2 POP POP SWAP3 POP SWAP3 SWAP1 POP JUMP JUMPDEST PUSH0 DUP3 DUP3 MSTORE PUSH1 0x20 DUP3 ADD SWAP1 POP SWAP3 SWAP2 POP POP JUMP JUMPDEST PUSH32 0x436F6E7472616374206973207061757365640000000000000000000000000000 PUSH0 DUP3 ADD MSTORE POP JUMP JUMPDEST PUSH0 PUSH2 0x2942 PUSH1 0x12 DUP4 PUSH2 0x28FE JUMP JUMPDEST SWAP2 POP PUSH2 0x294D DUP3 PUSH2 0x290E JUMP JUMPDEST PUSH1 0x20 DUP3 ADD SWAP1 POP SWAP2 SWAP1 POP JUMP JUMPDEST PUSH0 PUSH1 0x20 DUP3 ADD SWAP1 POP DUP2 DUP2 SUB PUSH0 DUP4 ADD MSTORE PUSH2 0x296F DUP2 PUSH2 0x2936 JUMP JUMPDEST SWAP1 POP SWAP2 SWAP1 POP JUMP JUMPDEST PUSH32 0x4E6F7420696E697469616C697A65640000000000000000000000000000000000 PUSH0 DUP3 ADD MSTORE POP JUMP JUMPDEST PUSH0 PUSH2 0x29AA PUSH1 0xF DUP4 PUSH2 0x28FE JUMP JUMPDEST SWAP2 POP PUSH2 0x29B5 DUP3 PUSH2 0x2976 JUMP JUMPDEST PUSH1 0x20 DUP3 ADD SWAP1 POP SWAP2 SWAP1 POP JUMP JUMPDEST PUSH0 PUSH1 0x20 DUP3 ADD SWAP1 POP DUP2 DUP2 SUB PUSH0 DUP4 ADD MSTORE PUSH2 0x29D7 DUP2 PUSH2 0x299E JUMP JUMPDEST SWAP1 POP SWAP2 SWAP1 POP JUMP JUMPDEST PUSH0 PUSH1 0x60 DUP3 ADD SWAP1 POP PUSH2 0x29F1 PUSH0 DUP4 ADD DUP7 PUSH2 0x2616 JUMP JUMPDEST PUSH2 0x29FE PUSH1 0x20 DUP4 ADD DUP6 PUSH2 0x2616 JUMP JUMPDEST PUSH2 0x2A0B PUSH1 0x40 DUP4 ADD DUP5 PUSH2 0x23E7 JUMP JUMPDEST SWAP5 SWAP4 POP POP POP POP JUMP JUMPDEST PUSH0 DUP2 MLOAD SWAP1 POP PUSH2 0x2A21 DUP2 PUSH2 0x2583 JUMP JUMPDEST SWAP3 SWAP2 POP POP JUMP JUMPDEST PUSH0 PUSH1 0x20 DUP3 DUP5 SUB SLT ISZERO PUSH2 0x2A3C JUMPI PUSH2 0x2A3B PUSH2 0x2351 JUMP JUMPDEST JUMPDEST PUSH0 PUSH2 0x2A49 DUP5 DUP3 DUP6 ADD PUSH2 0x2A13 JUMP JUMPDEST SWAP2 POP POP SWAP3 SWAP2 POP POP JUMP JUMPDEST PUSH32 0x5472616E73666572206661696C65640000000000000000000000000000000000 PUSH0 DUP3 ADD MSTORE POP JUMP JUMPDEST PUSH0 PUSH2 0x2A86 PUSH1 0xF DUP4 PUSH2 0x28FE JUMP JUMPDEST SWAP2 POP PUSH2 0x2A91 DUP3 PUSH2 0x2A52 JUMP JUMPDEST PUSH1 0x20 DUP3 ADD SWAP1 POP SWAP2 SWAP1 POP JUMP JUMPDEST PUSH0 PUSH1 0x20 DUP3 ADD SWAP1 POP DUP2 DUP2 SUB PUSH0 DUP4 ADD MSTORE PUSH2 0x2AB3 DUP2 PUSH2 0x2A7A JUMP JUMPDEST SWAP1 POP SWAP2 SWAP1 POP JUMP JUMPDEST PUSH32 0x4E487B7100000000000000000000000000000000000000000000000000000000 PUSH0 MSTORE PUSH1 0x11 PUSH1 0x4 MSTORE PUSH1 0x24 PUSH0 REVERT JUMPDEST PUSH0 PUSH2 0x2AF1 DUP3 PUSH2 0x23DE JUMP JUMPDEST SWAP2 POP PUSH2 0x2AFC DUP4 PUSH2 0x23DE JUMP JUMPDEST SWAP3 POP DUP3 DUP3 ADD SWAP1 POP DUP1 DUP3 GT ISZERO PUSH2 0x2B14 JUMPI PUSH2 0x2B13 PUSH2 0x2ABA JUMP JUMPDEST JUMPDEST SWAP3 SWAP2 POP POP JUMP JUMPDEST PUSH32 0x496E73756666696369656E74207374616B656420616D6F756E74000000000000 PUSH0 DUP3 ADD MSTORE POP JUMP JUMPDEST PUSH0 PUSH2 0x2B4E PUSH1 0x1A DUP4 PUSH2 0x28FE JUMP JUMPDEST SWAP2 POP PUSH2 0x2B59 DUP3 PUSH2 0x2B1A JUMP JUMPDEST PUSH1 0x20 DUP3 ADD SWAP1 POP SWAP2 SWAP1 POP JUMP JUMPDEST PUSH0 PUSH1 0x20 DUP3 ADD SWAP1 POP DUP2 DUP2 SUB PUSH0 DUP4 ADD MSTORE PUSH2 0x2B7B DUP2 PUSH2 0x2B42 JUMP JUMPDEST SWAP1 POP SWAP2 SWAP1 POP JUMP JUMPDEST PUSH0 PUSH2 0x2B8C DUP3 PUSH2 0x23DE JUMP JUMPDEST SWAP2 POP PUSH2 0x2B97 DUP4 PUSH2 0x23DE JUMP JUMPDEST SWAP3 POP DUP3 DUP3 MUL PUSH2 0x2BA5 DUP2 PUSH2 0x23DE JUMP JUMPDEST SWAP2 POP DUP3 DUP3 DIV DUP5 EQ DUP4 ISZERO OR PUSH2 0x2BBC JUMPI PUSH2 0x2BBB PUSH2 0x2ABA JUMP JUMPDEST JUMPDEST POP SWAP3 SWAP2 POP POP JUMP JUMPDEST PUSH32 0x4E487B7100000000000000000000000000000000000000000000000000000000 PUSH0 MSTORE PUSH1 0x12 PUSH1 0x4 MSTORE PUSH1 0x24 PUSH0 REVERT JUMPDEST PUSH0 PUSH2 0x2BFA DUP3 PUSH2 0x23DE JUMP JUMPDEST SWAP2 POP PUSH2 0x2C05 DUP4 PUSH2 0x23DE JUMP JUMPDEST SWAP3 POP DUP3 PUSH2 0x2C15 JUMPI PUSH2 0x2C14 PUSH2 0x2BC3 JUMP JUMPDEST JUMPDEST DUP3 DUP3 DIV SWAP1 POP SWAP3 SWAP2 POP POP JUMP JUMPDEST PUSH0 PUSH2 0x2C2A DUP3 PUSH2 0x23DE JUMP JUMPDEST SWAP2 POP PUSH2 0x2C35 DUP4 PUSH2 0x23DE JUMP JUMPDEST SWAP3 POP DUP3 DUP3 SUB SWAP1 POP DUP2 DUP2 GT ISZERO PUSH2 0x2C4D JUMPI PUSH2 0x2C4C PUSH2 0x2ABA JUMP JUMPDEST JUMPDEST SWAP3 SWAP2 POP POP JUMP JUMPDEST PUSH0 PUSH1 0x40 DUP3 ADD SWAP1 POP PUSH2 0x2C66 PUSH0 DUP4 ADD DUP6 PUSH2 0x2616 JUMP JUMPDEST PUSH2 0x2C73 PUSH1 0x20 DUP4 ADD DUP5 PUSH2 0x23E7 JUMP JUMPDEST SWAP4 SWAP3 POP POP POP JUMP JUMPDEST PUSH0 PUSH1 0x40 DUP3 ADD SWAP1 POP PUSH2 0x2C8D PUSH0 DUP4 ADD DUP6 PUSH2 0x23E7 JUMP JUMPDEST PUSH2 0x2C9A PUSH1 0x20 DUP4 ADD DUP5 PUSH2 0x23E7 JUMP JUMPDEST SWAP4 SWAP3 POP POP POP JUMP JUMPDEST PUSH32 0x416C726561647920696E697469616C697A656400000000000000000000000000 PUSH0 DUP3 ADD MSTORE POP JUMP JUMPDEST PUSH0 PUSH2 0x2CD5 PUSH1 0x13 DUP4 PUSH2 0x28FE JUMP JUMPDEST SWAP2 POP PUSH2 0x2CE0 DUP3 PUSH2 0x2CA1 JUMP JUMPDEST PUSH1 0x20 DUP3 ADD SWAP1 POP SWAP2 SWAP1 POP JUMP JUMPDEST PUSH0 PUSH1 0x20 DUP3 ADD SWAP1 POP DUP2 DUP2 SUB PUSH0 DUP4 ADD MSTORE PUSH2 0x2D02 DUP2 PUSH2 0x2CC9 JUMP JUMPDEST SWAP1 POP SWAP2 SWAP1 POP JUMP JUMPDEST PUSH32 0x496E76616C6964206E6F6E636500000000000000000000000000000000000000 PUSH0 DUP3 ADD MSTORE POP JUMP JUMPDEST PUSH0 PUSH2 0x2D3D PUSH1 0xD DUP4 PUSH2 0x28FE JUMP JUMPDEST SWAP2 POP PUSH2 0x2D48 DUP3 PUSH2 0x2D09 JUMP JUMPDEST PUSH1 0x20 DUP3 ADD SWAP1 POP SWAP2 SWAP1 POP JUMP JUMPDEST PUSH0 PUSH1 0x20 DUP3 ADD SWAP1 POP DUP2 DUP2 SUB PUSH0 DUP4 ADD MSTORE PUSH2 0x2D6A DUP2 PUSH2 0x2D31 JUMP JUMPDEST SWAP1 POP SWAP2 SWAP1 POP JUMP JUMPDEST PUSH0 PUSH2 0x2D7B DUP3 PUSH2 0x23DE JUMP JUMPDEST SWAP2 POP PUSH32 0xFFFFFFFFFFFFFFFFFFFFFFFFFFFFFFFFFFFFFFFFFFFFFFFFFFFFFFFFFFFFFFFF DUP3 SUB PUSH2 0x2DAD JUMPI PUSH2 0x2DAC PUSH2 0x2ABA JUMP JUMPDEST JUMPDEST PUSH1 0x1 DUP3 ADD SWAP1 POP SWAP2 SWAP1 POP JUMP JUMPDEST PUSH32 0x4E6F207374616B6520666F756E64000000000000000000000000000000000000 PUSH0 DUP3 ADD MSTORE POP JUMP JUMPDEST PUSH0 PUSH2 0x2DEC PUSH1 0xE DUP4 PUSH2 0x28FE JUMP JUMPDEST SWAP2 POP PUSH2 0x2DF7 DUP3 PUSH2 0x2DB8 JUMP JUMPDEST PUSH1 0x20 DUP3 ADD SWAP1 POP SWAP2 SWAP1 POP JUMP JUMPDEST PUSH0 PUSH1 0x20 DUP3 ADD SWAP1 POP DUP2 DUP2 SUB PUSH0 DUP4 ADD MSTORE PUSH2 0x2E19 DUP2 PUSH2 0x2DE0 JUMP JUMPDEST SWAP1 POP SWAP2 SWAP1 POP JUMP JUMPDEST PUSH32 0x4E6F2074696D6520656C61707365640000000000000000000000000000000000 PUSH0 DUP3 ADD MSTORE POP JUMP JUMPDEST PUSH0 PUSH2 0x2E54 PUSH1 0xF DUP4 PUSH2 0x28FE JUMP JUMPDEST SWAP2 POP PUSH2 0x2E5F DUP3 PUSH2 0x2E20 JUMP JUMPDEST PUSH1 0x20 DUP3 ADD SWAP1 POP SWAP2 SWAP1 POP JUMP JUMPDEST PUSH0 PUSH1 0x20 DUP3 ADD SWAP1 POP DUP2 DUP2 SUB PUSH0 DUP4 ADD MSTORE PUSH2 0x2E81 DUP2 PUSH2 0x2E48 JUMP JUMPDEST SWAP1 POP SWAP2 SWAP1 POP JUMP JUMPDEST PUSH32 0x496E76616C6964207369676E6174757265000000000000000000000000000000 PUSH0 DUP3 ADD MSTORE POP JUMP JUMPDEST PUSH0 PUSH2 0x2EBC PUSH1 0x11 DUP4 PUSH2 0x28FE JUMP JUMPDEST SWAP2 POP PUSH2 0x2EC7 DUP3 PUSH2 0x2E88 JUMP JUMPDEST PUSH1 0x20 DUP3 ADD SWAP1 POP SWAP2 SWAP1 POP JUMP JUMPDEST PUSH0 PUSH1 0x20 DUP3 ADD SWAP1 POP DUP2 DUP2 SUB PUSH0 DUP4 ADD MSTORE PUSH2 0x2EE9 DUP2 PUSH2 0x2EB0 JUMP JUMPDEST SWAP1 POP SWAP2 SWAP1 POP JUMP JUMPDEST PUSH32 0x45706F6368206475726174696F6E206E6F7420656E6465640000000000000000 PUSH0 DUP3 ADD MSTORE POP JUMP JUMPDEST PUSH0 PUSH2 0x2F24 PUSH1 0x18 DUP4 PUSH2 0x28FE JUMP JUMPDEST SWAP2 POP PUSH2 0x2F2F DUP3 PUSH2 0x2EF0 JUMP JUMPDEST PUSH1 0x20 DUP3 ADD SWAP1 POP SWAP2 SWAP1 POP JUMP JUMPDEST PUSH0 PUSH1 0x20 DUP3 ADD SWAP1 POP DUP2 DUP2 SUB PUSH0 DUP4 ADD MSTORE PUSH2 0x2F51 DUP2 PUSH2 0x2F18 JUMP JUMPDEST SWAP1 POP SWAP2 SWAP1 POP JUMP JUMPDEST PUSH32 0x4E6F2070656E64696E6720726577617264730000000000000000000000000000 PUSH0 DUP3 ADD MSTORE POP JUMP JUMPDEST PUSH0 PUSH2 0x2F8C PUSH1 0x12 DUP4 PUSH2 0x28FE JUMP JUMPDEST SWAP2 POP PUSH2 0x2F97 DUP3 PUSH2 0x2F58 JUMP JUMPDEST PUSH1 0x20 DUP3 ADD SWAP1 POP SWAP2 SWAP1 POP JUMP JUMPDEST PUSH0 PUSH1 0x20 DUP3 ADD SWAP1 POP DUP2 DUP2 SUB PUSH0 DUP4 ADD MSTORE PUSH2 0x2FB9 DUP2 PUSH2 0x2F80 JUMP JUMPDEST SWAP1 POP SWAP2 SWAP1 POP JUMP JUMPDEST PUSH32 0x5265776172642065786365656473206D617820636C61696D61626C6500000000 PUSH0 DUP3 ADD MSTORE POP JUMP JUMPDEST PUSH0 PUSH2 0x2FF4 PUSH1 0x1C DUP4 PUSH2 0x28FE JUMP JUMPDEST SWAP2 POP PUSH2 0x2FFF DUP3 PUSH2 0x2FC0 JUMP JUMPDEST PUSH1 0x20 DUP3 ADD SWAP1 POP SWAP2 SWAP1 POP JUMP JUMPDEST PUSH0 PUSH1 0x20 DUP3 ADD SWAP1 POP DUP2 DUP2 SUB PUSH0 DUP4 ADD MSTORE PUSH2 0x3021 DUP2 PUSH2 0x2FE8 JUMP JUMPDEST SWAP1 POP SWAP2 SWAP1 POP JUMP JUMPDEST PUSH0 PUSH1 0x40 DUP3 ADD SWAP1 POP PUSH2 0x303B PUSH0 DUP4 ADD DUP6 PUSH2 0x23E7 JUMP JUMPDEST PUSH2 0x3048 PUSH1 0x20 DUP4 ADD DUP5 PUSH2 0x2526 JUMP JUMPDEST SWAP4 SWAP3 POP POP POP JUMP JUMPDEST PUSH32 0x5265656E7472616E637947756172643A207265656E7472616E742063616C6C00 PUSH0 DUP3 ADD MSTORE POP JUMP JUMPDEST PUSH0 PUSH2 0x3083 PUSH1 0x1F DUP4 PUSH2 0x28FE JUMP JUMPDEST SWAP2 POP PUSH2 0x308E DUP3 PUSH2 0x304F JUMP JUMPDEST PUSH1 0x20 DUP3 ADD SWAP1 POP SWAP2 SWAP1 POP JUMP JUMPDEST PUSH0 PUSH1 0x20 DUP3 ADD SWAP1 POP DUP2 DUP2 SUB PUSH0 DUP4 ADD MSTORE PUSH2 0x30B0 DUP2 PUSH2 0x3077 JUMP JUMPDEST SWAP1 POP SWAP2 SWAP1 POP JUMP JUMPDEST PUSH0 DUP2 PUSH1 0x60 SHL SWAP1 POP SWAP2 SWAP1 POP JUMP JUMPDEST PUSH0 PUSH2 0x30CD DUP3 PUSH2 0x30B7 JUMP JUMPDEST SWAP1 POP SWAP2 SWAP1 POP JUMP JUMPDEST PUSH0 PUSH2 0x30DE DUP3 PUSH2 0x30C3 JUMP JUMPDEST SWAP1 POP SWAP2 SWAP1 POP JUMP JUMPDEST PUSH2 0x30F6 PUSH2 0x30F1 DUP3 PUSH2 0x2378 JUMP JUMPDEST PUSH2 0x30D4 JUMP JUMPDEST DUP3 MSTORE POP POP JUMP JUMPDEST PUSH0 DUP2 SWAP1 POP SWAP2 SWAP1 POP JUMP JUMPDEST PUSH2 0x3116 PUSH2 0x3111 DUP3 PUSH2 0x23DE JUMP JUMPDEST PUSH2 0x30FC JUMP JUMPDEST DUP3 MSTORE POP POP JUMP JUMPDEST PUSH0 PUSH2 0x3127 DUP3 DUP6 PUSH2 0x30E5 JUMP JUMPDEST PUSH1 0x14 DUP3 ADD SWAP2 POP PUSH2 0x3137 DUP3 DUP5 PUSH2 0x3105 JUMP JUMPDEST PUSH1 0x20 DUP3 ADD SWAP2 POP DUP2 SWAP1 POP SWAP4 SWAP3 POP POP POP JUMP JUMPDEST PUSH0 DUP2 SWAP1 POP SWAP3 SWAP2 POP POP JUMP JUMPDEST PUSH32 0x19457468657265756D205369676E6564204D6573736167653A0A333200000000 PUSH0 DUP3 ADD MSTORE POP JUMP JUMPDEST PUSH0 PUSH2 0x3185 PUSH1 0x1C DUP4 PUSH2 0x3147 JUMP JUMPDEST SWAP2 POP PUSH2 0x3190 DUP3 PUSH2 0x3151 JUMP JUMPDEST PUSH1 0x1C DUP3 ADD SWAP1 POP SWAP2 SWAP1 POP JUMP JUMPDEST PUSH0 DUP2 SWAP1 POP SWAP2 SWAP1 POP JUMP JUMPDEST PUSH0 DUP2 SWAP1 POP SWAP2 SWAP1 POP JUMP JUMPDEST PUSH2 0x31BE PUSH2 0x31B9 DUP3 PUSH2 0x319B JUMP JUMPDEST PUSH2 0x31A4 JUMP JUMPDEST DUP3 MSTORE POP POP JUMP JUMPDEST PUSH0 PUSH2 0x31CE DUP3 PUSH2 0x3179 JUMP JUMPDEST SWAP2 POP PUSH2 0x31DA DUP3 DUP5 PUSH2 0x31AD JUMP JUMPDEST PUSH1 0x20 DUP3 ADD SWAP2 POP DUP2 SWAP1 POP SWAP3 SWAP2 POP POP JUMP JUMPDEST PUSH32 0x4E487B7100000000000000000000000000000000000000000000000000000000 PUSH0 MSTORE PUSH1 0x21 PUSH1 0x4 MSTORE PUSH1 0x24 PUSH0 REVERT JUMPDEST PUSH2 0x321F DUP2 PUSH2 0x319B JUMP JUMPDEST DUP3 MSTORE POP POP JUMP JUMPDEST PUSH0 PUSH1 0x20 DUP3 ADD SWAP1 POP PUSH2 0x3238 PUSH0 DUP4 ADD DUP5 PUSH2 0x3216 JUMP JUMPDEST SWAP3 SWAP2 POP POP JUMP JUMPDEST PUSH0 PUSH1 0xFF DUP3 AND SWAP1 POP SWAP2 SWAP1 POP JUMP JUMPDEST PUSH2 0x3253 DUP2 PUSH2 0x323E JUMP JUMPDEST DUP3 MSTORE POP POP JUMP JUMPDEST PUSH0 PUSH1 0x80 DUP3 ADD SWAP1 POP PUSH2 0x326C PUSH0 DUP4 ADD DUP8 PUSH2 0x3216 JUMP JUMPDEST PUSH2 0x3279 PUSH1 0x20 DUP4 ADD DUP7 PUSH2 0x324A JUMP JUMPDEST PUSH2 0x3286 PUSH1 0x40 DUP4 ADD DUP6 PUSH2 0x3216 JUMP JUMPDEST PUSH2 0x3293 PUSH1 0x60 DUP4 ADD DUP5 PUSH2 0x3216 JUMP JUMPDEST SWAP6 SWAP5 POP POP POP POP POP JUMP INVALID LOG2 PUSH5 0x6970667358 0x22 SLT KECCAK256 PUSH11 0x87094F0F185B690D1D9958 0xD3 RETURN DUP7 0x2B PUSH25 0xC5F9A998921FDB10D239BE1937C3264736F6C634300081C00 CALLER "
				},
				"gasEstimates": {
					"creation": {
						"codeDepositCost": "2602000",
						"executionCost": "infinite",
						"totalCost": "infinite"
					},
					"external": {
						"claimStakeRewards(uint256)": "infinite",
						"claimTradeRewards(uint256,bytes)": "infinite",
						"earlyWithdrawalFee()": "2493",
						"epochDuration()": "2559",
						"epochTradeVolume()": "2470",
						"inactivityPenaltyRate()": "2514",
						"inactivitySlashingTime()": "2537",
						"initialize(address,uint256,uint256,uint256,uint256,uint256,uint256,address)": "infinite",
						"initialized()": "2563",
						"lastEpochBlock()": "2536",
						"lastSignedClaim(address)": "2912",
						"latToken()": "infinite",
						"liquidityBoostMultiplier(address)": "2869",
						"makerRebates(address)": "2935",
						"maxClaimable()": "2469",
						"nonces(address)": "2892",
						"owner()": "2581",
						"paused()": "2577",
						"poolBoostMultiplier()": "2559",
						"poolTradingVolume()": "2558",
						"poolVolumeThreshold()": "2471",
						"recordTrade(uint256,bool)": "infinite",
						"renounceOwnership()": "infinite",
						"setPaused(bool)": "infinite",
						"stakeLat(uint256)": "infinite",
						"stakeRewardRate()": "2558",
						"stakedWeight(address)": "2891",
						"stakes(address)": "infinite",
						"takerFees(address)": "2849",
						"totalTrades()": "2492",
						"tradeEpochDuration()": "2491",
						"tradeRewardRate()": "2557",
						"traderStats(address)": "infinite",
						"transferOwnership(address)": "infinite",
						"updateLiquidityMultiplier(address,uint256)": "infinite",
						"vaultAddress()": "2598",
						"vestingSchedules(address,uint256)": "infinite",
						"withdrawStake(uint256)": "infinite"
					},
					"internal": {
						"verifySignature(address,uint256,bytes memory)": "infinite"
					}
				},
				"methodIdentifiers": {
					"claimStakeRewards(uint256)": "dd69becd",
					"claimTradeRewards(uint256,bytes)": "e90b0d76",
					"earlyWithdrawalFee()": "16330d40",
					"epochDuration()": "4ff0876a",
					"epochTradeVolume()": "519445e2",
					"inactivityPenaltyRate()": "94d9b235",
					"inactivitySlashingTime()": "8119185b",
					"initialize(address,uint256,uint256,uint256,uint256,uint256,uint256,address)": "848ff684",
					"initialized()": "158ef93e",
					"lastEpochBlock()": "c2362dd5",
					"lastSignedClaim(address)": "f3482650",
					"latToken()": "0fd7bf50",
					"liquidityBoostMultiplier(address)": "5829b3c7",
					"makerRebates(address)": "5e2a9fa2",
					"maxClaimable()": "f03f80c3",
					"nonces(address)": "7ecebe00",
					"owner()": "8da5cb5b",
					"paused()": "5c975abb",
					"poolBoostMultiplier()": "1bff38cd",
					"poolTradingVolume()": "eab35b77",
					"poolVolumeThreshold()": "64cb6142",
					"recordTrade(uint256,bool)": "e927e7c0",
					"renounceOwnership()": "715018a6",
					"setPaused(bool)": "16c38b3c",
					"stakeLat(uint256)": "0524fb7e",
					"stakeRewardRate()": "ccc8362c",
					"stakedWeight(address)": "58ba9d27",
					"stakes(address)": "16934fc4",
					"takerFees(address)": "011a4568",
					"totalTrades()": "e275c997",
					"tradeEpochDuration()": "f1ea7692",
					"tradeRewardRate()": "f6cc5157",
					"traderStats(address)": "05c50a35",
					"transferOwnership(address)": "f2fde38b",
					"updateLiquidityMultiplier(address,uint256)": "31fdc2ba",
					"vaultAddress()": "430bf08a",
					"vestingSchedules(address,uint256)": "45626bd6",
					"withdrawStake(uint256)": "25d5971f"
				}
			},
			"storageLayout": {
				"storage": [
					{
						"astId": 8,
						"contract": "contracts/LiquidityAccelerationToken.sol:LiquidityAccelerationToken",
						"label": "_owner",
						"offset": 0,
						"slot": "0",
						"type": "t_address"
					},
					{
						"astId": 295,
						"contract": "contracts/LiquidityAccelerationToken.sol:LiquidityAccelerationToken",
						"label": "_status",
						"offset": 0,
						"slot": "1",
						"type": "t_uint256"
					},
					{
						"astId": 1430,
						"contract": "contracts/LiquidityAccelerationToken.sol:LiquidityAccelerationToken",
						"label": "latToken",
						"offset": 0,
						"slot": "2",
						"type": "t_contract(ILatToken)1410"
					},
					{
						"astId": 1432,
						"contract": "contracts/LiquidityAccelerationToken.sol:LiquidityAccelerationToken",
						"label": "tradeRewardRate",
						"offset": 0,
						"slot": "3",
						"type": "t_uint256"
					},
					{
						"astId": 1434,
						"contract": "contracts/LiquidityAccelerationToken.sol:LiquidityAccelerationToken",
						"label": "stakeRewardRate",
						"offset": 0,
						"slot": "4",
						"type": "t_uint256"
					},
					{
						"astId": 1436,
						"contract": "contracts/LiquidityAccelerationToken.sol:LiquidityAccelerationToken",
						"label": "totalTrades",
						"offset": 0,
						"slot": "5",
						"type": "t_uint256"
					},
					{
						"astId": 1438,
						"contract": "contracts/LiquidityAccelerationToken.sol:LiquidityAccelerationToken",
						"label": "epochTradeVolume",
						"offset": 0,
						"slot": "6",
						"type": "t_uint256"
					},
					{
						"astId": 1440,
						"contract": "contracts/LiquidityAccelerationToken.sol:LiquidityAccelerationToken",
						"label": "tradeEpochDuration",
						"offset": 0,
						"slot": "7",
						"type": "t_uint256"
					},
					{
						"astId": 1442,
						"contract": "contracts/LiquidityAccelerationToken.sol:LiquidityAccelerationToken",
						"label": "poolTradingVolume",
						"offset": 0,
						"slot": "8",
						"type": "t_uint256"
					},
					{
						"astId": 1444,
						"contract": "contracts/LiquidityAccelerationToken.sol:LiquidityAccelerationToken",
						"label": "poolVolumeThreshold",
						"offset": 0,
						"slot": "9",
						"type": "t_uint256"
					},
					{
						"astId": 1446,
						"contract": "contracts/LiquidityAccelerationToken.sol:LiquidityAccelerationToken",
						"label": "poolBoostMultiplier",
						"offset": 0,
						"slot": "10",
						"type": "t_uint256"
					},
					{
						"astId": 1449,
						"contract": "contracts/LiquidityAccelerationToken.sol:LiquidityAccelerationToken",
						"label": "earlyWithdrawalFee",
						"offset": 0,
						"slot": "11",
						"type": "t_uint256"
					},
					{
						"astId": 1451,
						"contract": "contracts/LiquidityAccelerationToken.sol:LiquidityAccelerationToken",
						"label": "lastEpochBlock",
						"offset": 0,
						"slot": "12",
						"type": "t_uint256"
					},
					{
						"astId": 1453,
						"contract": "contracts/LiquidityAccelerationToken.sol:LiquidityAccelerationToken",
						"label": "epochDuration",
						"offset": 0,
						"slot": "13",
						"type": "t_uint256"
					},
					{
						"astId": 1456,
						"contract": "contracts/LiquidityAccelerationToken.sol:LiquidityAccelerationToken",
						"label": "inactivitySlashingTime",
						"offset": 0,
						"slot": "14",
						"type": "t_uint256"
					},
					{
						"astId": 1459,
						"contract": "contracts/LiquidityAccelerationToken.sol:LiquidityAccelerationToken",
						"label": "inactivityPenaltyRate",
						"offset": 0,
						"slot": "15",
						"type": "t_uint256"
					},
					{
						"astId": 1466,
						"contract": "contracts/LiquidityAccelerationToken.sol:LiquidityAccelerationToken",
						"label": "maxClaimable",
						"offset": 0,
						"slot": "16",
						"type": "t_uint256"
					},
					{
						"astId": 1468,
						"contract": "contracts/LiquidityAccelerationToken.sol:LiquidityAccelerationToken",
						"label": "paused",
						"offset": 0,
						"slot": "17",
						"type": "t_bool"
					},
					{
						"astId": 1470,
						"contract": "contracts/LiquidityAccelerationToken.sol:LiquidityAccelerationToken",
						"label": "initialized",
						"offset": 1,
						"slot": "17",
						"type": "t_bool"
					},
					{
						"astId": 1474,
						"contract": "contracts/LiquidityAccelerationToken.sol:LiquidityAccelerationToken",
						"label": "nonces",
						"offset": 0,
						"slot": "18",
						"type": "t_mapping(t_address,t_uint256)"
					},
					{
						"astId": 1478,
						"contract": "contracts/LiquidityAccelerationToken.sol:LiquidityAccelerationToken",
						"label": "lastSignedClaim",
						"offset": 0,
						"slot": "19",
						"type": "t_mapping(t_address,t_uint256)"
					},
					{
						"astId": 1482,
						"contract": "contracts/LiquidityAccelerationToken.sol:LiquidityAccelerationToken",
						"label": "makerRebates",
						"offset": 0,
						"slot": "20",
						"type": "t_mapping(t_address,t_uint256)"
					},
					{
						"astId": 1486,
						"contract": "contracts/LiquidityAccelerationToken.sol:LiquidityAccelerationToken",
						"label": "takerFees",
						"offset": 0,
						"slot": "21",
						"type": "t_mapping(t_address,t_uint256)"
					},
					{
						"astId": 1490,
						"contract": "contracts/LiquidityAccelerationToken.sol:LiquidityAccelerationToken",
						"label": "liquidityBoostMultiplier",
						"offset": 0,
						"slot": "22",
						"type": "t_mapping(t_address,t_uint256)"
					},
					{
						"astId": 1504,
						"contract": "contracts/LiquidityAccelerationToken.sol:LiquidityAccelerationToken",
						"label": "traderStats",
						"offset": 0,
						"slot": "23",
						"type": "t_mapping(t_address,t_struct(TraderStats)1499_storage)"
					},
					{
						"astId": 1516,
						"contract": "contracts/LiquidityAccelerationToken.sol:LiquidityAccelerationToken",
						"label": "stakes",
						"offset": 0,
						"slot": "24",
						"type": "t_mapping(t_address,t_struct(Stake)1511_storage)"
					},
					{
						"astId": 1520,
						"contract": "contracts/LiquidityAccelerationToken.sol:LiquidityAccelerationToken",
						"label": "stakedWeight",
						"offset": 0,
						"slot": "25",
						"type": "t_mapping(t_address,t_uint256)"
					},
					{
						"astId": 1535,
						"contract": "contracts/LiquidityAccelerationToken.sol:LiquidityAccelerationToken",
						"label": "vestingSchedules",
						"offset": 0,
						"slot": "26",
						"type": "t_mapping(t_address,t_array(t_struct(VestingEntry)1529_storage)dyn_storage)"
					},
					{
						"astId": 1537,
						"contract": "contracts/LiquidityAccelerationToken.sol:LiquidityAccelerationToken",
						"label": "vaultAddress",
						"offset": 0,
						"slot": "27",
						"type": "t_address"
					}
				],
				"types": {
					"t_address": {
						"encoding": "inplace",
						"label": "address",
						"numberOfBytes": "20"
					},
					"t_array(t_struct(VestingEntry)1529_storage)dyn_storage": {
						"base": "t_struct(VestingEntry)1529_storage",
						"encoding": "dynamic_array",
						"label": "struct LiquidityAccelerationToken.VestingEntry[]",
						"numberOfBytes": "32"
					},
					"t_bool": {
						"encoding": "inplace",
						"label": "bool",
						"numberOfBytes": "1"
					},
					"t_contract(ILatToken)1410": {
						"encoding": "inplace",
						"label": "contract ILatToken",
						"numberOfBytes": "20"
					},
					"t_mapping(t_address,t_array(t_struct(VestingEntry)1529_storage)dyn_storage)": {
						"encoding": "mapping",
						"key": "t_address",
						"label": "mapping(address => struct LiquidityAccelerationToken.VestingEntry[])",
						"numberOfBytes": "32",
						"value": "t_array(t_struct(VestingEntry)1529_storage)dyn_storage"
					},
					"t_mapping(t_address,t_struct(Stake)1511_storage)": {
						"encoding": "mapping",
						"key": "t_address",
						"label": "mapping(address => struct LiquidityAccelerationToken.Stake)",
						"numberOfBytes": "32",
						"value": "t_struct(Stake)1511_storage"
					},
					"t_mapping(t_address,t_struct(TraderStats)1499_storage)": {
						"encoding": "mapping",
						"key": "t_address",
						"label": "mapping(address => struct LiquidityAccelerationToken.TraderStats)",
						"numberOfBytes": "32",
						"value": "t_struct(TraderStats)1499_storage"
					},
					"t_mapping(t_address,t_uint256)": {
						"encoding": "mapping",
						"key": "t_address",
						"label": "mapping(address => uint256)",
						"numberOfBytes": "32",
						"value": "t_uint256"
					},
					"t_struct(Stake)1511_storage": {
						"encoding": "inplace",
						"label": "struct LiquidityAccelerationToken.Stake",
						"members": [
							{
								"astId": 1506,
								"contract": "contracts/LiquidityAccelerationToken.sol:LiquidityAccelerationToken",
								"label": "amount",
								"offset": 0,
								"slot": "0",
								"type": "t_uint256"
							},
							{
								"astId": 1508,
								"contract": "contracts/LiquidityAccelerationToken.sol:LiquidityAccelerationToken",
								"label": "lastUpdated",
								"offset": 0,
								"slot": "1",
								"type": "t_uint256"
							},
							{
								"astId": 1510,
								"contract": "contracts/LiquidityAccelerationToken.sol:LiquidityAccelerationToken",
								"label": "stakeStart",
								"offset": 0,
								"slot": "2",
								"type": "t_uint256"
							}
						],
						"numberOfBytes": "96"
					},
					"t_struct(TraderStats)1499_storage": {
						"encoding": "inplace",
						"label": "struct LiquidityAccelerationToken.TraderStats",
						"members": [
							{
								"astId": 1492,
								"contract": "contracts/LiquidityAccelerationToken.sol:LiquidityAccelerationToken",
								"label": "tradeCount",
								"offset": 0,
								"slot": "0",
								"type": "t_uint256"
							},
							{
								"astId": 1494,
								"contract": "contracts/LiquidityAccelerationToken.sol:LiquidityAccelerationToken",
								"label": "totalVolume",
								"offset": 0,
								"slot": "1",
								"type": "t_uint256"
							},
							{
								"astId": 1496,
								"contract": "contracts/LiquidityAccelerationToken.sol:LiquidityAccelerationToken",
								"label": "pendingTradeRewards",
								"offset": 0,
								"slot": "2",
								"type": "t_uint256"
							},
							{
								"astId": 1498,
								"contract": "contracts/LiquidityAccelerationToken.sol:LiquidityAccelerationToken",
								"label": "lastClaim",
								"offset": 0,
								"slot": "3",
								"type": "t_uint256"
							}
						],
						"numberOfBytes": "128"
					},
					"t_struct(VestingEntry)1529_storage": {
						"encoding": "inplace",
						"label": "struct LiquidityAccelerationToken.VestingEntry",
						"members": [
							{
								"astId": 1522,
								"contract": "contracts/LiquidityAccelerationToken.sol:LiquidityAccelerationToken",
								"label": "totalReward",
								"offset": 0,
								"slot": "0",
								"type": "t_uint256"
							},
							{
								"astId": 1524,
								"contract": "contracts/LiquidityAccelerationToken.sol:LiquidityAccelerationToken",
								"label": "claimed",
								"offset": 0,
								"slot": "1",
								"type": "t_uint256"
							},
							{
								"astId": 1526,
								"contract": "contracts/LiquidityAccelerationToken.sol:LiquidityAccelerationToken",
								"label": "startTime",
								"offset": 0,
								"slot": "2",
								"type": "t_uint256"
							},
							{
								"astId": 1528,
								"contract": "contracts/LiquidityAccelerationToken.sol:LiquidityAccelerationToken",
								"label": "duration",
								"offset": 0,
								"slot": "3",
								"type": "t_uint256"
							}
						],
						"numberOfBytes": "128"
					},
					"t_uint256": {
						"encoding": "inplace",
						"label": "uint256",
						"numberOfBytes": "32"
					}
				}
			},
			"userdoc": {
				"kind": "user",
				"methods": {
					"claimStakeRewards(uint256)": {
						"notice": "Claims staking rewards based on the staked amount and elapsed time. Applies pool boosts, liquidity boosts, staked weight, and inactivity slashing if applicable. Uses nonce-based replay protection."
					},
					"claimTradeRewards(uint256,bytes)": {
						"notice": "Allows traders to claim accumulated trade rewards after the epoch duration. Uses a nonce and off‑chain EIP‑712 style signature for replay protection."
					},
					"initialize(address,uint256,uint256,uint256,uint256,uint256,uint256,address)": {
						"notice": "Initializes the global state. Can only be called once by the owner."
					},
					"recordTrade(uint256,bool)": {
						"notice": "Records a trade and updates global and per-trader statistics. If a new epoch has started, the epoch trade volume is reset. Also records maker rebates or taker fees."
					},
					"setPaused(bool)": {
						"notice": "Emergency pause function to disable critical functions."
					},
					"stakeLat(uint256)": {
						"notice": "Stakes LAT tokens by transferring them to a treasury vault. The user must approve this contract beforehand. Also updates the staked weight (used for long‑term reward multipliers)."
					},
					"updateLiquidityMultiplier(address,uint256)": {
						"notice": "Admin-only function to update a trader's liquidity boost multiplier."
					},
					"withdrawStake(uint256)": {
						"notice": "Withdraws staked LAT tokens from the treasury vault. If withdrawn before 7 days from staking, an early withdrawal fee is applied."
					}
				},
				"notice": "This contract mimics a Solana Anchor program by implementing epoch‑based trading rewards, off‑chain signature verification, staking (with vesting, weighted rewards, and inactivity slashing), early withdrawal penalties, and a separate treasury vault for staked tokens. It also includes reentrancy protection and an emergency pause.",
				"version": 1
			}
		}
	}
}